:100000000C947C030C949B030C949B030C949B0317
:100010000C949B030C949B030C949B030C949B03E8
:100020000C949B030C949B030C949B030C949B03D8
:100030000C949B030C94FA2A0C949B030C949B0342
:100040000C949B030C949B030C949B030C949B03B8
:100050000C949B030C949B030C949B030C949B03A8
:100060000C949D030C949B030C949B030C949B0396
:100070000C949B030C949B030C949B030C949B0388
:100080000C9429040C949B030C949B0389067C0616
:10009000700662064E0601063B062A0618061F0C6D
:1000A0009B0C70176509650965096509650965098E
:1000B00065090A176718650965096509650965090C
:1000C00065096509650965096509650965096509C0
:1000D00065096509650965096509650965096509B0
:1000E00065096509650965096509650965096509A0
:1000F0006509650965096509650965096509650990
:10010000650965096509650965096509650965097F
:10011000650965096509650965096509650965096F
:10012000650965096509650965096509650965095F
:10013000650965096509650965096509650965094F
:10014000650965096509650965096509650965093F
:10015000650965096509650965096509650965092F
:10016000650965096509EA0B010C2018650965092F
:100170006116D115B915650965096815A0178E179F
:100180003512EE11B4142D14F913E1136509D311CE
:100190002811101165096509EB102B15CC146509A0
:1001A0006509B50BCC0B041565096509DE1431131F
:1001B0001F1365096509800B970BBE0D650965095D
:1001C000B60DC50EAD0E65096509710E0C0EE40D78
:1001D0001C0B330BFB176509650965096509650982
:1001E000650965096509650965096509650965099F
:1001F000650965096509650965096509650965098F
:10020000650965096509650965096509650965097E
:10021000650965096509650965096509650965096E
:10022000650965096509650965096509650965095E
:10023000650965096509650965096509650965094E
:10024000650965096509650965096509650965093E
:10025000650965096509650965096509650965092E
:10026000650965096509650965096509650965091E
:1002700065096509D21687136E13801665096A161B
:100280008A16DD1165096509D913A613801765095A
:1002900065090F137B0F680FC51A6C1A541A2A1AB6
:1002A000001ADF197D190C19F118CD18AE18841831
:1002B0002C1BB21DA71D9C1D911D861D7B1D701D35
:1002C000651D5A1D4F1DBD1D5623292215221522BD
:1002D00015229B179B170522052205229B179B17AA
:1002E000F121F1219B17F121A824A824A824A124FD
:1002F000431F431FA824A8249A24431F431FA82454
:100300009324431F8524CB2ABB2A9D2ABB2A842AF7
:10031000BB2A6B2ABB2A472ABB2ADC2ABB2A50529B
:1003200045535320414E59204B455900556E61624B
:100330006C6520746F2064726177004F48204E4FC7
:100340002120204552524F522100000000424143DB
:100350004B005265626F6F7400646F6E65004545B7
:1003600050524F4D2E2E2E20005245534554544985
:100370004E472E2E2E0000594553210000434E4378
:100380004C002020202045564552595448494E479C
:100390003F202020202000202020205245414C4C8E
:1003A00059204552415345202020200059455321D2
:1003B000000000434E434C0074696D657320746FF8
:1003C00020636F6E6669726D005072657373205999
:1003D0004553206E206D6F726500434C454152209D
:1003E000414C4C2053455454494E47533F00005311
:1003F00050442B00005350442D00463C3E520042D6
:1004000041434B0052756E2053706565643A004D50
:10041000616E75616C2041646A7573746D656E748C
:10042000005B205D204E6F005B205D2059657300EE
:1004300059455300204E4F20005341564500434E2E
:10044000434C0053746F702052656C6561726E731B
:10045000204469723A005B205D20506175736564C9
:10046000005B205D2052756E6E696E670052554EBE
:100470000050415553005341564500434E434C00F4
:100480005374617274204C6F636F6D6F746976651D
:100490003A005B205D2044432054726B204F7574FA
:1004A000707574005B205D204443432054726B20C0
:1004B0004F757470757400444343002044430053E7
:1004C00041564500434E434C005B205D2044697318
:1004D00061626C65005B205D20456E61626C650049
:1004E000454E424C004453424C0053415645004354
:1004F0004E434C0000205550200000444F574E0002
:10050000534C4354004241434B00202B2B200020EE
:100510003E3E20005341564500434E434C00536538
:10052000636F6E64733A20004D6964706F696E7416
:100530002044656C617900202B2B2000203E3E205A
:10054000005341564500434E434C005365636F6E64
:1005500064733A2000456E64706F696E7420446560
:100560006C617900202B2B2000202D2D2000534181
:10057000564500434E434C005365636F6E64733AB7
:1005800020004261636B6C696768742054696D6513
:100590006F757400202B2B2000203E3E200053411D
:1005A000564500434E434C00202B2B2000203E3E5E
:1005B00020004E45585400434E434C00202B2B2026
:1005C00000203E3E20004E45585400534156450001
:1005D000434E434C00202B2B2000203E3E20005356
:1005E00041564500434E434C00002055502000002A
:1005F000444F574E00534C4354004241434B00007C
:10060000205550200000444F574E00534C43540097
:100610004241434B0000205550200000444F574EAC
:1006200000534C435400434E434C004C4F41440054
:10063000004D414E4C0053544F500052554E210036
:10064000434F4E46002853544F5029002A2A204633
:1006500041554C54202A2A00524D503A00535044E0
:100660003A002A44432A004144523A002020777736
:10067000772E69617363616C65642E636F6D2020F2
:1006800000496F7761205363616C656420456E6734
:100690002032303230002053687574746C6520430A
:1006A0006F6E74726F6C6C657220002020202020A9
:1006B000202020202020202020202020202020005A
:1006C0001F1F1F0000001F1F1F1F1F1F1F1F1E1C9B
:1006D00000000000001F1F1F1F1F1F1F1F1F0F07ED
:1006E0001C1E1F1F1F1F1F1F1F1F1F0000000000B9
:1006F000070F1F1F1F1F1F1F11241FBECFEFD0E4A6
:10070000DEBFCDBF14E0A0E0B1E0E4EEFAE600E029
:100710000BBF02C007900D92AA3FB107D9F725E0A1
:10072000AAEFB4E001C01D92AF35B207E1F70E9415
:10073000E3060C9470350C9400001F920F920FB6D4
:100740000F9211240BB60F922F933F934F935F9309
:100750006F937F938F939F93AF93BF93EF93FF9389
:10076000209178003091790080910C0591E0980FEC
:1007700090930C05E82FF0E0EE0FFF1FEE0FFF1F28
:10078000E450FB4F4081518162817381420F531FBE
:10079000611D711D4083518362837383943049F1DD
:1007A0008B5F982F977080917C00807F892B80933E
:1007B0007C008091FB0487FD25C08091110584FD9C
:1007C00005C080917A00806480937A00FF91EF9158
:1007D000BF91AF919F918F917F916F915F914F9159
:1007E0003F912F910F900BBE0F900FBE0F901F9057
:1007F00018958091FB048F5F8093FB0410920C0589
:1008000094E0D1CFACEFB4E080E090E04D915D9109
:100810006D917C91139727E076956795579547954D
:100820002A95D1F7FC01EE0FFF1FEF5DFA4F5183C0
:1008300040831D921D921D921D9201968430910558
:1008400029F71092FB0480911105806180931105B6
:10085000B4CF1F920F920FB60F9211248F939F93D4
:100860008091FA048F5F8093FA0480FF05C0909115
:1008700011059160909311058A30C8F01092FA0426
:10088000809114059091150501969093150580931C
:10089000140580911205909113050196909313050C
:1008A00080931205809111058660809311059F91B8
:1008B0008F910F900FBE0F901F90189587B1837C7A
:1008C00087B988B18C6388B98AB18F738AB98BB1C3
:1008D000806C8BB987B18F7387B988B1806C88B908
:1008E00052985A9A089529B186B1807C90E0880F79
:1008F000991F880F991F207C822B26B12C7330E022
:1009000035952795359527954A9907C040E050E0E1
:10091000822B932B842B952B089540E250E0822B61
:10092000932B842B952B089514BEA8959EE088E107
:100930000FB6F894A895809360000FBE9093600066
:1009400010921105A895E6E3F5E086E0DF011D921F
:100950008A95E9F716820E945E04249A2C9A8CE00C
:100960000E9481270E94372760E080E00E940F27C5
:10097000109295001092940082E597E09093990070
:1009800080939800109290008BE0809391001092D9
:100990009200C19AE1E7F0E080818260808310924A
:1009A000150510921405109213051092120584E497
:1009B00080937C00EAE7F0E087E1808310927B007F
:1009C00080EF80937E008081886D80837894089585
:1009D0000F931F93CF93DF93CDB7DEB768970FB612
:1009E000F894DEBF0FBECDBF0E94F92760E080E023
:1009F0000E940F2760E080E00E940F278E010F5FAA
:100A00001F4F88E1F80111928A95E9F71F921F9212
:100A10001F9281E08F9383E091E09F938F931F93C8
:100A20000F930E947132C8010E945F2761E080E04D
:100A30000E940F2786E996E00E946F2762E080E01F
:100A40000E940F2781E896E00E946F2763E080E014
:100A50000E940F278CE696E00E946F270FB6F8944D
:100A6000DEBF0FBECDBF8EE1A8953FE799EAE3E078
:100A700031509040E040E1F700C000008150A1F704
:100A80000E94372768960FB6F894DEBF0FBECDBF21
:100A9000DF91CF911F910F910895CF92DF92EF9246
:100AA000FF920F931F93CF93DF9300D000D0CDB769
:100AB000DEB76B837C830B811C81025E1F4F29EFA5
:100AC000240F29834B504A83982F9470D92ECC241D
:100AD000C394E82FEC70EE2E8870F82EEB81FC8129
:100AE00080819181009739F024812B30A9F12C303D
:100AF00039F12A30A9F08B819C8105969C838B83E8
:100B00008017910759F70F900F900F900F90DF917A
:100B1000CF911F910F91FF90EF90DF90CF900895AC
:100B2000F981F230F8F0FA81F23028F7EB81FC819C
:100B30002381222301F3138260E00E947C28DBCF13
:100B4000F981F23080F7EE2071F3EB81FC81C382F2
:100B500061E00E947C28CFCFF981F23020F7DD20C0
:100B600011F3F3CFFF20F9F2F0CF9F92AF92BF9233
:100B7000CF92DF92EF92FF920F931F93CF93DF9369
:100B800000D01F92CDB7DEB7D82E6A837B83EA8070
:100B9000FB802EE1E20EF11CBB24BA94B40E807CE3
:100BA000A82E99249394455049839D2D9074C92E65
:100BB000AA81BB818D919C911197009711F1149698
:100BC000EC910E2F10E0F8013197E930F105C8F4EF
:100BD000EA5BFF4F0C94FD31CC2039F0AA81BB8138
:100BE00013969C9261E00E947C28AA2021F1AA81A0
:100BF000BB8113969C92139761E08D919C910E940A
:100C00007C288A819B8105969B838A83E816F90656
:100C100079F60F900F900F90DF91CF911F910F9168
:100C2000FF90EF90DF90CF90BF90AF909F9008958E
:100C3000F981F230D0F2B1E0BB1518F3EA81FB8103
:100C400083818823F1F2138260E0808191810E9488
:100C50007C28D7CFF981F23008F4BECFA1E0AB15E4
:100C600080F2EA81FB812381222359F2138260E022
:100C70000E947C28E3CFF981F23008F457C0B1E03C
:100C8000BB1508F4BECFEA81FB812381222309F43E
:100C9000B8CF138260E00E947C28B3CFAA2009F469
:100CA000B0CFEA81FB816381692563830E947C2840
:100CB0008A819B8105969B838A83E816F90609F051
:100CC00077CFA7CFCC2009F49CCFAA81BB81139604
:100CD0006C911397692513966C930E947C2891CF91
:100CE000D7FCDFCF8A819B8105969B838A83E81698
:100CF000F90609F05DCF8DCFD7FC22C0CC2009F4D6
:100D000080CFAA81BB8113969C9261E00E947C28CF
:100D100078CFD7FC0EC0CC2009F473CFAA81BB8159
:100D200013961C9260E00E947C286BCFD7FEA7CF61
:100D3000E8CFEA81FB81938261E00E947C2861CF49
:100D4000EA81FB81138260E00E947C285ACFAF9237
:100D5000BF92CF92DF92EF92FF920F931F93CF93A8
:100D60005C016B017A01890163E080E00E940F273A
:100D7000C4E180E20E943D27C150D9F763E080E0E2
:100D80000E940F27C5010E946F2763E085E00E9443
:100D90000F27C6010E946F2763E08AE00E940F2799
:100DA000C7010E946F2763E08FE00E940F27C801F0
:100DB000CF911F910F91FF90EF90DF90CF90BF9058
:100DC000AF900C946F27CF93DF93CDB7DEB7CC5A9B
:100DD000D1090FB6F894DEBF0FBECDBF83E0CD576B
:100DE000DF4F8883C358D040CC57DF4F8883C45827
:100DF000D040CB57DF4F8883C558D040CA57DF4F0C
:100E00008883C658D0409E01285C3F4FC557DF4FAE
:100E100039832883CB58D04089E1D901E82F1D922E
:100E2000EA95E9F729513109C757DF4F39832883FC
:100E3000C958D040D9011D928A95E9F70E949404BF
:100E4000CE018A599F4F0E94D82B81E0AC968FAF7C
:100E5000AC97BE01685C7F4FA9968FADA9970E94A1
:100E6000812CFE0131967F0110E0B701812F0E9495
:100E700036301F5FF5E0EF0EF11C1630B1F7A79684
:100E80008FADA79781110C946A260E942D298E019F
:100E90000F5F1F4FD8018D919C911197009731F0F2
:100EA00014962C91149721110C949D230B5F1F4FC6
:100EB000C757DF4F28813981C958D04020173107E3
:100EC00049F70E94E804A895AA968FADAA97AC9618
:100ED0008FAFAC978BAD34E6839FC0011124E096B1
:100EE0009FAF8EAFE097E4968FADE4976AE0869F60
:100EF000A0011124CC56DF4F59834883C459D040F8
:100F000080E090E0DC01AA24AA94BA2CC157DF4FFC
:100F100019821882CF58D040CF56DF4F19821882DD
:100F2000C159D040CD56DF4F1882C359D040C85563
:100F3000DF4F1882C85AD040C955DF4F1882C75AB0
:100F4000D040CA55DF4F1882C65AD040CB55DF4F2C
:100F50001882C55AD040212C312CC12CC357DF4FE9
:100F60001882CD58D040C256DF4F1882CE59D0409B
:100F7000C755DF4F1882C95AD040412CC156DF4FA8
:100F800019821882CF59D040CF55DF4F198218826D
:100F9000C15AD040C856DF4F19821882C859D04074
:100FA000CA56DF4F19821882C659D040CD55DF4F3F
:100FB00019821882C35AD040C257DF4F1882CE58C8
:100FC000D040C656DF4F1882CA59D040C556DF4FB1
:100FD0001882CB59D040C456DF4F1882CC59D0402C
:100FE000C356DF4F1882CD59D040C655DF4F188207
:100FF000CA5AD040D12CFE01EF5AFF4FC957DF4FDC
:10100000F983E883C758D04088248394912C5D2CC1
:101010000196A11DB11D80930D0590930E05A0931F
:101020000F05B0931005A8958091110580FD2AC287
:10103000C357DF4F3881CD58D040832F90E08D309B
:10104000910510F40C947F18C357DF4F1882CD58C8
:10105000D0408091110582FF7CC0809111058B7F6B
:10106000809311052114310411F00C94671AE49651
:101070008FADE497CD56DF4F7881C359D040882398
:1010800011F40C94A01B71110AC0CC56DF4F88815B
:101090009981C459D040892B11F00C948F26249A41
:1010A0002C98AC963FADAC97332311F40C945E1B97
:1010B000AE961FAE1EAEAE9740E020E0E0E0F0E05E
:1010C000A7968FADA79781110C949A1BC357DF4F3A
:1010D0008881CD58D0408550863010F40C94561B32
:1010E000C357DF4F8881CD58D0408150823010F4F3
:1010F0000C94561B31110C94561BE0968EAD9FAD8F
:10110000E097E817F90711F40C942A232996ECAC20
:10111000FDAC0EAD1FAD299761968CAD9DADAEAD0A
:10112000BFAD6197E82AF92A0A2B1B2BF7FF02C0F3
:101130000C94ED1B21968CAD9DADAEADBFAD21974E
:10114000E82AF92A0A2B1B2B6AAD88AD99AD0E94BB
:101150008E290E94F0298091110581FF44C280915F
:10116000110584FF40C28091250590912605EBE092
:10117000E89FA001E99F500D11249A01A3E4B8E073
:101180000E940632481B590B56954795840F951FB0
:10119000AC01529542954F7045275F704527CD555C
:1011A000DF4F59834883C35AD040809121059091E5
:1011B0002205E89FA001E99F500D11249A010E9489
:1011C0000632481B590B56954795840F951FBC0155
:1011D000729562956F7067277F706727CA56DF4FD9
:1011E00079836883C659D040809123059091240566
:1011F000E89FA001E99F500D11249A010E94063238
:10120000481B590B56954795840F951FDC01B295E5
:10121000A295AF70AB27BF70AB27C856DF4FB9831D
:10122000A883C859D040809127059091280544E6AD
:10123000489F9001499F300D112436952795A1E8CC
:10124000BBE40E9406320024880F991F001C880FFF
:10125000991F001C892F902DCF55DF4F99838883CC
:10126000C15AD040A7968FADA797882311F40C944C
:10127000C21BCA56DF4FE881F981C659D040C1561A
:10128000DF4FF983E883CF59D040C856DF4F28811C
:101290003981C859D040E217F30730F4C156DF4F07
:1012A00039832883CF59D040809111058D7E80935A
:1012B000110580917A00806480937A0021E08C2D62
:1012C00090E08D3F910508F495C160E080E00E94B8
:1012D0000F278BE393E00E946F2761E083E00E9479
:1012E0000F278CE293E00E946F271F92CF9289E52F
:1012F00093E09F938F931F9285E18F93C857DF4FA1
:10130000B881C858D040BF93C957DF4FE881C7584C
:10131000D040EF930E94343262E083E00E940F27B6
:10132000CE018F5A9F4F0E945F2763E083E00E94A7
:101330000F278EE193E00E946F27852D8F700FB6E7
:10134000F894DEBF0FBECDBF11F00C948221512C5A
:1013500080911205909113050A9708F0A8C1809119
:101360000D0590910E05A0910F05B091100550CE7E
:1013700053FE02C00C940C2452FC02C00C94362480
:10138000C655DF4FF881CA5AD0408F2F90E0FC013C
:10139000EE0FFF1F8E0F9F1FFC01E959FB4F82814B
:1013A000882311F40C94FE25A7968FADA797811181
:1013B00002C00E94E429C256DF4F8881CE59D04036
:1013C0008F5FA9968FAFA997CE018A599F4F0E9430
:1013D0000E2CBE01685C7F4FA9968FADA9970E9425
:1013E000812CAA968FADAA97882311F40C94152608
:1013F00081E0AC968FAFAC97809112059091130568
:101400000A9710F40C9459268091120590911305B7
:101410000A97909313058093120570910D05C65697
:10142000DF4F7883CA59D04080910E05C556DF4FF3
:101430008883CB59D04090910F05C456DF4F9883D5
:10144000CC59D040A0911005C356DF4FA883CD5989
:10145000D04021E030E040E050E020930D05309393
:101460000E0540930F0550931005A8958091110526
:10147000C357DF4F1882CD58D040C12C80FD02C029
:101480000C94C41A809111058E7F809311050E94DF
:1014900073048A259B25C157DF4F48815981CF5856
:1014A000D040CF56DF4F28813981C159D0404227E3
:1014B0005327C157DF4F28813981CF58D04020951D
:1014C0003095BC0164237523CF56DF4F7983688341
:1014D000C159D040DC01A223B323C157DF4FB983E8
:1014E000A883CF58D0409B012A2B3B2B20953095C9
:1014F00082239323A826B9265A2C50948F70582201
:10150000FE01ED57FF4F80E090E055E049E1252DC9
:1015100030E0082E02C0359527950A94E2F720FFA7
:1015200070C040839401082E02C0220F331F0A941A
:10153000E2F72A213B21232B09F061C028E1208317
:10154000019631968430910511F7552041F1CC5622
:10155000DF4F88819981C459D040892B11F00C94B8
:10156000E21BE4968FADE497882311F40C94E21B00
:10157000A52DA07F5A2E249A2C9AE4968FADE4973D
:101580002AE0829FF0011124CC56DF4FF983E883D3
:10159000C459D040CD56DF4F1882C359D040C257EE
:1015A000DF4F8881CE58D040A5FC02C00C94BF1BF1
:1015B0008F7DA6FC02C00C94BC1B8F77A7FC02C0D9
:1015C0000C94B91B8F7BB0FC02C00C94B61B877FB8
:1015D000B1FC02C00C94AE1B8B7FC257DF4F8883D7
:1015E000CE58D04025CD20E08C2D90E08D3F910548
:1015F00008F06BCEFC01E15BFF4F0C94FD314083A2
:101600009FCF9401082E02C0220F331F0A94E2F7E5
:101610002A213B21232B99F7208121110C94A52607
:101620009C012C5F3F4FB40102C0660F771F2A95C3
:10163000E2F7562A508384CF0E943727AB964FACEF
:10164000AB9760E080E00E940F2783E494E00E9463
:101650006F272EE334E049E354E064E374E080E371
:1016600094E00E94A70661E080E00E940F2788E2D4
:1016700094E00E946F2762E080E00E940F2781E2E1
:1016800094E00E946F27442011F40C94041D61E043
:1016900081E00E940F278AE20E943D271BE9C12EAC
:1016A00080911205909113050A9708F458CE809105
:1016B0001205909113050A979093130580931205D4
:1016C00030910D05C656DF4F3883CA59D04040913E
:1016D0000E05C556DF4F4883CB59D04050910F05BA
:1016E000C456DF4F5883CC59D04060911005C35683
:1016F000DF4F6883CD59D04080E090E0DC0188CC9A
:101700000E943727A8964FACA89760E080E00E941F
:101710000F278EED92E00E945F272FEE34E04AEE15
:1017200054E065EE74E080EE94E00E94A70661E06C
:1017300080E00E940F2785ED94E00E946F2762E011
:1017400080E00E940F2789EC94E00E946F274420DC
:1017500011F40C940A1D61E081E00E940F278AE2D7
:101760000E943D274EE8C42EF3CD0E943727AA964B
:101770004FACAA9760E080E00E940F2780E894E0D9
:101780000E946F272BE734E046E754E061E774E0FE
:101790008DE694E00E94A70661E080E00E940F279A
:1017A00081E694E00E946F2762E080E00E940F27AC
:1017B00086E594E00E946F27442011F40C940D1DDF
:1017C00062E081E00E940F278AE20E943D2784E8C0
:1017D000C82EBECD0E943727A7964FACA79760E0D2
:1017E00080E00E940F278DEE92E00E945F2724EC9C
:1017F00034E04FEB54E06BEB74E087EB94E00E9435
:10180000A70661E080E00E940F2784EA94E00E942E
:101810006F2762E080E00E940F2782E994E00E9437
:101820006F27442011F40C94071D62E081E00E94B0
:101830000F278AE20E943D2726E6C22E89CD0E940C
:10184000372760E080E00E940F2787E696E00E943D
:101850006F27A7968FADA79781110C944E218AAD63
:10186000882311F40C942A2188AD99AD99279F9370
:101870008F9380ED91E09F938F931F9285E18F93DB
:10188000C857DF4F7881C858D0407F93C957DF4F82
:101890008881C758D0408F930E9434320FB6F89495
:1018A000DEBF0FBECDBFCE018F5A9F4F0E945F2774
:1018B00061E080E00E940F278DE596E00E946F278F
:1018C00062E080E00E940F2788E596E00E946F2783
:1018D0009CAD8DEC989F812D1124869586958695DB
:1018E0003AE0839F901911241F929F931F928F9328
:1018F0008BED91E09F938F931F9285E18F93C85753
:10190000DF4F4881C858D0404F93C957DF4F5881A7
:10191000C758D0405F930E943432CE018F5A9F4FF8
:101920000E945F2762E08AE00E940F270FB6F894BA
:10193000DEBF0FBECDBF60E089E00E940F27C25717
:10194000DF4F7881CE58D04075FD02C00C94C81D81
:101950008CE496E00E946F2761E084E00E940F27EC
:10196000AE962EAD3FADAE97C90137FF02C00C94C5
:10197000E62064E670E00E94C73137FF02C00C9495
:10198000D61E86E47F936F931F928F938CEF91E026
:101990009F938F931F9285E18F93C857DF4F588194
:1019A000C858D0405F93C957DF4F6881C758D040AF
:1019B0006F930E943432CE018F5A9F4F0E945F274F
:1019C00061E089E00E940F270FB6F894DEBF0FBEDA
:1019D000CDBFAC968FADAC9781110C94C41EE09630
:1019E0002EAD3FADE097C90137FF02C00C948821AE
:1019F00064E670E00E94C73137FF02C00C941721E3
:101A000086E47F936F931F928F9383E092E09F937E
:101A10008F931F9285E18F93C857DF4F9881C858E5
:101A2000D0409F93C957DF4FA881C758D040AF938C
:101A30000E943432CE018F5A9F4F0E945F270FB60B
:101A4000F894DEBF0FBECDBF61E080E10E940F279A
:101A5000C357DF4FF881CD58D0408F2F90E0FC0165
:101A60003197EC30F10510F40C944A1D85E0E5E661
:101A7000F3E0DE01AC58BF4F01900D928A95E1F77B
:101A8000CE018C589F4F0E945F2762E08AE00E943F
:101A90000F278CE40E943D27C257DF4F2881CE5884
:101AA000D04027FF02C00C94D31E8DE20E943D2738
:101AB000CB55DF4F3881C55AD040303811F40C94E3
:101AC0009321CA55DF4F5881C65AD040503811F47F
:101AD0000C9471208FE30E943D278FE20E943D27E6
:101AE00082E50E943D27C257DF4F6881CE58D04023
:101AF00066FD02C00C94351E8AE20E943D27CB553C
:101B0000DF4F7881C55AD040703411F40C948E2187
:101B1000CA55DF4F8881C65AD040803411F40C94E6
:101B200076208FE30E943D27A8968FADA89781115C
:101B30000C94A21EAC968FADAC97882311F40C9434
:101B4000461D4BE356E0A7968FADA797882311F467
:101B50000C94421D80E396E020E436E061E376E0F9
:101B60000E94A70662E0C62E512CF2CBB2E9CB2E22
:101B7000C256DF4F1882CE59D040EACB50FE02C089
:101B80000C94FB1E51FE02C00C940F23852D8C700B
:101B900011F40C94EA2352FE11C081E0411001C0FF
:101BA00080E0A8969FADA897981741F0A8968FAFB0
:101BB000A897CE018A599F4F0E940E2C0E9437276A
:101BC0003AE0C32E512CC4CB852D817111F40C94B5
:101BD000A31F99E0491611F40C94CC23941510F42A
:101BE0000C9438238CEF840D843010F00C94B923BE
:101BF00027E0241940E050E06CEF77E0EB968EADE3
:101C00009FADEB970E94B330EB969FAF8EAFEB97F3
:101C100077E9C72E512C9CCB61E080E00E940F2712
:101C2000EE968FADEE970E94CA2BEC962FADEC97F7
:101C3000222311F40C94021F29E831E09F938F9323
:101C40003F932F93EB968FADEB978F93EA968FADE3
:101C5000EA978F931F92C256DF4F3881CE59D040FA
:101C60003F9381E592E09F938F931F9285E18F933D
:101C7000C857DF4F4881C858D0404F93C957DF4FEE
:101C80005881C758D0405F930E943432CE018F5A9A
:101C90009F4F0E945F2762E080E00E940F278BEA3F
:101CA00096E00E946F2762E0842D0E940F270FB6F6
:101CB000F894DEBF0FBECDBF79E0471611F40C9447
:101CC000B221741510F40C941A218CEF840D843019
:101CD00010F00C945C228EE50E943D27A8E9CA2EE4
:101CE00037CB0E943727C256DF4FE881CE59D0400C
:101CF0008E2F90E0FC01EE0FFF1FEE0FFF1FE80F8D
:101D0000F91F21E030E02C0F3D1FE20FF31F85E0AB
:101D1000DE01A758BF4F01900D928A95E1F784E14B
:101D2000EDE3F2E0DE01AF5ABF4F01900D928A95CC
:101D3000E1F7CE018F5A9F4F0E945F2724EE35E0D6
:101D40004FED55E06AED75E085ED95E00E94A70640
:101D500017E9C12E04E0402EFBCA852D817111F4D4
:101D60000C948C1FC256DF4FA881CE59D040AA23B5
:101D700011F40C94E821A150C256DF4FA883CE592C
:101D8000D04092E9C92E512CE3CA0E943727C2568F
:101D9000DF4FB881CE59D040B53010F00C94D91E29
:101DA00060EF75E0B1110C94DB1E89EE95E02AEF2F
:101DB00035E045EF55E00E94A7068BEAC256DF4F9B
:101DC000E881CE59D040E89FD12C11248D2D8695E5
:101DD000D82EDD0CD80EC12CF5E0FD1508F470C02E
:101DE000C256DF4F2881CE59D0406C2D80E0D216EC
:101DF00011F40C949E260E940F2780E20E943D273A
:101E0000ED2CF12C8701000F111F000F111FF8019D
:101E1000EE0DFF1D41E050E04C0F5D1FE40FF51F7C
:101E20008381882311F40C949E1E63E5662EF801CD
:101E3000EE0DFF1D61E070E06C0F7D1FE60FF71FD8
:101E40008281882311F40C949A1E43E5742E0E0DA2
:101E50001F1D81E090E08C0F9D1F080F191FD801F6
:101E600014968C910E94CA2B1F926F921F927F92A0
:101E70009F938F93F80181818F9380818F93FF923D
:101E8000EF9225E232E03F932F931F9255E15F934B
:101E9000C857DF4F6881C858D0406F93C957DF4F8C
:101EA0007881C758D0407F930E943432CE018F5A38
:101EB0009F4F0E945F270FB6F894DEBF0FBECDBFC5
:101EC000C394D39493E0C91287CF23E9C22E40CAAA
:101ED00053FE02C00C947B2180911405909115054E
:101EE000242D30E02817390711F40C941E234BEFF2
:101EF000C42E512C2DCA8091140590911505482EA1
:101F0000A7968FADA79781110C94DF1E0EEB11E001
:101F1000C257DF4F4881CE58D04045FF02C006EC83
:101F200011E060E080E00E940F27C356DF4F588128
:101F3000CD59D0405F93C456DF4F6881CC59D04013
:101F40006F93C556DF4F7881CB59D0407F93C656EB
:101F5000DF4F8881CA59D0408F931F930F93CD557F
:101F6000DF4F28813981C35AD040ADECBCEC0E94D0
:101F70000632969587959695879596958795AC01A7
:101F8000440F551F9C01220F331F220F331F220FB6
:101F9000331F240F351FCD55DF4FA881B981C35A98
:101FA000D040A21BB30B9D013F93AF939F938F93A0
:101FB00084E093E09F938F931F9215E11F93C8577E
:101FC000DF4FB881C858D040BF93C957DF4FE88171
:101FD000C758D040EF930E943432CE018F5A9F4FA2
:101FE0000E945F2761E080E00E940F27CF55DF4FFE
:101FF00028813981C15AD040369527953695279545
:10200000ABE7B4E10E9406329695879544E6489F77
:102010009001499F300D1124CF55DF4F48815981E0
:10202000C15AD040421B530B9A013F934F939F9349
:102030008F93C856DF4F28813981C859D040ADEC05
:10204000BCEC0E9406329695879596958795969555
:102050008795AC01440F551F9C01220F331F220F9F
:10206000331F220F331F240F351FC856DF4F6881DF
:102070007981C859D040621B730B9B013F936F93CA
:102080009F938F93CA56DF4F28813981C659D0401C
:102090000E94063296958795969587959695879591
:1020A000AC01440F551F9C01220F331F220F331F19
:1020B000220F331F240F351FCA56DF4FA881B98165
:1020C000C659D040A21BB30B9D013F93AF939F9382
:1020D0008F938DE193E09F938F931F921F93C85727
:1020E000DF4FB881C858D040BF93C957DF4FE88150
:1020F000C758D040EF930E9434320FB6F894DEBF39
:102100000FBECDBFCE018F5A9F4F0E945F2762E066
:1021100080E00E940F27C257DF4F3881CE58D04051
:1021200032FD02C00C94331F2AEC31E0C257DF4F5E
:102130004881CE58D04043FD02C00C942F1F8DEC37
:1021400091E0C257DF4F5881CE58D04056FD02C0B3
:102150000C94221F52E5C257DF4F6881CE58D04001
:1021600067FF02C00C942C1F4DE23F932F939F9367
:102170008F931F925F931F924F931F921F921F92F4
:1021800081E08F931F9283E88F9387E28F938BE197
:102190008F9381E493E09F938F931F9285E18F93B8
:1021A000C857DF4F7881C858D0407F93C957DF4F59
:1021B0008881C758D0408F930E943432CE018F5A05
:1021C0009F4F0E945F270FB6F894DEBF0FBECDBFB2
:1021D0000CEFC02EBDC80E94372785E595E00E9410
:1021E0006F2761E081E00E940F278BE495E00E9459
:1021F0006F27E296AFADE297C755DF4FA883C95A64
:10220000D04026E435E041E455E06CE375E087E337
:1022100095E00E94A706EEE7CE2EFAE04F2E98C872
:10222000852D817111F40C94EE1FC256DF4FB881D9
:10223000CE59D040BB2311F40C940A23B150C2569E
:10224000DF4FB883CE59D04049E7C42E512C80C807
:102250000E943727C256DF4F5881CE59D0405E309A
:1022600010F00C94E31E6CE176E051110C94E51E25
:1022700085E196E026E236E041E256E00E94A706BC
:102280008BEAC256DF4F6881CE59D040689FE12C5F
:102290001124E6948E2D880FE80EDD24D394DE0CF5
:1022A00000E010E0F12C862F90E0C555DF4F9983B8
:1022B0008883CB5AD0403701AFEF6A1A7A0AC02E12
:1022C000C8018E0D9F1D8E30910508F061C0C55567
:1022D000DF4FE881F981CB5AD040E817F90711F4B4
:1022E0000C942123BE01615E7F4F8D2D0E94812CB5
:1022F0006C2D81E00E940F279301200F311FA996BA
:102300008FADA99790E08217930711F40C94E32006
:10231000F0E29BA14DEC949F812D1124869586952A
:1023200086955AE0859F90191124EAA16F8D78A1B6
:1023300049A1442311F40C94641E49E151E01F9219
:102340009F931F928F931F92EF937F936F931F9290
:10235000FF933F932F935F934F931F9265E16F938A
:10236000C857DF4F7881C858D0407F93C957DF4F97
:102370008881C758D0408F930E943432CE018F5A43
:102380009F4F0E945F270FB6F894DEBF0FBECDBFF0
:102390000F5F1F4FD3940330110509F090CF5AE718
:1023A000C52E0C94A809A7968FADA797882311F482
:1023B0000C940C1FC12C0C94A809852D817111F46B
:1023C0000C9436208BAD843610F00C94DA228F5F9B
:1023D0008BAFE1EFCE2E512C0C94A80962E080E087
:1023E0000E940F278BEA96E00E946F27BE01625879
:1023F0007F4F7B0100E010E095E1C92ED02ED70180
:102400008D917D010F5F1F4F8D3110F40C94101CC6
:1024100045E150E062EB72E0CE018F5A9F4F0E947F
:10242000253272E0D71611F40C942F1C7D1510F094
:102430000C944A1C93E0D91611F40C94381EA4E0B5
:10244000DA120C944F1E61E081E10E940F27CE0149
:102450008F5A9F4F0E945F2724E0421611F40C947C
:10246000B22693E7C92E0C94A8090E9437271F9221
:10247000C256DF4FB881CE59D040BF938BE992E06E
:102480009F938F931F9285E18F93C857DF4FE88109
:10249000C858D040EF93C957DF4FF881C758D04094
:1024A000FF930E943432CE018F5A9F4F0E945F27C4
:1024B00027EB35E042EB55E06DEA75E088EA95E000
:1024C0000E94A7068DE1EF968FAFEF97C158DF4FBF
:1024D0008883CF57D040C058DF4F8883C058D04042
:1024E000CF57DF4F8883C158D040CE57DF4F888306
:1024F000C258D0400CA91DA92EA93FA90FB6F89427
:10250000DEBF0FBECDBF80E090E004C001968D31EC
:10251000910579F0B901A801082E04C07695679558
:10252000579547950A94D2F740FFF0CFEF968FAFBB
:10253000EF97CCA0DDA0EEA0FFA080E090E004C06B
:1025400001968D31910559F1282FB701A601082E6A
:1025500004C076956795579547950A94D2F740FF42
:10256000EFCFC158DF4F8883CF57D04081E0820F33
:102570008D3121F414C08F5F8D3189F0B701A60130
:10258000082E04C076956795579547950A94D2F71B
:1025900040FFF1CFC058DF4F8883C058D040C8A457
:1025A000D9A4EAA4FBA480E090E006C001968D3196
:1025B000910511F40C948020282FB701A601082E54
:1025C00004C076956795579547950A94D2F740FFD2
:1025D000EDCFCF57DF4F8883C158D04081E0820FC5
:1025E0008D3139F40C94C6268F5F8D3111F40C9423
:1025F0007B20B701A601082E04C0769567955795F4
:1026000047950A94D2F740FFEFCFCE57DF4F88832C
:10261000C258D04032E7C32E412C0C94A8090E9426
:1026200037272DE433E04CE453E06BE473E08AE4B5
:1026300093E00E94A706ABEFCA2E0C94A809852D43
:10264000817111F40C94BC1F86EF840D833010F45B
:102650000C947F2368E8C62E7AE0472E512C0C9408
:10266000A80962E080E00E940F278BEA96E00E94B2
:102670006F2761E08AE00E940F271F92C755DF4F46
:102680006881C95AD0406F9388ED92E09F938F93F1
:102690001F9285E18F93C857DF4F7881C858D0408B
:1026A0007F93C957DF4F8881C758D0408F930E94CE
:1026B0003432CE018F5A9F4F0E945F2762E0842DF3
:1026C0000E940F278EE50E943D270FB6F894DEBFCB
:1026D0000FBECDBF89E8C82E0C94A809852D817145
:1026E00011F40C941F20C755DF4F5881C95AD040B0
:1026F0005A3F10F00C946522565FC755DF4F588340
:10270000C95AD0400CEEC02E512C0C94A80961E09F
:102710008AE00E940F27C755DF4FE881C95AD04091
:10272000E1110C94CB1F85E0E3EDF2E0DE01AF5A3E
:10273000BF4F01900D928A95E1F7CE018F5A9F4FBE
:102740000E945F278DEEC82E0C94A80960E080E0FF
:102750000E940F278AED93E00E946F2761E04420DA
:1027600011F40C946E1F81E00E940F2789EC93E016
:102770000E946F2762E081E00E940F2788EB93E0C0
:102780000E946F2761E08BE00E940F2780E3840D99
:102790000E943D2723EB33E042EB53E061EB73E013
:1027A0008CEA93E00E94A70687EFC82E512C0C9468
:1027B000A8090E94372796EFC92E25E0422E0C94D7
:1027C000A809852D817111F40C940620EEE7F0E044
:1027D000EC0FFD1FE40DF11D808190E001966EE18C
:1027E00070E00E94C731808355E7C52E512C0C94B0
:1027F000A80962E080E00E940F278BEA96E00E9421
:102800006F278E0102581F4FF12C75E1E72ED8017A
:102810008D918D018D3110F40C94251D45E150E012
:1028200062EB72E0CE018F5A9F4F0E94253271E019
:1028300061E0F7120C94101D89E00E940F27CE0171
:102840008F5A9F4F0E945F2781E0481611F40C9425
:10285000BC2686E7C82E0C94A8090E9437271F9231
:10286000C256DF4F4881CE59D0404F938CEB92E057
:102870009F938F931F9285E18F93C857DF4F5881A5
:10288000C858D0405F93C957DF4F6881C758D040C0
:102890006F930E943432CE018F5A9F4F0E945F2760
:1028A00023EA35E04EE955E069E975E084E995E011
:1028B0000E94A7068DE1EF968FAFEF97C158DF4FCB
:1028C0008883CF57D040C058DF4F8883C058D0404E
:1028D000CF57DF4F8883C158D040CE57DF4F888312
:1028E000C258D0400CA51DA52EA53FA50FB6F89443
:1028F000DEBF0FBECDBF80E090E004C001968D31F9
:10290000910579F0B901A801082E04C07695679564
:10291000579547950A94D2F740FFF0CFEF968FAFC7
:10292000EF9708A919A92AA93BA980E090E006C061
:1029300001968D31910511F40C948520B901A801FF
:10294000082E04C076956795579547950A94D2F757
:1029500040FFEECFC158DF4F8883CF57D040F5E717
:10296000CF2E412C0C94A809852D817111F40C9463
:102970001320EEE7F0E0EC0FFD1FE40DF11D808168
:1029800090E001966EE170E00E94C731808302E71B
:10299000C02E512C0C94A809852D817111F40C9432
:1029A000452086EF840D833010F40C946623AEE747
:1029B000CA2EBAE04B2E512C0C94A8090E9437273E
:1029C00088E295E00E946F2761E081E00E940F2776
:1029D0008EE195E00E946F27E3965FADE397C755C0
:1029E000DF4F5883C95AD04029E135E044E155E032
:1029F0006FE075E08AE095E00E94A70698E8C92E8E
:102A00002AE0422E0C94A80950FE02C00C94E91E44
:102A100051FE02C00C940323852D8C7011F40C948C
:102A2000F72352FE11C081E0411001C080E0AA9658
:102A30009FADAA97981741F0AA968FAFAA97CE019B
:102A40008A599F4F0E940E2C0E9437270AE0C02E01
:102A5000512C0C94A80962E080E00E940F278BEAB9
:102A600096E00E946F2761E08AE00E940F271F9284
:102A7000C755DF4FB881C95AD040BF9388ED92E067
:102A80009F938F931F9285E18F93C857DF4FE88103
:102A9000C858D040EF93C957DF4FF881C758D0408E
:102AA000FF930E943432CE018F5A9F4F0E945F27BE
:102AB00062E0842D0E940F278EE50E943D270FB60D
:102AC000F894DEBF0FBECDBF7FE7C72E0C94A809D8
:102AD0000E943727BE01615E7F4FC256DF4F88815B
:102AE000CE59D0400E94812C1F92C256DF4F588190
:102AF000CE59D0405F938FE692E09F938F931F92C1
:102B000085E18F93C857DF4F6881C858D0406F93D5
:102B1000C957DF4F7881C758D0407F930E94343225
:102B2000CE018F5A9F4F0E945F270FB6F894DEBFE9
:102B30000FBECDBFC256DF4F9881CE59D040911104
:102B40000C94611F62E08AE00E940F278EE50E94CC
:102B50003D273AE0432E4BEC55E020ED35E061ECAB
:102B600075E08CEB95E00E94A706FFE6CF2E0C9453
:102B7000A80950FC02C00C945420C256DF4F788143
:102B8000CE59D040772311F40C9457227150C2567D
:102B9000DF4F7883CE59D0401AE6C12E512C0C94C9
:102BA000A8090E943727C256DF4F3881CE59D0403E
:102BB0003E3010F00C94EF1E66E076E031110C947C
:102BC000F11E8FEF95E020E136E04BE056E00E94E9
:102BD000A7068BEAC256DF4F4881CE59D040489FA6
:102BE000812D11248695C82ECC0C8C0DC82ED12C8D
:102BF000712C042F10E085E1682E9CE0E92E92E014
:102C0000F92E5FE0C516D1040CF050C0C016D106F5
:102C100011F40C941523BE01615E7F4F8C2D0E9430
:102C2000812C672D82E00E940F279BA1C114D10443
:102C300011F40C948A20BDEC9B9F812D1124869564
:102C400086958695EAE08E9F901911246AA14F8D92
:102C500058A129A1222311F40C94CF1E22E531E0C2
:102C60001F929F931F928F931F926F935F934F9327
:102C7000DF92CF923F932F931F926F92C857DF4FEF
:102C8000F881C858D040FF93C957DF4F2881C758F3
:102C9000D0402F930E9434320FB6F894DEBF0FBE9F
:102CA000CDBFCE018F5A9F4F0E945F2773945FEF75
:102CB000C51AD50A63E07612A4CF0BE6C02E0C9499
:102CC000A8091AE6C12EC256DF4F1882CE59D0404D
:102CD0000C94A8090E94372760E080E00E940F272B
:102CE0008FE094E00E946F2761E081E00E940F274F
:102CF00084E094E00E946F27A1EFCA2E0C94A809EB
:102D000091E0CD56DF4F9883C359D040C12C512C50
:102D10000C94A8099BADE0962EAD3FADE09737FF30
:102D200002C00C94A82186E41F929F931F928F9358
:102D30008BEF92E09F938F931F9285E18F93C857FB
:102D4000DF4FF881C858D040FF93C957DF4F288123
:102D5000C758D0402F930E94343261E08CE00E942B
:102D60000F27CE018F5A9F4F0E945F278BAD0FB662
:102D7000F894DEBF0FBECDBF882311F40C94F51E6E
:102D800065EF73E0843610F40C94F71E8EEE93E03A
:102D90002FEF33E04AEF53E00E94A706F2EFCF2E69
:102DA0000C94A8090E94372782E895E00E946F27BB
:102DB00061E081E00E940F2788E795E00E946F277D
:102DC00062E08AE00E940F278AE692E00E945F2775
:102DD000E4968FADE4979DEC899F812D1124869513
:102DE00086958695880F982F990F990F890FC7554B
:102DF000DF4F8883C95AD04023E735E04EE655E0DF
:102E000069E675E084E695E00E94A7069CEEC92E6F
:102E10000C94A8090E943727C655DF4FF881CA5A7B
:102E2000D040FB3010F00C94061F6BEF74E0F111F2
:102E30000C94081F84EF94E025E035E040E055E075
:102E40000E94A7068BEAC655DF4F2881CA5AD04098
:102E5000289F812D11248695682E660C860D682E7C
:102E6000712C7301EE0CFF1CC701860D971DAC0180
:102E700049595B4F7A0100E010E0C22ED12CC555B4
:102E8000DF4FB982A882CB5AD040B42C452C502EAB
:102E9000C301800F911F8C30910570F48C159D0536
:102EA00011F40C942F23652D82E00E940F27D70187
:102EB0008D919C910E945F270F5F1F4FB3E0EB0E37
:102EC000F11C0330110519F7542C4B2CC555DF4F5D
:102ED000A880B980CB5AD040EBE0CE2E0C94A80944
:102EE000222311F0CC24C39450FEF2C6A7968FADD6
:102EF000A7978111EDC6A8E7CA2E512C0C94A809FA
:102F000050FC02C00C946920442011F40C946022FF
:102F10004A9416EFC12E512C0C94A809852D81716D
:102F200009F4A5C7842D90E0FC013497EF30F1053A
:102F300010F40C94ED216FE6C62E512C0C94A809C8
:102F400061E084E00E940F27C256DF4FA881CE596E
:102F5000D0409BA18DEC989F812D1124869586955C
:102F60008695AA2311F40C9454213AE0839F90197A
:102F700011246AA14F8D58A129A1222311F40C9488
:102F80004A2121E931E01F929F931F928F931F9254
:102F90006F935F934F933F932F931F9285E18F938E
:102FA000C857DF4F4881C858D0404F93C957DF4FAB
:102FB0005881C758D0405F930E9434320FB6F894BE
:102FC000DEBF0FBECDBFCE018F5A9F4F0E945F273D
:102FD00062E080E00E940F278BEA96E00E946F2754
:102FE00062E0842D0E940F278EE50E943D27E0E7D6
:102FF000CE2E0C94A80950FC1EC751FE02C00C94A2
:10300000DF22852D8C7011F40C94E72352FE11C041
:1030100081E0411001C080E0AA969FADAA97981761
:1030200041F0AB968FAFAB97CE018A599F4F0E946C
:103030000E2C0E943727BAE0CB2E512C0C94A809F5
:1030400050FCF3C651FE02C00C945022852D8C70AA
:1030500011F40C94FA2352FE33C081E0411001C0F8
:1030600080E0A7969FADA797981751F1A7968FAFCD
:10307000A79741100C940B260E942D298E010F5FFB
:103080001F4FD8018D919C911197009749F014968C
:103090002C911497222321F012966C910E947C2887
:1030A0000B5F1F4FC757DF4FE881F981C958D040E8
:1030B0000E171F0731F7CE018A599F4F0E940E2C21
:1030C0000E9437279AE0C92E512C0C94A809852D0F
:1030D000817109F4DFC6C655DF4FE881CA5AD04076
:1030E000EE2311F40C943322E150C655DF4FE883F0
:1030F000CA5AD0407AE0C72E512C0C94A809FC0182
:10310000E45BFE4F0C94FD312BAD5CE95203C00132
:103110001124E0969FAF8EAFE097C257DF4F8881B2
:10312000CE58D040C855DF4F6881C85AD04086235A
:1031300011F00C9429084BE0BE016F5F7F4FC2571E
:10314000DF4F8881CE58D0400E944D0573E0C357B1
:10315000DF4F7883CD58D0400C942908E0961FAEFD
:103160001EAEE0972114310409F0A6C18BADF4E640
:103170008F9FC0011124E0969FAF8EAFE0972CE0A7
:10318000C357DF4F2883CD58D0408091110582FD71
:103190001FC0212C312C0C94A908E0961FAE1EAE46
:1031A000E0972114310409F087C12BAD3CE93203CB
:1031B000C0011124E0969FAF8EAFE0974BE0C3575C
:1031C000DF4F4883CD58D0408091110582FFE1CF79
:1031D000809111058B7F80931105212C312C0C944B
:1031E0003708E0961FAE1EAEE097AE968EAD9FAD4F
:1031F000AE97892B11F00C942908E3962FACE39736
:10320000BAE02B9E10011124EAE0C357DF4FE88398
:10321000CD58D0400C942908E0961FAE1EAEE09722
:10322000AE968EAD9FADAE97892B11F00C94290808
:10323000E3962FACE397AAE02A9E10011124B9E08F
:10324000C357DF4FB883CD58D0400C94290852FCA7
:1032500002C00C940224E0968EAD9FADE097181644
:10326000190614F00C947F25809112059091130596
:103270000A9710F40C944224809112059091130542
:103280000A97909313058093120560910D05C65619
:10329000DF4F6883CA59D04070910E05C556DF4F85
:1032A0007883CB59D04080910F05C456DF4F888377
:1032B000CC59D04090911005C356DF4F9883CD591B
:1032C000D04021E030E040E050E020930D05309305
:1032D0000E0540930F0550931005A8958091110598
:1032E00036E0C357DF4F3883CD58D04051EFC52E5D
:1032F00080FF02C00C94420A512CE0961FAE1EAE15
:10330000E09786E0C357DF4F8883CD58D040AE9614
:103310008EAD9FADAE97892B11F00C942908E296E3
:103320002FACE2979AE0299E10011124A1E0C35727
:10333000DF4FA883CD58D0400C9429088091120506
:10334000909113050A97909313058093120550915D
:103350000D05C656DF4F5883CA59D04060910E05FF
:10336000C556DF4F6883CB59D04070910F05C456C6
:10337000DF4F7883CC59D04080911005C356DF4F82
:103380008883CD59D04021E030E040E050E02093E8
:103390000D0530930E0540930F0550931005A89529
:1033A0008091110535E0C357DF4F3883CD58D040A9
:1033B00031EFC32E80FF02C00C94420A512CE096DC
:1033C0001FAE1EAEE09775E0C357DF4F7883CD5830
:1033D000D040AE968EAD9FADAE97892B11F00C9478
:1033E0002908E2962FACE2978AE0289E100111246A
:1033F00092E0C357DF4F9883CD58D0400C942908F2
:10340000C257DF4F8881CE58D040CB55DF4F9881CF
:10341000C55AD040892309F080C2A8968FADA897DD
:10342000882369F0C257DF4F8881CE58D040C955F4
:10343000DF4FB881C75AD0408B2309F0ADC68BADA2
:10344000F4E68F9FC0011124E0969FAF8EAFE09706
:103450000C942908C257DF4F8881CE58D040CA55F6
:10346000DF4F2881C65AD040822309F02DC2A8968A
:103470008FADA897882369F0C257DF4F8881CE5857
:10348000D040C855DF4F4881C85AD040842309F046
:103490006CC62BAD6CE96203C0011124E0969FAFAE
:1034A0008EAFE0970C942908E0961FAE1EAEE09711
:1034B0002114310409F41FC28091110582FD02C05C
:1034C0000C94A908809111058B7F8093110561E010
:1034D000261A31080C943708E0961FAE1EAEE0970E
:1034E0002114310449F741E0BE016F5F7F4FC2579D
:1034F000DF4F8881CE58D0400E94B50563E0C357A6
:10350000DF4F6883CD58D04040CE80911205909116
:1035100013050A979093130580931205B0910D053A
:10352000C656DF4FB883CA59D040E0910E05C55644
:10353000DF4FE883CB59D040F0910F05C456DF4FE1
:10354000F883CC59D04020911005C356DF4F288313
:10355000CD59D04041E050E060E070E040930D056F
:1035600050930E0560930F0570931005A8958091F8
:103570001105C357DF4F1882CD58D040CC24C394D7
:1035800080FF02C00C94420A512CE0968EAD9FAD94
:10359000E09797FD2FC28BAD44E6849FC0011124B4
:1035A000E0969FAF8EAFE097AE968EAD9FADAE9793
:1035B000181619060CF0C8C1C257DF4F6881CE58E3
:1035C000D04067FD09C6C357DF4F1882CD58D040A1
:1035D000CB55DF4F1882C55AD040CA55DF4F1882ED
:1035E000C65AD040C955DF4F1882C75AD040C85577
:1035F000DF4F1882C85AD040C257DF4FE881CE58FB
:10360000D040E6FD02C00C94290846E0BE016F5F81
:103610007F4F8E2F0E94B505F6E0C357DF4FF8832A
:10362000CD58D04020E4CB55DF4F2883C55AD04039
:1036300030E8CA55DF4F3883C65AD04048E0C955F4
:10364000DF4F4883C75AD04054E0C855DF4F5883F6
:10365000C85AD0400C9429088BAD34E6839FC00132
:103660001124E0969FAF8EAFE097C257DF4F88815D
:10367000CE58D040C955DF4F4881C75AD040842327
:1036800011F00C9429084CE0BE016F5F7F4FC257C8
:10369000DF4F8881CE58D0400E944D0554E0C3577B
:1036A000DF4F5883CD58D0400C9429082D96ECACB0
:1036B000FDAC0EAD1FAD2D970C948C08E096EEADD1
:1036C000FFADE097AE960EAD1FADAE97E017F107D8
:1036D000F1F08BAD24E6829FC00111246CAD70E047
:1036E0000E94C731A8014E1B5F0B57FDCFC0CB0115
:1036F0004617570708F4CA010E171F070CF075C0CC
:10370000F801E80FF91FAE96FFAFEEAFAE972F2F7F
:10371000221F2227221FCF01F7FD7DC064E670E043
:103720000E94C731462FA7968FADA797882311F423
:103730000C946608622F842F0E9448280C94A908D4
:10374000711136C08EEF90E0CC56DF4F998388839D
:10375000C459D040249A2C9A0C9451088460C257C2
:10376000DF4F8883CE58D0400C94180888600C94A2
:10377000E80A80640C94E30A80680C94DE0A806294
:103780000C94D90ACA56DF4F48815981C659D04096
:10379000C856DF4F68817981C859D040460F571FFE
:1037A000C156DF4F59834883CF59D0400C945409F8
:1037B000AFEFB0E0CC56DF4FB983A883C459D040F7
:1037C0000C944F08CD56DF4F9881C359D0409923B0
:1037D00011F40C94BD0A0C94B80A25968CAD9DADDD
:1037E000AEADBFAD25970C94A008E017F1077CF0B3
:1037F000212F221F2227221FC80117FDCBC264E6FA
:1038000070E00E94C731462FF8010C946008F8015F
:10381000E81BF90B78CF882799278E1B9F0B7ECF4B
:103820001F928F93E6EBF2E0FF93EF931F92CF92FC
:10383000C857DF4F3881C858D0403F93C957DF4F32
:103840004881C758D0404F930E9434320FB6F89445
:10385000DEBF0FBECDBF72E0D7120C94161261E02E
:1038600089E00E940F27CE018F5A9F4F0E945F2749
:10387000E2E04E120C94FE1162E08AE00E940F27F3
:103880008CE692E00E945F270C94FE1151954195C1
:1038900051092DCF81E0D81202C261E085E00E947B
:1038A0000F27CE018F5A9F4F0E945F27B1E04B1226
:1038B0000C94FE1162E086E00E940F278CE692E0F5
:1038C0000E945F270C94FE11E0961FAE1EAEE0979B
:1038D00045E0BE016F5F7F4FC257DF4F8881CE58F2
:1038E000D0400E94B50535E0C357DF4F3883CD582F
:1038F000D0400C94290842E0BE016F5F7F4FC25751
:10390000DF4F8881CE58D0400E94B50574E0C35780
:10391000DF4F7883CD58D04038CCE0961FAE1EAE36
:10392000E09746E0BE016F5F7F4FC257DF4F88814F
:10393000CE58D0400E94B505A6E0C357DF4FA883FC
:10394000CD58D0400C942908C357DF4F1882CD586A
:10395000D040CB55DF4F1882C55AD040CA55DF4FF3
:103960001882C65AD040C955DF4F1882C75AD04076
:10397000C855DF4F1882C85AD040892B11F40C94D7
:103980002908C257DF4F6881CE58D04067FF02C078
:103990000C94AF25C257DF4FE881CE58D040E6FDEA
:1039A00002C00C94290845E0BE016F5F7F4F8E2F47
:1039B0000E94B505F5E0C357DF4FF883CD58D040DE
:1039C00020E8CB55DF4F2883C55AD04030E4CA5594
:1039D000DF4F3883C65AD04044E0C955DF4F488393
:1039E000C75AD04058E0C855DF4F5883C85AD04016
:1039F0000C9429082BAD5CE95203C0011124E09618
:103A00009FAF8EAFE097D0CD62E00C94480B61E0A1
:103A10000C94160C62E00C94AC0B61E00C94E10B7E
:103A200085E00E940F27CE018F5A9F4F0E945F278B
:103A3000442011F40C94CB26F39492E0F9120C94E8
:103A4000071466E7C62E0C94A8091F928F93E6EB25
:103A5000F2E0FF93EF931F92EF92C857DF4F388148
:103A6000C858D0403F93C957DF4F4881C758D0400E
:103A70004F930E9434320FB6F894DEBF0FBECDBF15
:103A80000C9417148BE296E00C94AC0D46E356E0D0
:103A90000C94A30DE75AFE4F85E00C94FD31EAE645
:103AA000F3E0DE01AC58BF4F01900D928A95E1F72B
:103AB0000C94400DEFE6F3E0DE01AC58BF4F0190EF
:103AC0000D928A95E1F70C94400DE4E7F3E0DE01F6
:103AD000AC58BF4F01900D928A95E1F70C94400DC0
:103AE000E9E7F3E0DE01AC58BF4F01900D928A95F3
:103AF000E1F70C94400DEEE7F3E0DE01AC58BF4F68
:103B000001900D928A95E1F70C94400DE3E8F3E003
:103B1000DE01AC58BF4F01900D928A95E1F70C94ED
:103B2000400DE8E8F3E0DE01AC58BF4F01900D9284
:103B30008A95E1F70C94400DEDE8F3E0DE01AC5816
:103B4000BF4F01900D928A95E1F70C94400DE2E988
:103B5000F3E0DE01AC58BF4F01900D928A95E1F77A
:103B60000C94400DE7E9F3E0DE01AC58BF4F019043
:103B70000D928A95E1F70C94400DECE9F3E0DE013B
:103B8000AC58BF4F01900D928A95E1F70C94400D0F
:103B9000CF55DF4F28813981C15AD04036952795BE
:103BA00036952795ABE7B4E10E9406329695879546
:103BB00044E6489F9001499F300D1124CF55DF4FB7
:103BC000A881B981C15AD040A21BB30B9D013F937C
:103BD000AF939F938F93C156DF4F28813981CF597F
:103BE000D040ADECBCEC0E94063296958795969538
:103BF000879596958795AC01440F551F9C01220F20
:103C0000331F220F331F220F331F240F351FC156BE
:103C1000DF4FE881F981CF59D040E21BF30B9F01C0
:103C20003F93EF939F938F9386EE91E09F938F93B3
:103C30001F9285E18F93C857DF4FF881C858D04055
:103C4000FF93C957DF4F2881C758D0402F930E9458
:103C50003432CE018F5A9F4F0E945F270FB6F894DF
:103C6000DEBF0FBECDBF0C94AC0C8DE20C947D0D6D
:103C700061E08DE00E940F27CE018F5A9F4F0E9476
:103C80005F27F3E04F120C94FE1162E08EE00E9479
:103C90000F278CE692E00E945F270C94FE1161E0F2
:103CA00081E00E940F27CE018F5A9F4F0E945F270D
:103CB000442011F40C94A826053011F00C94FE1148
:103CC00083E7C82E0C94A80946E351E00C949F1199
:103CD00051FCBBC252FEE0C4AC969FADAC9781E0F4
:103CE0008927AC968FAFAC97882309F4A8C5AE9608
:103CF0001FAE1EAEAE97AB968FADAB97882309F47F
:103D0000D4C580911205909113050A9708F0FDCB58
:103D100080910D0590910E05A0910F05B0911005B1
:103D2000CC24C394C357DF4F1882CD58D040512CB8
:103D30000C94080833E4732E0C94270F53E4652E7B
:103D40000C94170F8FE20E943D2789E40E943D27C3
:103D5000C257DF4F8881CE58D0408C708C3009F428
:103D600080C5C257DF4F9881CE58D04092FDA9C47C
:103D7000C257DF4FA881CE58D040A3FF92C48CE435
:103D80000E943D270C949A0D85E496E00E946F27CF
:103D90000C94240D88279927801B910B30CD2EE69B
:103DA00031E00C9430168AE20C94560D82E50C94A6
:103DB000C20C6FEE75E08AEE95E00C94D70E02EC23
:103DC00011E00C94880F6BE176E086E196E00C94AC
:103DD0003A11B3E8CB2E412C512C0C94A80965E084
:103DE00076E080E096E00C94E31564EF73E08FEEEC
:103DF00093E00C94C8169DE8C92E44244394512C9A
:103E00000C94A8092DE831E00C941E0E6AEF74E0C2
:103E100085EF94E00C941C1779E7C72EC256DF4F4C
:103E20001882CE59D0400C94A80905E6C02E412C2A
:103E3000512C0C94A809FAE9CF2E44244394512C18
:103E40000C94A8095DE2C257DF4F6881CE58D0407C
:103E500067FD02C00C94B4104CE40C94B51083EBD5
:103E600092E00C94A11023EB32E00C949610852D77
:103E7000827209F4FDC2842D90E0FC013497EF308A
:103E8000F10508F485C4EFE6CE2EF4E04F2E512C58
:103E90000C94A809852D827209F49CC3C655DF4F86
:103EA000F881CA5AD040FB3008F08CC4FF5FC65579
:103EB000DF4FF883CA5AD0406AE0C62E512C0C94CA
:103EC000A80962E084E00E940F278EE50E943D274A
:103ED00024E0422E46EC55E00C94AD1580E00E94A3
:103EE0000F2787E993E00E946F2762E080E00E943D
:103EF0000F2782E893E00E946F272DE733E04CE71D
:103F000053E067E773E086E793E00E94A70607EFB8
:103F1000C02E512C0C94A809852D827209F4B7C2C9
:103F2000C256DF4FB881CE59D040B53008F026C414
:103F3000BF5FC256DF4FB883CE59D04082E9C82E4A
:103F4000512C0C94A809852D827209F4C3C2B7E0E4
:103F50004B1609F4FDC5B41508F079C4F9E04F1605
:103F600009F4EFC52EE04212C9C487E9C82E94E0D7
:103F7000492E512C0C94A809852D827209F4EBC1AD
:103F800086EF840D823008F0E1C3439418E8C12E17
:103F9000512C0C94A8091F92C755DF4FF881C95ABC
:103FA000D040FF9388ED92E09F938F931F9285E11D
:103FB0008F93C857DF4F2881C858D0402F93C957D7
:103FC000DF4F3881C758D0403F930E9434320FB63C
:103FD000F894DEBF0FBECDBF0C949D13852D827269
:103FE00011F40C94B809C256DF4FE881CE59D04085
:103FF000EE3008F002C4EF5FC256DF4FE883CE59BF
:10400000D04039E7C32E512C0C94A80951FEB2C1FF
:104010004394A1E045E7C42EA41508F051C5412CF6
:10402000512C0C94A80951FE5CC2439435E012E770
:10403000C12E341508F4C2C3512C0C94A809852D47
:10404000827209F4A5C1C755DF4F6881C95AD040B3
:10405000662309F4C2C36A50C755DF4F6883C95A43
:10406000D0401CEEC12E512C0C94A809852D8272D3
:1040700009F4EDC88BAD882309F4C9C381508BAF17
:1040800071EFC72E512C0C94A809852D827209F46A
:1040900078C186EF840D823008F05FC343945EE7F9
:1040A000C52E512C0C94A80951FE79C1C256DF4F80
:1040B0008881CE59D0408E3008F094C38F5FC256AD
:1040C000DF4F8883CE59D040BAE6CB2E512C0C94CA
:1040D000A80951FE7AC2442009F400C6512C0C9460
:1040E000A80982E50E943D270C946D0D82E50E948F
:1040F0003D270C94940D22E7C22E412C0C94A80964
:1041000042E7C42E412C0C94A809E5E7CE2E412CA1
:104110000C94A8096DEC969F812D112486958695A7
:1041200086957AE0879F901911241F929F931F9282
:104130008F938AA11F928F93FF92EF921F926F929B
:10414000C857DF4F8881C858D0408F93C957DF4F79
:104150009881C758D0409F930E9434320FB6F8948C
:10416000DEBF0FBECDBF0C945116E0961FAE1EAE43
:10417000E09747E0BE016F5F7F4FC257DF4F8881F6
:10418000CE58D0400E944D0557E0C357DF4F5883AB
:10419000CD58D0400C942908E0961FAE1EAEE09793
:1041A00048E0BE016F5F7F4FC257DF4F8881CE5816
:1041B000D0400E944D05E8E0C357DF4FE883CD585B
:1041C000D0400C942908FAE20C9489118827992789
:1041D000821B930B0C94B90C46E0BE016F5F7F4FBE
:1041E000C257DF4F8881CE58D0400E94B50576E097
:1041F000C357DF4F7883CD58D04080E8CB55DF4F91
:104200008883C55AD04090E4CA55DF4F9883C65A78
:10421000D040A4E0C955DF4FA883C75AD040B8E0CA
:10422000C855DF4FB883C85AD0400C94290882E59E
:104230000C94010D8EE048123FC189E692E00E9485
:104240005F27E8E9CE2E0C94A809F0EFCF2E512C71
:104250000C94A80989AD8F9388AD8F9386ED91E07A
:104260009F938F931F9285E18F93C857DF4FB8813B
:10427000C858D040BF93C957DF4FE881C758D040D6
:10428000EF930E9434320FB6F894DEBF0FBECDBF5D
:104290000C94530C28EA31E00C94C31782E696E0A4
:1042A0000E946F270C94580CBAE08B9F9019112430
:1042B0001F929F931F928F938AA11F928F9385E8DD
:1042C00092E09F938F931F9285E18F93C857DF4FA2
:1042D000E881C858D040EF93C957DF4FF881C758DD
:1042E000D040FF930E9434320FB6F894DEBF0FBE69
:1042F000CDBF0C94E3170E9437271AE0C12E512C32
:104300000C94A8090E943727C12C512C0C94A809A1
:1043100088279927821B930B0C94F80C86E40E9443
:104320003D270C94940D86E40E943D278FE20E9465
:104330003D2782E50E943D27C257DF4F4881CE5876
:10434000D04046FFF5C18AE20E943D270C94880DBB
:1043500082E50C94941652FCA1C353FCC9C3512CA2
:104360000C94A8098BE692E00E945F27F8E9CF2E13
:104370000C94A80952FC52C353FCB3C3512C0C94A7
:10438000A80952FC39C353FCA5C3512C0C94A809AD
:1043900052FC11C353FC97C3512C0C94A80953FC35
:1043A00008C252FE69C2C655DF4FA881CA5AD04022
:1043B0008A2F90E0FC01EE0FFF1F8E0F9F1FFC0164
:1043C000E959FB4F82818111F5C3512C0C94A80946
:1043D00082E9C82E512C0C94A809EB59FE4F0C947D
:1043E000FD3182E1481609F487C221E124198BA12D
:1043F00041E050E06FEF70E090E00E94B3308BA39B
:104400003FE6C32E512C0C94A8092CE024198AA154
:1044100041E050E064E670E090E00E94B3308AA38F
:104420004FE6C42E512C0C94A80927E0241989A129
:10443000811125C26FE077E240E050E08F8D98A1B6
:104440000E94B33098A38F8F5FE6C52E512C0C9439
:10445000A80989A1882309F42DC219A27FE6C72ED5
:10446000512C0C94A8093AE0C32E512C0C94A809A5
:1044700052FE89C1C256DF4FA881CE59D040AA232F
:1044800009F49DC391E7C92E512C0C94A80953FC43
:104490006BC152FEEEC1B6E9CB2E512C0C94A8098B
:1044A00015E6C12E44244394512C0C94A8094AE6E5
:1044B000C42E512C0C94A809A8E9CA2E0C94A80962
:1044C00056EFC52E512C0C94A8090CEEC02E512C81
:1044D0000C94A80952FC4FC253FC2CC3512C0C94D1
:1044E000A80952FE9DC181E090E0A0E0B0E0EF9607
:1044F0000FACEF9704C0880F991FAA1FBB1F0A9427
:10450000D2F78CAB9DABAEABBFAB41E050E060E00F
:1045100070E0C158DF4F0880CF57D04004C0440F2F
:10452000551F661F771F0A94D2F781E090E0A0E044
:10453000B0E0C058DF4F0880C058D04004C0880F9A
:10454000991FAA1FBB1F0A94D2F7842B952BA62B69
:10455000B72B8CA39DA3AEA3BFA341E050E060E0C6
:1045600070E0CF57DF4F0880C158D04004C0440FDF
:10457000551F661F771F0A94D2F781E090E0A0E0F4
:10458000B0E0CE57DF4F0880C258D04004C0880F3B
:10459000991FAA1FBB1F0A94D2F7842B952BA62B19
:1045A000B72B88A799A7AAA7BBA7B4E7CB2E512CF6
:1045B0000C94A80971EFC72E512C0C94A809EAE9B4
:1045C000CE2E412C512C0C94A80953FCCDC1512C5A
:1045D0000C94A80953FCC2C152FE36C1C655DF4F28
:1045E0002881CA5AD040822F90E0FC01EE0FFF1FB5
:1045F0008E0F9F1FFC01E959FB4F128111110FC350
:10460000512C0C94A809A3E8CA2E44244394512C9D
:104610000C94A80969E7C62E512C0C94A8098DE8C2
:10462000C82E412C512C0C94A809672D80E00E94C3
:104630000F278EE30E943D270C940B16512C0C94EF
:10464000A809602F80E00E940F278EE30E943D277B
:104650000C947211E12CF12C87010C948C08602FC2
:1046600080E00E940F278EE30E943D270C94531791
:10467000AEE04A127EC0EE968FADEE9790E00196C6
:104680006DE070E00E94C731EE968FAFEE9757E96C
:10469000C52E512C0C94A80953FCC7C0512C0C9466
:1046A000A8098DE20E943D270C949A0DE1EAF3E0FF
:1046B000DE01AC58BF4F01900D928A95E1F70C9442
:1046C000400D82E50E943D270C949A0D2CE02419A0
:1046D00040E050E06FEF70E0C755DF4F3881C95AB6
:1046E000D040832F90E00E94B330C755DF4F8883BE
:1046F000C95AD0406EE7C62E512C0C94A8092CE064
:10470000241940E050E06FEF70E0C755DF4FB881EB
:10471000C95AD0408B2F90E00E94B330C755DF4F6D
:104720008883C95AD04008E8C02E512C0C94A8099F
:104730008DE20E943D270C94880D12966C910E9488
:104740007C28F801828183830C94560748E8C42EA4
:104750005AE0452E512C0C94A809EEE7CE2EFAE033
:104760004F2E512C0C94A8091AE0C12E512C0C94F8
:10477000A809F7E9CF2E512C0C94A80902E9C02E04
:10478000512C0C94A80953FC32C2512C0C94A8094A
:10479000EC58FE4F0C94FD31EC969FADEC9781E008
:1047A0008927EC968FAFEC9767E9C62E512C0C94B5
:1047B000A8092AE0C22E512C0C94A809412C512C96
:1047C0000C94A8092AE0C22E512C0C94A809512C53
:1047D0000C94A809512C0C94A8091CEEC12E512C44
:1047E0000C94A8093AE6C32E512C0C94A809512C1C
:1047F0000C94A809512C0C94A80959E7C52E512CEA
:104800000C94A80953FCEDC1512C0C94A80961EF3C
:10481000C62E512C0C94A809C12C512C0C94A8091B
:1048200053FCD8C1512C0C94A809EAE0CE2EC655F1
:10483000DF4F1882CA5AD040512C0C94A809CC24BE
:10484000C394512C0C94A809512C0C94A809E4E0B1
:104850004E1608F453C0439427E9C22E512C0C94F1
:10486000A80981E40E943D270C949A0D512C0C94C8
:10487000A809512C0C94A809512C0C94A8096FE795
:1048800070E0DACD80910D0590910E05A0910F0595
:10489000B091100561EFC62E56E0C357DF4F588325
:1048A000CD58D040512C0C940808CC24C394512CE2
:1048B0000C94A80923E040E050E067EF7AE28F8D86
:1048C00098A10E94B33098A38F8F803177E2970729
:1048D00008F49CC121E029A368EE73E00E94B33183
:1048E0008038910510F08FE790E098A38F8F6FE6E6
:1048F000C62E512C0C94A80920E079CD17E9C12EC1
:1049000004E0402E512C0C94A809C256DF4F988128
:10491000CE59D040BFE6CB2E911173C1AAE04A2EEA
:10492000512C0C94A8091FE6C12E02E1402E512CF7
:104930000C94A8093FE6C32E4FE0442E512C0C9452
:10494000A8099FE6C92E2AE0422E512C0C94A809F2
:1049500043948FE6C82E512C0C94A8090E94372747
:10496000C12C512C0C94A8090E943727BAE0CB2EF9
:10497000512C0C94A809BE0167587F4FC256DF4FD7
:104980008881CE59D0400E94F32F61E070E06C0F17
:104990007D1FC256DF4F4881CE59D04035E0439F3E
:1049A000600D711D1124842F0E943630B2E9CB2E88
:1049B000512C0C94A809C755DF4F7881C95AD040B3
:1049C000E4967FAFE497AAE07A9FC0011124CC5609
:1049D000DF4F99838883C459D040CE018A599F4FB5
:1049E0000E940E2CCD56DF4F1882C359D040BAE03A
:1049F000CB2E512C0C94A809C755DF4F4881C95ABA
:104A0000D040E2964FAFE297CE018A599F4F0E9465
:104A10000E2C4AE0C42E512C0C94A80981E090E0A1
:104A2000A0E0B0E0EF960FACEF9704C0880F991F9D
:104A3000AA1FBB1F0A94D2F78CA79DA7AEA7BFA73A
:104A400081E090E0A0E0B0E0C158DF4F0880CF5790
:104A5000D04004C0880F991FAA1FBB1F0A94D2F729
:104A600088AB99ABAAABBBABBE01615E7F4FC256B0
:104A7000DF4F8881CE59D0400E943A2DA9968FAD44
:104A8000A997C256DF4FB881CE59D0408B1709F491
:104A900005C189E6C82E512C0C94A809C755DF4FD3
:104AA000E881C95AD040E396EFAFE397CE018A5927
:104AB0009F4F0E940E2CBAE0CB2E512C0C94A809CB
:104AC000512C0C94A8090E943727AAE0CA2E512C19
:104AD0000C94A8090E9437273AE0C32E512C0C945D
:104AE000A8090E9437272AE0C22E512C0C94A8094D
:104AF0000E943727AAE0CA2E512C0C94A809809155
:104B00001205909113050A9710F00C949E1980914C
:104B10000D0590910E05A0910F05B091100541EF84
:104B2000C42E45E0C357DF4F4883CD58D040512CA9
:104B30000C9408080E943727A2E9CA2E512C0C9425
:104B4000A80977E9C72EEEE04E2E512C0C94A80947
:104B500037E9C32E49E0442E512C0C94A80945E0B6
:104B6000BE016F5F7F4FC257DF4F8881CE58D04064
:104B70000E94B50575E0C357DF4F7883CD58D0400C
:104B800080E4CB55DF4F8883C55AD04090E8CA55A2
:104B9000DF4F9883C65AD040A8E0C955DF4FA8839D
:104BA000C75AD040B4E0C855DF4FB883C85AD04088
:104BB0000C9429089EE6C92E512C0C94A809BE011C
:104BC000615E7F4F80E00E943A2D79E6C72E512C1E
:104BD0000C94A8090E943727AAE0CA2E512C0C94E5
:104BE000A8090E943727C12C512C0C94A8090E94B7
:104BF00037276AE0C62E512C0C94A809512C0C942E
:104C0000A80924E0422E512C0C94A8095FE6C52E79
:104C1000512C0C94A8090E9422280C945B180E9425
:104C20003727C12E512C0C94A80980911205909120
:104C300013050A97F0F180911205909113050A97D8
:104C4000909313058093120520910D05C656DF4FF2
:104C50002883CA59D04030910E05C556DF4F38839E
:104C6000CB59D04040910F05C456DF4F4883CC59F3
:104C7000D04050911005C356DF4F5883CD59D040D6
:104C800061E070E080E090E060930D0570930E05A8
:104C900080930F05909310050C94350ABE01685C53
:104CA0007F4F8B2F0E94812C39E6C32E512C0C9400
:104CB000A80980910D0590910E05A0910F05B09166
:104CC0001005C12CC357DF4F1882CD58D040512C4E
:104CD0000C9408080E9422280C9461070E94372730
:104CE00060E080E00E940F2789E693E00E946F2732
:104CF00061E080E00E940F278EE593E00E946F271D
:104D00000E94AD3089E593E00E946F2762E080E069
:104D10000E940F2782E593E00E946F27FFCFCC56B9
:104D2000DF4FE881F981C459D0403197CC56DF4F2D
:104D3000F983E883C459D0400C94AA1B0E940F2722
:104D40008EE30E943D270C94000F21500C949F0A83
:104D500062E082E00E940F278CE692E00E945F27CB
:104D60000C945C1E62E082E10E940F278CE692E0C8
:104D70000E945F270C94311262E08AE00E940F27A4
:104D80008CE692E00E945F270C94291452E7C52E0E
:104D9000412C0C94A80962E086E00E940F278CE663
:104DA00092E00E945F270C941C1D611118C012989C
:104DB000119894B19F6094B995B1907F282F229556
:104DC0002F70292B25B9109A00C010988F70892B4D
:104DD00085B9109A00C010989F6095B90895129AED
:104DE000E7CF1298119A84B1807F84B9109A00C0DD
:104DF00093B1109800C0109A00C023B12F70892F72
:104E00008295807F1098822B08950E94F12687FD5D
:104E1000FCCF86E090E00197F1F70C94F126CF9358
:104E2000C82F662361F06130D1F0623081F00E94BA
:104E3000052760E084ED8C0FCF910C94D5260E945D
:104E4000052760E080E88C0FCF910C94D5260E9456
:104E5000052760E084E98C0FCF910C94D5260E9441
:104E6000052760E080EC8C0FCF910C94D5260E9432
:104E7000052760E081E00C94D526CF93C82F0E94CF
:104E80000527CA3029F061E08C2FCF910C94D526EC
:104E9000843148F090EC980F943178F084518C3242
:104EA00050F0C0E801C0C0EC0E94052760E08C2FE4
:104EB000CF910C94D526C4EDF7CFC4E9F5CFCF93AD
:104EC000DF93EC012196FC018081882329F00E9468
:104ED0003D2789918111FBCFDF91CF910895CF9329
:104EE000DF93EC012196FC018491882339F00E9424
:104EF0003D27FE01849121968111F9CFDF91CF9159
:104F00000895CF93C82F84B18F6084B90A9A099A03
:104F1000089A80E89BEB0197F1F7299A289A109A52
:104F200000C0109880E89AE30197F1F7109A00C04A
:104F3000109880EC90E0FC013197F1F7109A00C0D6
:104F40001098FC013197F1F72898109A00C010983A
:104F50000197F1F70E94052760E088E20E94D526BC
:104F60000E94052760E088E00E94D5260E94052760
:104F700060E081E00E94D5260E94052760E086E07F
:104F80000E94D5260E94052760E08C2FCF910C94BB
:104F9000D526FF920F931F93CF93DF93F62ED72F33
:104FA000880F880F880FC0E4C80F0E94052760E0B3
:104FB0008C2F0E94D5260F2D1D2F88E0F82EFC0E79
:104FC0000E94052760E08C2F0E94D526F801D4911D
:104FD0000E94052761E08D2F0E94D526CF5F0F5FCD
:104FE0001F4FCF11EDCFDF91CF911F910F91FF9008
:104FF000089560EF76E080E00E94C92768EE76E0D1
:1050000081E00E94C92760EE76E082E00E94C92715
:1050100068ED76E083E00E94C92760ED76E084E0E9
:105020000E94C92768EC76E085E00E94C92760EC01
:1050300076E086E00E94C9270E94052760E080E8AC
:105040000C94D5268BB180638BB98AB180638AB901
:10505000EFE6F0E080818D7F808387E592E090939A
:1050600087008093860090938B0080938A009093B2
:10507000890080938800E1E8F0E0108210928500BA
:105080001092840082EA8093800089E180830895F1
:105090001F93CF93DF93162F8F3708F08EE7C7E566
:1050A000D2E0282F30E0A7E5B2E00E9406322EE7DA
:1050B00030E040E050E00E94DB3111110EC0D0938F
:1050C0008900C0938800C21BD30BD0938B00C09380
:1050D0008A00DF91CF911F910895CE01821B930B1F
:1050E0009093890080938800D0938B00C0938A00AE
:1050F000DF91CF911F91089520912F05211132C08A
:105100002091300530913105E0912D05F0E0EE0F52
:10511000FF1FE20FF31F808397708181887F982B98
:10512000918380912D05E82FF0E0EE0FFF1FE20F35
:10513000F31F918160FB93F9906391838F5F80935C
:105140002D0590913205891718F010922D0580E0F9
:1051500090912E05981711F081E0089581E08093D9
:105160002F05089580E008950F931F93CF93DF9349
:10517000EC018B0150E060E070E0C8010E941E323B
:105180008A81882309F45BC08D81882309F452C089
:10519000E981F0E0EE0FFF1F8B819C81E80FF91F82
:1051A00020818181382F3770C901039696958795A4
:1051B00096958795382F3F733068F8013083969520
:1051C0008795969587952D5F220F2670F0E78F279C
:1051D00080778868822BF8018183E981F0E0EE0F07
:1051E000FF1F2B813C81E20FF31F918193FF0BC0C6
:1051F0008160F8018183E981F0E0EE0FFF1F8B8170
:105200009C81E80FF91F9181892F82958F708D5FA6
:105210008370282F2295207F9F7C922B9183811170
:1052200016C089818F5F89839D81891708F0198253
:105230001A8282E0DF91CF911F910F9108958881AA
:105240009981891B6D810E94A731892F9ECF82E0B1
:10525000DF91CF911F910F91089584E680933D05D2
:1052600010923E052FEF3FEF309334052093330526
:105270008BB180638BB98AB180638AB987EB92E086
:1052800090938B0080938A0090938900809388008C
:105290003093870020938600109281001092850041
:1052A0001092840080E58093800088E080938100E4
:1052B00099B189B19295917021E0922785FB882759
:1052C00080F9981771F030E821E03093820089B1BD
:1052D00099B182958170822795FB992790F989135E
:1052E000F4CF80916F00826080936F0089E080939B
:1052F0008100EFE3F5E0F0933105E093300580E1C4
:105300008093320510922E0510922D0510922F05D4
:1053100080E2DF011D928A95E9F70895EF92FF92EE
:105320000F931F93FC01942F4F3720F19EE79F5F4F
:10533000222329F180E0982B90933E05309729F1A4
:10534000662359F1E038F10598F5F0933405E093C0
:10535000330581E080933505E0922905F0922A0516
:1053600000932B0510932C0580E01F910F91FF9067
:10537000EF9008954111DBCF90E02111DBCF80E861
:10538000982B90933E053097D9F681E080933505B0
:105390001092340510923305DFCFE03187E2F80731
:1053A00050F4F0933405E093330510923505D4CFD3
:1053B000EFE7F0E0CACFEFE0F7E2F0933405E093D7
:1053C000330510923505C8CF84E680933D051092D1
:1053D0003E058FEF9FEF909334058093330508953A
:1053E000CF92DF92EF92FF9280913C05811124C011
:1053F00090913D05911125C02091330530913405E0
:10540000203187E2380788F580913505811128C061
:10541000832F806C809336052093370522E0E0913E
:10542000200581E08E0F809320054E2F50E04C30F8
:10543000510540F110922005FF90EF90DF90CF9042
:105440000895915090933D051092360510923705BE
:1054500082E080933C05FF90EF90DF90CF9008951D
:105460002F772093360521E0DACF8FEF8093360532
:105470001092370582E080933C05FF90EF90DF901B
:10548000CF900895FA01ED57FE4F0C94FD31E22FB5
:10549000F0E0EA5CFA4F8EED808382E0820FE1E07B
:1054A000E20FF0E04091290550912A0560912B050B
:1054B00070912C052DE076956795579547952A951F
:1054C000D1F7EA5CFA4F408380933C05FF90EF9060
:1054D000DF90CF90089581E0820FE22FF0E04091BD
:1054E000290550912A0560912B0570912C0539E012
:1054F00076956795579547953A95D1F74F70406ADD
:10550000EA5CFA4F4083E0CF81E0820FE22FF0E0C7
:105510004091290550912A0560912B0570912C0529
:10552000A5E07695679557954795AA95D1F74F7061
:10553000406BEA5CFA4F4083C7CFC0902905D090FA
:105540002A05E0902B05F0902C05B701A6014E71BD
:105550005527662777277695679557954795C0FC19
:1055600090E181E0820FE22FF0E04068942BEA5C4A
:10557000FA4F9083A9CF46E066E375E08DE295E0AF
:105580000E94B4288111A0CF8FEF8093360510922E
:10559000370582E099CFE22FF0E0EA5CFA4F8FE323
:1055A000808382E0820FE1E0E20FF0E090913E051F
:1055B000EA5CFA4F908388CFE22FF0E0EA5CFA4F82
:1055C0008FED808382E0820FE1E0E20FF0E0409116
:1055D000290550912A0560912B0570912C0594E1C5
:1055E00076956795579547959A95D1F7EA5CFA4F66
:1055F00040836ACF1F920F920FB60F9211240BB601
:105600000F922F933F934F935F936F937F938F935B
:105610009F93AF93BF93EF93FF9380911F058F5F8D
:1056200080931F0580FD36C080910201811145C025
:105630008FEA94E090938B0080938A009093890086
:105640008093880080911E05813009F47FC008F4A2
:1056500040C08230A9F52091160530910001E22F5B
:10566000F0E0E95EFA4F808190E0032E02C095954C
:1056700087950A94E2F781708093020131116FC01F
:105680002F5F2093160580911D052817F8F481E0FF
:1056900080931E05FF91EF91BF91AF919F918F91E4
:1056A0007F916F915F914F913F912F910F900BBE22
:1056B0000F900FBE0F901F90189587EB92E0BACF16
:1056C00081E08093020180E18093010110921E0528
:1056D000E1CF81E0809302018091010181508093AC
:1056E00001018111D7CF80913C058823E1F18091A0
:1056F0003C05853008F04AC080913C05482F50E0B9
:1057000080931D0566E375E087E195E00E94153200
:1057100010923C0540911D05A42FB0E08091170523
:10572000A95EBA4F8C93423068F0E8E1F5E02EEFC5
:10573000240F30E0275E3A4F919189278C93E2172E
:10574000F307D1F74F5F40931D0517C01092020178
:1057500087E08093000182E080931E059BCF31504B
:105760003093000197CF8FEF8093170510921805A3
:105770008093190583E080931D051092160580E142
:105780008093010181E080931E0584CF45E050E0C5
:1057900085E0B6CF8D3048F4E82FF0E0EE0FFF1F24
:1057A000E152FB4F8081918108958BE894E0089548
:1057B000CF93DF93EC0180E090E00E945A359EE0A9
:1057C000FE0111929A95E9F7982F9170988382FBC8
:1057D000222720F9298381FB222720F92B8383FBB1
:1057E000882780F98C83911117C081E090E00E9496
:1057F0005A358A8382E090E00E945A358B8784E094
:1058000090E00E945A358C8783E090E00E945A35E0
:105810008D87DF91CF9108951A82ECCFCF93DF93DC
:10582000EC0168818981811164608B8181116260E2
:1058300080E090E00E9462356A81603108F06FE09C
:1058400081E090E00E9462356B8582E090E00E94EA
:1058500062356C8584E090E00E9462356D8583E05E
:1058600090E0DF91CF910C94623568E080E090E0A9
:105870000E94623561E081E090E00E94623562E062
:1058800082E090E00E94623560E083E090E00E9458
:10589000623562E084E090E00C946235CF92DF9252
:1058A000EF92FF921F93CF93DF93EC01C60FD71FA8
:1058B000CE010E945A35C82ED12CE12CF12CFC2CA3
:1058C000EE24DD24CC24CE0101960E945A35E82A2C
:1058D000CE0102960E945A35182FCE0103960E94DF
:1058E0005A35A7019601282BDA01C901BC01CD0167
:1058F000712BDF91CF911F91FF90EF90DF90CF90B0
:1059000008957F928F929F92AF92BF92CF92DF9233
:10591000EF92FF920F931F93CF93DF938B018F3002
:1059200008F090C0C82FD0E02296CC0FDD1FC295A2
:10593000D295D07FDC27C07FDC27CE0102967C2E5B
:10594000BD2E4E012FEF821A920A6E0143E0C40E63
:10595000D11C7E0154E0E50EF11C29E1F801119201
:105960002A95E9F70E945A35A82E872D9B2D0E9473
:105970005A35B82EC4010E945A352B2D30E0322FF3
:105980002227A901482BCA01F80191838083A0FE38
:1059900009C021E022838038910508F068C0F80131
:1059A00091838083C6010E945A35853608F084E6CB
:1059B000F8018383C7010E945A35811101C081E03B
:1059C000F801848365E070E0CE010E944E2CF8015E
:1059D000658B768B878B908F69E070E0CE010E949B
:1059E0004E2CF80165837683878390876DE070E0A5
:1059F000CE010E944E2CF8016187728783879487BD
:105A000061E170E0CE010E944E2CF8016587768737
:105A10008787908B65E170E0CE010E944E2CF801E3
:105A2000618B728B838B948BDF91CF911F910F9140
:105A3000FF90EF90DF90CF90BF90AF909F908F90AE
:105A40007F90089524E2E22E22E0F22E33E2C32E6C
:105A500032E0D32E41E2842E42E0942E50E2752EA5
:105A600062E0B62E82E292E0C0E2D2E076CF8FE72B
:105A700090E095CF2F923F924F925F926F927F92DC
:105A80008F929F92AF92BF92CF92DF92EF92FF924E
:105A90000F931F93CF93DF93CDB7DEB7A5970FB6C4
:105AA000F894DEBF0FBECDBF7DA36CA38F3008F08E
:105AB000B3C190E00296880F991F82959295907FCE
:105AC0009827807F98275C012FEFA21AB20A6C01F9
:105AD00032E0C30ED11C7C01E3E0EE0EF11C8C0120
