:100000000C947C030C949B030C949B030C949B0317
:100010000C949B030C949B030C949B030C949B03E8
:100020000C949B030C949B030C949B030C949B03D8
:100030000C949B030C94092B0C949B030C949B0332
:100040000C949B030C949B030C949B030C949B03B8
:100050000C949B030C949B030C949B030C949B03A8
:100060000C949D030C949B030C949B030C949B0396
:100070000C949B030C949B030C949B030C949B0388
:100080000C9429040C949B030C949B03ED057106BE
:100090006A0658064906FB05360625061206260C92
:1000A000A20CD51568096809680968096809680912
:1000B00068096F15171468096809680968096809EB
:1000C00068096809680968096809680968096809A8
:1000D0006809680968096809680968096809680998
:1000E0006809680968096809680968096809680988
:1000F0006809680968096809680968096809680978
:100100006809680968096809680968096809680967
:100110006809680968096809680968096809680957
:100120006809680968096809680968096809680947
:100130006809680968096809680968096809680937
:100140006809680968096809680968096809680927
:100150006809680968096809680968096809680917
:10016000680968096809F10B080C871768096809AC
:100170005B18CE17081568096809B71481126E124A
:10018000871627126F16E81583146B146809DB11A4
:100190003011181168096809F31032152015680923
:1001A0006809BC0BD30B64186809680961170C1344
:1001B000FA1268096809870B9E0BC50D6809680962
:1001C000BD0DCC0EB40E68096809780E130EEB0D48
:1001D000230B3A0BB91368096809680968096809AB
:1001E0006809680968096809680968096809680987
:1001F0006809680968096809680968096809680977
:100200006809680968096809680968096809680966
:100210006809680968096809680968096809680956
:100220006809680968096809680968096809680946
:100230006809680968096809680968096809680936
:100240006809680968096809680968096809680926
:100250006809680968096809680968096809680916
:100260006809680968096809680968096809680906
:1002700068096809811362134913F6136809E013CA
:100280000014E5116809680963143014EC12680958
:100290006809DC12820F6F0FCF1A761A5E1A341AB1
:1002A00078195719131AA219FB18D718B8188E18ED
:1002B000361BC21DB71DAC1DA11D961D8B1D801DBB
:1002C000751D6A1D5F1DCD1D7823BD22A922A9229F
:1002D000A9227C127C129922992299227C127C12EA
:1002E000852285227C128522AD24AD24AD24A6244E
:1002F0008C1F8C1FAD24AD249F248C1F8C1FAD241C
:1003000098248C1F8A24DA2ACA2AAC2ACA2A932A59
:10031000CA2A7A2ACA2A562ACA2AEB2ACA2A505232
:1003200045535320414E59204B455900556E61624B
:100330006C6520746F2064726177004F48204E4FC7
:100340002120204552524F522100000000424143DB
:100350004B005265626F6F7400646F6E65004545B7
:1003600050524F4D2E2E2E20005245534554544985
:100370004E472E2E2E0000594553210000434E4378
:100380004C002020202045564552595448494E479C
:100390003F202020202000202020205245414C4C8E
:1003A00059204552415345202020200059455321D2
:1003B000000000434E434C0074696D657320746FF8
:1003C00020636F6E6669726D005072657373205999
:1003D0004553206E206D6F726500434C454152209D
:1003E000414C4C2053455454494E47533F00005311
:1003F00050442B00005350442D00463C3E520042D6
:1004000041434B0052756E2053706565643A004D50
:10041000616E75616C2041646A7573746D656E748C
:10042000005B205D204E6F005B205D2059657300EE
:1004300059455300204E4F20005341564500434E2E
:10044000434C0053746F702052656C6561726E731B
:10045000204469723A005B205D20506175736564C9
:10046000005B205D2052756E6E696E670052554EBE
:100470000050415553005341564500434E434C00F4
:100480005374617274204C6F636F6D6F746976651D
:100490003A005B205D2044432054726B204F7574FA
:1004A000707574005B205D204443432054726B20C0
:1004B0004F757470757400444343002044430053E7
:1004C00041564500434E434C005B205D2044697318
:1004D00061626C65005B205D20456E61626C650049
:1004E000454E424C004453424C0053415645004354
:1004F0004E434C0000205550200000444F574E0002
:10050000534C4354004241434B00202B2B200020EE
:100510003E3E20005341564500434E434C00536538
:10052000636F6E64733A20004D6964706F696E7416
:100530002044656C617900202B2B2000203E3E205A
:10054000005341564500434E434C005365636F6E64
:1005500064733A2000456E64706F696E7420446560
:100560006C617900202B2B2000202D2D2000534181
:10057000564500434E434C005365636F6E64733AB7
:1005800020004261636B6C696768742054696D6513
:100590006F757400202B2B2000203E3E200053411D
:1005A000564500434E434C00202B2B2000203E3E5E
:1005B00020004E45585400434E434C00202B2B2026
:1005C00000203E3E20004E45585400534156450001
:1005D000434E434C00202B2B2000203E3E20005356
:1005E00041564500434E434C00002055502000002A
:1005F000444F574E00534C4354004241434B00007C
:10060000205550200000444F574E00534C43540097
:100610004241434B0000205550200000444F574EAC
:1006200000534C435400434E434C004C4F41440054
:10063000004D414E4C0053544F500052554E210036
:10064000434F4E46002853544F5029002A2A204633
:1006500041554C54202A2A00524D503A00535044E0
:100660003A002A44432A004144523A002020777736
:10067000772E69617363616C65642E636F6D2020F2
:1006800000496F7761205363616C656420456E6734
:100690002032303232002053687574746C65204308
:1006A0006F6E74726F6C6C657220002020202020A9
:1006B000202020202020202020202020202020005A
:1006C0001F1F1F0000001F1F1F1F1F1F1F1F1E1C9B
:1006D00000000000001F1F1F1F1F1F1F1F1F0F07ED
:1006E0001C1E1F1F1F1F1F1F1F1F1F0000000000B9
:1006F000070F1F1F1F1F1F1F11241FBECFEFD0E4A6
:10070000DEBFCDBF14E0A0E0B1E0E8E0FBE600E032
:100710000BBF02C007900D92AA3FB107D9F725E0A1
:10072000AAEFB4E001C01D92AF35B207E1F70E9415
:10073000E6060C9482350C9400001F920F920FB6BF
:100740000F9211240BB60F922F933F934F935F9309
:100750006F937F938F939F93AF93BF93EF93FF9389
:10076000209178003091790080910C0591E0980FEC
:1007700090930C05E82FF0E0EE0FFF1FEE0FFF1F28
:10078000E450FB4F4081518162817381420F531FBE
:10079000611D711D4083518362837383943049F1DD
:1007A0008B5F982F977080917C00807F892B80933E
:1007B0007C008091FB0487FD25C08091110584FD9C
:1007C00005C080917A00806480937A00FF91EF9158
:1007D000BF91AF919F918F917F916F915F914F9159
:1007E0003F912F910F900BBE0F900FBE0F901F9057
:1007F00018958091FB048F5F8093FB0410920C0589
:1008000094E0D1CFACEFB4E080E090E04D915D9109
:100810006D917C91139727E076956795579547954D
:100820002A95D1F7FC01EE0FFF1FEF5DFA4F5183C0
:1008300040831D921D921D921D9201968430910558
:1008400029F71092FB0480911105806180931105B6
:10085000B4CF1F920F920FB60F9211248F939F93D4
:100860008091FA048F5F8093FA0480FF05C0909115
:1008700011059160909311058A30C8F01092FA0426
:10088000809114059091150501969093150580931C
:10089000140580911205909113050196909313050C
:1008A00080931205809111058660809311059F91B8
:1008B0008F910F900FBE0F901F90189587B1837C7A
:1008C00087B988B18C6388B98AB18F738AB98BB1C3
:1008D000806C8BB987B18F7387B988B1806C88B908
:1008E00052985A9A089529B186B1807C90E0880F79
:1008F000991F880F991F207C822B26B12C7330E022
:1009000035952795359527954A9907C040E050E0E1
:10091000822B932B842B952B089540E250E0822B61
:10092000932B842B952B089514BEA8959EE088E107
:100930000FB6F894A895809360000FBE9093600066
:1009400010921105A895E6E3F5E086E0DF011D921F
:100950008A95E9F716820E945E04249A2C9A8CE00C
:100960000E9490270E94462760E080E00E941E2798
:10097000109295001092940082E597E09093990070
:1009800080939800109290008BE0809391001092D9
:100990009200C19AE1E7F0E080818260808310924A
:1009A000150510921405109213051092120584E497
:1009B00080937C00EAE7F0E087E1808310927B007F
:1009C00080EF80937E008081886D80837894089585
:1009D0000F931F93CF93DF93CDB7DEB768970FB612
:1009E000F894DEBF0FBECDBF0E94082860E080E013
:1009F0000E941E2760E080E00E941E278E010F5F8C
:100A00001F4F88E1F80111928A95E9F71F9282E061
:100A10008F931F9281E08F9383E091E09F938F9358
:100A20001F930F930E948332C8010E946E2761E0DA
:100A300080E00E941E2786E996E00E947E2762E001
:100A400080E00E941E2781E896E00E947E2763E0F6
:100A500080E00E941E278CE696E00E947E270FB65B
:100A6000F894DEBF0FBECDBF8EE1A8953FE799EAAF
:100A7000E3E031509040E040E1F700C000008150D9
:100A8000A1F70E94462768960FB6F894DEBF0FBE06
:100A9000CDBFDF91CF911F910F910895CF92DF923B
:100AA000EF92FF920F931F93CF93DF9300D000D06C
:100AB000CDB7DEB76B837C830B811C81025E1F4F39
:100AC00029EF240F29834B504A83982F9470D92EF5
:100AD000CC24C394E82FEC70EE2E8870F82EEB81B6
:100AE000FC8180819181009739F024812B30A9F11C
:100AF0002C3039F12A30A9F08B819C8105969C839A
:100B00008B838017910759F70F900F900F900F90DC
:100B1000DF91CF911F910F91FF90EF90DF90CF90D9
:100B20000895F981F230F8F0FA81F23028F7EB817C
:100B3000FC812381222301F3138260E00E948B2831
:100B4000DBCFF981F23080F7EE2071F3EB81FC818D
:100B5000C38261E00E948B28CFCFF981F23020F769
:100B6000DD2011F3F3CFFF20F9F2F0CF9F92AF9287
:100B7000BF92CF92DF92EF92FF920F931F93CF938A
:100B8000DF9300D01F92CDB7DEB7D82E6A837B8368
:100B9000EA80FB802EE1E20EF11CCC24CA94C40E44
:100BA000807CA82E99249394455049839D2D907460
:100BB000B92EAA81BB818D919C9111970097D9F094
:100BC0001496EC910E2F10E0F8013197E930F10501
:100BD00090F4EA5BFF4F0C940F32B981B23058F4B5
:100BE000D7FCB1C0BB2039F0AA81BB8113961C92FF
:100BF00060E00E948B288A819B8105969B838A8373
:100C00008E159F05B1F60F900F900F90DF91CF9149
:100C10001F910F91FF90EF90DF90CF90BF90AF901A
:100C20009F900895F981F23008F475C0B1E0BC15C9
:100C300010F3EA81FB8183818823E9F2138260E06B
:100C4000808191810E948B28D6CFF981F23008F4FF
:100C500059C0A1E0AC1578F2EA81FB8123812223FF
:100C600051F2138260E00E948B28E3CFF981F230C9
:100C700008F45FC0B1E0BC1508F4BDCFEA81FB8188
:100C80002381222309F4B7CF138260E00E948B28CE
:100C9000B2CFB981B23008F0AECFAA2009F4ABCF01
:100CA000EA81FB816381692563830E948B28A3CF3E
:100CB000F981F23008F09FCFBB2009F49CCFAA81C4
:100CC000BB8113966C911397692513966C930E94C0
:100CD0008B2891CFB981B23008F08DCFD7FE8BCF62
:100CE000DFCFB981B23008F086CFD7FC25C0BB205A
:100CF00009F481CFAA81BB8113969C9261E00E9486
:100D00008B2879CFBB2039F0AA81BB8113969C92A6
:100D100061E00E948B28AA2009F488CFAA81BB81B8
:100D200013969C92139761E08D919C910E948B2861
:100D300062CFD7FE9FCFDECFEA81FB81138260E0D6
:100D40000E948B2858CFEA81FB81938261E00E9448
:100D50008B2851CFAF92BF92CF92DF92EF92FF924A
:100D60000F931F93CF935C016B017A01890163E0BC
:100D700080E00E941E27C4E180E20E944C27C150FF
:100D8000D9F763E080E00E941E27C5010E947E27FC
:100D900063E085E00E941E27C6010E947E2763E073
:100DA0008AE00E941E27C7010E947E2763E08FE031
:100DB0000E941E27C801CF911F910F91FF90EF90C5
:100DC000DF90CF90BF90AF900C947E27CF93DF93AE
:100DD000CDB7DEB7CC5AD1090FB6F894DEBF0FBE3F
:100DE000CDBF83E0CD57DF4F8883C358D040CC5769
:100DF000DF4F8883C458D040CB57DF4F8883C55816
:100E0000D040CA57DF4F8883C658D0409E01285C27
:100E10003F4FC757DF4F39832883C958D04089E1F6
:100E2000D901E82F1D92EA95E9F729513109C957EF
:100E3000DF4F39832883C758D040D9011D928A9546
:100E4000E9F70E949404CE018A599F4F0E94E72B34
:100E500081E0AC968FAFAC97BE01685C7F4FA996DE
:100E60008FADA9970E94902CFE0131967F0110E072
:100E7000B701812F0E9446301F5FF5E0EF0EF11C95
:100E80001630B1F7A7968FADA79781110C947926EC
:100E90000E943C298E010F5F1F4FD8018D919C91BC
:100EA0001197009731F014962C91149721110C94FE
:100EB000BA230B5F1F4FC957DF4F28813981C758AD
:100EC000D0402017310749F70E94E804A895AA9658
:100ED0008FADAA97AC968FAFAC978BAD34E6839F5E
:100EE000C0011124E0969FAF8EAFE097E4968FADDE
:100EF000E4976AE0869FA0011124CC56DF4F598306
:100F00004883C459D04080E090E0DC01AA24AA9430
:100F1000BA2CC157DF4F19821882CF58D040CF5614
:100F2000DF4F19821882C159D040CD56DF4F188249
:100F3000C359D040C855DF4F1882C85AD040C95550
:100F4000DF4F1882C75AD040CA55DF4F1882C65AA1
:100F5000D040CB55DF4F1882C55AD040212C312CC0
:100F6000C12CC357DF4F1882CD58D040C256DF4F37
:100F70001882CE59D040C755DF4F1882C95AD04089
:100F8000412CC156DF4F19821882CF59D040CF551E
:100F9000DF4F19821882C15AD040C856DF4F1982DC
:100FA0001882C859D040CA56DF4F19821882C659D4
:100FB000D040CD55DF4F19821882C35AD040C25756
:100FC000DF4F1882CE58D040C656DF4F1882CA591C
:100FD000D040C556DF4F1882CB59D040C456DF4FA2
:100FE0001882CC59D040C356DF4F1882CD59D0401B
:100FF000C455DF4F1882CC5AD040D12CFE01EF5A95
:10100000FF4FC557DF4FF983E883CB58D040882482
:101010008394912C5D2C0196A11DB11D80930D052B
:1010200090930E05A0930F05B0931005A89580919D
:10103000110580FD2AC2C357DF4F3881CD58D040FB
:10104000832F90E08D30910510F40C948918C357CC
:10105000DF4F1882CD58D0408091110582FF7CC0AF
:10106000809111058B7F809311052114310411F0BB
:101070000C94711AE4968FADE497CD56DF4F7881CA
:10108000C359D040882311F40C94AD1B71110AC0D0
:10109000CC56DF4F88819981C459D040892B11F0FB
:1010A0000C949E26249A2C98AC963FADAC97332393
:1010B00011F40C94681BAE961FAE1EAEAE9740E0C6
:1010C00020E0E0E0F0E0A7968FADA79781110C94A7
:1010D000A71BC357DF4F8881CD58D040855086303D
:1010E00010F40C94601BC357DF4F8881CD58D0405B
:1010F0008150823010F40C94601B31110C94601BF1
:10110000E0968EAD9FADE097E817F90711F40C94C7
:1011100040232996ECACFDAC0EAD1FAD299761962E
:101120008CAD9DADAEADBFAD6197E82AF92A0A2B13
:101130001B2BF7FF02C00C94FA1B21968CAD9DADC2
:10114000AEADBFAD2197E82AF92A0A2B1B2B6AAD59
:1011500088AD99AD0E949D290E94FF2980911105BB
:1011600081FF48C28091110584FF44C2809125050A
:1011700090912605EBE0E89FA001E99F500D112416
:101180009A01A3E4B8E00E941832481B590B569507
:101190004795840F951FAC01529542954F70452796
:1011A0005F704527CD55DF4F59834883C35AD040E0
:1011B0008091210590912205E89FA001E99F500DA3
:1011C00011249A010E941832481B590B56954795D5
:1011D000840F951FBC01729562956F7067277F70B1
:1011E0006727CA56DF4F79836883C659D0408091FC
:1011F000230590912405E89FA001E99F500D11243B
:101200009A010E941832481B590B56954795840F36
:10121000951FDC01B295A295AF70AB27BF70AB27CD
:10122000C856DF4FB983A883C859D040809127059D
:101230009091280544E6489F9001499F300D112464
:1012400036952795A1E8BBE40E9418320024880F48
:10125000991F001C880F991F001C892F902DCF55B6
:10126000DF4F99838883C15AD040A7968FADA79747
:10127000882311F40C94CF1BCA56DF4FE881F98103
:10128000C659D040C156DF4FF983E883CF59D040CB
:10129000C856DF4F28813981C859D040E217F3077B
:1012A00030F4C156DF4F39832883CF59D040809125
:1012B00011058D7E8093110580917A008064809362
:1012C0007A0021E08C2D90E08D3F910508F499C1C2
:1012D00060E080E00E941E278BE393E00E947E275F
:1012E00061E083E00E941E278CE293E00E947E274B
:1012F0001F92CF9289E593E09F938F931F9285E190
:101300008F93C457DF4FB881CC58D040BF93C55797
:10131000DF4FE881CB58D040EF930E94463262E025
:1013200083E00E941E27CE018F5A9F4F0E946E2796
:1013300063E083E00E941E278EE193E00E947E27F7
:10134000852D8F700FB6F894DEBF0FBECDBF11F0A4
:101350000C948F21512C80911205909113050A97BE
:1013600008F0ACC180910D0590910E05A0910F057C
:10137000B091100550CE53FE02C00C94272452FCAD
:1013800002C00C945A24C455DF4FF881CC5AD04087
:101390008F2F90E0FC01EE0FFF1F8E0F9F1FFC01AF
:1013A000E959FB4F8281882311F40C940226A796F9
:1013B0008FADA797811102C00E94F329C256DF4F5B
:1013C0008881CE59D0408F5FA9968FAFA997CE0163
:1013D0008A599F4F0E941D2CBE01685C7F4FA996C1
:1013E0008FADA9970E94902CAA968FADAA978823BB
:1013F00011F40C94242681E0AC968FAFAC978091C9
:101400001205909113050A9710F40C9468268091A8
:101410001205909113050A97909313058093120576
:1014200070910D05C656DF4F7883CA59D040809120
:101430000E05C556DF4F8883CB59D04090910F05DC
:10144000C456DF4F9883CC59D040A0911005C356A5
:10145000DF4FA883CD59D04021E030E040E050E09C
:1014600020930D0530930E0540930F055093100502
:10147000A89580911105C357DF4F1882CD58D040F1
:10148000C12C80FD02C00C94CE1A809111058E7F74
:10149000809311050E9473048A259B25C157DF4F55
:1014A00048815981CF58D040CF56DF4F28813981AC
:1014B000C159D04042275327C157DF4F2881398176
:1014C000CF58D04020953095BC0164237523CF566A
:1014D000DF4F79836883C159D040DC01A223B32355
:1014E000C157DF4FB983A883CF58D0409B012A2B27
:1014F0003B2B2095309582239323A826B92695016E
:101500002095309582239323B82FBF705B2EFE0168
:10151000ED57FF4F80E090E055E049E1252D30E0A8
:10152000082E02C0359527950A94E2F720FF70C077
:1015300040839401082E02C0220F331F0A94E2F761
:101540002A213B21232B09F061C028E12083019649
:1015500031968430910511F7552041F1CC56DF4F7B
:1015600088819981C459D040892B11F00C94EF1BCC
:10157000E4968FADE497882311F40C94EF1BA52D0E
:10158000A07F5A2E249A2C9AE4968FADE4972AE0F5
:10159000829FF0011124CC56DF4FF983E883C459B0
:1015A000D040CD56DF4F1882C359D040C257DF4FCD
:1015B0008881CE58D040A5FC02C00C94CC1B8F7DF6
:1015C000A6FC02C00C94C91B8F77A7FC02C00C9428
:1015D000C61B8F7BB0FC02C00C94C31B877FB1FC81
:1015E00002C00C94BB1B8B7FC257DF4F8883CE5841
:1015F000D04021CD20E08C2D90E08D3F910508F06A
:1016000067CEFC01E15BFF4F0C940F3240839FCF0C
:101610009401082E02C0220F331F0A94E2F72A21F8
:101620003B21232B99F7208121110C94B2269C0198
:101630002C5F3F4FB40102C0660F771F2A95E2F777
:10164000562A508384CF0E944627AB964FACAB9767
:1016500060E080E00E941E2783E494E00E947E27E1
:101660002EE334E049E354E064E374E080E394E083
:101670000E94AA0661E080E00E941E2788E294E0B2
:101680000E947E2762E080E00E941E2781E294E0B3
:101690000E947E27442011F40C941A1D61E081E021
:1016A0000E941E278AE20E944C271BE9C12E8091CE
:1016B0001205909113050A9708F454CE80911205F3
:1016C000909113050A97909313058093120530911A
:1016D0000D05C656DF4F3883CA59D04040910E05DC
:1016E000C556DF4F4883CB59D04050910F05C456A3
:1016F000DF4F5883CC59D04060911005C356DF4F5F
:101700006883CD59D04080E090E0DC0184CC0E9419
:101710004627A8964FACA89760E080E00E941E275D
:101720008EED92E00E946E272FEE34E04AEE54E0F8
:1017300065EE74E080EE94E00E94AA0661E080E02D
:101740000E941E2785ED94E00E947E2762E080E0E3
:101750000E941E2789EC94E00E947E27442011F409
:101760000C94141D61E081E00E941E278AE20E9411
:101770004C274EE8C42EEFCD0E944627AA964FACC8
:10178000AA9760E080E00E941E2780E894E00E9413
:101790007E272BE734E046E754E061E774E08DE60E
:1017A00094E00E94AA0661E080E00E941E2781E684
:1017B00094E00E947E2762E080E00E941E2786E57A
:1017C00094E00E947E27442011F40C941D1D62E0D9
:1017D00081E00E941E278AE20E944C2784E8C82EDE
:1017E000BACD0E944627A7964FACA79760E080E04D
:1017F0000E941E278DEE92E00E946E2724EC34E0BA
:101800004FEB54E06BEB74E087EB94E00E94AA0688
:1018100061E080E00E941E2784EA94E00E947E2717
:1018200062E080E00E941E2782E994E00E947E2709
:10183000442011F40C94171D62E081E00E941E27E1
:101840008AE20E944C2726E6C22E85CD0E944627BA
:1018500060E080E00E941E2787E696E00E947E27D7
:10186000A7968FADA79781110C9462218AAD88232A
:1018700011F40C94382188AD99AD99279F938F93DB
:1018800080ED91E09F938F931F9285E18F93C457D2
:10189000DF4F7881CC58D0407F93C557DF4F888188
:1018A000CB58D0408F930E9446320FB6F894DEBFDB
:1018B0000FBECDBFCE018F5A9F4F0E946E2761E0B1
:1018C00080E00E941E278DE596E00E947E2762E060
:1018D00080E00E941E2788E596E00E947E279CAD4E
:1018E0008DEC989F812D11248695869586953AE0FA
:1018F000839F901911241F929F931F928F938BEDBA
:1019000091E09F938F931F9285E18F93C457DF4F90
:101910004881CC58D0404F93C557DF4F5881CB58A2
:10192000D0405F930E944632CE018F5A9F4F0E9453
:101930006E2762E08AE00E941E270FB6F894DEBF91
:101940000FBECDBF60E089E00E941E27C257DF4F67
:101950007881CE58D04075FD02C00C94D81D8CE41F
:1019600096E00E947E2761E084E00E941E27AE96EA
:101970002EAD3FADAE97C90137FF02C00C94F120E8
:1019800064E670E00E94D93137FF02C00C94E51E76
:1019900086E47F936F931F928F938CEF91E09F93D8
:1019A0008F931F9285E18F93C457DF4F5881CC5896
:1019B000D0405F93C557DF4F6881CB58D0406F93BD
:1019C0000E944632CE018F5A9F4F0E946E2761E0DF
:1019D00089E00E941E270FB6F894DEBF0FBECDBF70
:1019E000AC968FADAC9781110C94D41EE0962EADC1
:1019F0003FADE097C90137FF02C00C945C2164E65B
:101A000070E00E94D93137FF02C00C94352186E482
:101A10007F936F931F928F9383E092E09F938F93B6
:101A20001F9285E18F93C457DF4F9881CC58D040E7
:101A30009F93C557DF4FA881CB58D040AF930E94EA
:101A40004632CE018F5A9F4F0E946E270FB6F894F0
:101A5000DEBF0FBECDBF61E080E10E941E27C357ED
:101A6000DF4FF881CD58D0408F2F90E0FC013197A7
:101A7000EC30F10510F40C945A1D85E0E5E6F3E036
:101A8000DE01AC58BF4F01900D928A95E1F7CE016F
:101A90008C589F4F0E946E2762E08AE00E941E27AA
:101AA0008CE40E944C27C257DF4F2881CE58D0408B
:101AB00027FF02C00C94E21E8DE20E944C27CB55FA
:101AC000DF4F3881C55AD040303811F40C949C2136
:101AD000CA55DF4F5881C65AD040503811F40C9483
:101AE0007F208FE30E944C278FE20E944C2782E5E3
:101AF0000E944C27C257DF4F6881CE58D04066FD08
:101B000002C00C94451E8AE20E944C27CB55DF4F41
:101B10007881C55AD040703411F40C94B121CA5563
:101B2000DF4F8881C65AD040803411F40C94842051
:101B30008FE30E944C27A8968FADA89781110C9433
:101B4000B21EAC968FADAC97882311F40C94561D41
:101B50004BE356E0A7968FADA797882311F40C941A
:101B6000521D80E396E020E436E061E376E00E94D7
:101B7000AA0662E0C62E512CEECBA2E9CA2EC256AE
:101B8000DF4F1882CE59D040E6CB50FE02C00C94F5
:101B9000211F51FE02C00C940423852D8C7011F47A
:101BA0000C94202452FE11C081E0411001C080E05D
:101BB000A8969FADA897981741F0A8968FAFA897C1
:101BC000CE018A599F4F0E941D2C0E9446273AE061
:101BD000C32E512CC0CB852D817111F40C94F41FB0
:101BE00099E0491611F40C94C823941510F40C9440
:101BF0005A238CEF840D843010F00C94E42327E0FA
:101C0000241940E050E06CEF77E0EB968EAD9FAD8D
:101C1000EB970E94C530EB969FAF8EAFEB97E7E94D
:101C2000CE2E512C98CB61E080E00E941E27EE96CC
:101C30008FADEE970E94D92BEC962FADEC97222317
:101C400011F40C94281F29E831E09F938F933F9360
:101C50002F93EB968FADEB978F93EA968FADEA9724
:101C60008F931F92C256DF4F3881CE59D0403F9399
:101C700081E592E09F938F931F9285E18F93C457E4
:101C8000DF4F4881CC58D0404F93C557DF4F588124
:101C9000CB58D0405F930E944632CE018F5A9F4F5F
:101CA0000E946E2762E080E00E941E278BEA96E089
:101CB0000E947E2762E0842D0E941E270FB6F894B2
:101CC000DEBF0FBECDBF79E0471611F40C940A2396
:101CD000741510F40C942A218CEF840D843010F0CC
:101CE0000C94E5228EE50E944C27B8E9CB2E33CB2D
:101CF0000E944627C256DF4FE881CE59D0408E2F32
:101D000090E0FC01EE0FFF1FEE0FFF1FE80FF91F21
:101D100021E030E02C0F3D1FE20FF31F85E0DE01D4
:101D2000A758BF4F01900D928A95E1F784E1EDE34A
:101D3000F2E0DE01AF5ABF4F01900D928A95E1F7B4
:101D4000CE018F5A9F4F0E946E2724EE35E04FED53
:101D500055E06AED75E085ED95E00E94AA0607E979
:101D6000C02E84E0482EF7CA852D817111F40C94A1
:101D70006020C256DF4FA881CE59D040AA2311F46B
:101D80000C94C621A150C256DF4FA883CE59D04033
:101D900022E9C22E512CDFCA0E944627C256DF4FCD
:101DA000B881CE59D040B53010F00C94351F60EF9B
:101DB00075E0B1110C94371F89EE95E02AEF35E0FC
:101DC00045EF55E00E94AA068BEAC256DF4FE88134
:101DD000CE59D040E89FD12C11248D2D8695D82E38
:101DE000DD0CD80EC12CF5E0FD1508F470C0C2560C
:101DF000DF4F2881CE59D0406C2D80E0D21611F4EF
:101E00000C94B5260E941E2780E20E944C27ED2CE0
:101E1000F12C8701000F111F000F111FF801EE0DAB
:101E2000FF1D41E050E04C0F5D1FE40FF51F838163
:101E3000882311F40C94AE1E73E5672EF801EE0DA5
:101E4000FF1D61E070E06C0F7D1FE60FF71F8281C0
:101E5000882311F40C94AA1E53E5752E0E0D1F1D38
:101E600081E090E08C0F9D1F080F191FD801149678
:101E70008C910E94D92B1F926F921F927F929F93F9
:101E80008F93F80181818F9380818F93FF92EF92DE
:101E900025E232E03F932F931F9255E15F93C457A1
:101EA000DF4F6881CC58D0406F93C557DF4F7881A2
:101EB000CB58D0407F930E944632CE018F5A9F4F1D
:101EC0000E946E270FB6F894DEBF0FBECDBFC3943D
:101ED000D39493E0C91287CF33E9C32E3CCA53FE93
:101EE00002C00C9495218091140590911505242D24
:101EF00030E02817390711F40C9445234BEFC42E1A
:101F0000512C29CA8091140590911505482EA79649
:101F10008FADA79781110C943B1F0EEB11E0C257B8
:101F2000DF4F4881CE58D04045FF02C006EC11E09B
:101F300060E080E00E941E27C356DF4F5881CD59D4
:101F4000D0405F93C456DF4F6881CC59D0406F9327
:101F5000C556DF4F7881CB59D0407F93C656DF4FAF
:101F60008881CA59D0408F931F930F93CD55DF4F6F
:101F700028813981C35AD040ADECBCEC0E941832A4
:101F8000969587959695879596958795AC01440F7C
:101F9000551F9C01220F331F220F331F220F331FA7
:101FA000240F351FCD55DF4FA881B981C35AD040CA
:101FB000A21BB30B9D013F93AF939F938F9384E03C
:101FC00093E09F938F931F9215E11F93C457DF4FA8
:101FD000B881CC58D040BF93C557DF4FE881CB586C
:101FE000D040EF930E944632CE018F5A9F4F0E94FD
:101FF0006E2761E080E00E941E27CF55DF4F2881C9
:102000003981C15AD0403695279536952795ABE74B
:10201000B4E10E9418329695879544E6489F900156
:10202000499F300D1124CF55DF4F48815981C15A46
:10203000D040421B530B9A013F934F939F938F9332
:10204000C856DF4F28813981C859D040ADECBCEC6F
:102050000E941832969587959695879596958795BF
:10206000AC01440F551F9C01220F331F220F331F59
:10207000220F331F240F351FC856DF4F6881798127
:10208000C859D040621B730B9B013F936F939F9382
:102090008F93CA56DF4F28813981C659D0400E949C
:1020A0001832969587959695879596958795AC0164
:1020B000440F551F9C01220F331F220F331F220F85
:1020C000331F240F351FCA56DF4FA881B981C65967
:1020D000D040A21BB30B9D013F93AF939F938F936F
:1020E0008DE193E09F938F931F921F93C457DF4F0F
:1020F000B881CC58D040BF93C557DF4FE881CB584B
:10210000D040EF930E9446320FB6F894DEBF0FBE68
:10211000CDBFCE018F5A9F4F0E946E2762E080E0B4
:102120000E941E27C257DF4F3881CE58D04032FD63
:1021300002C00C940C1F2AEC31E0C257DF4F4881DB
:10214000CE58D04043FD02C00C94081F8DEC91E0A6
:10215000C257DF4F5881CE58D04056FD02C00C9474
:10216000FB1E52E5C257DF4F6881CE58D04067FF53
:1021700002C00C94051F4DE23F932F939F938F93C2
:102180001F925F931F924F931F9282E08F931F9233
:1021900081E08F931F9288E78F938AE08F9389E77E
:1021A0008F9381E493E09F938F931F9285E18F93A8
:1021B000C457DF4F7881CC58D0407F93C557DF4F4D
:1021C0008881CB58D0408F930E944632CE018F5ADF
:1021D0009F4F0E946E270FB6F894DEBF0FBECDBF93
:1021E0001CEFC12EB8C80E94462785E595E00E94E5
:1021F0007E2761E081E00E941E278BE495E00E942B
:102200007E27E296AFADE297C755DF4FA883C95A44
:10221000D04026E435E041E455E06CE375E087E327
:1022200095E00E94AA06EEE7CE2EFAE04F2E93C864
:10223000852D817111F40C94681FC256DF4FB8814F
:10224000CE59D040BB2311F40C94E022B150C256B9
:10225000DF4FB883CE59D04049E7C42E512C7BC8FC
:102260000E944627C256DF4F5881CE59D0405E307B
:1022700010F00C943F1F6CE176E051110C94411F5B
:1022800085E196E026E236E041E256E00E94AA06A9
:102290008BEAC256DF4F6881CE59D040689FE12C4F
:1022A0001124E6948E2D880FE80EDD24D394DE0CE5
:1022B00000E010E0F12C862F90E0C655DF4F9983A7
:1022C0008883CA5AD0403701AFEF6A1A7A0AC02E03
:1022D000C8018E0D9F1D8E30910508F061C0C65556
:1022E000DF4FE881F981CA5AD040E817F90711F4A5
:1022F0000C943723BE01615E7F4F8D2D0E94902C80
:102300006C2D81E00E941E279301200F311FA9969A
:102310008FADA99790E08217930711F40C94F720E2
:10232000F0E29BA14DEC949F812D1124869586951A
:1023300086955AE0859F90191124EAA16F8D78A1A6
:1023400049A1442311F40C94741E49E151E01F92F9
:102350009F931F928F931F92EF937F936F931F9280
:10236000FF933F932F935F934F931F9265E16F937A
:10237000C457DF4F7881CC58D0407F93C557DF4F8B
:102380008881CB58D0408F930E944632CE018F5A1D
:102390009F4F0E946E270FB6F894DEBF0FBECDBFD1
:1023A0000F5F1F4FD3940330110509F090CF5AE708
:1023B000C52E0C94AB09A7968FADA797882311F46F
:1023C0000C942C1FC12C0C94AB099BADE0962EAD48
:1023D0003FADE09737FF02C00C94B62186E41F9210
:1023E0009F931F928F938BEF92E09F938F931F92F7
:1023F00085E18F93C457DF4FF881CC58D040FF93CD
:10240000C557DF4F2881CB58D0402F930E944632CA
:1024100061E08CE00E941E27CE018F5A9F4F0E94E0
:102420006E270FB6F894DEBF0FBECDBF852D81712C
:1024300011F40C94E51F8BAD843610F00C942B2313
:102440008F5F8BAFE1EFCE2E512C0C94AB0962E085
:1024500080E00E941E278BEA96E00E947E27BE0144
:1024600062587F4F7B0100E010E095E1C92ED02E2D
:10247000D7018D917D010F5F1F4F8D3110F40C94AA
:10248000201C45E150E062EB72E0CE018F5A9F4F75
:102490000E94373272E0D71611F40C943F1C7D1560
:1024A00010F00C945A1C93E0D91611F40C945D1E94
:1024B000A4E0DA120C94481E61E081E10E941E271C
:1024C000CE018F5A9F4F0E946E2724E0421611F4CE
:1024D0000C94BC2693E7C92E0C94AB09852D817111
:1024E00011F40C94801F842D90E0FC013497EF30A0
:1024F000F10510F40C9481225FE6C52E512C0C944A
:10250000AB0961E084E00E941E27C256DF4FA8811C
:10251000CE59D0409BA18DEC989F812D112486959A
:1025200086958695AA2311F40C9468213AE0839F3E
:10253000901911246AA14F8D58A129A1222311F4C9
:102540000C94582121E931E01F929F931F928F93A1
:102550001F926F935F934F933F932F931F9285E149
:102560008F93C457DF4F4881CC58D0404F93C55705
:10257000DF4F5881CB58D0405F930E9446320FB650
:10258000F894DEBF0FBECDBFCE018F5A9F4F0E9481
:102590006E2762E080E00E941E278BEA96E00E9490
:1025A0007E2762E0842D0E941E278EE50E944C2724
:1025B000F0E7CF2E0C94AB090E9446272DE433E0C0
:1025C0004CE453E06BE473E08AE493E00E94AA06D3
:1025D000ABEFCA2E0C94AB0950FC02C00C947720D0
:1025E000442011F40C94FF224A9416EFC12E512C72
:1025F0000C94AB09852D817111F40C94AA1F86EF00
:10260000840D833010F40C94832368E8C62E7AE09E
:10261000472E512C0C94AB0962E080E00E941E27EB
:102620008BEA96E00E947E2761E08AE00E941E27E6
:102630001F92C755DF4F6881C95AD0406F9388ED0C
:1026400092E09F938F931F9285E18F93C457DF4F42
:102650007881CC58D0407F93C557DF4F8881CB58C5
:10266000D0408F930E944632CE018F5A9F4F0E94D6
:102670006E2762E0842D0E941E278EE50E944C2763
:102680000FB6F894DEBF0FBECDBF89E8C82E0C94FC
:10269000AB09852D817111F40C94B91FC755DF4F1B
:1026A0005881C95AD0405A3F10F00C947C22565F92
:1026B000C755DF4F5883C95AD0400CEEC02E512C5D
:1026C0000C94AB0961E08AE00E941E27C755DF4FDA
:1026D000E881C95AD040E1110C94451F85E0E3ED33
:1026E000F2E0DE01AF5ABF4F01900D928A95E1F7FB
:1026F000CE018F5A9F4F0E946E278DEEC82E0C94EC
:10270000AB090E94462782E895E00E947E2761E09F
:1027100081E00E941E2788E795E00E947E2762E004
:102720008AE00E941E278AE692E00E946E27E496C5
:102730008FADE4979DEC899F812D11248695869518
:102740008695880F982F990F990F890FC755DF4FDE
:102750008883C95AD04023E735E04EE655E069E664
:1027600075E084E695E00E94AA069CEEC92E0C94C2
:10277000AB0950FE02C00C94EE1E51FE02C00C9438
:10278000C021852D8C7011F40C941D2452FE11C0B3
:1027900081E0411001C080E0AA969FADAA979817EA
:1027A00041F0AB968FAFAB97CE018A599F4F0E94F5
:1027B0001D2C0E944627BAE0CB2E512C0C94AB095D
:1027C0000E94462760E080E00E941E278FE094E090
:1027D0000E947E2761E081E00E941E2784E094E051
:1027E0000E947E27A1EFCA2E0C94AB0991E0CD5632
:1027F000DF4F9883C359D040C12C512C0C94AB09A6
:102800008BAD882311F40C94151F65EF73E08436AB
:1028100010F40C94171F8EEE93E02FEF33E04AEF85
:1028200053E00E94AA06F2EFCF2E0C94AB09852D3F
:10283000817111F40C94931FC455DF4FE881CC5A79
:10284000D040EE2311F40C94DB22E150C455DF4F4D
:10285000E883CC5AD0407AE0C72E512C0C94AB09B7
:1028600060E080E00E941E278AED93E00E947E27B0
:1028700061E0442011F40C94292081E00E941E277D
:1028800089EC93E00E947E2762E081E00E941E278F
:1028900088EB93E00E947E2761E08BE00E941E2778
:1028A00080E3840D0E944C2723EB33E042EB53E09E
:1028B00061EB73E08CEA93E00E94AA0687EFC82ED2
:1028C000512C0C94AB090E94462796EFC92E25E0A7
:1028D000422E0C94AB09852D817111F40C94472084
:1028E000EEE7F0E0EC0FFD1FE40DF11D808190E0BC
:1028F00001966EE170E00E94D931808355E7C52EC4
:10290000512C0C94AB0962E080E00E941E278BEAF8
:1029100096E00E947E278E0102581F4FF12C75E130
:10292000E72ED8018D918D018D3110F40C94351D59
:1029300045E150E062EB72E0CE018F5A9F4F0E945A
:10294000373271E061E0F7120C94201D89E00E949B
:102950001E27CE018F5A9F4F0E946E2781E0481696
:1029600011F40C94DA2686E7C82E0C94AB090E9469
:102970004627BE01615E7F4FC256DF4F8881CE5928
:10298000D0400E94902C1F92C256DF4F5881CE59E2
:10299000D0405F938FE692E09F938F931F9285E1E3
:1029A0008F93C457DF4F6881CC58D0406F93C55781
:1029B000DF4F7881CB58D0407F930E944632CE01C2
:1029C0008F5A9F4F0E946E270FB6F894DEBF0FBE3E
:1029D000CDBFC256DF4F9881CE59D04091110C9493
:1029E0001C2062E08AE00E941E278EE50E944C2790
:1029F0002AE0422E4BEC55E020ED35E061EC75E02D
:102A00008CEB95E00E94AA06AFE6CA2E0C94AB09A7
:102A100050FC02C00C94D01FC256DF4F7881CE59B3
:102A2000D040772311F40C9477227150C256DF4FB7
:102A30007883CE59D0401AE6C12E512C0C94AB09A4
:102A4000852D817111F40C940D2086EF840D833057
:102A500010F40C94A123AEE7CA2EBAE04B2E512CF1
:102A60000C94AB0962E080E00E941E278BEA96E09E
:102A70000E947E2761E08AE00E941E271F92C755B0
:102A8000DF4FB881C95AD040BF9388ED92E09F9341
:102A90008F931F9285E18F93C457DF4FE881CC5805
:102AA000D040EF93C557DF4FF881CB58D040FF930C
:102AB0000E944632CE018F5A9F4F0E946E2762E0DD
:102AC000842D0E941E278EE50E944C270FB6F89495
:102AD000DEBF0FBECDBF7FE7C72E0C94AB090E94AF
:102AE0004627C455DF4FF881CC5AD040FB3010F058
:102AF0000C94E81E6BEF74E0F1110C94EA1E84EF65
:102B000094E025E035E040E055E00E94AA068BEA1B
:102B1000C455DF4F2881CC5AD040289F812D1124E5
:102B20008695682E660C860D682E712C7301EE0C4E
:102B3000FF1CC701860D971DAC0149595B4F7A01F7
:102B400000E010E0C22ED12CC655DF4FB982A8821A
:102B5000CA5AD040B42C452C502EC301800F911F6F
:102B60008C30910570F48C159D0511F40C94512353
:102B7000652D82E00E941E27D7018D919C910E94B5
:102B80006E270F5F1F4FB3E0EB0EF11C03301105F2
:102B900019F7542C4B2CC655DF4FA880B980CA5A60
:102BA000D040EBE0CE2E0C94AB09222311F0CC24C4
:102BB000C39450FC02C00C94781EA7968FADA797C3
:102BC00081110C94781EF8E7CF2E512C0C94AB0990
:102BD0000E9446271F92C256DF4F4881CE59D040EF
:102BE0004F938CEB92E09F938F931F9285E18F938D
:102BF000C457DF4F5881CC58D0405F93C557DF4F43
:102C00006881CB58D0406F930E944632CE018F5AD4
:102C10009F4F0E946E2723EA35E04EE955E069E9AF
:102C200075E084E995E00E94AA068DE1EF968FAFEA
:102C3000EF97C158DF4F8883CF57D040C058DF4F40
:102C40008883C058D040CF57DF4F8883C158D040C9
:102C5000CE57DF4F8883C258D0400CA51DA52EA5A6
:102C60003FA50FB6F894DEBF0FBECDBF80E090E069
:102C700004C001968D31910579F0B901A801082EA3
:102C800004C076956795579547950A94D2F740FF0B
:102C9000F0CFEF968FAFEF9708A919A92AA93BA902
:102CA00080E090E006C001968D31910511F40C94FE
:102CB000BE20B901A801082E04C0769567955795E6
:102CC00047950A94D2F740FFEECFC158DF4F888373
:102CD000CF57D040F5E7CF2E412C0C94AB09852D72
:102CE000817111F40C945420EEE7F0E0EC0FFD1F1D
:102CF000E40DF11D808190E001966EE170E00E948C
:102D0000D931808302E7C02E512C0C94AB090E946C
:102D100046271F92C256DF4FB881CE59D040BF938D
:102D20008BE992E09F938F931F9285E18F93C45715
:102D3000DF4FE881CC58D040EF93C557DF4FF88183
:102D4000CB58D040FF930E944632CE018F5A9F4FFE
:102D50000E946E2727EB35E042EB55E06DEA75E007
:102D600088EA95E00E94AA068DE1EF968FAFEF9773
:102D7000C158DF4F8883CF57D040C058DF4F88837A
:102D8000C058D040CF57DF4F8883C158D040CE576E
:102D9000DF4F8883C258D0400CA91DA92EA93FA996
:102DA0000FB6F894DEBF0FBECDBF80E090E004C048
:102DB00001968D31910579F0B901A801082E04C062
:102DC00076956795579547950A94D2F740FFF0CFCF
:102DD000EF968FAFEF97CCA0DDA0EEA0FFA080E034
:102DE00090E004C001968D31910559F1282FB7016B
:102DF000A601082E04C076956795579547950A94C5
:102E0000D2F740FFEFCFC158DF4F8883CF57D04074
:102E100081E0820F8D3121F414C08F5F8D3189F0F4
:102E2000B701A601082E04C076956795579547957A
:102E30000A94D2F740FFF1CFC058DF4F8883C058C3
:102E4000D040C8A4D9A4EAA4FBA480E090E006C0C6
:102E500001968D31910511F40C948E20282FB70125
:102E6000A601082E04C076956795579547950A9454
:102E7000D2F740FFEDCFCF57DF4F8883C158D04006
:102E800081E0820F8D3139F40C94AD268F5F8D3146
:102E900011F40C948920B701A601082E04C0769580
:102EA0006795579547950A94D2F740FFEFCFCE57D5
:102EB000DF4F8883C258D04032E7C32E412C0C9498
:102EC000AB090E94462788E295E00E947E2761E0D8
:102ED00081E00E941E278EE195E00E947E27E39606
:102EE0005FADE397C755DF4F5883C95AD04029E1FA
:102EF00035E044E155E06FE075E08AE095E00E943E
:102F0000AA0698E8C92E2AE0422E0C94AB0950FC80
:102F10006CC751FE02C00C94E221852D8C7011F417
:102F20000C94152452FE33C081E0411001C080E0B2
:102F3000A7969FADA797981751F1A7968FAFA79720
:102F400041100C941A260E943C298E010F5F1F4FDE
:102F5000D8018D919C911197009749F014962C916E
:102F60001497222321F012966C910E948B280B5FFC
:102F70001F4FC957DF4FE881F981C758D040E0178C
:102F8000F10731F7CE018A599F4F0E941D2C0E94F4
:102F900046279AE0C92E512C0C94AB090E94462773
:102FA000C256DF4F3881CE59D0403E3008F038C786
:102FB00066E076E0311136C78FEF95E020E136E02C
:102FC0004BE056E00E94AA068BEAC256DF4F4881CA
:102FD000CE59D040489F812D11248695C82ECC0C07
:102FE0008C0DC82ED12C712C042F10E085E1682E99
:102FF0009CE0E92E92E0F92E5FE0C516D1040CF0BA
:103000004FC0C016D10611F40C944823BE01615E76
:103010007F4F8C2D0E94902C672D82E00E941E27EE
:103020009BA1C114D10411F40C949320BDEC9B9F7F
:10303000812D1124869586958695EAE08E9F9019BC
:1030400011246AA14F8D58A129A1222309F4B7C6E2
:1030500022E531E01F929F931F928F931F926F93EF
:103060005F934F93DF92CF923F932F931F926F9274
:10307000C457DF4FF881CC58D040FF93C557DF4F7E
:103080002881CB58D0402F930E9446320FB6F89437
:10309000DEBF0FBECDBFCE018F5A9F4F0E946E275D
:1030A00073945FEFC51AD50A63E07612A5CF0BE6DD
:1030B000C02E0C94AB091AE6C12EC256DF4F1882FF
:1030C000CE59D0400C94AB0950FCB5C651FE02C09D
:1030D0000C94CB21852D8C7011F40C94122452FE8B
:1030E00011C081E0411001C080E0AA969FADAA976F
:1030F000981741F0AA968FAFAA97CE018A599F4F91
:103100000E941D2C0E9446270AE0C02E512C0C94D0
:10311000AB09FC01E45BFE4F0C940F322BAD5CE974
:103120005203C0011124E0969FAF8EAFE097C257C3
:10313000DF4F8881CE58D040C855DF4F6881C85ACC
:10314000D040862311F00C942C084BE0BE016F5F39
:103150007F4FC257DF4F8881CE58D0400E944E0526
:1031600073E0C357DF4F7883CD58D0400C942C08C0
:10317000E0961FAE1EAEE0972114310409F0A6C1FF
:103180008BADF4E68F9FC0011124E0969FAF8EAF08
:10319000E0972CE0C357DF4F2883CD58D040809173
:1031A000110582FD1FC0212C312C0C94AC08E09637
:1031B0001FAE1EAEE0972114310409F087C12BAD7C
:1031C0003CE93203C0011124E0969FAF8EAFE09737
:1031D0004BE0C357DF4F4883CD58D0408091110555
:1031E00082FFE1CF809111058B7F80931105212C07
:1031F000312C0C943A08E0961FAE1EAEE097AE96C6
:103200008EAD9FADAE97892B11F00C942C08E396F0
:103210002FACE397BAE02B9E10011124EAE0C357CC
:10322000DF4FE883CD58D0400C942C0880911205D4
:10323000909113050A97909313058093120550916E
:103240000D05C656DF4F5883CA59D04060910E0510
:10325000C556DF4F6883CB59D04070910F05C456D7
:10326000DF4F7883CC59D04080911005C356DF4F93
:103270008883CD59D04021E030E040E050E02093F9
:103280000D0530930E0540930F0550931005A8953A
:103290008091110535E0C357DF4F3883CD58D040BA
:1032A00031EFC32E80FF02C00C94450A512CE096EA
:1032B0001FAE1EAEE09775E0C357DF4F7883CD5841
:1032C000D040AE968EAD9FADAE97892B11F00C9489
:1032D0002C08E2962FACE2978AE0289E1001112478
:1032E00092E0C357DF4F9883CD58D0400C942C0800
:1032F000C257DF4F8881CE58D040CB55DF4F9881E1
:10330000C55AD040892309F0EFC2A8968FADA8977F
:10331000882369F0C257DF4F8881CE58D040C95505
:10332000DF4FB881C75AD0408B2309F02CC78BAD33
:10333000F4E68F9FC0011124E0969FAF8EAFE09717
:103340000C942C08E0961FAE1EAEE097AE968EADA4
:103350009FADAE97892B11F00C942C08E3962FACFF
:10336000E397AAE02A9E10011124B9E0C357DF4F6A
:10337000B883CD58D0400C942C0852FC02C00C9459
:10338000F323E0968EAD9FADE0971816190614F062
:103390000C94852580911205909113050A9710F4DD
:1033A0000C94602480911205909113050A979093D4
:1033B00013058093120560910D05C656DF4F688393
:1033C000CA59D04070910E05C556DF4F7883CB594E
:1033D000D04080910F05C456DF4F8883CC59D04030
:1033E00090911005C356DF4F9883CD59D04021E00E
:1033F00030E040E050E020930D0530930E054093FF
:103400000F0550931005A8958091110536E0C3571C
:10341000DF4F3883CD58D04051EFC52E80FF02C01A
:103420000C94450A512CE0961FAE1EAEE09786E044
:10343000C357DF4F8883CD58D040AE968EAD9FAD39
:10344000AE97892B11F00C942C08E2962FACE297E2
:103450009AE0299E10011124A1E0C357DF4FA883F1
:10346000CD58D0400C942C08C257DF4F8881CE58DD
:10347000D040CA55DF4F2881C65AD040822309F078
:103480004AC2A8968FADA897882369F0C257DF4F2C
:103490008881CE58D040C855DF4F4881C85AD040A7
:1034A000842309F087C62BAD6CE96203C0011124A7
:1034B000E0969FAF8EAFE0970C942C08E0961FAE7D
:1034C0001EAEE0972114310409F43CC2809111052D
:1034D00082FD02C00C94AC08809111058B7F809313
:1034E000110561E0261A31080C943A08E0961FAEE7
:1034F0001EAEE0972114310449F741E0BE016F5F31
:103500007F4FC257DF4F8881CE58D0400E94B6050A
:1035100063E0C357DF4F6883CD58D04040CE8091E1
:103520001205909113050A97909313058093120545
:10353000B0910D05C656DF4FB883CA59D040E0910F
:103540000E05C556DF4FE883CB59D040F0910F05EB
:10355000C456DF4FF883CC59D04020911005C35694
:10356000DF4F2883CD59D04041E050E060E070E06B
:1035700040930D0550930E0560930F057093100551
:10358000A89580911105C357DF4F1882CD58D040C0
:10359000CC24C39480FF02C00C94450A512CE096C1
:1035A0008EAD9FADE09797FD35C28BAD44E6849F0D
:1035B000C0011124E0969FAF8EAFE097AE968EAD1E
:1035C0009FADAE97181619060CF0CEC1C257DF4F4B
:1035D0006881CE58D04067FD0DC6C357DF4F1882B3
:1035E000CD58D040CB55DF4F1882C55AD040CA5570
:1035F000DF4F1882C65AD040C955DF4F1882C75ACC
:10360000D040C855DF4F1882C85AD040C257DF4F4C
:10361000E881CE58D040E6FD02C00C942C0846E06C
:10362000BE016F5F7F4F8E2F0E94B605F6E0C35735
:10363000DF4FF883CD58D04020E4CB55DF4F2883AF
:10364000C55AD04030E8CA55DF4F3883C65AD040FB
:1036500048E0C955DF4F4883C75AD04054E0C855A9
:10366000DF4F5883C85AD0400C942C088BAD34E6F9
:10367000839FC0011124E0969FAF8EAFE097C257A1
:10368000DF4F8881CE58D040C955DF4F4881C75A97
:10369000D040842311F00C942C084CE0BE016F5FE5
:1036A0007F4FC257DF4F8881CE58D0400E944E05D1
:1036B00054E0C357DF4F5883CD58D0400C942C08AA
:1036C0002D96ECACFDAC0EAD1FAD2D970C948F0874
:1036D000E096EEADFFADE097AE960EAD1FADAE97A6
:1036E000E017F10709F18BAD853008F49DC024E6A1
:1036F000829FC00111246CAD70E00E94D931A801F5
:103700004E1B5F0B57FDD2C0CB014617570708F47D
:10371000CA010E171F070CF075C0F801E80FF91F5A
:10372000AE96FFAFEEAFAE972F2F221F2227221F9C
:10373000CF01F7FD80C064E670E00E94D931462FCA
:10374000A7968FADA797882311F40C946908622F70
:10375000842F0E9457280C94AC08711136C08EEF4C
:1037600090E0CC56DF4F99838883C459D040249A87
:103770002C9A0C9454088460C257DF4F8883CE582B
:10378000D0400C941B0888600C94EF0A80640C9461
:10379000EA0A80680C94E50A80620C94E00ACA5632
:1037A000DF4F48815981C659D040C856DF4F6881E4
:1037B0007981C859D040460F571FC156DF4F5983F2
:1037C0004883CF59D0400C945709AFEFB0E0CC56A6
:1037D000DF4FB983A883C459D0400C945208CD560A
:1037E000DF4F9881C359D040992311F40C94C40A37
:1037F0000C94BF0A25968CAD9DADAEADBFAD25979F
:103800000C94A308E017F10794F0212F221F222720
:10381000221FC80117FDCEC264E670E00E94D931B4
:10382000462FF8010C94630884EF91E064CFF8010F
:10383000E81BF90B75CF882799278E1B9F0B7BCF31
:103840001F928F93E6EBF2E0FF93EF931F92CF92DC
:10385000C457DF4F3881CC58D0403F93C557DF4F16
:103860004881CB58D0404F930E9446320FB6F8940F
:10387000DEBF0FBECDBF72E0D7120C944F1261E0D5
:1038800089E00E941E27CE018F5A9F4F0E946E270B
:10389000E2E04E120C94371262E08AE00E941E278A
:1038A0008CE692E00E946E270C9437125195419558
:1038B00051092ACF81E0D812EBC161E085E00E9476
:1038C0001E27CE018F5A9F4F0E946E27B1E04B12E8
:1038D0000C94371262E086E00E941E278CE692E08C
:1038E0000E946E270C943712E0961FAE1EAEE09732
:1038F00046E0BE016F5F7F4FC257DF4F8881CE58D1
:10390000D0400E94B605A6E0C357DF4FA883CD582C
:10391000D0400C942C08E0961FAE1EAEE09745E018
:10392000BE016F5F7F4FC257DF4F8881CE58D040B6
:103930000E94B60535E0C357DF4F3883CD58D040DD
:103940000C942C0842E0BE016F5F7F4FC257DF4FDF
:103950008881CE58D0400E94B60574E0C357DF4F2F
:103960007883CD58D0401BCCC357DF4F1882CD5839
:10397000D040CB55DF4F1882C55AD040CA55DF4FD3
:103980001882C65AD040C955DF4F1882C75AD04056
:10399000C855DF4F1882C85AD040892B11F40C94B7
:1039A0002C08C257DF4F6881CE58D04067FF02C055
:1039B0000C94B525C257DF4FE881CE58D040E6FDC4
:1039C00002C00C942C0845E0BE016F5F7F4F8E2F24
:1039D0000E94B605F5E0C357DF4FF883CD58D040BD
:1039E00020E8CB55DF4F2883C55AD04030E4CA5574
:1039F000DF4F3883C65AD04044E0C955DF4F488373
:103A0000C75AD04058E0C855DF4F5883C85AD040F5
:103A10000C942C082BAD5CE95203C0011124E096F4
:103A20009FAF8EAFE097CACD62E00C94B30B61E01C
:103A30000C941D0C62E00C944F0B61E00C94E80BAD
:103A400085E00E941E27CE018F5A9F4F0E946E274D
:103A5000442011F40C94C626F39492E0F9120C94CD
:103A6000911466E7C62E0C94AB091F928F93E6EB78
:103A7000F2E0FF93EF931F92EF92C457DF4F38812C
:103A8000CC58D0403F93C557DF4F4881CB58D040EA
:103A90004F930E9446320FB6F894DEBF0FBECDBFE3
:103AA0000C94A1148BE296E00C94B30D46E356E01F
:103AB0000C94AA0DE75AFE4F85E00C940F32EAE60B
:103AC000F3E0DE01AC58BF4F01900D928A95E1F70B
:103AD0000C94470DEFE6F3E0DE01AC58BF4F0190C8
:103AE0000D928A95E1F70C94470DE4E7F3E0DE01CF
:103AF000AC58BF4F01900D928A95E1F70C94470D99
:103B0000E9E7F3E0DE01AC58BF4F01900D928A95D2
:103B1000E1F70C94470DEEE7F3E0DE01AC58BF4F40
:103B200001900D928A95E1F70C94470DE3E8F3E0DC
:103B3000DE01AC58BF4F01900D928A95E1F70C94CD
:103B4000470DE8E8F3E0DE01AC58BF4F01900D925D
:103B50008A95E1F70C94470DEDE8F3E0DE01AC58EF
:103B6000BF4F01900D928A95E1F70C94470DE2E961
:103B7000F3E0DE01AC58BF4F01900D928A95E1F75A
:103B80000C94470DE7E9F3E0DE01AC58BF4F01901C
:103B90000D928A95E1F70C94470DECE9F3E0DE0114
:103BA000AC58BF4F01900D928A95E1F70C94470DE8
:103BB000CF55DF4F28813981C15AD040369527959E
:103BC00036952795ABE7B4E10E9418329695879514
:103BD00044E6489F9001499F300D1124CF55DF4F97
:103BE000A881B981C15AD040A21BB30B9D013F935C
:103BF000AF939F938F93C156DF4F28813981CF595F
:103C0000D040ADECBCEC0E94183296958795969505
:103C1000879596958795AC01440F551F9C01220FFF
:103C2000331F220F331F220F331F240F351FC1569E
:103C3000DF4FE881F981CF59D040E21BF30B9F01A0
:103C40003F93EF939F938F9386EE91E09F938F9393
:103C50001F9285E18F93C457DF4FF881CC58D04035
:103C6000FF93C557DF4F2881CB58D0402F930E9438
:103C70004632CE018F5A9F4F0E946E270FB6F8949E
:103C8000DEBF0FBECDBF0C94B30C8DE20C94840D3F
:103C900061E081E00E941E27CE018F5A9F4F0E9453
:103CA0006E27442011F40C94D026053011F00C94AA
:103CB000371283E7C82E0C94AB0961E08DE00E94B7
:103CC0001E27CE018F5A9F4F0E946E27F3E04F129E
:103CD0000C94371262E08EE00E941E278CE692E080
:103CE0000E946E270C94371246E351E00C94A71102
:103CF00051FCABC252FEF2C4AC969FADAC9781E0D2
:103D00008927AC968FAFAC97882309F4BAC5AE96D5
:103D10001FAE1EAEAE97AB968FADAB97882309F45E
:103D2000EBC580911205909113050A9708F0F7CB27
:103D300080910D0590910E05A0910F05B091100591
:103D4000CC24C394C357DF4F1882CD58D040512C98
:103D50000C940B0843E4742E0C942E0F63E4662E2F
:103D60000C941E0F8FE20E944C2789E40E944C277E
:103D7000C257DF4F8881CE58D0408C708C3009F408
:103D800091C5C257DF4F9881CE58D04092FDD4C420
:103D9000C257DF4FA881CE58D040A3FFA4C48CE403
:103DA0000E944C270C94A10D85E496E00E947E278A
:103DB0000C942B0D88279927801B910B2DCD2EE677
:103DC00031E048C98AE20C945D0D82E50C94C90C7F
:103DD0006AEF74E085EF94E00C948115FAE9CF2E38
:103DE00044244394512C0C94AB0905E6C02E412C7D
:103DF000512C0C94AB095DE2C257DF4F6881CE585D
:103E0000D04067FD02C00C94BB104CE40C94BC1075
:103E100083EB92E00C94A81023EB32E00C949D10FD
:103E200065E076E080E096E0C9C864EF73E08FEE6D
:103E300093E00C940D14B3E8CB2E412C512C0C9430
:103E4000AB099DE8C92E44244394512C0C94AB0932
:103E50002DE831E00C94250E69E7C62EC256DF4FDF
:103E60001882CE59D0400C94AB096FEE75E08AEE03
:103E700095E00C94DE0E02EC11E00C948F0F6BE1D8
:103E800076E086E196E00C9442111F92C755DF4F11
:103E9000F881C95AD040FF9388ED92E09F938F93A9
:103EA0001F9285E18F93C457DF4F2881CC58D040B3
:103EB0002F93C557DF4F3881CB58D0403F930E9496
:103EC00046320FB6F894DEBF0FBECDBF0C94781308
:103ED000852D827211F40C94BB09C256DF4FE88124
:103EE000CE59D040EE3008F098C4EF5FC256DF4F95
:103EF000E883CE59D04039E7C32E512C0C94AB093E
:103F0000852D827209F46CC3842D90E0FC013497F6
:103F1000EF30F10508F497C4EFE6CE2EF4E04F2E13
:103F2000512C0C94AB09852D827209F452C2C455F0
:103F3000DF4FF881CC5AD040FB3008F062C4FF5FFD
:103F4000C455DF4FF883CC5AD0406AE0C62E512CBE
:103F50000C94AB09852D827209F43BC386EF840D66
:103F6000823008F053C4439418E8C12E512C0C94AD
:103F7000AB09852D827209F415C2C755DF4F6881E0
:103F8000C95AD040662309F424C46A50C755DF4F8C
:103F90006883C95AD0401CEEC12E512C0C94AB0939
:103FA00051FE40C3C256DF4F8881CE59D0408E307B
:103FB00008F0FBC38F5FC256DF4F8883CE59D040D5
:103FC000BAE6CB2E512C0C94AB09852D827209F4E4
:103FD000D4C98BAD882309F40BC481508BAF71EF2A
:103FE000C72E512C0C94AB09852D827209F473C233
:103FF000B7E04B1609F4EBC5B41508F04AC4F9E074
:104000004F1609F4DDC52EE042127DC497E9C92E92
:1040100024E0422E512C0C94AB09852D827209F4B8
:10402000A8C186EF840D823008F01AC443945EE77D
:10403000C52E512C0C94AB0962E084E00E941E272F
:104040008EE50E944C2734E0432E46EC55E00C945C
:10405000FC1480E00E941E2787E993E00E947E27DF
:1040600062E080E00E941E2782E893E00E947E27A3
:104070002DE733E04CE753E067E773E086E793E032
:104080000E94AA0607EFC02E512C0C94AB0951FEDA
:10409000E7C24394A1E045E7C42EA41508F0B1C4DB
:1040A000412C512C0C94AB0951FEACC1439435E02A
:1040B00012E7C12E341508F4A0C3512C0C94AB099F
:1040C000852D827209F475C1C256DF4FB881CE5971
:1040D000D040B53008F082C3BF5FC256DF4FB8830F
:1040E000CE59D04092E9C92E512C0C94AB0951FE07
:1040F000F9C1442009F401C6512C0C94AB0982E5A6
:104100000E944C270C94740D82E50E944C270C945D
:104110009B0D22E7C22E412C0C94AB0942E7C42E22
:10412000412C0C94AB096DEC969F812D1124869542
:10413000869586957AE0879F901911241F929F9308
:104140001F928F938AA11F928F93FF92EF921F92DB
:104150006F92C457DF4F8881CC58D0408F93C5579A
:10416000DF4F9881CB58D0409F930E9446320FB6C4
:10417000F894DEBF0FBECDBF0C944B18E5E7CE2EF2
:10418000412C0C94AB09E0961FAE1EAEE09748E0C0
:10419000BE016F5F7F4FC257DF4F8881CE58D0403E
:1041A0000E944E05E8E0C357DF4FE883CD58D0406A
:1041B0000C942C08E0961FAE1EAEE09747E0BE01BF
:1041C0006F5F7F4FC257DF4F8881CE58D0400E942B
:1041D0004E0557E0C357DF4F5883CD58D0400C945D
:1041E0002C0888279927821B930B0C94C00CFAE2A9
:1041F0000C94911146E0BE016F5F7F4FC257DF4FB5
:104200008881CE58D0400E94B60576E0C357DF4F74
:104210007883CD58D04080E8CB55DF4F8883C55A8E
:10422000D04090E4CA55DF4F9883C65AD040A4E0EE
:10423000C955DF4FA883C75AD040B8E0C855DF4FF3
:10424000B883C85AD0400C942C08E0EFCE2E512CE5
:104250000C94AB098EE04812B8C189E692E00E9446
:104260006E27F8E9CF2E0C94AB0982E50C94080D6B
:1042700089AD8F9388AD8F9386ED91E09F938F9357
:104280001F9285E18F93C457DF4FB881CC58D0403F
:10429000BF93C557DF4FE881CB58D040EF930E94C2
:1042A00046320FB6F894DEBF0FBECDBF0C945A0C49
:1042B00028EA31E00C94A41288279927821B930BDB
:1042C0000C94FF0C82E696E00E947E270C945F0C13
:1042D000BAE08B9F901911241F929F931F928F9386
:1042E0008AA11F928F9385E892E09F938F931F92EC
:1042F00085E18F93C457DF4FE881CC58D040EF93CE
:10430000C557DF4FF881CB58D040FF930E9446320B
:104310000FB6F894DEBF0FBECDBF0C94C4120E943E
:104320004627C12C512C0C94AB090E944627BAE0B9
:10433000CB2E512C0C94AB0986E40E944C278FE2C3
:104340000E944C2782E50E944C27C257DF4F4881CC
:10435000CE58D04046FF17C28AE20E944C270C94E8
:104360008F0D86E40E944C270C949B0D82E50C94E3
:10437000EF1152FC6AC353FCF1C3512C0C94AB09EE
:10438000EAE9CE2E412C512C0C94AB0902E9C02E47
:10439000512C0C94AB09A3E8CA2E44244394512C0D
:1043A0000C94AB0952FC30C353FCD1C3512C0C9478
:1043B000AB0953FC04C252FE80C2A6E9CA2E512C9E
:1043C0000C94AB0915E6C12E44244394512C0C9453
:1043D000AB0953FCD7C252FE59C2C455DF4F2881E6
:1043E000CC5AD040822F90E0FC01EE0FFF1F8E0FC1
:1043F0009F1FFC01E959FB4F128111111FC4512C61
:104400000C94AB0952FE27C281E090E0A0E0B0E03E
:10441000EF960FACEF9704C0880F991FAA1FBB1F20
:104420000A94D2F78CAB9DABAEABBFAB41E050E092
:1044300060E070E0C158DF4F0880CF57D04004C023
:10444000440F551F661F771F0A94D2F781E090E052
:10445000A0E0B0E0C058DF4F0880C058D04004C092
:10446000880F991FAA1FBB1F0A94D2F7842B952B84
:10447000A62BB72B8CA39DA3AEA3BFA341E050E016
:1044800060E070E0CF57DF4F0880C158D04004C0D3
:10449000440F551F661F771F0A94D2F781E090E002
:1044A000A0E0B0E0CE57DF4F0880C258D04004C033
:1044B000880F991FAA1FBB1F0A94D2F7842B952B34
:1044C000A62BB72B88A799A7AAA7BBA7B4E7CB2E83
:1044D000512C0C94AB0952FC62C253FC31C3512CD9
:1044E0000C94AB0953FC54C2512C0C94AB093AE622
:1044F000C32E512C0C94AB090CEEC02E512C0C94F5
:10450000AB09EB59FE4F0C940F3282E1481609F4C7
:10451000F8C121E124198BA141E050E06FEF70E078
:1045200090E00E94C5308BA33FE6C32E512C0C9423
:10453000AB092CE024198AA141E050E064E670E068
:1045400090E00E94C5308AA34FE6C42E512C0C94F3
:10455000AB0927E0241989A18111C5C16FE077E279
:1045600040E050E08F8D98A10E94C53098A38F8FB6
:104570005FE6C52E512C0C94AB0989A18111B6C1FF
:10458000EF8DF8A1CF0188529342883E934008F006
:10459000EAC1CF0168EE73E00E94C5318038910511
:1045A00008F0E1C121E029A398A38F8F7FE6C72EF1
:1045B000512C0C94AB093AE0C32E512C0C94AB094E
:1045C00059E7C52E512C0C94AB09F8E9CF2E0C9469
:1045D000AB0952FC04C253FC91C2512C0C94AB09A0
:1045E00052FE26C1C256DF4FA881CE59D040AA2321
:1045F00009F40BC391E7C92E512C0C94AB0956EF6B
:10460000C52E512C0C94AB098DE8C82E412C512C91
:104610000C94AB098BE692E00E946E27A8E9CA2EA3
:104620000C94AB0953FCC6C052FE41C1C455DF4FC8
:10463000A881CC5AD0408A2F90E0FC01EE0FFF1FDA
:104640008E0F9F1FFC01E959FB4F82818111E8C247
:10465000512C0C94AB0971EFC72E512C0C94AB0963
:1046600052FC05C253FC43C2512C0C94AB09602F81
:1046700080E00E941E278EE30E944C270C947A1142
:10468000E12CF12C87010C948F08512C0C94AB0970
:10469000672D80E00E941E278EE30E944C270C9419
:1046A0000618602F80E00E941E278EE30E944C2790
:1046B0000C94B815AEE04A1287C0EE968FADEE9717
:1046C00090E001966DE070E00E94D931EE968FAFD8
:1046D000EE9767E9C62E512C0C94AB0953FCC7C06A
:1046E000512C0C94AB098DE20E944C270C94A10D27
:1046F000E1EAF3E0DE01AC58BF4F01900D928A95DC
:10470000E1F70C94470D2CE0241940E050E06FEFE6
:1047100070E0C755DF4FB881C95AD0408B2F90E069
:104720000E94C530C755DF4F8883C95AD04008E87A
:10473000C02E512C0C94AB0982E50E944C270C949E
:10474000A10D2CE0241940E050E06FEF70E0C75558
:10475000DF4F3881C95AD040832F90E00E94C53086
:10476000C755DF4F8883C95AD0406EE7C62E512CFB
:104770000C94AB0912966C910E948B28F8018281EF
:1047800083830C9459078DE20E944C270C948F0D63
:10479000EC969FADEC9781E08927EC968FAFEC9774
:1047A00077E9C72E512C0C94AB092AE6C22E512C66
:1047B0000C94AB099AE0C92E512C0C94AB09BAE0C9
:1047C000CB2E512C0C94AB09E7E9CE2E512C0C9436
:1047D000AB091CEEC12E512C0C94AB0912E9C12E71
:1047E000512C0C94AB0953FC07C2512C0C94AB090F
:1047F00061EFC62E512C0C94AB09412C512C0C941A
:10480000AB092AE0C22E512C0C94AB0948E8C42E07
:104810005AE0452E512C0C94AB0949E7C42E512C7B
:104820000C94AB09512C0C94AB09512C0C94AB0992
:1048300053FCDBC1512C0C94AB09512C0C94AB09EB
:10484000512C0C94AB09EC58FE4F0C940F32C12C38
:10485000512C0C94AB0953FCC1C1512C0C94AB09E5
:10486000EEE7CE2EFAE04F2E512C0C94AB097AE0F5
:10487000C72EC455DF4F1882CC5AD040512C0C940F
:10488000AB09CC24C394512C0C94AB09512C0C943F
:10489000AB09E4E04E16B8F1439437E9C32E512C2E
:1048A0000C94AB0981E40E944C270C94A10D512C6F
:1048B0000C94AB09512C0C94AB09512C0C94AB0902
:1048C00080910D0590910E05A0910F05B0911005F6
:1048D00061EFC62E56E0C357DF4F5883CD58D04006
:1048E000512C0C940B086FE770E03ACE19A2EFE65A
:1048F000CE2E512C0C94AB09CC24C394512C0C9487
:10490000AB0920E008CE07E9C02E84E0482E512CE8
:104910000C94AB09C256DF4F9881CE59D040BFE608
:10492000CB2E911182C1AAE04A2E512C0C94AB09D6
:104930001FE6C12E02E1402E512C0C94AB093FE63C
:10494000C32E4FE0442E512C0C94AB099FE6C92E88
:104950002AE0422E512C0C94AB0943948FE6C82ECA
:10496000512C0C94AB0923E040E050E06FE077E27B
:10497000CF010E94C53098A38F8F6FE6C62E512CB1
:104980000C94AB090E944627C12C512C0C94AB0906
:104990000E944627BAE0CB2E512C0C94AB09BE01E5
:1049A00067587F4FC256DF4F8881CE59D0400E9452
:1049B000033061E070E06C0F7D1FC256DF4F48810D
:1049C000CE59D04035E0439F600D711D1124842FD6
:1049D0000E94463012E9C12E512C0C94AB09C755E8
:1049E000DF4FE881C95AD040E396EFAFE397CE019D
:1049F0008A599F4F0E941D2CBAE0CB2E512C0C944B
:104A0000AB09512C0C94AB09C755DF4F7881C95ABB
:104A1000D040E4967FAFE497AAE07A9FC0011124CA
:104A2000CC56DF4F99838883C459D040CE018A5930
:104A30009F4F0E941D2CCD56DF4F1882C359D04086
:104A4000BAE0CB2E512C0C94AB09C755DF4F4881EF
:104A5000C95AD040E2964FAFE297CE018A599F4F94
:104A60000E941D2C4AE0C42E512C0C94AB0981E00D
:104A700090E0A0E0B0E0EF960FACEF9704C0880F95
:104A8000991FAA1FBB1F0A94D2F78CA79DA7AEA798
:104A9000BFA781E090E0A0E0B0E0C158DF4F088000
:104AA000CF57D04004C0880F991FAA1FBB1F0A947C
:104AB000D2F788AB99ABAAABBBABBE01615E7F4FAF
:104AC000C256DF4F8881CE59D0400E94492DA99609
:104AD0008FADA997C256DF4FB881CE59D0408B1702
:104AE00009F4EBC089E6C82E512C0C94AB090E9446
:104AF00046272AE0C22E512C0C94AB090E9446276F
:104B0000AAE0CA2E512C0C94AB0980911205909109
:104B100013050A9710F00C94161980910D059091C9
:104B20000E05A0910F05B091100541EFC42E45E090
:104B3000C357DF4F4883CD58D040512C0C940B08FD
:104B40000E944627B2E9CB2E512C0C94AB090E944F
:104B50004627AAE0CA2E512C0C94AB090E94462786
:104B60003AE0C32E512C0C94AB0945E0BE016F5FB7
:104B70007F4FC257DF4F8881CE58D0400E94B60584
:104B800075E0C357DF4F7883CD58D04080E4CB55D4
:104B9000DF4F8883C55AD04090E8CA55DF4F9883CD
:104BA000C65AD040A8E0C955DF4FA883C75AD040A5
:104BB000B4E0C855DF4FB883C85AD0400C942C08D5
:104BC00067E9C62E7EE0472E512C0C94AB0947E9CD
:104BD000C42E59E0452E512C0C94AB090E94462757
:104BE000AAE0CA2E512C0C94AB090E9446276AE019
:104BF000C62E512C0C94AB090E944627C12C512C77
:104C00000C94AB09512C0C94AB09BE01615E7F4F33
:104C100080E00E94492D79E6C72E512C0C94AB09F7
:104C20008EE6C82E512C0C94AB0924E0422E512C58
:104C30000C94AB090E9431280C94C2170E9446279D
:104C4000C12E512C0C94AB09809112059091130543
:104C50000A97F0F180911205909113050A979093AD
:104C600013058093120520910D05C656DF4F28834A
:104C7000CA59D04030910E05C556DF4F3883CB5905
:104C8000D04040910F05C456DF4F4883CC59D040E7
:104C900050911005C356DF4F5883CD59D04061E085
:104CA00070E080E090E060930D0570930E058093B6
:104CB0000F05909310050C94380ABE01685C7F4F75
:104CC0008B2F0E94902C39E6C32E512C0C94AB09EB
:104CD00080910D0590910E05A0910F05B0911005E2
:104CE000C12CC357DF4F1882CD58D040512C0C94A3
:104CF0000B080E9431280C9464070E94462760E04C
:104D000080E00E941E2789E693E00E947E2761E0F2
:104D100080E00E941E278EE593E00E947E270E947D
:104D2000BE3089E593E00E947E2762E080E00E9429
:104D30001E2782E593E00E947E27FFCFCC56DF4FEF
:104D4000E881F981C459D0403197CC56DF4FF983BF
:104D5000E883C459D0400C94B71B52E7C52E412CB0
:104D60000C94AB0921500C94A60A0E941E278EE3D6
:104D70000E944C270C94070F62E082E10E941E27DC
:104D80008CE692E00E946E270C946A1262E086E044
:104D90000E941E278CE692E00E946E270C942C1D28
:104DA00062E082E00E941E278CE692E00E946E275D
:104DB0000C94551E62E08AE00E941E278CE692E069
:104DC0000E946E270C94B314611118C012981198A8
:104DD00094B19F6094B995B1907F282F22952F7040
:104DE000292B25B9109A00C010988F70892B85B98E
:104DF000109A00C010989F6095B90895129AE7CF55
:104E00001298119A84B1807F84B9109A00C093B12E
:104E1000109800C0109A00C023B12F70892F82957E
:104E2000807F1098822B08950E94002787FDFCCF79
:104E300086E090E00197F1F70C940027CF93C82FFC
:104E4000662361F06130D1F0623081F00E94142756
:104E500060E084ED8C0FCF910C94E4260E9414271F
:104E600060E080E88C0FCF910C94E4260E94142718
:104E700060E084E98C0FCF910C94E4260E94142703
:104E800060E080EC8C0FCF910C94E4260E941427F4
:104E900060E081E00C94E426CF93C82F0E94142791
:104EA000CA3029F061E08C2FCF910C94E426843134
:104EB00048F090EC980F943178F084518C3250F097
:104EC000C0E801C0C0EC0E94142760E08C2FCF9195
:104ED0000C94E426C4EDF7CFC4E9F5CFCF93DF936C
:104EE000EC012196FC018081882329F00E944C2747
:104EF00089918111FBCFDF91CF910895CF93DF93FB
:104F0000EC012196FC018491882339F00E944C2702
:104F1000FE01849121968111F9CFDF91CF910895FF
:104F2000CF93C82F84B18F6084B90A9A099A089ADE
:104F300080E89BEB0197F1F7299A289A109A00C014
:104F4000109880E89AE30197F1F7109A00C0109842
:104F500080EC90E0FC013197F1F7109A00C01098B6
:104F6000FC013197F1F72898109A00C0109801972A
:104F7000F1F70E94142760E088E20E94E4260E9474
:104F8000142760E088E00E94E4260E94142760E075
:104F900081E00E94E4260E94142760E086E00E94DF
:104FA000E4260E94142760E08C2FCF910C94E42615
:104FB000FF920F931F93CF93DF93F62ED72F880F77
:104FC000880F880FC0E4C80F0E94142760E08C2F60
:104FD0000E94E4260F2D1D2F88E0F82EFC0E0E9463
:104FE000142760E08C2F0E94E426F801D4910E94DF
:104FF000142761E08D2F0E94E426CF5F0F5F1F4FC3
:10500000CF11EDCFDF91CF911F910F91FF900895B8
:1050100060EF76E080E00E94D82768EE76E081E0DD
:105020000E94D82760EE76E082E00E94D82768EDE3
:1050300076E083E00E94D82760ED76E084E00E946D
:10504000D82768EC76E085E00E94D82760EC76E00F
:1050500086E00E94D8270E94142760E080E80C9424
:10506000E4268BB180638BB98AB180638AB9EFE69D
:10507000F0E080818D7F808387E592E090938700C8
:105080008093860090938B0080938A009093890090
:1050900080938800E1E8F0E0108210928500109281
:1050A000840082EA8093800089E1808308951F93C1
:1050B000CF93DF93162F8F3708F08EE7C7E5D2E046
:1050C000282F30E0A7E5B2E00E9418322EE730E04A
:1050D00040E050E00E94ED3111110EC0D0938900E4
:1050E000C0938800C21BD30BD0938B00C0938A005F
:1050F000DF91CF911F910895CE01821B930B909366
:10510000890080938800D0938B00C0938A00DF9140
:10511000CF911F91089520912F05211132C0209128
:10512000300530913105E0912D05F0E0EE0FFF1FC5
:10513000E20FF31F808397708181887F982B918382
:1051400080912D05E82FF0E0EE0FFF1FE20FF31F17
:10515000918160FB93F9906391838F5F80932D051C
:1051600090913205891718F010922D0580E09091EA
:105170002E05981711F081E0089581E080932F05A6
:10518000089580E008950F931F93CF93DF93EC0170
:105190008B0150E060E070E0C8010E9430328A81EB
:1051A000882309F45BC08D81882309F452C0E9810A
:1051B000F0E0EE0FFF1F8B819C81E80FF91F20812B
:1051C0008181382F3770C9010396969587959695FA
:1051D0008795382F3F733068F8013083969587950F
:1051E000969587952D5F220F2670F0E78F278077A1
:1051F0008868822BF8018183E981F0E0EE0FFF1FC0
:105200002B813C81E20FF31F918193FF0BC08160E2
:10521000F8018183E981F0E0EE0FFF1F8B819C8113
:10522000E80FF91F9181892F82958F708D5F8370B0
:10523000282F2295207F9F7C922B9183811116C06D
:1052400089818F5F89839D81891708F019821A826D
:1052500082E0DF91CF911F910F910895888199810C
:10526000891B6D810E94B931892F9ECF82E0DF9129
:10527000CF911F910F91089584E680933D05109280
:105280003E052FEF3FEF30933405209333058BB16C
:1052900080638BB98AB180638AB987EB92E090937F
:1052A0008B0080938A0090938900809388003093CC
:1052B0008700209386001092810010928500109242
:1052C000840080E58093800088E08093810099B11C
:1052D00089B19295917021E0922785FB882780F90A
:1052E000981771F030E821E03093820089B199B1CC
:1052F00082958170822795FB992790F98913F4CFC5
:1053000080916F00826080936F0089E080938100BC
:10531000EFE3F5E0F0933105E093300580E1809311
:10532000320510922E0510922D0510922F0580E265
:10533000DF011D928A95E9F70895EF92FF920F938E
:105340001F93FC01942F4F3720F19EE79F5F22238C
:1053500029F180E0982B90933E05309729F1662340
:1053600059F1E038F10598F5F0933405E0933305F1
:1053700081E080933505E0922905F0922A0500939B
:105380002B0510932C0580E01F910F91FF90EF905B
:1053900008954111DBCF90E02111DBCF80E8982BFD
:1053A00090933E053097D9F681E0809335051092B1
:1053B000340510923305DFCFE03187E2F80750F46F
:1053C000F0933405E093330510923505D4CFEFE721
:1053D000F0E0CACFEFE0F7E2F0933405E093330555
:1053E00010923505C8CF84E680933D0510923E05A6
:1053F0008FEF9FEF90933405809333050895CF92FC
:10540000DF92EF92FF9280913C05811124C0909130
:105410003D05911125C0209133053091340520318F
:1054200087E2380788F580913505811128C0832FE0
:10543000806C809336052093370522E0E0912005AB
:1054400081E08E0F809320054E2F50E04C305105A7
:1054500040F110922005FF90EF90DF90CF900895DB
:10546000915090933D05109236051092370582E0D9
:1054700080933C05FF90EF90DF90CF9008952F77B9
:105480002093360521E0DACF8FEF80933605109216
:10549000370582E080933C05FF90EF90DF90CF903E
:1054A0000895FA01ED57FE4F0C940F32E22FF0E011
:1054B000EA5CFA4F8EED808382E0820FE1E0E20F3A
:1054C000F0E04091290550912A0560912B057091DB
:1054D0002C052DE076956795579547952A95D1F738
:1054E000EA5CFA4F408380933C05FF90EF90DF9099
:1054F000CF90089581E0820FE22FF0E040912905DE
:1055000050912A0560912B0570912C0539E0769514
:105510006795579547953A95D1F74F70406AEA5C81
:10552000FA4F4083E0CF81E0820FE22FF0E040911C
:10553000290550912A0560912B0570912C05A5E055
:105540007695679557954795AA95D1F74F70406B1B
:10555000EA5CFA4F4083C7CFC0902905D0902A0556
:10556000E0902B05F0902C05B701A6014E71552750
:10557000662777277695679557954795C0FC90E104
:1055800081E0820FE22FF0E04068942BEA5CFA4F52
:105590009083A9CF46E066E375E08DE295E00E9436
:1055A000C3288111A0CF8FEF809336051092370565
:1055B00082E099CFE22FF0E0EA5CFA4F8FE380833C
:1055C00082E0820FE1E0E20FF0E090913E05EA5CBC
:1055D000FA4F908388CFE22FF0E0EA5CFA4F8FED2C
:1055E000808382E0820FE1E0E20FF0E04091290544
:1055F00050912A0560912B0570912C0594E17695C8
:105600006795579547959A95D1F7EA5CFA4F40838D
:105610006ACF1F920F920FB60F9211240BB60F9202
:105620002F933F934F935F936F937F938F939F93AA
:10563000AF93BF93EF93FF9380911F058F5F80938C
:105640001F0580FD36C080910201811145C08FEA9F
:1056500094E090938B0080938A00909389008093CC
:10566000880080911E05813009F47FC008F440C095
:105670008230A9F52091160530910001E22FF0E06B
:10568000E95EFA4F808190E0032E02C095958795E0
:105690000A94E2F781708093020131116FC02F5F8D
:1056A0002093160580911D052817F8F481E080935A
:1056B0001E05FF91EF91BF91AF919F918F917F91C7
:1056C0006F915F914F913F912F910F900BBE0F9073
:1056D0000FBE0F901F90189587EB92E0BACF81E034
:1056E0008093020180E18093010110921E05E1CFB9
:1056F00081E080930201809101018150809301013A
:105700008111D7CF80913C058823E1F180913C0540
:10571000853008F04AC080913C05482F50E08093C6
:105720001D0566E375E087E195E00E94273210923F
:105730003C0540911D05A42FB0E080911705A95E9E
:10574000BA4F8C93423068F0E8E1F5E02EEF240F79
:1057500030E0275E3A4F919189278C93E217F30747
:10576000D1F74F5F40931D0517C01092020187E0EB
:105770008093000182E080931E059BCF31503093CF
:10578000000197CF8FEF8093170510921805809333
:10579000190583E080931D051092160580E1809322
:1057A000010181E080931E0584CF45E050E085E053
:1057B000B6CF8D3048F4E82FF0E0EE0FFF1FE15236
:1057C000FB4F8081918108958BE894E00895CF93F9
:1057D000DF93EC0180E090E00E946C359EE0FE01DA
:1057E00011929A95E9F7982F9170988382FB22275E
:1057F00020F9298381FB222720F92B8383FB88272B
:1058000080F98C83911117C081E090E00E946C3583
:105810008A8382E090E00E946C358B8784E090E080
:105820000E946C358C8783E090E00E946C358D87F8
:10583000DF91CF9108951A82ECCFCF93DF93EC01E3
:1058400068818981811164608B818111626080E04F
:1058500090E00E9474356A81603108F06FE081E069
:1058600090E00E9474356B8582E090E00E94743570
:105870006C8584E090E00E9474356D8583E090E053
:10588000DF91CF910C94743568E080E090E00E9445
:10589000743561E081E090E00E94743562E082E05E
:1058A00090E00E94743560E083E090E00E947435DF
:1058B00062E084E090E00C947435CF92DF92EF9236
:1058C000FF921F93CF93DF93EC01C60FD71FCE013A
:1058D0000E946C35C82ED12CE12CF12CFC2CEE242E
:1058E000DD24CC24CE0101960E946C35E82ACE013D
:1058F00002960E946C35182FCE0103960E946C35DB
:10590000A7019601282BDA01C901BC01CD01712B39
:10591000DF91CF911F91FF90EF90DF90CF9008958E
:105920007F928F929F92AF92BF92CF92DF92EF922F
:10593000FF920F931F93CF93DF938B018F3008F06B
:1059400090C0C82FD0E02296CC0FDD1FC295D29513
:10595000D07FDC27C07FDC27CE0102967C2EBD2EB7
:105960004E012FEF821A920A6E0143E0C40ED11C41
:105970007E0154E0E50EF11C29E1F80111922A950F
:10598000E9F70E946C35A82E872D9B2D0E946C355F
:10599000B82EC4010E946C352B2D30E0322F222707
:1059A000A901482BCA01F80191838083A0FE09C098
:1059B00021E022838038910508F068C0F8019183C6
:1059C0008083C6010E946C35853608F084E6F801B4
:1059D0008383C7010E946C35811101C081E0F80109
:1059E000848365E070E0CE010E945D2CF801658B38
:1059F000768B878B908F69E070E0CE010E945D2CE2
:105A0000F80165837683878390876DE070E0CE012F
:105A10000E945D2CF801618772878387948761E11A
:105A200070E0CE010E945D2CF8016587768787873C
:105A3000908B65E170E0CE010E945D2CF801618BD6
:105A4000728B838B948BDF91CF911F910F91FF907D
:105A5000EF90DF90CF90BF90AF909F908F907F900E
:105A6000089524E2E22E22E0F22E33E2C32E32E049
:105A7000D32E41E2842E42E0942E50E2752E62E055
:105A8000B62E82E292E0C0E2D2E076CF8FE790E0DD
:105A900095CF2F923F924F925F926F927F928F920B
:105AA0009F92AF92BF92CF92DF92EF92FF920F93AD
:105AB0001F93CF93DF93CDB7DEB7A5970FB6F894BA
:105AC000DEBF0FBECDBF7DA36CA38F3008F0B3C186
:105AD00090E00296880F991F82959295907F982763
