:100000000C9472030C9491030C9491030C9491033F
:100010000C9491030C9491030C9491030C94910310
:100020000C9491030C9491030C9491030C94910300
:100030000C9491030C946A2A0C9491030C949103F0
:100040000C9491030C9491030C9491030C949103E0
:100050000C9491030C9491030C9491030C949103D0
:100060000C9493030C9491030C9491030C949103BE
:100070000C9491030C9491030C9491030C949103B0
:100080000C941F040C9491030C9491037F06720648
:10009000660658064406F705310620060E06940B40
:1000A0001C0C021543094309430943094309430949
:1000B0004309AC1493144309430943094309430911
:1000C00043094309430943094309430943094309D0
:1000D00043094309430943094309430943094309C0
:1000E00043094309430943094309430943094309B0
:1000F00043094309430943094309430943094309A0
:10010000430943094309430943094309430943098F
:10011000430943094309430943094309430943097F
:10012000430943094309430943094309430943096F
:10013000430943094309430943094309430943095F
:10014000430943094309430943094309430943094F
:10015000430943094309430943094309430943093F
:10016000430943094309160B320B5C144309430945
:100170005314CC13B413430943095C13FA12E2126B
:10018000430943090D12BB119E1143094309A117ED
:10019000E516AA1743094309121577165E16430997
:1001A0004309550B710BFA1043094309D1108E1006
:1001B000751043094309D70AF30ABB1643094309DB
:1001C000E915320E1A0E43094309D40D650D350D9C
:1001D000690A850A34164309430943094309430957
:1001E00043094309430943094309430943094309AF
:1001F000430943094309430943094309430943099F
:10020000430943094309430943094309430943098E
:10021000430943094309430943094309430943097E
:10022000430943094309430943094309430943096E
:10023000430943094309430943094309430943095E
:10024000430943094309430943094309430943094E
:10025000430943094309430943094309430943093E
:10026000430943094309430943094309430943092E
:1002700043094309FC15C515AC15F215430988114E
:100280003911251143094309A01564154C1543097B
:1002900043093C15020FEA0E3719FC18E418BC1884
:1002A00094187B186218491830180C18ED17C717E6
:1002B0001119C01BB51BAA1B9F1B941B891B7E1BFE
:1002C000731B681B5D1BCB1BE721892093209320A8
:1002D0009320F512F512742074207420F512F51293
:1002E0005C205C20F5125C20D922D922D922CE22B2
:1002F000611E611ED922D922C322611E611ED9222C
:10030000B822611EA6223B2A2B2A0D2A2B2AF42969
:100310002B2ADB292B2AB7292B2A4C2A2B2A50528D
:1003200045535320414E59204B455900556E61624B
:100330006C6520746F2064726177004F48204E4FC7
:100340002120204552524F522100000000424143DB
:100350004B005265626F6F7400646F6E65004545B7
:1003600050524F4D2E2E2E20005245534554544985
:100370004E472E2E2E0000594553210000434E4378
:100380004C002020202045564552595448494E479C
:100390003F202020202000202020205245414C4C8E
:1003A00059204552415345202020200059455321D2
:1003B000000000434E434C0074696D657320746FF8
:1003C00020636F6E6669726D005072657373205999
:1003D0004553206E206D6F726500434C454152209D
:1003E000414C4C2053455454494E47533F00005311
:1003F00050442B00005350442D00463C3E520042D6
:1004000041434B0052756E2053706565643A004D50
:10041000616E75616C2041646A7573746D656E748C
:10042000005B205D204E6F005B205D2059657300EE
:1004300059455300204E4F20005341564500434E2E
:10044000434C0053746F702052656C6561726E731B
:10045000204469723A005B205D20506175736564C9
:10046000005B205D2052756E6E696E670052554EBE
:100470000050415553005341564500434E434C00F4
:100480005374617274204C6F636F6D6F746976651D
:100490003A005B205D2044432054726B204F7574FA
:1004A000707574005B205D204443432054726B20C0
:1004B0004F757470757400444343002044430053E7
:1004C00041564500434E434C005B205D2044697318
:1004D00061626C65005B205D20456E61626C650049
:1004E000454E424C004453424C0053415645004354
:1004F0004E434C0000205550200000444F574E0002
:10050000534C4354004241434B00202B2B200020EE
:100510003E3E20005341564500434E434C00536538
:10052000636F6E64733A20004D6964706F696E7416
:100530002044656C617900202B2B2000203E3E205A
:10054000005341564500434E434C005365636F6E64
:1005500064733A2000456E64706F696E7420446560
:100560006C617900202B2B2000202D2D2000534181
:10057000564500434E434C005365636F6E64733AB7
:1005800020004261636B6C696768742054696D6513
:100590006F757400202B2B2000203E3E200053411D
:1005A000564500434E434C00202B2B2000203E3E5E
:1005B00020004E455854005341564500434E434C8D
:1005C00000202B2B2000203E3E20005341564500AA
:1005D000434E434C0000205550200000444F574EDE
:1005E00000534C4354004241434B000020555020DF
:1005F0000000444F574E00534C4354004241434B7C
:100600000000205550200000444F574E00534C43EB
:100610005400434E434C004C4F414400004D414E6A
:100620004C0053544F500052554E2100434F4E46FC
:10063000002853544F5029002A2A204641554C5433
:10064000202A2A00524D503A005350443A002A447E
:10065000432A004144523A0020207777772E69617F
:100660007363616C65642E636F6D202000496F7742
:1006700061205363616C656420456E6720323032BF
:1006800030002053687574746C6520436F6E74720B
:100690006F6C6C65722000202020202020202020FC
:1006A0002020202020202020202020001F1F1F008D
:1006B00000001F1F1F1F1F1F1F1F1E1C0000000008
:1006C000001F1F1F1F1F1F1F1F1F0F071C1E1F1F85
:1006D0001F1F1F1F1F1F1F0000000000070F1F1FED
:1006E0001F1F1F1F11241FBECFEFD0E4DEBFCDBFE1
:1006F00014E0A0E0B1E0E6E6F8E600E00BBF02C0DF
:1007000007900D92A23EB107D9F725E0A2EEB4E022
:1007100001C01D92A734B207E1F70E94D9060C94DC
:1007200031340C9400001F920F920FB60F921124D7
:100730000BB60F922F933F934F935F936F937F93DB
:100740008F939F93AF93BF93EF93FF932091780084
:10075000309179008091F40491E0980F9093F40423
:10076000E82FF0E0EE0FFF1FEE0FFF1FEC51FB4FE5
:100770004081518162817381420F531F611D711D40
:100780004083518362837383943049F18B5F982F48
:10079000977080917C00807F892B80937C00809172
:1007A000E30487FD25C08091F90484FD05C0809194
:1007B0007A00806480937A00FF91EF91BF91AF91AE
:1007C0009F918F917F916F915F914F913F912F9169
:1007D0000F900BBE0F900FBE0F901F901895809139
:1007E000E3048F5F8093E3041092F40494E0D1CF8C
:1007F000A4EEB4E080E090E04D915D916D917C912C
:10080000139727E076956795579547952A95D1F7E1
:10081000FC01EE0FFF1FE75FFA4F518340831D92EB
:100820001D921D921D9201968430910529F7109218
:10083000E3048091F90480618093F904B4CF1F929E
:100840000F920FB60F9211248F939F938091E20421
:100850008F5F8093E20480FF05C09091F90491605E
:100860009093F9048A30C8F01092E2048091FC045D
:100870009091FD0401969093FD048093FC04809177
:10088000FA049091FB0401969093FB048093FA0480
:100890008091F90486608093F9049F918F910F9065
:1008A0000FBE0F901F90189587B1837C87B988B1D0
:1008B0008C6388B98AB18F738AB98BB1806C8BB91C
:1008C00087B18F7387B988B1806C88B952985A9A6A
:1008D000089529B186B1807C90E0880F991F880F18
:1008E000991F207C822B26B12C7330E035952795FB
:1008F000359527954A9907C040E050E0822B932B0D
:10090000842B952B089540E250E0822B932B842B6F
:10091000952B089514BEA8959EE088E10FB6F89433
:10092000A895809360000FBE909360001092F90428
:10093000A895EEE1F5E086E0DF011D928A95E9F7E2
:1009400016820E945404249A2C9A8CE00E94F1266C
:100950000E94A72660E080E00E947F26109295000A
:100960001092940082E597E090939900809398000C
:10097000109290008BE08093910010929200C19AA7
:10098000E1E7F0E08081826080831092FD041092A4
:10099000FC041092FB041092FA0484E480937C001F
:1009A000EAE7F0E087E1808310927B0080EF80939C
:1009B0007E008081886D8083789408950F931F93C3
:1009C000CF93DF93CDB7DEB768970FB6F894DEBF4D
:1009D0000FBECDBF0E94692760E080E00E947F26A5
:1009E00060E080E00E947F268E010F5F1F4F88E14C
:1009F000F80111928A95E9F71F9289E08F931F926F
:100A00001F9283E091E09F938F931F930F930E9417
:100A10003231C8010E94CF2661E080E00E947F262B
:100A200082E896E00E94DF2662E080E00E947F2656
:100A30008DE696E00E94DF2663E080E00E947F263C
:100A400088E596E00E94DF260FB6F894DEBF0FBE61
:100A5000CDBF8EE1A8953FE799EAE3E031509040A1
:100A6000E040E1F700C000008150A1F70E94A726F6
:100A700068960FB6F894DEBF0FBECDBFDF91CF9161
:100A80001F910F910895CF92DF92EF92FF920F93F3
:100A90001F93CF93DF9300D000D0CDB7DEB76B8329
:100AA0007C830B811C81025E1F4F29EF240F298359
:100AB0004B504A83982F9470D92ECC24C394E82F9E
:100AC000EC70EE2E8870F82EEB81FC818081918194
:100AD000009739F024812B30A9F12C3039F12A30DC
:100AE000A9F08B819C8105969C838B83801791074D
:100AF00059F70F900F900F900F90DF91CF911F91AA
:100B00000F91FF90EF90DF90CF900895F981F23030
:100B1000F8F0FA81F23028F7EB81FC81238122235F
:100B200001F3138260E00E94EC27DBCFF981F23001
:100B300080F7EE2071F3EB81FC81C38261E00E94BB
:100B4000EC27CFCFF981F23020F7DD2011F3F3CF7E
:100B5000FF20F9F2F0CF9F92AF92BF92CF92DF9237
:100B6000EF92FF920F931F93CF93DF9300D01F92CA
:100B7000CDB7DEB7D82E6A837B83EA80FB802EE177
:100B8000E20EF11CBB24BA94B40E807CA82E9924EA
:100B90009394455049839D2D9074C92EAA81BB81A1
:100BA0008D919C911197009711F11496EC910E2F55
:100BB00010E0F8013197E930F105C8F4EA5BFF4F26
:100BC0000C94BE30CC2039F0AA81BB8113969C9244
:100BD00061E00E94EC27AA2021F1AA81BB81139633
:100BE0009C92139761E08D919C910E94EC278A81E1
:100BF0009B8105969B838A83E816F90679F60F9008
:100C00000F900F90DF91CF911F910F91FF90EF9078
:100C1000DF90CF90BF90AF909F900895F981F23010
:100C2000D0F2B1E0BB1518F3EA81FB818381882300
:100C3000F1F2138260E0808191810E94EC27D7CF8E
:100C4000F981F23008F4BECFA1E0AB1580F2EA8161
:100C5000FB812381222359F2138260E00E94EC275A
:100C6000E3CFF981F23008F457C0B1E0BB1508F4C6
:100C7000BECFEA81FB812381222309F4B8CF1382FE
:100C800060E00E94EC27B3CFAA2009F4B0CFEA813C
:100C9000FB816381692563830E94EC278A819B81A4
:100CA00005969B838A83E816F90609F077CFA7CFCC
:100CB000CC2009F49CCFAA81BB8113966C91139729
:100CC000692513966C930E94EC2791CFD7FCDFCF58
:100CD0008A819B8105969B838A83E816F90609F031
:100CE0005DCF8DCFD7FC22C0CC2009F480CFAA8164
:100CF000BB8113969C9261E00E94EC2778CFD7FCD1
:100D00000EC0CC2009F473CFAA81BB8113961C922C
:100D100060E00E94EC276BCFD7FEA7CFE8CFEA8137
:100D2000FB81938261E00E94EC2761CFEA81FB8125
:100D3000138260E00E94EC275ACFAF92BF92CF920D
:100D4000DF92EF92FF920F931F93CF935C016B01A1
:100D50007A01890163E080E00E947F26C4E180E29D
:100D60000E94AD26C150D9F763E080E00E947F2643
:100D7000C5010E94DF2663E085E00E947F26C60150
:100D80000E94DF2663E08AE00E947F26C7010E945E
:100D9000DF2663E08FE00E947F26C801CF911F917C
:100DA0000F91FF90EF90DF90CF90BF90AF900C9499
:100DB000DF26CF93DF93CDB7DEB7C35AD1090FB685
:100DC000F894DEBF0FBECDBF83E0E4968FAFE4970B
:100DD000E5968FAFE597E6968FAFE697E7968FAFEC
:100DE000E7979E012B5B3F4FEB963FAF2EAFEB9704
:100DF00081E1D901E82F1D92EA95E9F721513109E6
:100E0000E9963FAF2EAFE997D9011D928A95E9F790
:100E10000E948A04CE018A5A9F4F0E94482B81E08B
:100E20006C968FAF6C97BE016B5B7F4F69968FADF1
:100E300069970E94F12BFE0131967F0110E0B70106
:100E4000812F0E94F72E1F5FF5E0EF0EF11C163088
:100E5000B1F767968FAD679781112DC00E949D28CD
:100E6000AE01415E5F4FC158DF4F59834883CF5772
:100E7000D0408E010F5F1F4F0BC00B5F1F4FC1583B
:100E8000DF4F28813981CF57D04020173107F1F04B
:100E9000D8018D919C911197009779F314962C911C
:100EA0001497222351F312966C910E94EC27F801BB
:100EB00082818383E2CF0E9492279E01215E3F4F71
:100EC000C158DF4F39832883CF57D0400E94DE04BA
:100ED000A8956A968FAD6A976C968FAF6C97299696
:100EE0008FAD299734E6839FC0011124A0969FAF50
:100EF0008EAFA097A4968FADA4976AE0869FA001BD
:100F00001124C757DF4F59834883C958D04080E028
:100F100090E0DC01AA24AA94BA2CEF961FAE1EAE74
:100F2000EF97CF57DF4F19821882C158D040CC5766
:100F3000DF4F1882C458D040C356DF4F1882CD59B6
:100F4000D040C456DF4F1882CC59D040C556DF4F31
:100F50001882CB59D040C656DF4F1882CA59D040AC
:100F6000212C312CC12CEC961FAEEC97CD56DF4FC7
:100F70001882C359D040C256DF4F1882CE59D04094
:100F8000CD57DF4F1882C358D040CC56DF4F19825F
:100F90001882C459D040CA56DF4F19821882C659E8
:100FA000D040C357DF4F19821882CD58D040C55763
:100FB000DF4F19821882CB58D040C856DF4F1982B4
:100FC0001882C859D040ED961FAEED97C157DF4F3C
:100FD0001882CF58D040C057DF4F1882C059D04038
:100FE000CF56DF4F1882C159D040CE56DF4F1882FE
:100FF000C259D040C156DF4F1882CF59D040D12CB2
:1010000088248394912C5D2C0196A11DB11D8093A1
:10101000F5049093F604A093F704B093F804A89510
:101020008091F90480FD85C1EC963FADEC97832F4C
:1010300090E08D30910510F40C94C217EC961FAE21
:10104000EC978091F90482FF60C08091F9048B7F56
:101050008093F9042114310411F00C94F718A4962C
:101060008FADA497CC57DF4F6881C458D0408823F8
:1010700011F40C94981961110AC0C757DF4F888189
:101080009981C958D040892B11F00C943626249AA6
:101090002C986C968FAD6C97882311F40C94AA1938
:1010A0006E961FAE1EAE6E9767968FAD67978111D5
:1010B0000C94631A66962CAD3DAD4EAD5FAD669750
:1010C000CB57DF4F288339834A835B83C558D04091
:1010D00040E06296ECACFDAC0EAD1FAD629720E037
:1010E000CB57DF4F688179818A819B81C558D04079
:1010F000E62AF72A082B192B28966FAD28972796F2
:101100008EAD9FAD27970E94FE280E946029809196
:10111000F90481FFB5C18091F90484FFB1C18091C8
:101120000D0590910E05EBE0E89FA001E99F500DA1
:1011300011249A01A3E4B8E00E94C730481B590B60
:1011400056954795840F951FDC01B295A295AF7017
:10115000AB27BF70AB27C856DF4FB983A883C859E8
:10116000D0408091090590910A05E89FA001E99F70
:10117000500D11249A01A3E4B8E00E94C730481B27
:10118000590B56954795840F951F9C0132952295D2
:101190002F7023273F702327C557DF4F39832883BC
:1011A000CB58D04080910B0590910C05E89FA00191
:1011B000E99F500D11249A010E94C730481B590B1A
:1011C00056954795840F951FAC01529542954F70E7
:1011D00045275F704527C357DF4F59834883CD5854
:1011E000D04080910F059091100544E6489F9001F2
:1011F000499F300D112436952795A1E8BBE40E9444
:10120000C7300024880F991F001C880F991F001CED
:10121000892F902DCA56DF4F99838883C659D040B5
:1012200067968FAD6797882311F40C94191AC557E8
:10123000DF4F68817981CB58D040CC56DF4F79831E
:101240006883C459D040C357DF4F88819981CD58F6
:10125000D0406817790730F4CC56DF4F99838883E4
:10126000C459D0408091F9048D7E8093F904809117
:101270007A00806480937A0021E08C2D90E08D3F8D
:10128000910508F404C160E080E00E947F268BE3B2
:1012900093E00E94DF2661E083E00E947F268CE2DB
:1012A00093E00E94DF261F92CF9282E493E09F9307
:1012B0008F931F9285E18F93C058DF4FE881C0580C
:1012C000D040EF93C158DF4FF881CF57D040FF9304
:1012D0000E94F53062E083E00E947F26C158DF4F14
:1012E00088819981CF57D0400E94CF2663E083E068
:1012F0000E947F268EE193E00E94DF26852D8F706D
:101300000FB6F894DEBF0FBECDBF11F00C94B61F20
:10131000512C8091FA049091FB040A9708F01EC1A9
:101320008091F5049091F604A091F704B091F8042F
:101330006BCE8091F9048E7F8093F9040E9469043A
:101340008A259B25EF964EAD5FADEF97CF57DF4FC8
:10135000A881B981C158D0404A275B27EF962EADAE
:101360003FADEF9720953095FC01E423F523CF574F
:10137000DF4FF983E883C158D040AC0142235323A7
:10138000EF965FAF4EAFEF979F01242B352B209543
:10139000309582239323A826B9265A2C50948F7017
:1013A0005822FE01ED58FF4F80E090E055E049E102
:1013B000252D30E0082E02C0359527950A94E2F7D6
:1013C00020FF6CC040839401082E02C0220F331FFF
:1013D0000A94E2F72A213B21232B09F05DC028E182
:1013E0002083019631968430910511F7552041F103
:1013F000C757DF4F88819981C958D040892B11F098
:101400000C942F1AA4968FADA497882311F40C94F2
:101410002F1AA52DA07F5A2E249A2C9AA4968FAD10
:10142000A4972AE0829FF0011124C757DF4FF98368
:10143000E883C958D040CC57DF4F1882C458D040F9
:10144000ED968FADED97A5FC02C00C940C1A8F7D24
:10145000A6FC02C00C94091A8F77A7FC02C00C945A
:10146000061A8F7BB0FC02C00C94031A877FB1FC74
:1014700002C00C94FD198B7FED968FAFED97D4CD04
:1014800020E08C2D90E08D3F910508F0FCCEFC0112
:10149000E15BFF4F0C94BE304083A3CF9401082E34
:1014A00002C0220F331F0A94E2F72A213B21232B8B
:1014B00099F7208121110C940E269C012C5F3F4F3F
:1014C000B40102C0660F771F2A95E2F7562A5083AF
:1014D00088CF0E94A7266B966FAD6B97CD57DF4FD5
:1014E0006883C358D04060E080E00E947F2683E498
:1014F00094E00E94DF262EE334E049E354E064E305
:1015000074E080E394E00E949D0661E080E00E9428
:101510007F2688E294E00E94DF2662E080E00E945D
:101520007F2681E294E00E94DF26CD57DF4F78814D
:10153000C358D040772311F40C944D1B61E081E037
:101540000E947F268AE20E94AD26ABE9CA2E8091D6
:10155000FA049091FB040A9708F4E2CE8091FA0411
:101560009091FB040A979093FB048093FA042091D6
:10157000F504C157DF4F2883CF58D0403091F6048F
:10158000C057DF4F3883C059D0404091F704CF5641
:10159000DF4F4883C159D0405091F804CE56DF4FF9
:1015A0005883C259D04080E090E0DC012DCD0E94EC
:1015B000A72668963FAD6897CD57DF4F3883C3584D
:1015C000D04060E080E00E947F2687EC92E00E949D
:1015D000CF262FEE34E04AEE54E065EE74E080EE64
:1015E00094E00E949D0661E080E00E947F2685EDE8
:1015F00094E00E94DF2662E080E00E947F2689EC72
:1016000094E00E94DF26CD57DF4F4881C358D04079
:10161000442311F40C94471B61E081E00E947F2673
:101620008AE20E94AD262EE8C22E73CE0E94A72623
:1016300067966FAD6797CD57DF4F6883C358D0402B
:1016400060E080E00E947F2686ED92E00E94CF2637
:1016500024EC34E04FEB54E06BEB74E087EB94E068
:101660000E949D0661E080E00E947F2684EA94E06B
:101670000E94DF2662E080E00E947F2682E994E0FB
:101680000E94DF26CD57DF4F7881C358D0407723A3
:1016900011F40C944A1B62E081E00E947F268AE2EA
:1016A0000E94AD2686E6C82E34CE0E94A7266A96F2
:1016B0003FAD6A97CD57DF4F3883C358D04060E0C5
:1016C00080E00E947F2680E894E00E94DF262BE7DE
:1016D00034E046E754E061E774E08DE694E00E9470
:1016E0009D0661E080E00E947F2681E694E00E94F2
:1016F000DF2662E080E00E947F2686E594E00E947B
:10170000DF26CD57DF4F4881C358D040442311F422
:101710000C94441B62E081E00E947F268AE20E94D2
:10172000AD2614E8C12EF5CD0E94A72660E080E02A
:101730000E947F2683E596E00E94DF2667968FADA4
:10174000679781110C94A31F28968FAD2897882343
:1017500011F40C94581F27968EAD9FAD27979927AB
:101760009F938F9380ED91E09F938F931F9285E1DC
:101770008F93C058DF4FF881C058D040FF93C158B5
:10178000DF4F2881CF57D0402F930E94F5300FB6FE
:10179000F894DEBF0FBECDBFC158DF4F888199815D
:1017A000CF57D0400E94CF2661E080E00E947F2684
:1017B00089E496E00E94DF2662E080E00E947F26B6
:1017C00084E496E00E94DF262A969FAD2A978DEC4E
:1017D000989F812D1124869586958695AAE08A9FEB
:1017E000901911241F929F931F928F938BED91E07C
:1017F0009F938F931F9285E18F93C058DF4FB881DD
:10180000C058D040BF93C158DF4FE881CF57D04078
:10181000EF930E94F530C158DF4F88819981CF57EF
:10182000D0400E94CF2662E08AE00E947F260FB659
:10183000F894DEBF0FBECDBF60E089E00E947F2636
:10184000ED963FADED9735FD02C00C94D61B88E3B5
:1018500096E00E94DF2661E084E00E947F266E967B
:101860002EAD3FAD6E97C90137FF02C00C94E91E43
:1018700064E670E00E94883037FF02C00C94D01CF0
:1018800086E47F936F931F928F938CEF91E09F93E9
:101890008F931F9285E18F93C058DF4FB881C05856
:1018A000D040BF93C158DF4FE881CF57D040EF936E
:1018B0000E94F530C158DF4F88819981CF57D040C1
:1018C0000E94CF2661E089E00E947F260FB6F8943F
:1018D000DEBF0FBECDBF6C968FAD6C9781110C949F
:1018E000C31CA0962EAD3FADA097C90137FF02C023
:1018F0000C94A91F64E670E00E94883037FF02C094
:101900000C94151F86E47F936F931F928F9383E04F
:1019100092E09F938F931F9285E18F93C058DF4F82
:101920003881C058D0403F93C158DF4F4881CF57CE
:10193000D0404F930E94F530C158DF4F8881998184
:10194000CF57D0400E94CF260FB6F894DEBF0FBE0F
:10195000CDBF61E080E10E947F26EC967FADEC97E1
:10196000872F90E0FC013197EC30F10510F40C94D6
:10197000581B85E0EEE4F3E0DE01AC59BF4F019067
:101980000D928A95E1F7CE018C599F4F0E94CF2688
:1019900062E08AE00E947F268CE40E94AD26ED96EC
:1019A0008FADED9787FF02C00C94C91C8DE20E9499
:1019B000AD26C656DF4F9881CA59D040903811F4F1
:1019C0000C94C41FC556DF4FB881CB59D040B038F6
:1019D00011F40C94B41E8FE30E94AD268FE20E9496
:1019E000AD2682E50E94AD26ED96EFADED97E6FDC2
:1019F00002C00C94461C8AE20E94AD26C656DF4FF8
:101A0000F881CA59D040F03411F40C94BF1FC55668
:101A1000DF4F2881CB59D040203411F40C94AF1EF5
:101A20008FE30E94AD2668968FAD689781110C9464
:101A3000A71C6C968FAD6C97882311F40C94541BE3
:101A400047E256E067968FAD6797882311F40C94B0
:101A5000501B8CE196E02CE236E06DE176E00E94CE
:101A60009D0662E0C62E512C54CC852D817111F457
:101A70000C943E1DCD57DF4FB881C358D040B930CC
:101A800011F40C943E2210F00C94BF218B2F845043
:101A9000843010F00C944B2227E0CD57DF4FF881B3
:101AA000C358D0402F1B40E050E06CEF77E0AB967E
:101AB0008EAD9FADAB970E94742FAB969FAF8EAF4C
:101AC000AB9767E9C62E512C24CC61E080E00E94E0
:101AD0007F26AE968FADAE970E943A2BAC962FAD77
:101AE000AC97222311F40C94EF1C29E831E09F936A
:101AF0008F933F932F93AB968FADAB978F93AA960F
:101B00008FADAA978F931F92CD56DF4F4881C3594F
:101B1000D0404F9381E592E09F938F931F9285E190
:101B20008F93C058DF4F5881C058D0405F93C15841
:101B3000DF4F6881CF57D0406F930E94F530C15876
:101B4000DF4F88819981CF57D0400E94CF2662E035
:101B500080E00E947F2687E996E00E94DF2662E00F
:101B6000CD57DF4F8881C358D0400E947F260FB6E3
:101B7000F894DEBF0FBECDBFCD57DF4F9881C3585D
:101B8000D040993011F40C94D71F10F00C94181F0A
:101B9000892F8450843010F00C9413208EE50E941D
:101BA000AD26F8E9CF2EB5CB0E94A726CD56DF4F44
:101BB000A881C359D0408A2F90E0FC01EE0FFF1F8F
:101BC000EE0FFF1FE80FF91F21E030E02C0F3D1F43
:101BD000E20FF31F85E0DE01A759BF4F01900D9280
:101BE0008A95E1F784E1EDE3F2E0C158DF4FA88187
:101BF000B981CF57D04001900D928A95E1F7C15835
:101C0000DF4F88819981CF57D0400E94CF2620EDA9
:101C100035E04BEC55E066EC75E081EC95E00E9418
:101C20009D06B7E9CB2E34E0CD57DF4F3883C3583C
:101C3000D0406FCB852D817111F40C94391ECD5697
:101C4000DF4F8881C359D040882311F40C9453206E
:101C50008150CD56DF4F8883C359D04002E9C02E52
:101C6000512C57CB0E94A726CD56DF4F5881C35920
:101C7000D040553010F00C94D31C6CED75E0511130
:101C80000C94D51C85ED95E026EE35E041EE55E04F
:101C90000E949D068BEACD56DF4F6881C359D04024
:101CA000689FD12C11248D2D8695D82EDD0CD80E51
:101CB000C12C65E1662ECB57DF4FB982A882C5588B
:101CC000D040B52CC158DF4F48805980CF57D04005
:101CD000C056DF4F99828882C05AD04075E07D158A
:101CE00008F463C0CD56DF4F8881C359D0406C2DB6
:101CF0008D1511F40C94242680E00E947F2680E24A
:101D00000E94AD26ED2CF12C8701000F111F000F52
:101D1000111FF801EE0DFF1DA1E0B0E0AC0FBD1FDB
:101D2000EA0FFB1F8381882311F40C94831C43E585
:101D3000942EF801EE0DFF1D21E030E02C0F3D1F29
:101D4000E20FF31F8281882311F40C947F1C23E59A
:101D5000722E0E0D1F1D41E050E04C0F5D1F040F51
:101D6000151FD80114968C910E943A2B1F929F92B6
:101D70001F927F929F938F93F80181818F9380812F
:101D80008F93FF92EF9225E232E03F932F931F92C1
:101D90006F925F924F920E94F530C2010E94CF264F
:101DA0000FB6F894DEBF0FBECDBFC394D39473E0DB
:101DB000C71294CF5B2CCB57DF4FA880B980C55892
:101DC000D040C056DF4F88809980C05AD04083E908
:101DD000C82E9FCA53FE02C00C94AF1F8091FC0412
:101DE0009091FD04CD57DF4FB881C358D0402B2FC1
:101DF00030E02817390711F40C94A1219BEFC92E6C
:101E0000512C87CA8091FC049091FD04CD57DF4F7F
:101E10008883C358D04067968FAD679781110C9423
:101E2000191D0EEB11E0ED967FADED9775FF02C029
:101E300006EC11E060E080E00E947F26CE56DF4F86
:101E40008881C259D0408F93CF56DF4F9881C159B6
:101E5000D0409F93C057DF4FA881C059D040AF9367
:101E6000C157DF4FB881CF58D040BF931F930F9316
:101E7000C856DF4F28813981C859D040ADECBCEC41
:101E80000E94C730969587959695879596958795E4
:101E9000AC01440F551F9C01220F331F220F331F2B
:101EA000220F331F240F351FC856DF4FE881F981F9
:101EB000C859D040E21BF30B9F013F93EF939F93D0
:101EC0008F938DEE92E09F938F931F9215E11F9356
:101ED000C058DF4FF881C058D040FF93C158DF4F42
:101EE0002881CF57D0402F930E94F530C158DF4F43
:101EF00088819981CF57D0400E94CF2661E080E051
:101F00000E947F26CA56DF4F28813981C659D040AA
:101F10003695279536952795ABE7B4E10E94C730F3
:101F20009695879544E6489F9001499F300D11246E
:101F3000CA56DF4F48815981C659D040421B530BC6
:101F40009A013F934F939F938F93C357DF4F2881FD
:101F50003981CD58D040ADECBCEC0E94C73096958D
:101F600087959695879596958795AC01440F551F53
:101F70009C01220F331F220F331F220F331F240F08
:101F8000351FC357DF4F68817981CD58D040621B20
:101F9000730B9B013F936F939F938F93C557DF4FB5
:101FA00028813981CB58D0400E94C73096958795BB
:101FB0009695879596958795AC01440F551F9C0182
:101FC000220F331F220F331F220F331F240F351F01
:101FD000C557DF4FA881B981CB58D040A21BB30BA6
:101FE0009D013F93AF939F938F9386E093E09F93E0
:101FF0008F931F921F93C058DF4FB881C058D040B5
:10200000BF93C158DF4FE881CF57D040EF930E9474
:10201000F5300FB6F894DEBF0FBECDBFC158DF4F0D
:1020200088819981CF57D0400E94CF2662E080E01E
:102030000E947F26ED963FADED9732FD02C00C94D5
:102040003A1D2AEC31E0ED964FADED9743FD02C00D
:102050000C94361D8DEC91E0ED965FADED9756FD3D
:1020600002C00C942B1D52E5ED966FADED9767FF06
:1020700002C00C94331D4DE23F932F939F938F9397
:102080001F925F931F924F931F9289E08F931F922D
:102090001F921F9282E78F9385E88F9384E88F9336
:1020A0008AE293E09F938F931F9285E18F93C058AC
:1020B000DF4F7881C058D0407F93C158DF4F88816F
:1020C000CF57D0408F930E94F530C158DF4F8881A1
:1020D0009981CF57D0400E94CF260FB6F894DEBF2B
:1020E0000FBECDBF2CEFC22E14C9852D817111F406
:1020F0000C94971DCD57DF4F8881C358D0408A502C
:10210000833010F40C94F22128E8C22E8AE0CD57D7
:10211000DF4F8883C358D040512CFBC862E080E079
:102120000E947F2687E996E00E94DF2661E08AE030
:102130000E947F261F92C256DF4F3881CE59D04071
:102140003F9381EC92E09F938F931F9285E18F9351
:10215000C058DF4F4881C058D0404F93C158DF4F1F
:102160005881CF57D0405F930E94F530C158DF4F60
:1021700088819981CF57D0400E94CF2662E0CD5709
:10218000DF4F8881C358D0400E947F268EE50E9491
:10219000AD260FB6F894DEBF0FBECDBF19E8C12E35
:1021A000B8C80E94A72688E295E00E94DF2661E079
:1021B00081E00E947F268EE195E00E94DF26A396B3
:1021C000FFADA397C256DF4FF883CE59D04029E127
:1021D00035E044E155E06FE075E08AE095E00E946B
:1021E0009D0608E8C02E2AE0CD57DF4F2883C3584C
:1021F000D0408FC850FE02C00C940F1D51FE02C08B
:102200000C94C320852D8C7011F40C946A2252FE1C
:1022100016C081E0CD57DF4F5881C358D0405111CF
:1022200001C080E06A969FAD6A97981741F06A9660
:102230008FAF6A97CE018A5A9F4F0E947E2B0E94D1
:10224000A726BAE0CB2E512C64C8852D817111F4DC
:102250000C94621D29968FAD2997843610F00C944A
:10226000CE208F5F29968FAF299761EFC62E512C14
:1022700050C829969FAD2997A0962EAD3FADA09747
:1022800037FF02C00C94BC1F86E41F929F931F92DD
:102290008F9384EE92E09F938F931F9285E18F93AB
:1022A000C058DF4FA881C058D040AF93C158DF4F0E
:1022B000B881CF57D040BF930E94F53061E08CE0E9
:1022C0000E947F26C158DF4F88819981CF57D04027
:1022D0000E94CF2629968FAD29970FB6F894DEBFBE
:1022E0000FBECDBF882311F40C94F31C65EF73E08F
:1022F000843610F40C94F51C8EEE93E02FEF33E04F
:102300004AEF53E00E949D0672EFC72E0C94890994
:102310000E94A72660E080E00E947F268FE094E084
:102320000E94DF2661E081E00E947F2684E094E045
:102330000E94DF26E1EFCE2E0C948909852D817154
:1023400011F40C94B41DEEE6F0E0EC0FFD1FCD5738
:10235000DF4F2881C358D040E20FF11D808190E00B
:1023600001966EE170E00E948830808394E7C92E68
:10237000512C0C94890962E080E00E947F2687E955
:1023800096E00E94DF269E0122593F4F790100E02E
:1023900010E035E1C32EC158DF4F68807980CF57F8
:1023A000D040D02ED7018D917D010F5F1F4F8D3111
:1023B00010F40C94661A45E150E062EB72E0C30140
:1023C0000E94E63052E0D51611F40C947B1A5D158C
:1023D00010F00C94991A73E0D71611F40C94491C60
:1023E00084E0D8120C94671C61E081E10E947F2692
:1023F000C158DF4F88819981CF57D0400E94CF26A6
:10240000CD57DF4FF881C358D040F43011F40C940D
:10241000112685E7C82E0C9489090E94A7261F92D1
:10242000CD56DF4F8881C359D0408F938BE992E01E
:102430009F938F931F9285E18F93C058DF4F9881B0
:10244000C058D0409F93C158DF4FA881CF57D0408C
:10245000AF930E94F530C158DF4F88819981CF57E3
:10246000D0400E94CF2623EA35E04EE955E069E9E5
:1024700075E084E995E00E949D068DE1AF968FAFEF
:10248000AF97E0968FAFE097E1968FAFE197E29636
:102490008FAFE297E3968FAFE39725960CAD1DAD16
:1024A0002EAD3FAD25970FB6F894DEBF0FBECDBF62
:1024B00080E090E004C001968D31910579F0B9017A
:1024C000A801082E04C076956795579547950A94FC
:1024D000D2F740FFF0CFAF968FAFAF97C9ACDAAC71
:1024E000EBACFCAC80E090E004C001968D3191052E
:1024F00039F1282FB701A601082E04C076956795FB
:10250000579547950A94D2F740FFEFCFE0968FAFEB
:10251000E09781E0820F8D3121F412C08F5F8D3101
:1025200079F0B701A601082E04C0769567955795F6
:1025300047950A94D2F740FFF1CFE1968FAFE1972C
:102540002196CCACDDACEEACFFAC219780E090E006
:1025500006C001968D31910511F40C94C21E282FEE
:10256000B701A601082E04C0769567955795479543
:102570000A94D2F740FFEDCFE2968FAFE29781E069
:10258000820F8D3139F40C941B268F5F8D3111F43D
:102590000C94B91EB701A601082E04C07695679564
:1025A000579547950A94D2F740FFEFCFE3968FAF48
:1025B000E39754E7C52ECD57DF4F1882C358D0405C
:1025C0000C948909852D817111F40C94501ECD57FE
:1025D000DF4F3881C358D040832F90E0FC013497FF
:1025E000EF30F10510F40C945820AFE6CA2E512CB0
:1025F0000C94890961E084E00E947F26CD56DF4F6C
:102600004881C359D04098AD8DEC989F812D1124FD
:10261000869586958695442311F40C947C1FAAE038
:102620008A9F901911246FA94CA95DA92EA9222374
:1026300011F40C94541F21E931E01F929F931F92D3
:102640008F931F926F935F934F933F932F931F929C
:1026500085E18F93C058DF4FB881C058D040BF93F9
:10266000C158DF4FE881CF57D040EF930E94F5303B
:102670000FB6F894DEBF0FBECDBFC158DF4F8881C3
:102680009981CF57D0400E94CF2662E080E00E941F
:102690007F2687E996E00E94DF2662E0CD57DF4F74
:1026A0008881C358D0400E947F268EE50E94AD26C7
:1026B000F0E7CF2E0C9489090E94A726BE016C5C1E
:1026C0007F4FCD56DF4F8881C359D0400E94F12BF8
:1026D0001F92CD56DF4FB881C359D040BF938FE6CC
:1026E00092E09F938F931F9285E18F93C058DF4FA5
:1026F000E881C058D040EF93C158DF4FF881CF57E1
:10270000D040FF930E94F530C158DF4F88819981F6
:10271000CF57D0400E94CF260FB6F894DEBF0FBE31
:10272000CDBFCD56DF4F3881C359D04031110C9405
:10273000C91D62E08AE00E947F268EE50E94AD26D8
:10274000AAE0CD57DF4FA883C358D04047EB55E0F0
:102750002CEB35E06DEA75E088EA95E00E949D0675
:10276000AFE6CA2E0C94890950FC02C00C949A1E44
:10277000CD56DF4F2881C359D040222311F40C9449
:1027800081212150CD56DF4F2883C359D040FAE62E
:10279000CF2E512C0C9489090E94A726CD56DF4FCD
:1027A0003881C359D0403E3010F00C94E91C62EFE0
:1027B00075E031110C94EB1C8BEE95E02CEF35E0BD
:1027C00047EF55E00E949D068BEACD56DF4F4881CA
:1027D000C359D040489F812D11248695082F000FA2
:1027E000800F082F10E0D12CE42EF12CBDEC7B2EB5
:1027F00085E1C82E652CC158DF4F48805980CF57DE
:10280000D0400F3011050CF043C00E151F0511F418
:102810000C94AD21BE016C5C7F4F802F0E94F12B88
:102820006D2D82E00E947F2698AD979D812D112409
:102830008695869586950115110511F40C94CB1E8D
:10284000BAE08B9F901911246FA94CA95DA92EA9FC
:10285000222311F40C94CC1C22E531E01F929F93AB
:102860001F928F931F926F935F934F931F930F93BA
:102870003F932F931F92CF925F924F920E94F53019
:102880000FB6F894DEBF0FBECDBFC2010E94CF26A7
:10289000D3940F5F1F4FF3E0DF12B3CF562CABE69C
:1028A000CA2E0C9489091AE6C12ECD56DF4F188224
:1028B000C359D0400C94890950FE02C00C94DF1C0F
:1028C00051FE02C00C944320852D8C7011F40C94A1
:1028D000E92252FE21C081E0CD57DF4F9881C358D5
:1028E000D040911101C080E067969FAD679798171F
:1028F00099F067968FAF6797CD57DF4FA881C35880
:10290000D040AA2311F40C947C250E949227CE017A
:102910008A5A9F4F0E947E2B0E94A7260AE0C02E53
:10292000512C0C948909852D817111F40C94F81D9A
:10293000C156DF4FE881CF59D040EE2311F40C94FB
:10294000DF1FE150C156DF4FE883CF59D0405AE036
:10295000C52E512C0C9489090E94A726C156DF4F21
:10296000F881CF59D040FB3010F00C94D91C6BEF9C
:1029700074E0F1110C94DB1C84EF94E025E035E069
:1029800040E055E00E949D068BEAC156DF4F28814A
:10299000CF59D040289F812D11248695682E660C32
:1029A000860D682E712C7301EE0CFF1CC701860D7D
:1029B000971DAC01405B5B4F7A0100E010E0C22E36
:1029C000D12C402EC301800F911F8C30910570F4E3
:1029D000C816D90611F40C94B621642D82E00E9429
:1029E0007F26D7018D919C910E94CF260F5F1F4FAC
:1029F000B3E0EB0EF11C0330110519F76BE0C62EA6
:102A00000C948909222311F0CC24C39450FE7FC773
:102A100067968FAD679781117AC708E7C02E512C52
:102A20000C9489090E94A72685E595E00E94DF267F
:102A300061E081E00E947F268BE495E00E94DF2622
:102A4000A2962FADA297C256DF4F2883CE59D04011
:102A500026E435E041E455E06CE375E087E395E07A
:102A60000E949D065EE7C52E3AE0CD57DF4F3883C2
:102A7000C358D0400C9489090E94A7262DE433E066
:102A80004CE453E06BE473E08AE493E00E949D061B
:102A9000ABEFCA2E0C94890950FC02C00C940F1E97
:102AA000CD57DF4F5881C358D040552311F40C94B3
:102AB0004E205150CD57DF4F5883C358D04016EFAA
:102AC000C12E512C0C94890960E080E00E947F2681
:102AD0008AED93E00E94DF26CD57DF4F4881C3582F
:102AE000D04061E0442311F40C94DA1D81E00E948F
:102AF0007F2689EC93E00E94DF2662E081E00E945D
:102B00007F2688EB93E00E94DF2661E08BE00E9445
:102B10007F26CD57DF4F8881C358D040805D0E940B
:102B2000AD2623EB33E042EB53E061EB73E08CEA3C
:102B300093E00E949D0687EFC82E512C0C948909C2
:102B40000E94A72696EFC92E35E0CD57DF4F388378
:102B5000C358D0400C948909852D817111F40C94CF
:102B60006C1EC256DF4F9881CE59D0409A3F10F06C
:102B70000C94AD20965FC256DF4F9883CE59D0405B
:102B8000FCEECF2E512C0C94890961E08AE00E9462
:102B90007F26C256DF4F4881CE59D0404111A5C78C
:102BA00085E0ECEBF2E0C158DF4FA881B981CF5747
:102BB000D04001900D928A95E1F7C158DF4F88818E
:102BC0009981CF57D0400E94CF26ADEECA2E0C94EB
:102BD000890982E9C82ECD56DF4F1882C359D040EB
:102BE0000C948909F1E0CC57DF4FF883C458D040EA
:102BF000C12C512C0C9489090E94A72682E895E0EB
:102C00000E94DF2661E081E00E947F2688E795E050
:102C10000E94DF2662E08AE00E947F268AE692E038
:102C20000E94CF26A4968FADA4979DEC899F812DFD
:102C30001124869586958695880F982F990F990F60
:102C4000890FC256DF4F8883CE59D04023E735E045
:102C50004EE655E069E675E084E695E00E949D0643
:102C6000BCEECB2E0C94890950FCCEC651FE02C09E
:102C70000C94B920852D8C7011F40C949F2252FE77
:102C800016C081E0CD57DF4F9881C358D0409111D5
:102C900001C080E06A969FAD6A97981741F06B96E5
:102CA0008FAF6B97CE018A5A9F4F0E947E2B0E9456
:102CB000A726FAE0CF2E512C0C948909852D81711D
:102CC00009F4BAC7CD57DF4F8881C358D0408A5026
:102CD000833010F40C9410224EE7C42E6AE0CD57D6
:102CE000DF4F6883C358D040512C0C94890962E0AF
:102CF00080E00E947F2687E996E00E94DF2661E05F
:102D00008AE00E947F261F92C256DF4F4881CE592B
:102D1000D0404F9381EC92E09F938F931F9285E177
:102D20008F93C058DF4F5881C058D0405F93C1582F
:102D3000DF4F6881CF57D0406F930E94F530C15864
:102D4000DF4F88819981CF57D0400E94CF2662E023
:102D5000CD57DF4F8881C358D0400E947F268EE533
:102D60000E94AD260FB6F894DEBF0FBECDBF4FE771
:102D7000C42E0C94890950FC3CC651FE02C00C9430
:102D80009221852D8C7011F40C94892252FE16C06C
:102D900081E0CD57DF4F5881C358D040511101C059
:102DA00080E068969FAD6897981741F068968FAF5E
:102DB0006897CE018A5A9F4F0E947E2B0E94A726B9
:102DC0009AE0C92E512C0C9489090E94A726CD5651
:102DD000DF4F3881C359D0403E3008F037C668E035
:102DE00076E0311135C681E096E022E136E04DE033
:102DF00056E00E949D068BEACD56DF4F4881C359AD
:102E0000D040489FE12C1124E6948E2D880FE80EC7
:102E1000442443944E0C00E010E0F12CC42ED12C3D
:102E200037015FEF651A750ACB57DF4F3982288269
:102E3000C558D040C056DF4FB982A882C05AD04092
:102E4000B52CCE55DF4F99828882C25AD040942C3F
:102E5000C158DF4F48805980CF57D040302EC8012D
:102E60008E0D9F1D8E30910508F04DC0C816D906F5
:102E700011F40C94A421BE016C5C7F4F892D0E943B
:102E8000F12B632D81E00E947F269301200F311FDB
:102E900069968FAD699790E08217930709F497C7F9
:102EA000F0E298AD6DEC969F812D11248695869564
:102EB00086957AE0879F90191124EFA96CA97DA9C6
:102EC0004EA9442309F440C549E151E01F929F9364
:102ED0001F928F931F92EF937F936F931F92FF9395
:102EE0003F932F935F934F931F9285E18F935F9250
:102EF0004F920E94F530C2010E94CF260FB6F8947F
:102F0000DEBF0FBECDBF0F5F1F4F9394033011057F
:102F100009F0A4CF5B2CCB57DF4F28803980C558F0
:102F2000D040C056DF4FA880B980C05AD040CE559F
:102F3000DF4F88809980C25AD0405AE7C52E0C9442
:102F4000890967968FAD6797882309F476C5C12CE8
:102F50000C948909852D817109F4D5C6CD56DF4FB2
:102F6000B881C359D040BB2311F40C949C21B150BB
:102F7000CD56DF4FB883C359D04049E7C42E512CFA
:102F80000C948909FC01E45BFE4F0C94BE30299639
:102F90002FAD29975CE95203C0011124A0969FAF81
:102FA0008EAFA097ED968FADED97C356DF4F68813A
:102FB000CD59D040862311F00C9421084BE0BE017E
:102FC0006F5F7F4FED968FADED970E94430573E0E5
:102FD000EC967FAFEC970C942108A0961FAE1EAE26
:102FE000A0972114310409F0F7C029968FAD2997D5
:102FF000E4E68E9FC0011124A0969FAF8EAFA097EC
:10300000FCE0EC96FFAFEC978091F90482FD1FC0C5
:10301000212C312C0C948508A0961FAE1EAEA097D3
:103020002114310409F0D8C029962FAD29973CE925
:103030003203C0011124A0969FAF8EAFA0974BE042
:10304000EC964FAFEC978091F90482FFE1CF80912D
:10305000F9048B7F8093F904212C312C0C942F08D8
:10306000A0961FAE1EAEA0976E968EAD9FAD6E97CA
:10307000892B11F00C942108A3962FACA397AAE0FA
:103080002A9E10011124BAE0EC96BFAFEC970C9485
:103090002108A0961FAE1EAEA0976E968EAD9FAD76
:1030A0006E97892B11F00C942108A3962FACA3974F
:1030B0009AE0299E10011124A9E0EC96AFAFEC979D
:1030C0000C942108A0961FAE1EAEA0976E968EADF2
:1030D0009FAD6E97892B11F00C942108A2962FAC0E
:1030E000A2978AE0289E1001112491E0EC969FAFF0
:1030F000EC970C942108A0961FAE1EAEA0976E967A
:103100008EAD9FAD6E97892B11F00C942108A2967D
:103110002FACA2977AE0279E1001112482E0EC9652
:103120008FAFEC970C942108ED968FADED97C656B6
:10313000DF4F9881CA59D040892309F025C268968B
:103140008FAD6897882359F0ED968FADED97C456F3
:10315000DF4FB881CC59D0408B2309F040C6299667
:103160008FAD2997F4E68F9FC0011124A0969FAFE1
:103170008EAFA0970C942108ED968FADED97C556B4
:10318000DF4F2881CB59D040822309F010C26896C6
:103190008FAD6897882359F0ED968FADED97C356A4
:1031A000DF4F4881CD59D040842309F02BC62996A2
:1031B0002FAD29976CE96203C0011124A0969FAF3F
:1031C0008EAFA0970C942108A0961FAE1EAEA097BC
:1031D0002114310409F4CAC18091F90482FD02C0AE
:1031E0000C9485088091F9048B7F8093F90451E059
:1031F000251A31080C942F08A0961FAE1EAEA0977A
:103200002114310449F741E0BE016F5F7F4FED9615
:103210008FADED970E94AB0563E0EC966FAFEC9736
:10322000F3CE29968FAD299724E6829FC001112401
:10323000A0969FAF8EAFA097ED968FADED97C45639
:10324000DF4F3881CC59D040832311F00C942108F2
:103250004CE0BE016F5F7F4FED968FADED970E9402
:10326000430544E0EC964FAFEC970C942108A096F0
:103270008EAD9FADA0976E962EAD3FAD6E9797FD2C
:10328000F7C129968FAD299744E6849FC001112488
:10329000A0969FAF8EAFA097121613060CF09AC19E
:1032A000ED966FADED9767FDD8C5EC961FAEEC9728
:1032B000C656DF4F1882CA59D040C556DF4F188214
:1032C000CB59D040C456DF4F1882CC59D040C3569A
:1032D000DF4F1882CD59D040ED96EFADED97E6FD6A
:1032E00002C00C94210846E0BE016F5F7F4F8E2F15
:1032F0000E94AB05F6E0EC96FFAFEC9720E4C656D3
:10330000DF4F2883CA59D04030E8C556DF4F388395
:10331000CB59D04048E0C456DF4F4883CC59D04009
:1033200054E0C356DF4F5883CD59D0400C94210848
:10333000611175C08EEF90E0C757DF4F9983888386
:10334000C958D040249A2C9A6C968FAD6C978111F5
:103350000C945008A096EEADFFADA0976E962EADE2
:103360003FAD6E97E217F30709F129968FAD2997C4
:1033700044E6849FC00111242A966FAD2A9770E01D
:103380000E948830A9014E1B5F0B57FDCEC0CB01B8
:103390004617570708F4CA012E173F070CF06AC0FA
:1033A000280F391F6E963FAF2EAF6E9767968FAD81
:1033B000679781116FC066964CAD5DAD6EAD7FAD08
:1033C0006697CB57DF4F488359836A837B83C55801
:1033D000D04037FF70C02E96ECACFDAC0EAD1FADEB
:1033E0002E9788279927821B930B64E670E00E9432
:1033F0008830462F21E00C9470088460ED968FAFE2
:10340000ED970C94140888600C94370A80640C942F
:10341000320A80680C942D0A80620C94280AAFEF5F
:10342000B0E0C757DF4FB983A883C958D0400C9488
:103430004708C557DF4FA881B981CB58D040C35743
:10344000DF4FE881F981CD58D040AE0FBF1FCC5679
:10345000DF4FB983A883C459D0400C943209CC57AC
:10346000DF4F9881C458D040992311F40C940E0A70
:103470000C94090AE217F3070CF098CF281B390BBC
:103480006E963FAF2EAF6E9767968FAD6797882386
:1034900009F491CF432F441F4427441FC90137FD2E
:1034A00012C264E670E00E948830862F642F0E946A
:1034B000B8270C948508C90164E670E00E94883042
:1034C000462F0C94690880E040E0F0CF1F928F9364
:1034D000E6EBF2E0FF93EF931F92CF927F926F9211
:1034E0000E94F5300FB6F894DEBF0FBECDBF52E09C
:1034F000D5120C94E71161E089E00E947F26C30198
:103500000E94CF26CD57DF4FB881C358D040B2308C
:1035100011F00C94D11162E08AE00E947F268CE6C3
:1035200092E00E94CF260C94D111519541955109FA
:103530002ECF61E0D612CBC161E085E00E947F26EC
:10354000C3010E94CF26CD57DF4FA881C358D0407A
:10355000A13011F00C94D11162E086E00E947F2628
:103560008CE692E00E94CF260C94D11142E0BE017D
:103570006F5F7F4FED968FADED970E94AB0574E0C6
:10358000EC967FAFEC9740CDA0961FAE1EAEA097F5
:1035900046E0BE016F5F7F4FED968FADED970E94C5
:1035A000AB05A6E0EC96AFAFEC970C942108A09683
:1035B0001FAE1EAEA09745E0BE016F5F7F4FED9638
:1035C0008FADED970E94AB0535E0EC963FAFEC97E1
:1035D0000C942108EC961FAEEC97C656DF4F18826C
:1035E000CA59D040C556DF4F1882CB59D040C45677
:1035F000DF4F1882CC59D040C356DF4F1882CD59C7
:10360000D040232B11F40C942108ED966FADED976B
:1036100067FF02C00C944A25ED96EFADED97E6FDED
:1036200002C00C94210845E0BE016F5F7F4F8E2FD2
:103630000E94AB05F5E0EC96FFAFEC9720E8C6568C
:10364000DF4F2883CA59D04030E4C556DF4F388356
:10365000CB59D04044E0C456DF4F4883CC59D040CA
:1036600058E0C356DF4F5883CD59D0400C94210801
:1036700029964FAD29975CE95403C0011124A09607
:103680009FAF8EAFA09708CE61E00C948B0B62E0E9
:103690000C940D0B61E00C944C0B62E00C949F0AAF
:1036A00087E196E00C942B0D42E256E00C94220D3B
:1036B000E75AFE4F85E00C94BE30E3E5F3E0DE010F
:1036C000AC59BF4F01900D928A95E1F70C94C30C51
:1036D000E8E5F3E0DE01AC59BF4F01900D928A9509
:1036E000E1F70C94C30CEDE5F3E0DE01AC59BF4FFC
:1036F00001900D928A95E1F70C94C30CE2E6F3E099
:10370000DE01AC59BF4F01900D928A95E1F70C9400
:10371000C30CE7E6F3E0DE01AC59BF4F01900D9218
:103720008A95E1F70C94C30CECE6F3E0DE01AC59AA
:10373000BF4F01900D928A95E1F70C94C30CE1E71D
:10374000F3E0DE01AC59BF4F01900D928A95E1F78D
:103750000C94C30CE6E7F3E0DE01AC59BF4F0190D7
:103760000D928A95E1F70C94C30CEBE7F3E0DE01D0
:10377000AC59BF4F01900D928A95E1F70C94C30CA0
:10378000E0E8F3E0DE01AC59BF4F01900D928A955D
:10379000E1F70C94C30CE5E8F3E0DE01AC59BF4F50
:1037A00001900D928A95E1F70C94C30CCA56DF4F35
:1037B00028813981C659D040369527953695279569
:1037C000ABE7B4E10E94C7309695879544E6489FE1
:1037D0009001499F300D1124CA56DF4F488159810D
:1037E000C659D040421B530B9A013F934F939F936E
:1037F0008F93CC56DF4F28813981C459D040ADEC2E
:10380000BCEC0E94C73096958795969587959695BE
:103810008795AC01440F551F9C01220F331F220FC7
:10382000331F220F331F240F351FCC56DF4F688103
:103830007981C459D040621B730B9B013F936F93F6
:103840009F938F9386EE91E09F938F931F9285E1D4
:103850008F93C058DF4F7881C058D0407F93C158B4
:10386000DF4F8881CF57D0408F930E94F530C158E9
:10387000DF4F88819981CF57D0400E94CF260FB665
:10388000F894DEBF0FBECDBF0C942B0C8DE20C94D0
:10389000FC0C61E08DE00E947F26C3010E94CF26D0
:1038A000CD57DF4FE881C358D040E33011F00C947E
:1038B000D11162E08EE00E947F268CE692E00E94A9
:1038C000CF260C94D111919581959109EACD61E0B3
:1038D00081E00E947F26C3010E94CF26CD57DF4F93
:1038E0009881C358D040992311F40C942C260530AC
:1038F00011F00C94D11125E7C22E0C94890993E4A0
:10390000792E0C94A90E33E4932E0C94990E51FC4D
:103910009FC252FE4DC56C969FAD6C9781E0892782
:103920006C968FAF6C97882309F4A5C66E961FAE70
:103930001EAE6E976B968FAD6B978111ACC7CC2482
:10394000C394512C0C94890946E351E0BFCA8FE21D
:103950000E94AD2689E40E94AD26ED968FADED97CD
:103960008C708C3009F4A2C6ED963FADED9732FD18
:1039700029C5ED964FADED9743FF1FC58CE40E941E
:10398000AD260C94190D81E396E00E94DF260C947D
:10399000A90C8AE20C94D70C2EE631E00C942E147C
:1039A00082E50C94410C6BED75E086ED95E00C948E
:1039B000440E6AEF74E085EF94E00C94BE14A5E623
:1039C000CA2ECD57DF4F1882C358D040512C0C94CB
:1039D000890961EF75E08CEE95E00C94DE132DE81B
:1039E00031E00C94770D64EF73E08FEE93E00C946C
:1039F0007E111DE8C12EA1E0CD57DF4FA883C3582B
:103A0000D040512C0C9489096AE9C62EF1E0CD57BB
:103A1000DF4FF883C358D040512C0C948909E3E858
:103A2000CE2ECD57DF4F1882C358D040512C0C9466
:103A3000890902EC11E00C94130FA9E7CA2ECD56A8
:103A4000DF4F1882C359D0400C94890967E076E0B3
:103A500082E096E0CAC95DE2ED966FADED9767FD35
:103A600002C00C943B104CE40C943C1083EB92E0AD
:103A70000C942C1023EB32E00C942310852D8272D1
:103A800009F491C3CD57DF4F2881C358D040273068
:103A900009F499C708F4F7C5CD57DF4F3881C358EB
:103AA000D040393009F479C73E3009F081C797E931
:103AB000C92E64E0CD57DF4F6883C358D040512CE6
:103AC0000C948909852D827209F4B1C229968FADB3
:103AD0002997882309F4F9C4815029968FAF299733
:103AE00051EFC52E512C0C9489091F92C256DF4FFD
:103AF0005881CE59D0405F9381EC92E09F938F9391
:103B00001F9285E18F93C058DF4F6881C058D04025
:103B10006F93C158DF4F7881CF57D0407F930E9479
:103B2000F5300FB6F894DEBF0FBECDBF46C8852D69
:103B3000827209F4A1C2CD57DF4F8881C358D040AB
:103B40008A50823008F0B1C4CD57DF4FB881C358D6
:103B5000D040BF5FCD57DF4FB883C358D040A8E8EF
:103B6000CA2E512C0C94890951FE2EC2CD57DF4F1D
:103B70003881C358D0403F5FCD57DF4F3883C3589B
:103B8000D04084E7C82E363008F0A7C4512C0C94DE
:103B9000890962E084E00E947F268EE50E94AD26BE
:103BA00094E0CD57DF4F9883C358D04042EB55E0A7
:103BB0000C94A81380E00E947F2687E993E00E947E
:103BC000DF2662E080E00E947F2682E893E00E9488
:103BD000DF262DE733E04CE753E067E773E086E745
:103BE00093E00E949D0607EFC02E512C0C9489098A
:103BF000852D827209F4EFC1C156DF4FF881CF598C
:103C0000D040FB3008F071C4FF5FC156DF4FF8832E
:103C1000CF59D0404AE0C42E512C0C94890951FE52
:103C200075C3CD57DF4F6881C358D040662309F470
:103C3000D4C7512C0C948909852D827209F492C243
:103C4000CD57DF4F8881C358D0408A50823008F06A
:103C50000AC4CD57DF4FB881C358D040BF5FCD579E
:103C6000DF4FB883C358D0402EE7C22E512C0C949E
:103C70008909852D827209F4B6C2CD56DF4F98812D
:103C8000C359D040953008F035C49F5FCD56DF4F03
:103C90009883C359D04012E9C12E512C0C94890944
:103CA000852D827209F4B0C1CD57DF4FE881C3582A
:103CB000D0408E2F90E0FC013497EF30F10508F4EE
:103CC00041C4AFE6CA2E64E0CD57DF4F6883C358C6
:103CD000D040512C0C948909852D827209F41BC3A4
:103CE000C256DF4FA881CE59D040AA2309F40CC494
:103CF000AA50C256DF4FA883CE59D040ECEECE2E4C
:103D0000512C0C948909852D827209F473C2CD5609
:103D1000DF4FE881C359D040EE3008F002C4EF5FB6
:103D2000CD56DF4FE883C359D04039E7C32E512C1D
:103D30000C94890951FE3EC2CD56DF4F3881C359DC
:103D4000D0403E3008F0E8C33F5FCD56DF4F3883A8
:103D5000C359D040EAE6CE2E512C0C94890982E555
:103D60000E94AD260C94130D82E50E94AD260C94A2
:103D7000EE0C44E7C42ECD57DF4F1882C358D04015
:103D80000C94890964E7C62ECD57DF4F1882C358BB
:103D9000D0400C9489095AE0859F901911241F92F4
:103DA0009F931F928F938FA91F928F936CE072E065
:103DB0007F936F931F92CF925F924F920E94F53044
:103DC0000FB6F894DEBF0FBECDBF0C944514FAE2D7
:103DD00068C888279927821B930B0C94380CA096EF
:103DE0001FAE1EAEA09748E0BE016F5F7F4FED96FD
:103DF0008FADED970E944305E8E0EC96EFAFEC97AE
:103E00000C942108A0961FAE1EAEA09747E0BE01FD
:103E10006F5F7F4FED968FADED970E94430557E0A2
:103E2000EC965FAFEC970C94210882E50C94830C20
:103E3000CD57DF4FA881C358D040AE3009F0F3C052
:103E400089E692E00E94CF2678E9C72E0C94890972
:103E500010EFC12E512C0C94890946E0BE016F5F12
:103E60007F4FED968FADED970E94AB0576E0EC9617
:103E70007FAFEC9780E8C656DF4F8883CA59D040A1
:103E800090E4C556DF4F9883CB59D040A4E0C45688
:103E9000DF4FA883CC59D040B8E0C356DF4FB8837A
:103EA000CD59D0400C94210828EA31E00C941D1320
:103EB00027968FAD27978F9326968FAD26978F9352
:103EC00086ED91E09F938F931F9285E18F93C05869
:103ED000DF4F5881C058D0405F93C158DF4F688191
:103EE000CF57D0406F930E94F5300FB6F894DEBFE5
:103EF0000FBECDBF0C94CC0B5AE0859F90191124B6
:103F00001F929F931F928F938FA91F928F9385E883
:103F100092E09F938F931F9285E18F93C058DF4F5C
:103F20006881C058D0406F93C158DF4F7881CF5718
:103F3000D0407F930E94F5300FB6F894DEBF0FBEDD
:103F4000CDBF0C943D138EE496E00E94DF260C94C6
:103F5000D40B88279927821B930B0C947A0C0E9410
:103F6000A7269AE0C92E512C0C9489090E94A726F5
:103F7000C12C512C0C94890982E50C94451186E4DE
:103F80000E94AD260C94130D86E40E94AD268FE2AC
:103F90000E94AD2682E50E94AD26ED96AFADED976D
:103FA000A6FF5CC28AE20E94AD260C94070D8BE648
:103FB00092E00E94CF26E8E9CE2E0C9489098AE08F
:103FC000C82E512C0C94890952FCF8C353FC79C4B7
:103FD000512C0C94890953FCEBC352FE51C3C156BA
:103FE000DF4F2881CF59D040822F90E0FC01EE0FA7
:103FF000FF1F8E0F9F1FFC01E05BFB4F1281111111
:1040000075C5512C0C94890952FE4AC2CD56DF4F1A
:104010007881C359D040772309F431C573E7C72E9F
:10402000512C0C94890908E9C02E0C94890952FE80
:1040300047C2A0968EAD9FADA097919581959109AD
:10404000A0969FAF8EAFA0972091FA043091FB0409
:104050002A30310508F0C0C28091F5049091F60431
:10406000A091F704B091F80441EFC42EEC961FAE76
:10407000EC97512C0C94040852FC1DC353FC6EC4E5
:10408000512C0C948909F5E6CF2EB1E0CD57DF4FC6
:10409000B883C358D040512C0C94890926EFC22E06
:1040A000512C0C94890932E9C32E512C0C948909A6
:1040B000EB59FE4F0C94BE30CD57DF4F9881C3585B
:1040C000D040923109F495C421E1291B88AD41E02B
:1040D00050E06FEF70E090E00E94742F88AF9FE691
:1040E000C92E512C0C9489092CE0CD57DF4F8881C3
:1040F000C358D040281B8FA941E050E064E670E02F
:1041000090E00E94742F8FAB2FE6C22E512C0C949E
:1041100089098EA9882309F46EC41EAAEFE6CE2E63
:10412000512C0C94890927E0CD57DF4F7881C35873
:10413000D040271B8EA9882309F42CC46FE770E0B8
:1041400040E050E08CA99DA90E94742F9DAB8CABE0
:104150003FE6C32E512C0C9489096CEEC62E512CCF
:104160000C94890952FCC3C253FCFFC3512C0C941C
:1041700089095AE9C52ECD57DF4F1882C358D04060
:10418000512C0C94890973E8C72EE1E0CD57DF4F1D
:10419000E883C358D040512C0C94890941EFC42EB8
:1041A000512C0C94890952FCD5C253FCECC3512C00
:1041B0000C94890953FCA3C152FE96C2C156DF4F2D
:1041C0004881CF59D040842F90E0FC01EE0FFF1FB3
:1041D0008E0F9F1FFC01E05BFB4F8281811104C4A5
:1041E000512C0C94890953FCA1C152FCD9C2512C09
:1041F0000C94890953FC9FC152FED7C2C156DF4FB0
:10420000F881CF59D0408F2F90E0FC01EE0FFF1FB7
:104210008E0F9F1FFC01E05BFB4F8281882309F416
:1042200024C467968FAD6797811102C00E945429FC
:10423000CD56DF4F8881C359D0408F5F69968FAFCD
:104240006997CE018A5A9F4F0E947E2BBE016B5BFD
:104250007F4F69968FAD69970E94F12B6A968FAD5B
:104260006A9781117EC48091FA049091FB040A97A9
:1042700008F468C48091FA049091FB040A97909323
:10428000FB048093FA042091F504C157DF4F288383
:10429000CF58D0403091F604C057DF4F3883C05913
:1042A000D0404091F704CF56DF4F4883C159D040EA
:1042B0005091F804CE56DF4F5883C259D04061E088
:1042C00070E080E090E06093F5047093F6048093D2
:1042D000F7049093F804A8958091F904EC961FAE2A
:1042E000EC97C12C80FF02C00C949909A0968EAD6A
:1042F0009FADA0976E962EAD3FAD6E97512C0C944E
:104300003F197AE6C72E512C0C94890953FCE5C15C
:10431000512C0C94890952FCFCC153FC2DC3512C27
:104320000C948909BDE8CB2ECD57DF4F1882C358B6
:10433000D040512C0C948909F9E7CF2E512C0C94C4
:104340008909512C0C948909602F80E00E947F26F6
:104350008EE30E94AD260C943B176D2D80E00E94E9
:104360007F268EE30E94AD260C940A14602F80E015
:104370000E947F268EE30E94AD260C94ED14CD574B
:10438000DF4FE881C358D040EE3009F084C0AE96CC
:104390008FADAE9790E001966DE070E00E9488309E
:1043A000AE968FAFAE9747E9C42E512C0C94890975
:1043B00053FC57C1512C0C9489098DE20E94AD2603
:1043C0000C94190D82E50E94AD260C94190DEAE8B3
:1043D000F3E0DE01AC59BF4F01900D928A95E1F7F1
:1043E0000C94C30C2CE0CD57DF4F7881C358D040DC
:1043F000271B40E050E06FEF70E0C256DF4FA8810E
:10440000CE59D0408A2F90E00E94742FC256DF4FC1
:104410008883CE59D040B8E8CB2E512C0C94890912
:104420002CE0CD57DF4F9881C358D040291B40E086
:1044300050E06FEF70E0C256DF4FA881CE59D040F8
:104440008A2F90E00E94742FC256DF4F8883CE5986
:10445000D0403EE7C32E512C0C9489098DE20E9476
:10446000AD260C94070D3EE7C32E7AE0CD57DF4F03
:104470007883C358D040512C0C948909AC969FADD9
:10448000AC9781E08927AC968FAFAC9757E9C52EE2
:10449000512C0C94890917E9C12E512C0C948909CF
:1044A00053FCE6C2512C0C94890998E8C92E9AE075
:1044B000CD57DF4F9883C358D040512C0C948909B5
:1044C00053FC8CC2512C0C94890931EFC32E512C12
:1044D0000C948909512C0C948909CD57DF4F18820F
:1044E000C358D040512C0C9489090AE0C02E512C9D
:1044F0000C94890922E9C22E512C0C9489095AE0A6
:10450000C52E512C0C9489095CEEC52E512C0C94AF
:104510008909512C0C9489096AE6C62E512C0C94F9
:104520008909E9E7CE2E512C0C9489099AE0C92E0D
:10453000512C0C948909C12C512C0C948909512CB3
:104540000C948909EC58FE4F0C94BE30CD56DF4FC9
:104550004881C359D040BFE6CB2E4111EAC25AE090
:10456000CD57DF4F5883C358D040512C0C94890944
:104570001FE6C12E32E1CD57DF4F3883C358D040FC
:10458000512C0C948909EFE6CE2E4FE0CD57DF4F2A
:104590004883C358D040512C0C9489098FE6C82E0B
:1045A000FAE0CD57DF4FF883C358D040512C0C941C
:1045B0008909CD57DF4F2881C358D0402F5FCD5791
:1045C000DF4F2883C358D0400FE6C02E512C0C94E7
:1045D0008909512C0C9489092091FA043091FB042B
:1045E0002A5031093093FB042093FA04F091F5042A
:1045F000C157DF4FF883CF58D0402091F604C05701
:10460000DF4F2883C059D0403091F704CF56DF4F99
:104610003883C159D0404091F804CE56DF4F4883CB
:10462000C259D04021E030E040E050E02093F50452
:104630003093F6044093F7045093F804A895209122
:10464000F904EC961FAEEC9731EFC32E20FF02C0A9
:104650000C9499096E962EAD3FAD6E97512C0C942B
:104660003F19BAE0CB2EC156DF4F1882CF59D04048
:10467000512C0C948909CC24C394512C0C94890995
:10468000512C0C948909243008F492C1CD57DF4F86
:104690005881C358D0405F5FCD57DF4F5883C35810
:1046A000D04027E9C22E512C0C94890981E40E9444
:1046B000AD260C94190DC256DF4FE881CE59D0407B
:1046C000A396EFAFA397CE018A5A9F4F0E947E2BED
:1046D000FAE0CF2E512C0C9489090E94A726BAE04B
:1046E000CB2E512C0C948909512C0C948909C2565B
:1046F000DF4FE881CE59D040A296EFAFA297CE010E
:104700008A5A9F4F0E947E2B9AE0C92E512C0C94FE
:104710008909C256DF4FB881CE59D040A496BFAFA9
:10472000A4972AE0B29FF0011124C757DF4FF98305
:10473000E883C958D040CE018A5A9F4F0E947E2BF1
:10474000CC57DF4F1882C458D0407AE0C72E512C86
:104750000C948909BE0167597F4FCD56DF4F888180
:10476000C359D0400E94B42ECD56DF4FA881C35903
:10477000D0408A2F90E0BC01660F771F660F771F2D
:10478000860F971F61E070E06C0F7D1F680F791F27
:104790008A2F0E94F72E02E9C02E512C0C94890911
:1047A00086E9C82E512C0C948909512C0C94890946
:1047B0000E94A726C12C512C0C94890981E090E01D
:1047C000A0E0B0E0AF960FACAF9704C0880F991F80
:1047D000AA1FBB1F0A94D2F725968CAF9DAFAEAF30
:1047E000BFAF259741E050E060E070E0E0960FAC8D
:1047F000E09704C0440F551F661F771F0A94D2F735
:1048000081E090E0A0E0B0E0E1960FACE19704C059
:10481000880F991FAA1FBB1F0A94D2F7842B952BD0
:10482000A62BB72B89AF9AAFABAFBCAF41E050E03E
:1048300060E070E0E2960FACE29704C0440F551FB1
:10484000661F771F0A94D2F781E090E0A0E0B0E005
:10485000E3960FACE39704C0880F991FAA1FBB1FF4
:104860000A94D2F7842B952BA62BB72B21968CAFCD
:104870009DAFAEAFBFAF2197BE016C5C7F4FCD56F1
:10488000DF4F8881C359D0400E94962C09E6C02E84
:10489000512C0C9489098091FA049091FB040A9799
:1048A000B8F48091F5049091F604A091F704B091CA
:1048B000F804CC24C394EC961FAEEC97512C0C94C6
:1048C00004080E94A7261AE0C12E512C0C948909D5
:1048D0008091FA049091FB040A979093FB048093D3
:1048E000FA045091F504C157DF4F5883CF58D04098
:1048F0006091F604C057DF4F6883C059D040709173
:10490000F704CF56DF4F7883C159D0408091F80427
:10491000CE56DF4F8883C259D04021E030E040E0DE
:1049200050E02093F5043093F6044093F70450933D
:10493000F804A8958091F904EC961FAEEC97CC246E
:10494000C39480FF02C00C949909A0968EAD9FADD0
:10495000A09720E030E0512C0C943F190E94A7262C
:10496000EAE0CE2E512C0C9489090E94A7268AE0F9
:10497000C82E512C0C9489090E94A7266AE0C62EE5
:10498000512C0C9489090E94A726B2E9CB2E512CF8
:104990000C9489096FE077E2D3CBB7E9CB2E3EE0E8
:1049A000CD57DF4F3883C358D040512C0C94890920
:1049B00087E9C82E74E0CD57DF4F7883C358D040C5
:1049C000512C0C94890937E9C32E49E0CD57DF4FAC
:1049D0004883C358D040512C0C9489090E94A726C3
:1049E000C12C512C0C9489094EE6C42E512C0C94E8
:1049F000890920E06BCB23E040E050E067EF7AE2EA
:104A00008CA99DA90E94742FAC019DAB8CAB803109
:104A1000974208F466C081E08EAB9A0136952795DF
:104A20003695279536952795A5ECB0E20E94C730BC
:104A3000929582958F7089279F70892768EE73E021
:104A4000869F9001879F300D969F300D1124421B49
:104A5000530B4038510510F04FE750E05DAB4CABC5
:104A60004FE6C42E512C0C948909512C0C948909C1
:104A70000E94A726EAE0CE2E512C0C948909BE0193
:104A80006C5C7F4F80E00E94962CF9E6CF2E512C73
:104A90000C94890945E0BE016F5F7F4FED968FADA5
:104AA000ED970E94AB0575E0EC967FAFEC9780E444
:104AB000C656DF4F8883CA59D04090E8C556DF4FAD
:104AC0009883CB59D040A8E0C456DF4FA883CC5977
:104AD000D040B4E0C356DF4FB883CD59D0400C94DA
:104AE0002108FFE6CF2E512C0C9489090E94A7269D
:104AF000C12E512C0C9489090E949D288E010F5FB4
:104B00001F4FF80180819181009731F02481222389
:104B100019F062810E94EC270B5F1F4FC158DF4FD5
:104B200028813981CF57D0402017310751F70C9495
:104B3000871454E0CD57DF4F5883C358D040512CD1
:104B40000C9489098091F5049091F604A091F704E2
:104B5000B091F804C12CEC961FAEEC97512C0C943C
:104B6000040881E06C968FAF6C978091FA04909165
:104B7000FB040A9738F38091FA049091FB040A979A
:104B80009093FB048093FA047091F504C157DF4FB2
:104B90007883CF58D0408091F604C057DF4F888388
:104BA000C059D0409091F704CF56DF4F9883C15938
:104BB000D040A091F804CE56DF4FA883C259D04010
:104BC00021E030E040E050E02093F5043093F6041B
:104BD0004093F7045093F8047ECB0E94A72660E030
:104BE00080E00E947F2689E693E00E94DF2661E054
:104BF00080E00E947F268EE593E00E94DF260E94DF
:104C00006E2F89E593E00E94DF2662E080E00E943B
:104C10007F2682E593E00E94DF26FFCF21500C948F
:104C2000F00962E082E10E947F268CE692E00E9419
:104C3000CF260C94091274E7C72ECD57DF4F188288
:104C4000C358D0400C94890980E00E947F268EE3EF
:104C50000E94AD260C94820E62E082E00E947F26C4
:104C60008CE692E00E94CF260C94771CC757DF4F4A
:104C7000E881F981C958D0403197C757DF4FF98390
:104C8000E883C958D0400C94A219611118C0129839
:104C9000119894B19F6094B995B1907F282F229577
:104CA0002F70292B25B9109A00C010988F70892B6E
:104CB00085B9109A00C010989F6095B90895129A0E
:104CC000E7CF1298119A84B1807F84B9109A00C0FE
:104CD00093B1109800C0109A00C023B12F70892F93
:104CE0008295807F1098822B08950E94612687FD0F
:104CF000FCCF86E090E00197F1F70C946126CF930A
:104D0000C82F662361F06130D1F0623081F00E94DB
:104D1000752660E084ED8C0FCF910C9445260E949F
:104D2000752660E080E88C0FCF910C9445260E9498
:104D3000752660E084E98C0FCF910C9445260E9483
:104D4000752660E080EC8C0FCF910C9445260E9474
:104D5000752660E081E00C944526CF93C82F0E9411
:104D60007526CA3029F061E08C2FCF910C9445262E
:104D7000843148F090EC980F943178F084518C3263
:104D800050F0C0E801C0C0EC0E94752660E08C2F96
:104D9000CF910C944526C4EDF7CFC4E9F5CFCF935E
:104DA000DF93EC012196FC018081882329F00E9489
:104DB000AD2689918111FBCFDF91CF910895CF93DB
:104DC000DF93EC012196FC018491882339F00E9445
:104DD000AD26FE01849121968111F9CFDF91CF910B
:104DE0000895CF93C82F84B18F6084B90A9A099A25
:104DF000089A80E89BEB0197F1F7299A289A109A74
:104E000000C0109880E89AE30197F1F7109A00C06B
:104E1000109880EC90E0FC013197F1F7109A00C0F7
:104E20001098FC013197F1F72898109A00C010985B
:104E30000197F1F70E94752660E088E20E944526FE
:104E40000E94752660E088E00E9445260E94752633
:104E500060E081E00E9445260E94752660E086E0C1
:104E60000E9445260E94752660E08C2FCF910C94FD
:104E70004526FF920F931F93CF93DF93F62ED72FE4
:104E8000880F880F880FC0E4C80F0E94752660E065
:104E90008C2F0E9445260F2D1D2F88E0F82EFC0E2A
:104EA0000E94752660E08C2F0E944526F801D4915F
:104EB0000E94752661E08D2F0E944526CF5F0F5F0F
:104EC0001F4FCF11EDCFDF91CF911F910F91FF9029
:104ED00008956CED76E080E00E94392764ED76E07D
:104EE00081E00E9439276CEC76E082E00E9439274D
:104EF00064EC76E083E00E9439276CEB76E084E096
:104F00000E94392764EB76E085E00E9439276CEA3D
:104F100076E086E00E9439270E94752660E080E8EE
:104F20000C9445268BB180638BB98AB180638AB9B2
:104F3000EFE6F0E080818D7F808387E592E09093BB
:104F400087008093860090938B0080938A009093D3
:104F5000890080938800E1E8F0E0108210928500DB
:104F60001092840082EA8093800089E18083089512
:104F70001F93CF93DF93162F8F3708F08EE7C7E587
:104F8000D2E0282F30E0A7E5B2E00E94C7302EE73C
:104F900030E040E050E00E949C3011110EC0D093F0
:104FA0008900C0938800C21BD30BD0938B00C093A1
:104FB0008A00DF91CF911F910895CE01821B930B40
:104FC0009093890080938800D0938B00C0938A00CF
:104FD000DF91CF911F91089520911705211132C0C3
:104FE0002091180530911905E0911505F0E0EE0FBC
:104FF000FF1FE20FF31F808397708181887F982BBA
:10500000918380911505E82FF0E0EE0FFF1FE20F6E
:10501000F31F918160FB93F9906391838F5F80937D
:10502000150590911A05891718F01092150580E062
:1050300090911605981711F081E0089581E0809312
:105040001705089580E008950F931F93CF93DF9382
:10505000EC018B0150E060E070E0C8010E94DF309D
:105060008A81882309F45BC08D81882309F452C0AA
:10507000E981F0E0EE0FFF1F8B819C81E80FF91FA3
:1050800020818181382F3770C901039696958795C5
:1050900096958795382F3F733068F8013083969541
:1050A0008795969587952D5F220F2670F0E78F27BD
:1050B00080778868822BF8018183E981F0E0EE0F28
:1050C000FF1F2B813C81E20FF31F918193FF0BC0E7
:1050D0008160F8018183E981F0E0EE0FFF1F8B8191
:1050E0009C81E80FF91F9181892F82958F708D5FC8
:1050F0008370282F2295207F9F7C922B9183811192
:1051000016C089818F5F89839D81891708F0198274
:105110001A8282E0DF91CF911F910F9108958881CB
:105120009981891B6D810E946830892F9ECF82E012
:10513000DF91CF911F910F91089584E6809325050B
:10514000109226052FEF3FEF30931C0520931B058F
:105150008BB180638BB98AB180638AB987EB92E0A7
:1051600090938B0080938A009093890080938800AD
:105170003093870020938600109281001092850062
:105180001092840080E58093800088E08093810005
:1051900099B189B19295917021E0922785FB88277A
:1051A00080F9981771F030E821E03093820089B1DE
:1051B00099B182958170822795FB992790F989137F
:1051C000F4CF80916F00826080936F0089E08093BC
:1051D0008100E7E2F5E0F0931905E093180580E11E
:1051E00080931A0510921605109215051092170556
:1051F00080E2DF011D928A95E9F70895EF92FF9210
:105200000F931F93FC01942F4F3720F19EE79F5F70
:10521000222329F180E0982B90932605309729F1DD
:10522000662359F1E038F10598F5F0931C05E093F9
:105230001B0581E080931D05E0921105F092120597
:10524000009313051093140580E01F910F91FF90B8
:10525000EF9008954111DBCF90E02111DBCF80E882
:10526000982B909326053097D9F681E080931D0501
:1052700010921C0510921B05DFCFE03187E2F80782
:1052800050F4F0931C05E0931B0510921D05D4CF3C
:10529000EFE7F0E0CACFEFE0F7E2F0931C05E09310
:1052A0001B0510921D05C8CF84E68093250510923A
:1052B00026058FEF9FEF90931C0580931B050895A3
:1052C000CF92DF92EF92FF9280912405811124C04A
:1052D00090912505911125C020911B0530911C0549
:1052E000203187E2380788F580911D05811128C09B
:1052F000832F806C80931E0520931F0522E0E09190
:10530000080581E08E0F809308054E2F50E04C3049
:10531000510540F110920805FF90EF90DF90CF907B
:10532000089591509093250510921E0510921F0527
:1053300082E080932405FF90EF90DF90CF90089556
:105340002F7720931E0521E0DACF8FEF80931E0583
:1053500010921F0582E080932405FF90EF90DF906C
:10536000CF900895FA01ED57FE4F0C94BE30E22F16
:10537000F0E0E25EFA4F8EED808382E0820FE1E0A2
:10538000E20FF0E040911105509112056091130574
:10539000709114052DE076956795579547952A9558
:1053A000D1F7E25EFA4F408380932405FF90EF909F
:1053B000DF90CF90089581E0820FE22FF0E04091DE
:1053C000110550911205609113057091140539E093
:1053D00076956795579547953A95D1F74F70406BFD
:1053E000E25EFA4F4083E0CF81E0820FE22FF0E0EF
:1053F00040911105509112056091130570911405AB
:10540000A5E07695679557954795AA95D1F74F7082
:10541000406AE25EFA4F4083C7CFC0901105D0903A
:105420001205E0901305F0901405B701A6014E7126
:105430005527662777277695679557954795C0FC3A
:1054400090E181E0820FE22FF0E04068942BE25E71
:10545000FA4F9083A9CF46E06EE175E085E195E0D3
:105460000E9424288111A0CF8FEF80931E051092F7
:105470001F0582E099CFE22FF0E0E25EFA4F8FE362
:10548000808382E0820FE1E0E20FF0E09091260558
:10549000E25EFA4F908388CFE22FF0E0E25EFA4FAF
:1054A0008FED808382E0820FE1E0E20FF0E0409137
:1054B000110550911205609113057091140594E146
:1054C00076956795579547959A95D1F7E25EFA4F8D
:1054D00040836ACF1F920F920FB60F9211240BB622
:1054E0000F922F933F934F935F936F937F938F937D
:1054F0009F93AF93BF93EF93FF93809107058F5FC7
:105500008093070580FD36C080910201811145C05E
:105510008FEA94E090938B0080938A0090938900A7
:105520008093880080910605813009F47FC008F4DB
:1055300040C08230A9F52091FE0430910001E22F95
:10554000F0E0E150FB4F808190E0032E02C0959582
:1055500087950A94E2F781708093020131116FC040
:105560002F5F2093FE04809105052817F8F481E051
:1055700080930605FF91EF91BF91AF919F918F911D
:105580007F916F915F914F913F912F910F900BBE43
:105590000F900FBE0F901F90189587EB92E0BACF37
:1055A00081E08093020180E1809301011092060561
:1055B000E1CF81E0809302018091010181508093CD
:1055C00001018111D7CF809124058823E1F18091D9
:1055D0002405853008F04AC080912405482F50E00A
:1055E000809305056EE175E08FEF94E00E94D63060
:1055F0001092240540910505A42FB0E08091FF048E
:10560000A150BB4F8C93423068F0E0E0F5E02EEF04
:10561000240F30E02F5F3A4F919189278C93E21746
:10562000F307D1F74F5F4093050517C010920201B1
:1056300087E08093000182E0809306059BCF315084
:105640003093000197CF8FEF8093FF0410920005F5
:105650008093010583E0809305051092FE0480E1AC
:105660008093010181E08093060584CF45E050E0FE
:1056700085E0B6CF8D3048F4E82FF0E0EE0FFF1F45
:10568000E853FB4F80819181089584E794E0089569
:10569000CF93DF93EC0180E090E00E941B349EE00A
:1056A000FE0111929A95E9F7982F9170988382FBE9
:1056B000222720F9298381FB222720F92B8383FBD2
:1056C000882780F98C83911117C081E090E00E94B7
:1056D0001B348A8382E090E00E941B348B8784E035
:1056E00090E00E941B348C8783E090E00E941B3482
:1056F0008D87DF91CF9108951A82ECCFCF93DF93FE
:10570000EC0168818981811164608B818111626003
:1057100080E090E00E9423346A81603108F06FE0FD
:1057200081E090E00E9423346B8582E090E00E944B
:1057300023346C8584E090E00E9423346D8583E0FF
:1057400090E0DF91CF910C94233468E080E090E00A
:105750000E94233461E081E090E00E94233462E003
:1057600082E090E00E94233460E083E090E00E94B9
:10577000233462E084E090E00C942334CF92DF92F3
:10578000EF92FF921F93CF93DF93EC01C60FD71FC9
:10579000CE010E941B34C82ED12CE12CF12CFC2C04
:1057A000EE24DD24CC24CE0101960E941B34E82A8D
:1057B000CE0102960E941B34182FCE0103960E9440
:1057C0001B34A7019601282BDA01C901BC01CD01C8
:1057D000712BDF91CF911F91FF90EF90DF90CF90D1
:1057E00008957F928F929F92AF92BF92CF92DF9255
:1057F000EF92FF920F931F93CF93DF938B018F3024
:1058000008F07CC0C82FD0E02296CC0FDD1FC295D7
:10581000D295D07FDC27C07FDC27CE0102967C2E7C
:10582000BD2E4E012FEF821A920A6E0143E0C40E84
:10583000D11C7E0154E0E50EF11C21E1F80111922A
:105840002A95E9F70E941B34A82E872D9B2D0E94D4
:105850001B34B82EC4010E941B342B2D30E0322F94
:105860002227A901482BCA01F80191838083A0FE59
:1058700009C021E022838038910508F054C0F80166
:1058800091838083C6010E941B34853608F084E62C
:10589000F8018383C7010E941B34811101C081E09C
:1058A000F801848365E070E0CE010E94BE2BF80110
:1058B000658776878787908B69E070E0CE010E94CC
:1058C000BE2BF80165837683878390876DE070E057
:1058D000CE010E94BE2BF80161877287838794876F
:1058E000DF91CF911F910F91FF90EF90DF90CF90BC
:1058F000BF90AF909F908F907F90089524E2E22E0A
:1059000022E0F22E33E2C32E32E0D32E41E2842E87
:1059100042E0942E50E2752E62E0B62E82E292E0D2
:10592000C0E2D2E08ACF8FE790E0A9CF2F923F92DA
:105930004F925F926F927F928F929F92AF92BF929F
:10594000CF92DF92EF92FF920F931F93CF93DF934B
:10595000CDB7DEB765970FB6F894DEBF0FBECDBFEB
:105960007D8B6C8B8F3008F038C190E00296880FE9
:10597000991F82959295907F9827807F98275C0148
:105980002FEFA21AB20A6C0132E0C30ED11C7C01C7
:10599000E3E0EE0EF11C2C01F4E04F0E511C9C01D3
:1059A0002B5F3F4F3B832A83FC013696FD83EC83BC
:1059B0002E5F3F4F3F832E833296F987E8872E5F15
:1059C0003F4F3B872A873296FD87EC872E5F3F4FFC
:1059D0003F872E873296F98BE88B2E5F3F4F3B8BAC
:1059E0002A8B1C013EE0230E311C8C01015F1F4FEE
:1059F0003C01E0E16E0E711CEC89FD8922812111D0
:105A000032C1EC89FD8980809180F0E18F16F7E248
:105A10009F0608F031C11982EC89FD8945855685BC
:105A2000678570897F71458756876787708B458149
:105A30005681678170857F71458356836783708740
:105A400041855285638574857F714187528763875D
:105A50007487692D0E942334682DC5010E94233468
:105A60006981C6010E942334EC89FD896381653612
:105A700008F064E6C7010E942334EC89FD89648143
:105A8000611101C061E0C2010E942334EC89FD89EB
:105A900085859685A785B0896B2F772788279927D5
:105AA0008A819B810E942334EC89FD8985859685B6
:105AB000A785B089BD01882799278C819D810E9487
:105AC0002334EC89FD8985859685A785B089692F62
:105AD0007A2F8B2F99278E819F810E942334EC8906
