:100000000C947D030C949C030C949C030C949C0313
:100010000C949C030C949C030C949C030C949C03E4
:100020000C949C030C949C030C949C030C949C03D4
:100030000C949C030C94452A0C949C030C949C03F4
:100040000C949C030C949C030C949C030C949C03B4
:100050000C949C030C949C030C949C030C949C03A4
:100060000C949E030C949C030C949C030C949C0392
:100070000C949C030C949C030C949C030C949C0384
:100080000C942A040C949C030C949C035A064D0671
:10009000410633061F06D2050C06FB05E9056F0B6A
:1000A000F70BDD141E091E091E091E091E091E0973
:1000B0001E0987146E141E091E091E091E091E0939
:1000C0001E091E091E091E091E091E091E091E09F8
:1000D0001E091E091E091E091E091E091E091E09E8
:1000E0001E091E091E091E091E091E091E091E09D8
:1000F0001E091E091E091E091E091E091E091E09C8
:100100001E091E091E091E091E091E091E091E09B7
:100110001E091E091E091E091E091E091E091E09A7
:100120001E091E091E091E091E091E091E091E0997
:100130001E091E091E091E091E091E091E091E0987
:100140001E091E091E091E091E091E091E091E0977
:100150001E091E091E091E091E091E091E091E0967
:100160001E091E091E09F10A0D0B37141E091E096E
:100170002E14A7138F131E091E093713D512BD1293
:100180001E091E09E811961179111E091E097C1716
:10019000C01685171E091E09ED14521639161E09C0
:1001A0001E09300B4C0BD5101E091E09AC1069102E
:1001B00050101E091E09B20ACE0A96161E091E0903
:1001C000C4150D0EF50D1E091E09AF0D400D100DC5
:1001D000440A600A0F161E091E091E091E091E097F
:1001E0001E091E091E091E091E091E091E091E09D7
:1001F0001E091E091E091E091E091E091E091E09C7
:100200001E091E091E091E091E091E091E091E09B6
:100210001E091E091E091E091E091E091E091E09A6
:100220001E091E091E091E091E091E091E091E0996
:100230001E091E091E091E091E091E091E091E0986
:100240001E091E091E091E091E091E091E091E0976
:100250001E091E091E091E091E091E091E091E0966
:100260001E091E091E091E091E091E091E091E0956
:100270001E091E09D715A0158715CD151E09631176
:10028000141100111E091E097B153F1527151E09A3
:100290001E091715DD0EC50E1219D718BF189718AD
:1002A0006F1856183D1824180B18E717C817A2170F
:1002B000EC189B1B901B851B7A1B6F1B641B591B27
:1002C0004E1B431B381BA61BC22164206E206E20D0
:1002D0006E20D012D0124F204F204F20D012D012BB
:1002E00037203720D0123720B422B422B422A922DA
:1002F0003C1E3C1EB422B4229E223C1E3C1EB42254
:1003000093223C1E8122162A062AE829062ACF2992
:10031000062AB629062A9229062A272A062A505290
:1003200045535320414E59204B455900556E61624B
:100330006C6520746F2064726177004F48204E4FC7
:100340002120204552524F522100000000424143DB
:100350004B005265626F6F7400646F6E65004545B7
:1003600050524F4D2E2E2E20005245534554544985
:100370004E472E2E2E0000594553210000434E4378
:100380004C002020202045564552595448494E479C
:100390003F202020202000202020205245414C4C8E
:1003A00059204552415345202020200059455321D2
:1003B000000000434E434C0074696D657320746FF8
:1003C00020636F6E6669726D005072657373205999
:1003D0004553206E206D6F726500434C454152209D
:1003E000414C4C2053455454494E47533F00005311
:1003F00050442B00005350442D00463C3E520042D6
:1004000041434B0052756E2053706565643A004D50
:10041000616E75616C2041646A7573746D656E748C
:10042000005B205D204E6F005B205D2059657300EE
:1004300059455300204E4F20005341564500434E2E
:10044000434C0053746F702052656C6561726E731B
:10045000204469723A005B205D20506175736564C9
:10046000005B205D2052756E6E696E670052554EBE
:100470000050415553005341564500434E434C00F4
:100480005374617274204C6F636F6D6F746976651D
:100490003A005B205D2044432054726B204F7574FA
:1004A000707574005B205D204443432054726B20C0
:1004B0004F757470757400444343002044430053E7
:1004C00041564500434E434C005B205D2044697318
:1004D00061626C65005B205D20456E61626C650049
:1004E000454E424C004453424C0053415645004354
:1004F0004E434C0000205550200000444F574E0002
:10050000534C4354004241434B00202B2B200020EE
:100510003E3E20005341564500434E434C00536538
:10052000636F6E64733A20004D6964706F696E7416
:100530002044656C617900202B2B2000203E3E205A
:10054000005341564500434E434C005365636F6E64
:1005500064733A2000456E64706F696E7420446560
:100560006C617900202B2B2000202D2D2000534181
:10057000564500434E434C005365636F6E64733AB7
:1005800020004261636B6C696768742054696D6513
:100590006F757400202B2B2000203E3E200053411D
:1005A000564500434E434C00202B2B2000203E3E5E
:1005B00020004E455854005341564500434E434C8D
:1005C00000202B2B2000203E3E20005341564500AA
:1005D000434E434C0000205550200000444F574EDE
:1005E00000534C4354004241434B000020555020DF
:1005F0000000444F574E00534C4354004241434B7C
:100600000000205550200000444F574E00534C43EB
:100610005400434E434C004C4F414400004D414E6A
:100620004C0053544F500052554E2100434F4E46FC
:10063000002853544F5029002A2A204641554C5433
:10064000202A2A00524D503A005350443A002A447E
:10065000432A004144523A0020207777772E69617F
:100660007363616C65642E636F6D202000496F7742
:1006700061205363616C656420456E6720323032BF
:1006800030002053687574746C6520436F6E74720B
:100690006F6C6C6572200020546865204D6F746F1C
:1006A000726D616E202076312E30200020202020B7
:1006B000202020202020202020202020202020203A
:1006C000001F1F1F0000001F1F1F1F1F1F1F1F1EB7
:1006D0001C00000000001F1F1F1F1F1F1F1F1F0FD8
:1006E000071C1E1F1F1F1F1F1F1F1F1F00000000B2
:1006F00000070F1F1F1F1F1F1F0011241FBECFEF5A
:10070000D0E4DEBFCDBF14E0A0E0B1E0EEEBF7E651
:1007100000E00BBF02C007900D92AC3CB107D9F7C7
:1007200025E0ACECB4E001C01D92A133B207E1F7C3
:100730000E94B4060C94DD330C9400001F920F92BB
:100740000FB60F9211240BB60F922F933F934F9336
:100750005F936F937F938F939F93AF93BF93EF9329
:10076000FF9320917800309179008091DE0491E030
:10077000980F9093DE04E82FF0E0EE0FFF1FEE0FCE
:10078000FF1FE253FB4F4081518162817381420F11
:10079000531F611D711D40835183628373839430A5
:1007A00049F18B5F982F977080917C00807F892B17
:1007B00080937C008091CD0487FD25C08091E30467
:1007C00084FD05C080917A00806480937A00FF9157
:1007D000EF91BF91AF919F918F917F916F915F91B9
:1007E0004F913F912F910F900BBE0F900FBE0F9026
:1007F0001F9018958091CD048F5F8093CD04109247
:10080000DE0494E0D1CFAEECB4E080E090E04D9116
:100810005D916D917C91139727E07695679557953B
:1008200047952A95D1F7FC01EE0FFF1FED50FB4FC6
:10083000518340831D921D921D921D92019684301A
:10084000910529F71092CD048091E3048061809393
:10085000E304B4CF1F920F920FB60F9211248F931F
:100860009F938091CC048F5F8093CC0480FF05C060
:100870009091E30491609093E3048A30C8F0109261
:10088000CC048091E6049091E70401969093E704EC
:100890008093E6048091E4049091E504019690939E
:1008A000E5048093E4048091E30486608093E3048C
:1008B0009F918F910F900FBE0F901F90189587B149
:1008C000837C87B988B18C6388B98AB18F738AB900
:1008D0008BB1806C8BB987B18F7387B988B1806C0D
:1008E00088B952985A9A089529B186B1807C90E0CF
:1008F000880F991F880F991F207C822B26B12C739B
:1009000030E035952795359527954A9907C040E001
:1009100050E0822B932B842B952B089540E250E0DE
:10092000822B932B842B952B089514BEA8959EE0C3
:1009300088E10FB6F894A895809360000FBE90935D
:1009400060001092E304A895E8E0F5E086E0DF019E
:100950001D928A95E9F716820E945F04249A2C9AC8
:100960008CE00E94CC260E94822660E080E00E94FB
:100970005A26109295001092940082E597E0909389
:10098000990080939800109290008BE080939100E2
:1009900010929200C19AE1E7F0E08081826080834A
:1009A0001092E7041092E6041092E5041092E40419
:1009B00084E480937C00EAE7F0E087E18083109292
:1009C0007B0080EF80937E008081886D80837894A7
:1009D00008950E94442760E080E00E945A2660E06B
:1009E00080E00E945A2687E996E00E94BA2661E0DC
:1009F00080E00E945A2682E896E00E94BA2662E0D1
:100A000080E00E945A268DE696E00E94BA2663E0B6
:100A100080E00E945A2688E596E00E94BA268EE180
:100A2000A8952FE739EA93E0215030409040E1F754
:100A300000C000008150A1F70C948226CF92DF9273
:100A4000EF92FF920F931F93CF93DF9300D000D0CC
:100A5000CDB7DEB76B837C830B811C81025E1F4F99
:100A600029EF240F29834B504A83982F9470D92E55
:100A7000CC24C394E82FEC70EE2E8870F82EEB8116
:100A8000FC8180819181009739F024812B30A9F17C
:100A90002C3039F12A30A9F08B819C8105969C83FA
:100AA0008B838017910759F70F900F900F900F903D
:100AB000DF91CF911F910F91FF90EF90DF90CF903A
:100AC0000895F981F230F8F0FA81F23028F7EB81DD
:100AD000FC812381222301F3138260E00E94C72757
:100AE000DBCFF981F23080F7EE2071F3EB81FC81EE
:100AF000C38261E00E94C727CFCFF981F23020F78F
:100B0000DD2011F3F3CFFF20F9F2F0CF9F92AF92E7
:100B1000BF92CF92DF92EF92FF920F931F93CF93EA
:100B2000DF9300D01F92CDB7DEB7D82E6A837B83C8
:100B3000EA80FB802EE1E20EF11CBB24BA94B40ED5
:100B4000807CA82E99249394455049839D2D9074C0
:100B5000C92EAA81BB818D919C911197009711F1AB
:100B60001496EC910E2F10E0F8013197E930F10561
:100B7000C8F4EA5BFF4F0C949930CC2039F0AA817D
:100B8000BB8113969C9261E00E94C727AA2021F1A5
:100B9000AA81BB8113969C92139761E08D919C91E1
:100BA0000E94C7278A819B8105969B838A83E816CA
:100BB000F90679F60F900F900F90DF91CF911F916A
:100BC0000F91FF90EF90DF90CF90BF90AF909F90EC
:100BD0000895F981F230D0F2B1E0BB1518F3EA8143
:100BE000FB8183818823F1F2138260E0808191810F
:100BF0000E94C727D7CFF981F23008F4BECFA1E019
:100C0000AB1580F2EA81FB812381222359F2138202
:100C100060E00E94C727E3CFF981F23008F457C0A3
:100C2000B1E0BB1508F4BECFEA81FB81238122230A
:100C300009F4B8CF138260E00E94C727B3CFAA207F
:100C400009F4B0CFEA81FB816381692563830E9447
:100C5000C7278A819B8105969B838A83E816F906BC
:100C600009F077CFA7CFCC2009F49CCFAA81BB8114
:100C700013966C911397692513966C930E94C7275E
:100C800091CFD7FCDFCF8A819B8105969B838A8396
:100C9000E816F90609F05DCF8DCFD7FC22C0CC2035
:100CA00009F480CFAA81BB8113969C9261E00E94D7
:100CB000C72778CFD7FC0EC0CC2009F473CFAA8108
:100CC000BB8113961C9260E00E94C7276BCFD7FEB2
:100CD000A7CFE8CFEA81FB81938261E00E94C7271A
:100CE00061CFEA81FB81138260E00E94C7275ACF5F
:100CF000AF92BF92CF92DF92EF92FF920F931F932A
:100D0000CF935C016B017A01890163E080E00E946E
:100D10005A26C4E180E20E948826C150D9F763E0D8
:100D200080E00E945A26C5010E94BA2663E085E051
:100D30000E945A26C6010E94BA2663E08AE00E94F9
:100D40005A26C7010E94BA2663E08FE00E945A2605
:100D5000C801CF911F910F91FF90EF90DF90CF903E
:100D6000BF90AF900C94BA26CF93DF93CDB7DEB788
:100D7000C35AD1090FB6F894DEBF0FBECDBF83E0D2
:100D8000E4968FAFE497E5968FAFE597E6968FAF41
:100D9000E697E7968FAFE7979E012B5B3F4FEB9669
:100DA0003FAF2EAFEB9781E1D901E82F1D92EA9575
:100DB000E9F721513109E9963FAF2EAFE997D90103
:100DC0001D928A95E9F70E949504CE018A5A9F4F99
:100DD0000E94232B81E06C968FAF6C97BE016B5BFA
:100DE0007F4F69968FAD69970E94CC2BFE0131969B
:100DF0007F0110E0B701812F0E94D22E1F5FF5E026
:100E0000EF0EF11C1630B1F767968FAD6797811121
:100E10002DC00E947828AE01415E5F4FC158DF4F60
:100E200059834883CF57D0408E010F5F1F4F0BC0AF
:100E30000B5F1F4FC158DF4F28813981CF57D040FA
:100E400020173107F1F0D8018D919C9111970097EF
:100E500079F314962C911497222351F312966C91E6
:100E60000E94C727F80182818383E2CF0E946D2709
:100E70009E01215E3F4FC158DF4F39832883CF57F2
:100E8000D0400E94E904A8956A968FAD6A976C9647
:100E90008FAF6C9729968FAD299734E6839FC00159
:100EA0001124A0969FAF8EAFA097A4968FADA49764
:100EB0006AE0869FA0011124C757DF4F59834883FA
:100EC000C958D04080E090E0DC01AA24AA94BA2C52
:100ED000EF961FAE1EAEEF97CF57DF4F19821882E5
:100EE000C158D040CC57DF4F1882C458D040C356A9
:100EF000DF4F1882CD59D040C456DF4F1882CC59ED
:100F0000D040C556DF4F1882CB59D040C656DF4F70
:100F10001882CA59D040212C312CC12CEC961FAE1E
:100F2000EC97CD56DF4F1882C359D040C256DF4FE1
:100F30001882CE59D040CD57DF4F1882C358D040C9
:100F4000CC56DF4F19821882C459D040CA56DF4FA1
:100F500019821882C659D040C357DF4F19821882B0
:100F6000CD58D040C557DF4F19821882CB58D0409A
:100F7000C856DF4F19821882C859D040ED961FAE6F
:100F8000ED97C157DF4F1882CF58D040C057DF4F81
:100F90001882C059D040CF56DF4F1882C159D04077
:100FA000CE56DF4F1882C259D040C156DF4F18824B
:100FB000CF59D040D12C88248394912C5D2C01965C
:100FC000A11DB11D8093DF049093E004A093E10480
:100FD000B093E204A8958091E30480FD85C1EC966E
:100FE0003FADEC97832F90E08D30910510F40C9479
:100FF0009D17EC961FAEEC978091E30482FF60C0D2
:101000008091E3048B7F8093E3042114310411F079
:101010000C94D218A4968FADA497CC57DF4F68815B
:10102000C458D040882311F40C94731961110AC07C
:10103000C757DF4F88819981C958D040892B11F05B
:101040000C941126249A2C986C968FAD6C9788235B
:1010500011F40C9485196E961FAE1EAE6E976796AE
:101060008FAD679781110C943E1A66962CAD3DADFD
:101070004EAD5FAD6697CB57DF4F288339834A83E8
:101080005B83C558D04040E06296ECACFDAC0EAD41
:101090001FAD629720E0CB57DF4F688179818A814D
:1010A0009B81C558D040E62AF72A082B192B289691
:1010B0006FAD289727968EAD9FAD27970E94D928B0
:1010C0000E943B298091E30481FFB5C18091E30434
:1010D00084FFB1C18091F7049091F804EBE0E89FA0
:1010E000A001E99F500D11249A01A3E4B8E00E94E9
:1010F000A230481B590B56954795840F951FDC016C
:10110000B295A295AF70AB27BF70AB27C856DF4F23
:10111000B983A883C859D0408091F3049091F40416
:10112000E89FA001E99F500D11249A01A3E4B8E0C3
:101130000E94A230481B590B56954795840F951F66
:101140009C01329522952F7023273F702327C55786
:10115000DF4F39832883CB58D0408091F50490919C
:10116000F604E89FA001E99F500D11249A010E9406
:10117000A230481B590B56954795840F951FAC011B
:10118000529542954F7045275F704527C357DF4FF3
:1011900059834883CD58D0408091F9049091FA0446
:1011A00044E6489F9001499F300D112436952795BC
:1011B000A1E8BBE40E94A2300024880F991F001C04
:1011C000880F991F001C892F902DCA56DF4F9983D5
:1011D0008883C659D04067968FAD6797882311F4EE
:1011E0000C94F419C557DF4F68817981CB58D040F2
:1011F000CC56DF4F79836883C459D040C357DF4F43
:1012000088819981CD58D0406817790730F4CC5641
:10121000DF4F99838883C459D0408091E3048D7E49
:101220008093E30480917A00806480937A0021E0C7
:101230008C2D90E08D3F910508F404C160E080E0C2
:101240000E945A268BE393E00E94BA2661E083E075
:101250000E945A268CE293E00E94BA261F92CF92F7
:101260008CE293E09F938F931F9285E18F93C058F8
:10127000DF4FE881C058D040EF93C158DF4FF8816D
:10128000CF57D040FF930E94D03062E083E00E94AD
:101290005A26C158DF4F88819981CF57D0400E948C
:1012A000AA2663E083E00E945A268EE193E00E9422
:1012B000BA26852D8F700FB6F894DEBF0FBECDBF56
:1012C00011F00C94911F512C8091E4049091E5044D
:1012D0000A9708F01EC18091DF049091E004A0916C
:1012E000E104B091E2046BCE8091E3048E7F8093A1
:1012F000E3040E9474048A259B25EF964EAD5FADF2
:10130000EF97CF57DF4FA881B981C158D0404A2706
:101310005B27EF962EAD3FADEF9720953095FC0102
:10132000E423F523CF57DF4FF983E883C158D0403A
:10133000AC0142235323EF965FAF4EAFEF979F016F
:10134000242B352B2095309582239323A826B9266C
:101350005A2C50948F705822FE01ED58FF4F80E0B8
:1013600090E055E049E1252D30E0082E02C035958A
:1013700027950A94E2F720FF6CC040839401082E61
:1013800002C0220F331F0A94E2F72A213B21232BAC
:1013900009F05DC028E120830196319684309105E3
:1013A00011F7552041F1C757DF4F88819981C958FE
:1013B000D040892B11F00C940A1AA4968FADA497F3
:1013C000882311F40C940A1AA52DA07F5A2E249A72
:1013D0002C9AA4968FADA4972AE0829FF001112445
:1013E000C757DF4FF983E883C958D040CC57DF4F48
:1013F0001882C458D040ED968FADED97A5FC02C081
:101400000C94E7198F7DA6FC02C00C94E4198F7729
:10141000A7FC02C00C94E1198F7BB0FC02C00C94B5
:10142000DE19877FB1FC02C00C94D8198B7FED9632
:101430008FAFED97D4CD20E08C2D90E08D3F9105BE
:1014400008F0FCCEFC01E15BFF4F0C949930408327
:10145000A3CF9401082E02C0220F331F0A94E2F793
:101460002A213B21232B99F7208121110C94E92576
:101470009C012C5F3F4FB40102C0660F771F2A9575
:10148000E2F7562A508388CF0E9482266B966FAD72
:101490006B97CD57DF4F6883C358D04060E080E042
:1014A0000E945A2683E494E00E94BA262EE334E098
:1014B00049E354E064E374E080E394E00E9478063A
:1014C00061E080E00E945A2688E294E00E94BA26F9
:1014D00062E080E00E945A2681E294E00E94BA26EF
:1014E000CD57DF4F7881C358D040772311F40C9447
:1014F000281B61E081E00E945A268AE20E94882629
:10150000ABE9CA2E8091E4049091E5040A9708F4AF
:10151000E2CE8091E4049091E5040A979093E5046B
:101520008093E4042091DF04C157DF4F2883CF5814
:10153000D0403091E004C057DF4F3883C059D040CD
:101540004091E104CF56DF4F4883C159D0405091BC
:10155000E204CE56DF4F5883C259D04080E090E07D
:10156000DC012DCD0E94822668963FAD6897CD574D
:10157000DF4F3883C358D04060E080E00E945A2695
:1015800081EB92E00E94AA262FEE34E04AEE54E06E
:1015900065EE74E080EE94E00E94780661E080E001
:1015A0000E945A2685ED94E00E94BA2662E080E00F
:1015B0000E945A2689EC94E00E94BA26CD57DF4F4C
:1015C0004881C358D040442311F40C94221B61E09D
:1015D00081E00E945A268AE20E9488262EE8C22EC6
:1015E00073CE0E94822667966FAD6797CD57DF4F07
:1015F0006883C358D04060E080E00E945A2680ECA7
:1016000092E00E94AA2624EC34E04FEB54E06BEB0E
:1016100074E087EB94E00E94780661E080E00E942D
:101620005A2684EA94E00E94BA2662E080E00E9492
:101630005A2682E994E00E94BA26CD57DF4F78817E
:10164000C358D040772311F40C94251B62E081E04D
:101650000E945A268AE20E94882686E6C82E34CE48
:101660000E9482266A963FAD6A97CD57DF4F388336
:10167000C358D04060E080E00E945A2680E894E0A1
:101680000E94BA262BE734E046E754E061E774E0B5
:101690008DE694E00E94780661E080E00E945A2680
:1016A00081E694E00E94BA2662E080E00E945A2619
:1016B00086E594E00E94BA26CD57DF4F4881C35893
:1016C000D040442311F40C941F1B62E081E00E947F
:1016D0005A268AE20E94882614E8C12EF5CD0E947F
:1016E000822660E080E00E945A2683E596E00E9410
:1016F000BA2667968FAD679781110C947E1F289646
:101700008FAD2897882311F40C94331F27968EAD44
:101710009FAD279799279F938F938AEB91E09F9393
:101720008F931F9285E18F93C058DF4FF881C05887
:10173000D040FF93C158DF4F2881CF57D0402F931F
:101740000E94D0300FB6F894DEBF0FBECDBFC15897
:10175000DF4F88819981CF57D0400E94AA2661E04F
:1017600080E00E945A2689E496E00E94BA2662E050
:1017700080E00E945A2684E496E00E94BA262A96C7
:101780009FAD2A978DEC989F812D11248695869583
:101790008695AAE08A9F901911241F929F931F9209
:1017A0008F9385EC91E09F938F931F9285E18F93A8
:1017B000C058DF4FB881C058D040BF93C158DF4FE9
:1017C000E881CF57D040EF930E94D030C158DF4F0F
:1017D00088819981CF57D0400E94AA2662E08AE092
:1017E0000E945A260FB6F894DEBF0FBECDBF60E050
:1017F00089E00E945A26ED963FADED9735FD02C077
:101800000C94B11B88E396E00E94BA2661E084E064
:101810000E945A266E962EAD3FAD6E97C90137FFD6
:1018200002C00C94C41E64E670E00E94633037FF6F
:1018300002C00C94AB1C86E47F936F931F928F932E
:1018400086EE91E09F938F931F9285E18F93C0580E
:10185000DF4FB881C058D040BF93C158DF4FE881F7
:10186000CF57D040EF930E94D030C158DF4F8881CE
:101870009981CF57D0400E94AA2661E089E00E945A
:101880005A260FB6F894DEBF0FBECDBF6C968FAD53
:101890006C9781110C949E1CA0962EAD3FADA09725
:1018A000C90137FF02C00C94841F64E670E00E94F7
:1018B000633037FF02C00C94F01E86E47F936F9371
:1018C0001F928F938DEE91E09F938F931F9285E1EE
:1018D0008F93C058DF4F3881C058D0403F93C158D4
:1018E000DF4F4881CF57D0404F930E94D030C1582E
:1018F000DF4F88819981CF57D0400E94AA260FB62A
:10190000F894DEBF0FBECDBF61E080E10E945A2691
:10191000EC967FADEC97872F90E0FC013197EC308F
:10192000F10510F40C94331B85E0E8E3F3E0DE01ED
:10193000AC59BF4F01900D928A95E1F7CE018C59B9
:101940009F4F0E94AA2662E08AE00E945A268CE4F9
:101950000E948826ED968FADED9787FF02C00C940C
:10196000A41C8DE20E948826C656DF4F9881CA5972
:10197000D040903811F40C949F1FC556DF4FB881AA
:10198000CB59D040B03811F40C948F1E8FE30E94D5
:1019900088268FE20E94882682E50E948826ED969E
:1019A000EFADED97E6FD02C00C94211C8AE20E9487
:1019B0008826C656DF4FF881CA59D040F03411F45A
:1019C0000C949A1FC556DF4F2881CB59D040203444
:1019D00011F40C948A1E8FE30E94882668968FADBE
:1019E000689781110C94821C6C968FAD6C9788233C
:1019F00011F40C942F1B47E256E067968FAD679762
:101A0000882311F40C942B1B8CE196E02CE236E039
:101A10006DE176E00E94780662E0C62E512C54CC2F
:101A2000852D817111F40C94191DCD57DF4FB881AC
:101A3000C358D040B93011F40C94192210F00C9412
:101A40009A218B2F8450843010F00C94262227E0AA
:101A5000CD57DF4FF881C358D0402F1B40E050E0F6
:101A60006CEF77E0AB968EAD9FADAB970E944F2F9A
:101A7000AB969FAF8EAFAB9767E9C62E512C24CCA7
:101A800061E080E00E945A26AE968FADAE970E942C
:101A9000152BAC962FADAC97222311F40C94CA1CD5
:101AA00023E731E09F938F933F932F93AB968FADB6
:101AB000AB978F93AA968FADAA978F931F92CD560F
:101AC000DF4F4881C359D0404F938BE392E09F93FF
:101AD0008F931F9285E18F93C058DF4F5881C05874
:101AE000D0405F93C158DF4F6881CF57D0406F938C
:101AF0000E94D030C158DF4F88819981CF57D040A4
:101B00000E94AA2662E080E00E945A268CEA96E0B3
:101B10000E94BA2662E0CD57DF4F8881C358D0407B
:101B20000E945A260FB6F894DEBF0FBECDBFCD5728
:101B3000DF4F9881C358D040993011F40C94B21FF4
:101B400010F00C94F31E892F8450843010F00C9404
:101B5000EE1F8EE50E948826F8E9CF2EB5CB0E94B5
:101B60008226CD56DF4FA881C359D0408A2F90E0FE
:101B7000FC01EE0FFF1FEE0FFF1FE80FF91F21E022
:101B800030E02C0F3D1FE20FF31F85E0DE01A75967
:101B9000BF4F01900D928A95E1F784E1E7E2F2E010
:101BA000C158DF4FA881B981CF57D04001900D9225
:101BB0008A95E1F7C158DF4F88819981CF57D0408E
:101BC0000E94AA2620ED35E04BEC55E066EC75E06E
:101BD00081EC95E00E947806B7E9CB2E34E0CD5732
:101BE000DF4F3883C358D0406FCB852D817111F4FE
:101BF0000C94141ECD56DF4F8881C359D0408823E2
:101C000011F40C942E208150CD56DF4F8883C35998
:101C1000D04002E9C02E512C57CB0E948226CD56CF
:101C2000DF4F5881C359D040553010F00C94AE1C92
:101C30006CED75E051110C94B01C85ED95E026EE2D
:101C400035E041EE55E00E9478068BEACD56DF4F35
:101C50006881C359D040689FD12C11248D2D869561
:101C6000D82EDD0CD80EC12C65E1662ECB57DF4F88
:101C7000B982A882C558D040B52CC158DF4F4880E2
:101C80005980CF57D040C056DF4F99828882C05AC2
:101C9000D04075E07D1508F463C0CD56DF4F8881D4
:101CA000C359D0406C2D8D1511F40C94FF2580E0A4
:101CB0000E945A2680E20E948826ED2CF12C870192
:101CC000000F111F000F111FF801EE0DFF1DA1E005
:101CD000B0E0AC0FBD1FEA0FFB1F8381882311F416
:101CE0000C945E1C43E5942EF801EE0DFF1D21E0DF
:101CF00030E02C0F3D1FE20FF31F8281882311F487
:101D00000C945A1C23E5722E0E0D1F1D41E050E06D
:101D10004C0F5D1F040F151FD80114968C910E9463
:101D2000152B1F929F921F927F929F938F93F80182
:101D300081818F9380818F93FF92EF922FE032E029
:101D40003F932F931F926F925F924F920E94D030D9
:101D5000C2010E94AA260FB6F894DEBF0FBECDBF07
:101D6000C394D39473E0C71294CF5B2CCB57DF4F4F
:101D7000A880B980C558D040C056DF4F8880998070
:101D8000C05AD04083E9C82E9FCA53FE02C00C94AB
:101D90008A1F8091E6049091E704CD57DF4FB88108
:101DA000C358D0402B2F30E02817390711F40C947A
:101DB0007C219BEFC92E512C87CA8091E60490911B
:101DC000E704CD57DF4F8883C358D04067968FAD67
:101DD000679781110C94F41C08EA11E0ED967FAD31
:101DE000ED9775FF02C000EB11E060E080E00E941B
:101DF0005A26CE56DF4F8881C259D0408F93CF5696
:101E0000DF4F9881C159D0409F93C057DF4FA881C1
:101E1000C059D040AF93C157DF4FB881CF58D040A1
:101E2000BF931F930F93C856DF4F28813981C8593C
:101E3000D040ADECBCEC0E94A2309695879596956B
:101E4000879596958795AC01440F551F9C01220FED
:101E5000331F220F331F220F331F240F351FC85685
:101E6000DF4FE881F981C859D040E21BF30B9F0195
:101E70003F93EF939F938F9387ED92E09F938F9380
:101E80001F9215E11F93C058DF4FF881C058D04012
:101E9000FF93C158DF4F2881CF57D0402F930E9426
:101EA000D030C158DF4F88819981CF57D0400E94F0
:101EB000AA2661E080E00E945A26CA56DF4F288198
:101EC0003981C659D0403695279536952795ABE789
:101ED000B4E10E94A2309695879544E6489F900110
:101EE000499F300D1124CA56DF4F48815981C65988
:101EF000D040421B530B9A013F934F939F938F9374
:101F0000C357DF4F28813981CD58D040ADECBCECB0
:101F10000E94A23096958795969587959695879578
:101F2000AC01440F551F9C01220F331F220F331F9A
:101F3000220F331F240F351FC357DF4F688179816C
:101F4000CD58D040621B730B9B013F936F939F93BF
:101F50008F93C557DF4F28813981CB58D0400E94DD
:101F6000A230969587959695879596958795AC011D
:101F7000440F551F9C01220F331F220F331F220FC6
:101F8000331F240F351FC557DF4FA881B981CB58A8
:101F9000D040A21BB30B9D013F93AF939F938F93B0
:101FA00080EF92E09F938F931F921F93C058DF4F53
:101FB000B881C058D040BF93C158DF4FE881CF5798
:101FC000D040EF930E94D0300FB6F894DEBF0FBE22
:101FD000CDBFC158DF4F88819981CF57D0400E9433
:101FE000AA2662E080E00E945A26ED963FADED976A
:101FF00032FD02C00C94151D24EB31E0ED964FAD7F
:10200000ED9743FD02C00C94111D87EB91E0ED9616
:102010005FADED9756FD02C00C94061D52E5ED969E
:102020006FADED9767FF02C00C940E1D4DE23F931C
:102030002F939F938F931F925F931F924F931F92A3
:1020400089E08F931F921F921F928DE28F9386EFEC
:102050008F938AE08F9384E193E09F938F931F92F5
:1020600085E18F93C058DF4F7881C058D0407F936F
:10207000C158DF4F8881CF57D0408F930E94D03016
:10208000C158DF4F88819981CF57D0400E94AA263E
:102090000FB6F894DEBF0FBECDBF2CEFC22E14C911
:1020A000852D817111F40C94721DCD57DF4F8881FD
:1020B000C358D0408A50833010F40C94CD2128E8C6
:1020C000C22E8AE0CD57DF4F8883C358D040512CB1
:1020D000FBC862E080E00E945A268CEA96E00E94EB
:1020E000BA2661E08AE00E945A261F92C256DF4F4C
:1020F0003881CE59D0403F938BEA92E09F938F93E3
:102100001F9285E18F93C058DF4F4881C058D0405F
:102110004F93C158DF4F5881CF57D0405F930E94F3
:10212000D030C158DF4F88819981CF57D0400E946D
:10213000AA2662E0CD57DF4F8881C358D0400E9465
:102140005A268EE50E9488260FB6F894DEBF0FBE91
:10215000CDBF19E8C12EB8C80E94822688E295E05A
:102160000E94BA2661E081E00E945A268EE195E045
:102170000E94BA26A396FFADA397C256DF4FF883FD
:10218000CE59D04029E135E044E155E06FE075E0FB
:102190008AE095E00E94780608E8C02E2AE0CD5734
:1021A000DF4F2883C358D0408FC850FE02C00C9424
:1021B000EA1C51FE02C00C949E20852D8C7011F4F7
:1021C0000C94452252FE16C081E0CD57DF4F588156
:1021D000C358D040511101C080E06A969FAD6A9704
:1021E000981741F06A968FAF6A97CE018A5A9F4F2F
:1021F0000E94592B0E948226BAE0CB2E512C64C833
:10220000852D817111F40C943D1D29968FAD299770
:10221000843610F00C94A9208F5F29968FAF2997F0
:1022200061EFC62E512C50C829969FAD2997A096D4
:102230002EAD3FADA09737FF02C00C94971F86E4E8
:102240001F929F931F928F938EEC92E09F938F9398
:102250001F9285E18F93C058DF4FA881C058D040AE
:10226000AF93C158DF4FB881CF57D040BF930E9482
:10227000D03061E08CE00E945A26C158DF4F88813F
:102280009981CF57D0400E94AA2629968FAD2997D1
:102290000FB6F894DEBF0FBECDBF882311F40C94A7
:1022A000CE1C65EF73E0843610F40C94D01C8EEED7
:1022B00093E02FEF33E04AEF53E00E94780672EF8D
:1022C000C72E0C9464090E94822660E080E00E9480
:1022D0005A268FE094E00E94BA2661E081E00E94D5
:1022E0005A2684E094E00E94BA26E1EFCE2E0C94A8
:1022F0006409852D817111F40C948F1DEEE6F0E0D8
:10230000EC0FFD1FCD57DF4F2881C358D040E20F9F
:10231000F11D808190E001966EE170E00E946330D3
:10232000808394E7C92E512C0C94640962E080E00C
:102330000E945A268CEA96E00E94BA269E012259F3
:102340003F4F790100E010E035E1C32EC158DF4F67
:1023500068807980CF57D040D02ED7018D917D01F4
:102360000F5F1F4F8D3110F40C94411A45E150E07E
:102370006CE972E0C3010E94C13052E0D51611F43D
:102380000C94561A5D1510F00C94741A73E0D7165D
:1023900011F40C94241C84E0D8120C94421C61E0CB
:1023A00081E10E945A26C158DF4F88819981CF5719
:1023B000D0400E94AA26CD57DF4FF881C358D040A5
:1023C000F43011F40C94EC2585E7C82E0C946409C4
:1023D0000E9482261F92CD56DF4F8881C359D0407C
:1023E0008F9385E892E09F938F931F9285E18F935F
:1023F000C058DF4F9881C058D0409F93C158DF4FDD
:10240000A881CF57D040AF930E94D030C158DF4F42
:1024100088819981CF57D0400E94AA2623EA35E0CF
:102420004EE955E069E975E084E995E00E94780697
:102430008DE1AF968FAFAF97E0968FAFE097E196C3
:102440008FAFE197E2968FAFE297E3968FAFE39776
:1024500025960CAD1DAD2EAD3FAD25970FB6F8946A
:10246000DEBF0FBECDBF80E090E004C001968D318D
:10247000910579F0B901A801082E04C076956795F9
:10248000579547950A94D2F740FFF0CFAF968FAF9C
:10249000AF97C9ACDAACEBACFCAC80E090E004C028
:1024A00001968D31910539F1282FB701A601082E2B
:1024B00004C076956795579547950A94D2F740FFE3
:1024C000EFCFE0968FAFE09781E0820F8D3121F45E
:1024D00012C08F5F8D3179F0B701A601082E04C0BC
:1024E00076956795579547950A94D2F740FFF1CFB7
:1024F000E1968FAFE1972196CCACDDACEEACFFACB2
:10250000219780E090E006C001968D31910511F48D
:102510000C949D1E282FB701A601082E04C07695A5
:102520006795579547950A94D2F740FFEDCFE2960D
:102530008FAFE29781E0820F8D3139F40C94F6254C
:102540008F5F8D3111F40C94941EB701A601082EF3
:1025500004C076956795579547950A94D2F740FF42
:10256000EFCFE3968FAFE39754E7C52ECD57DF4FFC
:102570001882C358D0400C946409852D817111F4E0
:102580000C942B1ECD57DF4F3881C358D040832F7A
:1025900090E0FC013497EF30F10510F40C943320F7
:1025A000AFE6CA2E512C0C94640961E084E00E94CD
:1025B0005A26CD56DF4F4881C359D04098AD8DEC97
:1025C000989F812D1124869586958695442311F434
:1025D0000C94571FAAE08A9F901911246FA94CA947
:1025E0005DA92EA9222311F40C942F1F2BE731E0B3
:1025F0001F929F931F928F931F926F935F934F939E
:102600003F932F931F9285E18F93C058DF4FB8817E
:10261000C058D040BF93C158DF4FE881CF57D0405A
:10262000EF930E94D0300FB6F894DEBF0FBECDBF3F
:10263000C158DF4F88819981CF57D0400E94AA2688
:1026400062E080E00E945A268CEA96E00E94BA2658
:1026500062E0CD57DF4F8881C358D0400E945A2690
:102660008EE50E948826F0E7CF2E0C9464090E9424
:102670008226BE016C5C7F4FCD56DF4F8881C359E7
:10268000D0400E94CC2B1F92CD56DF4FB881C3594A
:10269000D040BF9389E592E09F938F931F9285E18D
:1026A0008F93C058DF4FE881C058D040EF93C15896
:1026B000DF4FF881CF57D040FF930E94D030C158F0
:1026C000DF4F88819981CF57D0400E94AA260FB64C
:1026D000F894DEBF0FBECDBFCD56DF4F3881C35952
:1026E000D04031110C94A41D62E08AE00E945A2669
:1026F0008EE50E948826AAE0CD57DF4FA883C358F5
:10270000D04047EB55E02CEB35E06DEA75E088EA08
:1027100095E00E947806AFE6CA2E0C94640950FC3E
:1027200002C00C94751ECD56DF4F2881C359D0408E
:10273000222311F40C945C212150CD56DF4F2883C5
:10274000C359D040FAE6CF2E512C0C9464090E9454
:102750008226CD56DF4F3881C359D0403E3010F02D
:102760000C94C41C62EF75E031110C94C61C8BEE06
:1027700095E02CEF35E047EF55E00E9478068BEAB4
:10278000CD56DF4F4881C359D040489F812D112439
:102790008695082F000F800F082F10E0D12CE42E13
:1027A000F12CBDEC7B2E85E1C82E652CC158DF4F86
:1027B00048805980CF57D0400F3011050CF043C0EE
:1027C0000E151F0511F40C948821BE016C5C7F4F1F
:1027D000802F0E94CC2B6D2D82E00E945A2698AD4E
:1027E000979D812D11248695869586950115110555
:1027F00011F40C94A61EBAE08B9F901911246FA9B6
:102800004CA95DA92EA9222311F40C94A71C2CE33A
:1028100031E01F929F931F928F931F926F935F934C
:102820004F931F930F933F932F931F92CF925F92DB
:102830004F920E94D0300FB6F894DEBF0FBECDBFCE
:10284000C2010E94AA26D3940F5F1F4FF3E0DF124C
:10285000B3CF562CABE6CA2E0C9464091AE6C12EEF
:10286000CD56DF4F1882C359D0400C94640950FEF6
:1028700002C00C94BA1C51FE02C00C941E20852D7F
:102880008C7011F40C94C42252FE21C081E0CD570B
:10289000DF4F9881C358D040911101C080E0679606
:1028A0009FAD6797981799F067968FAF6797CD5749
:1028B000DF4FA881C358D040AA2311F40C945725A8
:1028C0000E946D27CE018A5A9F4F0E94592B0E9469
:1028D00082260AE0C02E512C0C946409852D81714A
:1028E00011F40C94D31DC156DF4FE881CF59D0406D
:1028F000EE2311F40C94BA1FE150C156DF4FE88368
:10290000CF59D0405AE0C52E512C0C9464090E9436
:102910008226C156DF4FF881CF59D040FB3010F0EE
:102920000C94B41C6BEF74E0F1110C94B61C84EFA2
:1029300094E025E035E040E055E00E9478068BEA1F
:10294000C156DF4F2881CF59D040289F812D1124B7
:102950008695682E660C860D682E712C7301EE0C20
:10296000FF1CC701860D971DAC01465C5B4F7A01C9
:1029700000E010E0C22ED12C402EC301800F911F29
:102980008C30910570F4C816D90611F40C9491217D
:10299000642D82E00E945A26D7018D919C910E945D
:1029A000AA260F5F1F4FB3E0EB0EF11C0330110599
:1029B00019F76BE0C62E0C946409222311F0CC2485
:1029C000C39450FE7FC767968FAD679781117AC712
:1029D00008E7C02E512C0C9464090E94822685E5DC
:1029E00095E00E94BA2661E081E00E945A268BE4BD
:1029F00095E00E94BA26A2962FADA297C256DF4F4D
:102A00002883CE59D04026E435E041E455E06CE31C
:102A100075E087E395E00E9478065EE7C52E3AE010
:102A2000CD57DF4F3883C358D0400C9464090E94BF
:102A300082262DE433E04CE453E06BE473E08AE457
:102A400093E00E947806ABEFCA2E0C94640950FC08
:102A500002C00C94EA1DCD57DF4F5881C358D040B7
:102A6000552311F40C9429205150CD57DF4F588332
:102A7000C358D04016EFC12E512C0C94640960E06D
:102A800080E00E945A268AED93E00E94BA26CD5734
:102A9000DF4F4881C358D04061E0442311F40C94C7
:102AA000B51D81E00E945A2689EC93E00E94BA2667
:102AB00062E081E00E945A2688EB93E00E94BA26E9
:102AC00061E08BE00E945A26CD57DF4F8881C358C2
:102AD000D040805D0E94882623EB33E042EB53E038
:102AE00061EB73E08CEA93E00E94780687EFC82ED2
:102AF000512C0C9464090E94822696EFC92E35E071
:102B0000CD57DF4F3883C358D0400C946409852DCE
:102B1000817111F40C94471EC256DF4F9881CE5933
:102B2000D0409A3F10F00C948820965FC256DF4F39
:102B30009883CE59D040FCEECF2E512C0C946409D2
:102B400061E08AE00E945A26C256DF4F4881CE5982
:102B5000D0404111A5C785E0E6EAF2E0C158DF4F59
:102B6000A881B981CF57D04001900D928A95E1F7A5
:102B7000C158DF4F88819981CF57D0400E94AA2643
:102B8000ADEECA2E0C94640982E9C82ECD56DF4FF3
:102B90001882C359D0400C946409F1E0CC57DF4F40
:102BA000F883C458D040C12C512C0C9464090E9465
:102BB000822682E895E00E94BA2661E081E00E94C8
:102BC0005A2688E795E00E94BA2662E08AE00E94D1
:102BD0005A2684E592E00E94AA26A4968FADA49777
:102BE0009DEC899F812D1124869586958695880F69
:102BF000982F990F990F890FC256DF4F8883CE59AE
:102C0000D04023E735E04EE655E069E675E084E61E
:102C100095E00E947806BCEECB2E0C94640950FC23
:102C2000CEC651FE02C00C949420852D8C7011F4F8
:102C30000C947A2252FE16C081E0CD57DF4F988166
:102C4000C358D040911101C080E06A969FAD6A9749
:102C5000981741F06B968FAF6B97CE018A5A9F4FB2
:102C60000E94592B0E948226FAE0CF2E512C0C9400
:102C70006409852D817109F4BAC7CD57DF4F88816A
:102C8000C358D0408A50833010F40C94EB214EE7A7
:102C9000C42E6AE0CD57DF4F6883C358D040512C13
:102CA0000C94640962E080E00E945A268CEA96E067
:102CB0000E94BA2661E08AE00E945A261F92C256FC
:102CC000DF4F4881CE59D0404F938BEA92E09F93DB
:102CD0008F931F9285E18F93C058DF4F5881C05862
:102CE000D0405F93C158DF4F6881CF57D0406F937A
:102CF0000E94D030C158DF4F88819981CF57D04092
:102D00000E94AA2662E0CD57DF4F8881C358D04089
:102D10000E945A268EE50E9488260FB6F894DEBFE0
:102D20000FBECDBF4FE7C42E0C94640950FC3CC6C7
:102D300051FE02C00C946D21852D8C7011F40C9401
:102D4000642252FE16C081E0CD57DF4F5881C35830
:102D5000D040511101C080E068969FAD68979817E8
:102D600041F068968FAF6897CE018A5A9F4F0E94B4
:102D7000592B0E9482269AE0C92E512C0C9464098A
:102D80000E948226CD56DF4F3881C359D0403E3055
:102D900008F037C668E076E0311135C681E096E08C
:102DA00022E136E04DE056E00E9478068BEACD56EF
:102DB000DF4F4881C359D040489FE12C1124E6944D
:102DC0008E2D880FE80E442443944E0C00E010E052
:102DD000F12CC42ED12C37015FEF651A750ACB5741
:102DE000DF4F39822882C558D040C056DF4FB982A4
:102DF000A882C05AD040B52CCE55DF4F9982888228
:102E0000C25AD040942CC158DF4F48805980CF57C8
:102E1000D040302EC8018E0D9F1D8E30910508F0D8
:102E20004DC0C816D90611F40C947F21BE016C5C0C
:102E30007F4F892D0E94CC2B632D81E00E945A2662
:102E40009301200F311F69968FAD699790E082172B
:102E5000930709F497C7F0E298AD6DEC969F812D2A
:102E600011248695869586957AE0879F901911247E
:102E7000EFA96CA97DA94EA9442309F440C543E0FC
:102E800051E01F929F931F928F931F92EF937F9316
:102E90006F931F92FF933F932F935F934F931F92D4
:102EA00085E18F935F924F920E94D030C2010E94C1
:102EB000AA260FB6F894DEBF0FBECDBF0F5F1F4F1F
:102EC00093940330110509F0A4CF5B2CCB57DF4F4F
:102ED00028803980C558D040C056DF4FA880B980BF
:102EE000C05AD040CE55DF4F88809980C25AD0401A
:102EF0005AE7C52E0C94640967968FAD67978823AF
:102F000009F476C5C12C0C946409852D817109F4EE
:102F1000D5C6CD56DF4FB881C359D040BB2311F47D
:102F20000C947721B150CD56DF4FB883C359D040B0
:102F300049E7C42E512C0C946409FC01E45BFE4F5C
:102F40000C94993029962FAD29975CE95203C00162
:102F50001124A0969FAF8EAFA097ED968FADED9701
:102F6000C356DF4F6881CD59D040862311F00C94B1
:102F7000FC074BE0BE016F5F7F4FED968FADED9785
:102F80000E941E0573E0EC967FAFEC970C94FC0753
:102F9000A0961FAE1EAEA0972114310409F0F7C011
:102FA00029968FAD2997E4E68E9FC0011124A09643
:102FB0009FAF8EAFA097FCE0EC96FFAFEC978091AF
:102FC000E30482FD1FC0212C312C0C946008A096D4
:102FD0001FAE1EAEA0972114310409F0D8C0299667
:102FE0002FAD29973CE93203C0011124A0969FAF71
:102FF0008EAFA0974BE0EC964FAFEC978091E30437
:1030000082FFE1CF8091E3048B7F8093E304212C46
:10301000312C0C940A08A0961FAE1EAEA0976E9697
:103020008EAD9FAD6E97892B11F00C94FC07A39683
:103030002FACA397AAE02A9E10011124BAE0EC96C7
:10304000BFAFEC970C94FC07A0961FAE1EAEA097E6
:103050006E968EAD9FAD6E97892B11F00C94FC0788
:10306000A3962FACA3979AE0299E10011124A9E002
:10307000EC96AFAFEC970C94FC07A0961FAE1EAE7B
:10308000A0976E968EAD9FAD6E97892B11F00C9424
:10309000FC07A2962FACA2978AE0289E100111246B
:1030A00091E0EC969FAFEC970C94FC07A0961FAEB6
:1030B0001EAEA0976E968EAD9FAD6E97892B11F0C8
:1030C0000C94FC07A2962FACA2977AE0279E1001E1
:1030D000112482E0EC968FAFEC970C94FC07ED96F0
:1030E0008FADED97C656DF4F9881CA59D0408923DE
:1030F00009F025C268968FAD6897882359F0ED9640
:103100008FADED97C456DF4FB881CC59D0408B239B
:1031100009F040C629968FAD2997F4E68F9FC0012C
:103120001124A0969FAF8EAFA0970C94FC07ED964C
:103130008FADED97C556DF4F2881CB59D040822304
:1031400009F010C268968FAD6897882359F0ED9604
:103150008FADED97C356DF4F4881CD59D0408423C2
:1031600009F02BC629962FAD29976CE96203C0019F
:103170001124A0969FAF8EAFA0970C94FC07A09649
:103180001FAE1EAEA0972114310409F4CAC180916C
:10319000E30482FD02C00C9460088091E3048B7FFD
:1031A0008093E30451E0251A31080C940A08A09694
:1031B0001FAE1EAEA0972114310449F741E0BE01B5
:1031C0006F5F7F4FED968FADED970E94860563E0B0
:1031D000EC966FAFEC97F3CE29968FAD299724E646
:1031E000829FC0011124A0969FAF8EAFA097ED964D
:1031F0008FADED97C456DF4F3881CC59D040832333
:1032000011F00C94FC074CE0BE016F5F7F4FED9610
:103210008FADED970E941E0544E0EC964FAFEC9702
:103220000C94FC07A0968EAD9FADA0976E962EAD28
:103230003FAD6E9797FDF7C129968FAD299744E66C
:10324000849FC0011124A0969FAF8EAFA097121645
:1032500013060CF09AC1ED966FADED9767FDD8C5DA
:10326000EC961FAEEC97C656DF4F1882CA59D04075
:10327000C556DF4F1882CB59D040C456DF4F188255
:10328000CC59D040C356DF4F1882CD59D040ED966F
:10329000EFADED97E6FD02C00C94FC0746E0BE01E1
:1032A0006F5F7F4F8E2F0E948605F6E0EC96FFAF92
:1032B000EC9720E4C656DF4F2883CA59D04030E847
:1032C000C556DF4F3883CB59D04048E0C456DF4F56
:1032D0004883CC59D04054E0C356DF4F5883CD5972
:1032E000D0400C94FC07611175C08EEF90E0C75779
:1032F000DF4F99838883C958D040249A2C9A6C96C2
:103300008FAD6C9781110C942B08A096EEADFFAD9C
:10331000A0976E962EAD3FAD6E97E217F30709F1B9
:1033200029968FAD299744E6849FC00111242A96DF
:103330006FAD2A9770E00E946330A9014E1B5F0BAE
:1033400057FDCEC0CB014617570708F4CA012E1708
:103350003F070CF06AC0280F391F6E963FAF2EAFA3
:103360006E9767968FAD679781116FC066964CAD6B
:103370005DAD6EAD7FAD6697CB57DF4F4883598308
:103380006A837B83C558D04037FF70C02E96ECAC63
:10339000FDAC0EAD1FAD2E9788279927821B930B8E
:1033A00064E670E00E946330462F21E00C944B08E5
:1033B0008460ED968FAFED970C94EF0788600C94C6
:1033C000120A80640C940D0A80680C94080A8062CA
:1033D0000C94030AAFEFB0E0C757DF4FB983A8835F
:1033E000C958D0400C942208C557DF4FA881B98135
:1033F000CB58D040C357DF4FE881F981CD58D0403A
:10340000AE0FBF1FCC56DF4FB983A883C459D0403D
:103410000C940D09CC57DF4F9881C458D0409923A4
:1034200011F40C94E9090C94E409E217F3070CF089
:1034300098CF281B390B6E963FAF2EAF6E976796CD
:103440008FAD6797882309F491CF432F441F4427FA
:10345000441FC90137FD12C264E670E00E94633068
:10346000862F642F0E9493270C946008C90164E69C
:1034700070E00E946330462F0C94440880E040E0E6
:10348000F0CF1F928F93E0EAF2E0FF93EF931F9249
:10349000CF927F926F920E94D0300FB6F894DEBF29
:1034A0000FBECDBF52E0D5120C94C21161E089E08D
:1034B0000E945A26C3010E94AA26CD57DF4FB88129
:1034C000C358D040B23011F00C94AC1162E08AE0E5
:1034D0000E945A2686E592E00E94AA260C94AC111E
:1034E0005195419551092ECF61E0D612CBC161E0D3
:1034F00085E00E945A26C3010E94AA26CD57DF4FBD
:10350000A881C358D040A13011F00C94AC1162E0F6
:1035100086E00E945A2686E592E00E94AA260C9434
:10352000AC1142E0BE016F5F7F4FED968FADED971E
:103530000E94860574E0EC967FAFEC9740CDA09694
:103540001FAE1EAEA09746E0BE016F5F7F4FED96A7
:103550008FADED970E948605A6E0EC96AFAFEC9795
:103560000C94FC07A0961FAE1EAEA09745E0BE01CE
:103570006F5F7F4FED968FADED970E94860535E02A
:10358000EC963FAFEC970C94FC07EC961FAEEC97D3
:10359000C656DF4F1882CA59D040C556DF4F188231
:1035A000CB59D040C456DF4F1882CC59D040C356B7
:1035B000DF4F1882CD59D040232B11F40C94FC0717
:1035C000ED966FADED9767FF02C00C942525ED9643
:1035D000EFADED97E6FD02C00C94FC0745E0BE019F
:1035E0006F5F7F4F8E2F0E948605F5E0EC96FFAF50
:1035F000EC9720E8C656DF4F2883CA59D04030E404
:10360000C556DF4F3883CB59D04044E0C456DF4F16
:103610004883CC59D04058E0C356DF4F5883CD592A
:10362000D0400C94FC0729964FAD29975CE95403D0
:10363000C0011124A0969FAF8EAFA09708CE61E085
:103640000C94660B62E00C94E80A61E00C94270B82
:1036500062E00C947A0A87E196E00C94060D42E24F
:1036600056E00C94FD0CE75AFE4F85E00C9499301F
:10367000EDE3F3E0DE01AC59BF4F01900D928A9566
:10368000E1F70C949E0CE2E4F3E0DE01AC59BF4F8D
:1036900001900D928A95E1F70C949E0CE7E4F3E01B
:1036A000DE01AC59BF4F01900D928A95E1F70C9461
:1036B0009E0CECE4F3E0DE01AC59BF4F01900D929B
:1036C0008A95E1F70C949E0CE1E5F3E0DE01AC593C
:1036D000BF4F01900D928A95E1F70C949E0CE6E5A0
:1036E000F3E0DE01AC59BF4F01900D928A95E1F7EE
:1036F0000C949E0CEBE5F3E0DE01AC59BF4F01905A
:103700000D928A95E1F70C949E0CE0E6F3E0DE0161
:10371000AC59BF4F01900D928A95E1F70C949E0C25
:10372000E5E6F3E0DE01AC59BF4F01900D928A95BA
:10373000E1F70C949E0CEAE6F3E0DE01AC59BF4FD2
:1037400001900D928A95E1F70C949E0CEFE6F3E060
:10375000DE01AC59BF4F01900D928A95E1F70C94B0
:103760009E0CCA56DF4F28813981C659D040369504
:10377000279536952795ABE7B4E10E94A230969540
:10378000879544E6489F9001499F300D1124CA5601
:10379000DF4F48815981C659D040421B530B9A01D3
:1037A0003F934F939F938F93CC56DF4F288139815E
:1037B000C459D040ADECBCEC0E94A23096958795E0
:1037C0009695879596958795AC01440F551F9C015A
:1037D000220F331F220F331F220F331F240F351FD9
:1037E000CC56DF4F68817981C459D040621B730B7E
:1037F0009B013F936F939F938F9380ED91E09F93F5
:103800008F931F9285E18F93C058DF4F7881C05806
:10381000D0407F93C158DF4F8881CF57D0408F93DE
:103820000E94D030C158DF4F88819981CF57D04056
:103830000E94AA260FB6F894DEBF0FBECDBF0C942F
:10384000060C8DE20C94D70C61E08DE00E945A26A4
:10385000C3010E94AA26CD57DF4FE881C358D0404C
:10386000E33011F00C94AC1162E08EE00E945A2615
:1038700086E592E00E94AA260C94AC119195819560
:103880009109EACD61E081E00E945A26C3010E94BD
:10389000AA26CD57DF4F9881C358D040992311F401
:1038A0000C940726053011F00C94AC1125E7C22EBC
:1038B0000C94640993E4792E0C94840E33E4932ED3
:1038C0000C94740E51FC9FC252FE4DC56C969FAD78
:1038D0006C9781E089276C968FAF6C97882309F4E9
:1038E000A5C66E961FAE1EAE6E976B968FAD6B978C
:1038F0008111ACC7CC24C394512C0C94640940E2D0
:1039000051E0BFCA8FE20E94882689E40E9488267F
:10391000ED968FADED978C708C3009F4A2C6ED96C4
:103920003FADED9732FD29C5ED964FADED9743FFC5
:103930001FC58CE40E9488260C94F40C81E396E069
:103940000E94BA260C94840C8AE20C94B20C28E5EE
:1039500031E00C94091482E50C941C0C6BED75E0BD
:1039600086ED95E00C941F0E6AEF74E085EF94E00D
:103970000C949914A5E6CA2ECD57DF4F1882C35870
:10398000D040512C0C94640961EF75E08CEE95E009
:103990000C94B91327E731E00C94520D64EF73E0F7
:1039A0008FEE93E00C9459111DE8C12EA1E0CD5784
:1039B000DF4FA883C358D040512C0C9464096AE9A6
:1039C000C62EF1E0CD57DF4FF883C358D040512CBD
:1039D0000C946409E3E8CE2ECD57DF4F1882C3580C
:1039E000D040512C0C9464090CEA11E00C94EE0EBA
:1039F000A9E7CA2ECD56DF4F1882C359D0400C9488
:103A0000640967E076E082E096E0CAC95DE2ED967F
:103A10006FADED9767FD02C00C9416104CE40C944A
:103A200017108DE992E00C9407102DE932E00C9408
:103A3000FE0F852D827209F491C3CD57DF4F288187
:103A4000C358D040273009F499C708F4F7C5CD57BB
:103A5000DF4F3881C358D040393009F479C73E3040
:103A600009F081C797E9C92E64E0CD57DF4F68831D
:103A7000C358D040512C0C946409852D827209F4EE
:103A8000B1C229968FAD2997882309F4F9C48150D2
:103A900029968FAF299751EFC52E512C0C946409AC
:103AA0001F92C256DF4F5881CE59D0405F938BEAA8
:103AB00092E09F938F931F9285E18F93C058DF4FC1
:103AC0006881C058D0406F93C158DF4F7881CF577D
:103AD000D0407F930E94D0300FB6F894DEBF0FBE67
:103AE000CDBF46C8852D827209F4A1C2CD57DF4FE4
:103AF0008881C358D0408A50823008F0B1C4CD5775
:103B0000DF4FB881C358D040BF5FCD57DF4FB88378
:103B1000C358D040A8E8CA2E512C0C94640951FE19
:103B20002EC2CD57DF4F3881C358D0403F5FCD57AD
:103B3000DF4F3883C358D04084E7C82E363008F0B2
:103B4000A7C4512C0C94640962E084E00E945A26B8
:103B50008EE50E94882694E0CD57DF4F9883C358A6
:103B6000D04042EB55E00C94831380E00E945A262B
:103B700087E993E00E94BA2662E080E00E945A261C
:103B800082E893E00E94BA262DE733E04CE753E049
:103B900067E773E086E793E00E94780607EFC02EA0
:103BA000512C0C946409852D827209F4EFC1C15621
:103BB000DF4FF881CF59D040FB3008F071C4FF5F70
:103BC000C156DF4FF883CF59D0404AE0C42E512C64
:103BD0000C94640951FE75C3CD57DF4F6881C358FB
:103BE000D040662309F4D4C7512C0C946409852D68
:103BF000827209F492C2CD57DF4F8881C358D040FA
:103C00008A50823008F00AC4CD57DF4FB881C358BC
:103C1000D040BF5FCD57DF4FB883C358D0402EE7A9
:103C2000C22E512C0C946409852D827209F4B6C2FF
:103C3000CD56DF4F9881C359D040953008F035C438
:103C40009F5FCD56DF4F9883C359D04012E9C12EF4
:103C5000512C0C946409852D827209F4B0C1CD57A2
:103C6000DF4FE881C358D0408E2F90E0FC0134979D
:103C7000EF30F10508F441C4AFE6CA2E64E0CD5739
:103C8000DF4F6883C358D040512C0C946409852DB4
:103C9000827209F41BC3C256DF4FA881CE59D040AF
:103CA000AA2309F40CC4AA50C256DF4FA883CE59E8
:103CB000D040ECEECE2E512C0C946409852D8272EE
:103CC00009F473C2CD56DF4FE881C359D040EE30BE
:103CD00008F002C4EF5FCD56DF4FE883C359D040F0
:103CE00039E7C32E512C0C94640951FE3EC2CD56C7
:103CF000DF4F3881C359D0403E3008F0E8C33F5F02
:103D0000CD56DF4F3883C359D040EAE6CE2E512C32
:103D10000C94640982E50E9488260C94EE0C82E5DE
:103D20000E9488260C94C90C44E7C42ECD57DF4F5F
:103D30001882C358D0400C94640964E7C62ECD574E
:103D4000DF4F1882C358D0400C9464095AE0859F15
:103D5000901911241F929F931F928F938FA91F92E6
:103D60008F9366EF71E07F936F931F92CF925F9274
:103D70004F920E94D0300FB6F894DEBF0FBECDBF79
:103D80000C942014FAE268C888279927821B930BA9
:103D90000C94130CA0961FAE1EAEA09748E0BE0177
:103DA0006F5F7F4FED968FADED970E941E05E8E0A7
:103DB000EC96EFAFEC970C94FC07A0961FAE1EAEEE
:103DC000A09747E0BE016F5F7F4FED968FADED97F7
:103DD0000E941E0557E0EC965FAFEC970C94FC0731
:103DE00082E50C945E0CCD57DF4FA881C358D040BC
:103DF000AE3009F0F3C083E592E00E94AA2678E98C
:103E0000C72E0C94640910EFC12E512C0C94640938
:103E100046E0BE016F5F7F4FED968FADED970E943C
:103E2000860576E0EC967FAFEC9780E8C656DF4FCC
:103E30008883CA59D04090E4C556DF4F9883CB5948
:103E4000D040A4E0C456DF4FA883CC59D040B8E09E
:103E5000C356DF4FB883CD59D0400C94FC0722E9FC
:103E600031E00C94F81227968FAD27978F93269602
:103E70008FAD26978F9380EC91E09F938F931F9245
:103E800085E18F93C058DF4F5881C058D0405F9371
:103E9000C158DF4F6881CF57D0406F930E94D03018
:103EA0000FB6F894DEBF0FBECDBF0C94A70B5AE03F
:103EB000859F901911241F929F931F928F938FA912
:103EC0001F928F938FE692E09F938F931F9285E1CD
:103ED0008F93C058DF4F6881C058D0406F93C1584E
:103EE000DF4F7881CF57D0407F930E94D0300FB6FC
:103EF000F894DEBF0FBECDBF0C9418138EE496E08D
:103F00000E94BA260C94AF0B88279927821B930B2B
:103F10000C94550C0E9482269AE0C92E512C0C94C8
:103F200064090E948226C12C512C0C94640982E5FC
:103F30000C94201186E40E9488260C94EE0C86E4F2
:103F40000E9488268FE20E94882682E50E948826A9
:103F5000ED96AFADED97A6FF5CC28AE20E9488267F
:103F60000C94E20C85E592E00E94AA26E8E9CE2EA8
:103F70000C9464098AE0C82E512C0C94640952FCFC
:103F8000F8C353FC79C4512C0C94640953FCEBC363
:103F900052FE51C3C156DF4F2881CF59D040822FE6
:103FA00090E0FC01EE0FFF1F8E0F9F1FFC01E65CEF
:103FB000FB4F1281111175C5512C0C94640952FEEE
:103FC0004AC2CD56DF4F7881C359D040772309F4D8
:103FD00031C573E7C72E512C0C94640908E9C02E33
:103FE0000C94640952FE47C2A0968EAD9FADA09777
:103FF000919581959109A0969FAF8EAFA097209142
:10400000E4043091E5042A30310508F0C0C2809103
:10401000DF049091E004A091E104B091E20441EF4B
:10402000C42EEC961FAEEC97512C0C94DF0752FC7B
:104030001DC353FC6EC4512C0C946409F5E6CF2EBD
:10404000B1E0CD57DF4FB883C358D040512C0C940A
:10405000640926EFC22E512C0C94640932E9C32E58
:10406000512C0C946409EB59FE4F0C949930CD57A8
:10407000DF4F9881C358D040923109F495C421E1B3
:10408000291B88AD41E050E06FEF70E090E00E94A6
:104090004F2F88AF9FE6C92E512C0C9464092CE059
:1040A000CD57DF4F8881C358D040281B8FA941E0EE
:1040B00050E064E670E090E00E944F2F8FAB2FE657
:1040C000C22E512C0C9464098EA9882309F46EC465
:1040D0001EAAEFE6CE2E512C0C94640927E0CD5792
:1040E000DF4F7881C358D040271B8EA9882309F45D
:1040F0002CC46FE770E040E050E08CA99DA90E94BD
:104100004F2F9DAB8CAB3FE6C32E512C0C94640912
:104110006CEEC62E512C0C94640952FCC3C253FCA5
:10412000FFC3512C0C9464095AE9C52ECD57DF4FBB
:104130001882C358D040512C0C94640973E8C72EE0
:10414000E1E0CD57DF4FE883C358D040512C0C94A9
:10415000640941EFC42E512C0C94640952FCD5C261
:1041600053FCECC3512C0C94640953FCA3C152FEC4
:1041700096C2C156DF4F4881CF59D040842F90E07E
:10418000FC01EE0FFF1F8E0F9F1FFC01E65CFB4F33
:104190008281811104C4512C0C94640953FCA1C187
:1041A00052FCD9C2512C0C94640953FC9FC152FE9D
:1041B000D7C2C156DF4FF881CF59D0408F2F90E042
:1041C000FC01EE0FFF1F8E0F9F1FFC01E65CFB4FF3
:1041D0008281882309F424C467968FAD6797811183
:1041E00002C00E942F29CD56DF4F8881C359D0408D
:1041F0008F5F69968FAF6997CE018A5A9F4F0E9451
:10420000592BBE016B5B7F4F69968FAD69970E94FA
:10421000CC2B6A968FAD6A9781117EC48091E4049D
:104220009091E5040A9708F468C48091E4049091A1
:10423000E5040A979093E5048093E4042091DF0459
:10424000C157DF4F2883CF58D0403091E004C0578A
:10425000DF4F3883C059D0404091E104CF56DF4F43
:104260004883C159D0405091E204CE56DF4F588365
:10427000C259D04061E070E080E090E06093DF04DC
:104280007093E0048093E1049093E204A8958091F8
:10429000E304EC961FAEEC97C12C80FF02C00C9497
:1042A0007409A0968EAD9FADA0976E962EAD3FADD2
:1042B0006E97512C0C941A197AE6C72E512C0C9437
:1042C000640953FCE5C1512C0C94640952FCFCC1F7
:1042D00053FC2DC3512C0C946409BDE8CB2ECD5753
:1042E000DF4F1882C358D040512C0C946409F9E771
:1042F000CF2E512C0C946409512C0C946409602F1E
:1043000080E00E945A268EE30E9488260C9416179D
:104310006D2D80E00E945A268EE30E9488260C9420
:10432000E513602F80E00E945A268EE30E948826C3
:104330000C94C814CD57DF4FE881C358D040EE30FD
:1043400009F084C0AE968FADAE9790E001966DE017
:1043500070E00E946330AE968FAFAE9747E9C42EEF
:10436000512C0C94640953FC57C1512C0C946409D2
:104370008DE20E9488260C94F40C82E50E94882627
:104380000C94F40CE4E7F3E0DE01AC59BF4F01906C
:104390000D928A95E1F70C949E0C2CE0CD57DF4FDF
:1043A0007881C358D040271B40E050E06FEF70E0A9
:1043B000C256DF4FA881CE59D0408A2F90E00E948C
:1043C0004F2FC256DF4F8883CE59D040B8E8CB2E4E
:1043D000512C0C9464092CE0CD57DF4F9881C358C1
:1043E000D040291B40E050E06FEF70E0C256DF4F35
:1043F000A881CE59D0408A2F90E00E944F2FC256FC
:10440000DF4F8883CE59D0403EE7C32E512C0C9409
:1044100064098DE20E9488260C94E20C3EE7C32ECC
:104420007AE0CD57DF4F7883C358D040512C0C949D
:104430006409AC969FADAC9781E08927AC968FAFAD
:10444000AC9757E9C52E512C0C94640917E9C12E7D
:10445000512C0C94640953FCE6C2512C0C94640951
:1044600098E8C92E9AE0CD57DF4F9883C358D040C3
:10447000512C0C94640953FC8CC2512C0C9464098B
:1044800031EFC32E512C0C946409512C0C94640907
:10449000CD57DF4F1882C358D040512C0C9464097B
:1044A0000AE0C02E512C0C94640922E9C22E512C32
:1044B0000C9464095AE0C52E512C0C9464095CEEEE
:1044C000C52E512C0C946409512C0C9464096AE695
:1044D000C62E512C0C946409E9E7CE2E512C0C9475
:1044E00064099AE0C92E512C0C946409C12C512CFA
:1044F0000C946409512C0C946409EC58FE4F0C94F4
:104500009930CD56DF4F4881C359D040BFE6CB2EFE
:104510004111EAC25AE0CD57DF4F5883C358D0400B
:10452000512C0C9464091FE6C12E32E1CD57DF4FA8
:104530003883C358D040512C0C946409EFE6CE2E3A
:104540004FE0CD57DF4F4883C358D040512C0C94D7
:1045500064098FE6C82EFAE0CD57DF4FF883C358C1
:10456000D040512C0C946409CD57DF4F2881C3589B
:10457000D0402F5FCD57DF4F2883C358D0400FE680
:10458000C02E512C0C946409512C0C946409209178
:10459000E4043091E5042A5031093093E504209376
:1045A000E404F091DF04C157DF4FF883CF58D040C7
:1045B0002091E004C057DF4F2883C059D04030918C
:1045C000E104CF56DF4F3883C159D0404091E20417
:1045D000CE56DF4F4883C259D04021E030E040E062
:1045E00050E02093DF043093E0044093E1045093C3
:1045F000E204A8952091E304EC961FAEEC9731EF0E
:10460000C32E20FF02C00C9474096E962EAD3FADF0
:104610006E97512C0C941A19BAE0CB2EC156DF4F6D
:104620001882CF59D040512C0C946409CC24C394E7
:10463000512C0C946409512C0C946409243008F416
:1046400092C1CD57DF4F5881C358D0405F5FCD57DF
:10465000DF4F5883C358D04027E9C22E512C0C9409
:10466000640981E40E9488260C94F40CC256DF4F42
:10467000E881CE59D040A396EFAFA397CE018A5AD6
:104680009F4F0E94592BFAE0CF2E512C0C946409B5
:104690000E948226BAE0CB2E512C0C946409512C36
:1046A0000C946409C256DF4FE881CE59D040A296DF
:1046B000EFAFA297CE018A5A9F4F0E94592B9AE0E2
:1046C000C92E512C0C946409C256DF4FB881CE59C3
:1046D000D040A496BFAFA4972AE0B29FF001112466
:1046E000C757DF4FF983E883C958D040CE018A5AB3
:1046F0009F4F0E94592BCC57DF4F1882C458D0408F
:104700007AE0C72E512C0C946409BE0167597F4F83
:10471000CD56DF4F8881C359D0400E948F2ECD5691
:10472000DF4FA881C359D0408A2F90E0BC01660FAB
:10473000771F660F771F860F971F61E070E06C0F81
:104740007D1F680F791F8A2F0E94D22E02E9C02E8A
:10475000512C0C94640986E9C82E512C0C946409E0
:10476000512C0C9464090E948226C12C512C0C946B
:10477000640981E090E0A0E0B0E0AF960FACAF97A5
:1047800004C0880F991FAA1FBB1F0A94D2F7259651
:104790008CAF9DAFAEAFBFAF259741E050E060E07A
:1047A00070E0E0960FACE09704C0440F551F661F01
:1047B000771F0A94D2F781E090E0A0E0B0E0E196A4
:1047C0000FACE19704C0880F991FAA1FBB1F0A9462
:1047D000D2F7842B952BA62BB72B89AF9AAFABAF13
:1047E000BCAF41E050E060E070E0E2960FACE297D1
:1047F00004C0440F551F661F771F0A94D2F781E04B
:1048000090E0A0E0B0E0E3960FACE39704C0880F1F
:10481000991FAA1FBB1F0A94D2F7842B952BA62B96
:10482000B72B21968CAF9DAFAEAFBFAF2197BE0126
:104830006C5C7F4FCD56DF4F8881C359D0400E94BA
:10484000712C09E6C02E512C0C9464098091E4046B
:104850009091E5040A97B8F48091DF049091E00408
:10486000A091E104B091E204CC24C394EC961FAE75
:10487000EC97512C0C94DF070E9482261AE0C12E7F
:10488000512C0C9464098091E4049091E5040A97FA
:104890009093E5048093E4045091DF04C157DF4F07
:1048A0005883CF58D0406091E004C057DF4F6883F1
:1048B000C059D0407091E104CF56DF4F7883C15981
:1048C000D0408091E204CE56DF4F8883C259D04059
:1048D00021E030E040E050E02093DF043093E0043A
:1048E0004093E1045093E204A8958091E304EC9690
:1048F0001FAEEC97CC24C39480FF02C00C947409C3
:10490000A0968EAD9FADA09720E030E0512C0C9486
:104910001A190E948226EAE0CE2E512C0C946409CA
:104920000E9482268AE0C82E512C0C9464090E94B1
:1049300082266AE0C62E512C0C9464090E948226BD
:10494000B2E9CB2E512C0C9464096FE077E2D3CB03
:10495000B7E9CB2E3EE0CD57DF4F3883C358D04068
:10496000512C0C94640987E9C82E74E0CD57DF4FB1
:104970007883C358D040512C0C94640937E9C32E76
:1049800049E0CD57DF4F4883C358D040512C0C9499
:1049900064090E948226C12C512C0C9464094EE6B5
:1049A000C42E512C0C94640920E06BCB23E040E032
:1049B00050E067EF7AE28CA99DA90E944F2FAC01CD
:1049C0009DAB8CAB8031974208F466C081E08EAB22
:1049D0009A01369527953695279536952795A5EC16
:1049E000B0E20E94A230929582958F7089279F70C5
:1049F000892768EE73E0869F9001879F300D969F10
:104A0000300D1124421B530B4038510510F04FE775
:104A100050E05DAB4CAB4FE6C42E512C0C946409B6
:104A2000512C0C9464090E948226EAE0CE2E512C6F
:104A30000C946409BE016C5C7F4F80E00E94712C75
:104A4000F9E6CF2E512C0C94640945E0BE016F5F4E
:104A50007F4FED968FADED970E94860575E0EC9641
:104A60007FAFEC9780E4C656DF4F8883CA59D040A9
:104A700090E8C556DF4F9883CB59D040A8E0C45684
:104A8000DF4FA883CC59D040B4E0C356DF4FB88382
:104A9000CD59D0400C94FC07FFE6CF2E512C0C943E
:104AA00064090E948226C12E512C0C9464090E9434
:104AB00078288E010F5F1F4FF80180819181009748
:104AC00031F02481222319F062810E94C7270B5FF5
:104AD0001F4FC158DF4F28813981CF57D040201751
:104AE000310751F70C94621454E0CD57DF4F5883CF
:104AF000C358D040512C0C9464098091DF049091EC
:104B0000E004A091E104B091E204C12CEC961FAE48
:104B1000EC97512C0C94DF0781E06C968FAF6C976B
:104B20008091E4049091E5040A9738F38091E404BD
:104B30009091E5040A979093E5048093E4047091C2
:104B4000DF04C157DF4F7883CF58D0408091E00415
:104B5000C057DF4F8883C059D0409091E104CF56B1
:104B6000DF4F9883C159D040A091E204CE56DF4F69
:104B7000A883C259D04021E030E040E050E02093CB
:104B8000DF043093E0044093E1045093E2047ECBD1
:104B90000E94822660E080E00E945A2689E693E027
:104BA0000E94BA2661E080E00E945A268EE593E0DA
:104BB0000E94BA260E94492F89E593E00E94BA26F6
:104BC00062E080E00E945A2682E593E00E94BA26C5
:104BD000FFCF21500C94CB0962E082E10E945A265B
:104BE00086E592E00E94AA260C94E41174E7C72E91
:104BF000CD57DF4F1882C358D0400C94640980E031
:104C00000E945A268EE30E9488260C945D0E62E074
:104C100082E00E945A2686E592E00E94AA260C9421
:104C2000521CC757DF4FE881F981C958D0403197EE
:104C3000C757DF4FF983E883C958D0400C947D19DA
:104C4000611118C01298119894B19F6094B995B1F0
:104C5000907F282F22952F70292B25B9109A00C0FC
:104C600010988F70892B85B9109A00C010989F609A
:104C700095B90895129AE7CF1298119A84B1807F5E
:104C800084B9109A00C093B1109800C0109A00C067
:104C900023B12F70892F8295807F1098822B0895E1
:104CA0000E943C2687FDFCCF86E090E00197F1F75B
:104CB0000C943C26CF93C82F662361F06130D1F06D
:104CC000623081F00E94502660E084ED8C0FCF911D
:104CD0000C9420260E94502660E080E88C0FCF9133
:104CE0000C9420260E94502660E084E98C0FCF911E
:104CF0000C9420260E94502660E080EC8C0FCF910F
:104D00000C9420260E94502660E081E00C9420261E
:104D1000CF93C82F0E945026CA3029F061E08C2F13
:104D2000CF910C942026843148F090EC980F943168
:104D300078F084518C3250F0C0E801C0C0EC0E9481
:104D4000502660E08C2FCF910C942026C4EDF7CF35
:104D5000C4E9F5CFCF93DF93EC012196FC0180816C
:104D6000882329F00E94882689918111FBCFDF9149
:104D7000CF910895CF93DF93EC012196FC018491AC
:104D8000882339F00E948826FE01849121968111A2
:104D9000F9CFDF91CF910895CF93C82F84B18F6061
:104DA00084B90A9A099A089A80E89BEB0197F1F76F
:104DB000299A289A109A00C0109880E89AE30197DF
:104DC000F1F7109A00C0109880EC90E0FC01319748
:104DD000F1F7109A00C01098FC013197F1F728986C
:104DE000109A00C010980197F1F70E94502660E0D9
:104DF00088E20E9420260E94502660E088E00E94FF
:104E000020260E94502660E081E00E9420260E9419
:104E1000502660E086E00E9420260E94502660E036
:104E20008C2FCF910C942026FF920F931F93CF933A
:104E3000DF93F62ED72F880F880F880FC0E4C80F96
:104E40000E94502660E08C2F0E9420260F2D1D2FDF
:104E500088E0F82EFC0E0E94502660E08C2F0E9405
:104E60002026F801D4910E94502661E08D2F0E94E7
:104E70002026CF5F0F5F1F4FCF11EDCFDF91CF9176
:104E80001F910F91FF90089561EF76E080E00E94FE
:104E9000142769EE76E081E00E94142761EE76E047
:104EA00082E00E94142769ED76E083E00E941427D7
:104EB00061ED76E084E00E94142769EC76E085E0FD
:104EC0000E94142761EC76E086E00E9414270E947D
:104ED000502660E080E80C9420268BB180638BB96B
:104EE0008AB180638AB9EFE6F0E080818D7F8083AC
:104EF00087E592E0909387008093860090938B00E3
:104F000080938A009093890080938800E1E8F0E024
:104F10001082109285001092840082EA80938000B3
:104F200089E1808308951F93CF93DF93162F8F37E6
:104F300008F08EE7C7E5D2E0282F30E0A7E5B2E021
:104F40000E94A2302EE730E040E050E00E9477302F
:104F500011110EC0D0938900C0938800C21BD30BDF
:104F6000D0938B00C0938A00DF91CF911F91089559
:104F7000CE01821B930B9093890080938800D0937D
:104F80008B00C0938A00DF91CF911F9108952091EB
:104F90000105211132C02091020530910305E091F5
:104FA000FF04F0E0EE0FFF1FE20FF31F8083977006
:104FB0008181887F982B91838091FF04E82FF0E016
:104FC000EE0FFF1FE20FF31F918160FB93F99063D7
:104FD00091838F5F8093FF0490910405891718F0E7
:104FE0001092FF0480E090910005981711F081E085
:104FF000089581E080930105089580E008950F935E
:105000001F93CF93DF93EC018B0150E060E070E0E1
:10501000C8010E94BA308A81882309F45BC08D815F
:10502000882309F452C0E981F0E0EE0FFF1F8B8165
:105030009C81E80FF91F20818181382F3770C901C9
:1050400003969695879596958795382F3F73306888
:10505000F801308396958795969587952D5F220F59
:105060002670F0E78F2780778868822BF80181838C
:10507000E981F0E0EE0FFF1F2B813C81E20FF31F6F
:10508000918193FF0BC08160F8018183E981F0E099
:10509000EE0FFF1F8B819C81E80FF91F9181892FF3
:1050A00082958F708D5F8370282F2295207F9F7C43
:1050B000922B9183811116C089818F5F89839D8195
:1050C000891708F019821A8282E0DF91CF911F912F
:1050D0000F91089588819981891B6D810E944330C9
:1050E000892F9ECF82E0DF91CF911F910F9108957C
:1050F00084E680930F05109210052FEF3FEF309359
:105100000605209305058BB180638BB98AB1806356
:105110008AB987EB92E090938B0080938A009093FA
:105120008900809388003093870020938600109236
:105130008100109285001092840080E580938000A9
:1051400088E08093810099B189B19295917021E0B6
:10515000922785FB882780F9981771F030E821E0C5
:105160003093820089B199B182958170822795FB35
:10517000992790F98913F4CF80916F008260809312
:105180006F0089E080938100E1E1F5E0F093030591
:10519000E093020580E180930405109200051092CF
:1051A000FF041092010580E2DF011D928A95E9F764
:1051B0000895EF92FF920F931F93FC01942F4F37A6
:1051C00020F19EE79F5F222329F180E0982B9093A6
:1051D0001005309729F1662359F1E038F10598F56B
:1051E000F0930605E093050581E080930705E092C2
:1051F000FB04F092FC040093FD041093FE0480E095
:105200001F910F91FF90EF9008954111DBCF90E037
:105210002111DBCF80E8982B909310053097D9F6B9
:1052200081E0809307051092060510920505DFCFF7
:10523000E03187E2F80750F4F0930605E0930505A6
:1052400010920705D4CFEFE7F0E0CACFEFE0F7E226
:10525000F0930605E093050510920705C8CF84E694
:1052600080930F05109210058FEF9FEF9093060526
:10527000809305050895CF92DF92EF92FF9280917F
:105280000E05811124C090910F05911125C0209128
:10529000050530910605203187E2380788F58091B1
:1052A0000705811128C0832F806C80930805209307
:1052B000090522E0E091F20481E08E0F8093F20470
:1052C0004E2F50E04C30510540F11092F204FF9007
:1052D000EF90DF90CF900895915090930F0510922A
:1052E00008051092090582E080930E05FF90EF906B
:1052F000DF90CF9008952F772093080521E0DACF33
:105300008FEF809308051092090582E080930E05C7
:10531000FF90EF90DF90CF900895FA01ED57FE4F88
:105320000C949930E22FF0E0E85FFA4F8EED808325
:1053300082E0820FE1E0E20FF0E04091FB04509147
:10534000FC046091FD047091FE042DE07695679554
:10535000579547952A95D1F7E85FFA4F4083809398
:105360000E05FF90EF90DF90CF90089581E0820FBF
:10537000E22FF0E04091FB045091FC046091FD04A9
:105380007091FE0439E076956795579547953A9563
:10539000D1F74F70406BE85FFA4F4083E0CF81E078
:1053A000820FE22FF0E04091FB045091FC046091E9
:1053B000FD047091FE04A5E0769567955795479595
:1053C000AA95D1F74F70406AE85FFA4F4083C7CF84
:1053D000C090FB04D090FC04E090FD04F090FE042B
:1053E000B701A6014E7155276627772776956795F1
:1053F00057954795C0FC90E181E0820FE22FF0E0E5
:105400004068942BE85FFA4F9083A9CF46E068E0AC
:1054100075E08FEF94E00E94FF278111A0CF8FEFFE
:10542000809308051092090582E099CFE22FF0E001
:10543000E85FFA4F8FE3808382E0820FE1E0E20FC2
:10544000F0E090911005E85FFA4F908388CFE22F4B
:10545000F0E0E85FFA4F8FED808382E0820FE1E0B9
:10546000E20FF0E04091FB045091FC046091FD04D8
:105470007091FE0494E176956795579547959A95B6
:10548000D1F7E85FFA4F40836ACF1F920F920FB6B1
:105490000F9211240BB60F922F933F934F935F936C
:1054A0006F937F938F939F93AF93BF93EF93FF93EC
:1054B0008091F1048F5F8093F10480FD36C080916C
:1054C0000201811145C08FEA94E090938B00809394
:1054D0008A0090938900809388008091F004813045
:1054E00009F47FC008F440C08230A9F52091E80497
:1054F00030910001E22FF0E0E751FB4F808190E016
:10550000032E02C0959587950A94E2F781708093E7
:10551000020131116FC02F5F2093E8048091EF04E6
:105520002817F8F481E08093F004FF91EF91BF9188
:10553000AF919F918F917F916F915F914F913F912B
:105540002F910F900BBE0F900FBE0F901F901895CC
:1055500087EB92E0BACF81E08093020180E18093F3
:1055600001011092F004E1CF81E08093020180916B
:1055700001018150809301018111D7CF80910E05E7
:105580008823E1F180910E05853008F04AC08091B2
:105590000E05482F50E08093EF0468E075E089EE37
:1055A00094E00E94B13010920E054091EF04A42FB8
:1055B000B0E08091E904A751BB4F8C93423068F072
:1055C000EAEEF4E02EEF240F30E025513B4F9191AD
:1055D00089278C93E217F307D1F74F5F4093EF04CD
:1055E00017C01092020187E08093000182E080934F
:1055F000F0049BCF31503093000197CF8FEF809311
:10560000E9041092EA048093EB0483E08093EF04B2
:105610001092E80480E18093010181E08093F0041E
:1056200084CF45E050E085E0B6CF8D3048F4E82FD8
:10563000F0E0EE0FFF1FEE54FB4F80819181089543
:105640008EE594E00895CF93DF93EC0180E090E045
:105650000E94C7339EE0FE0111929A95E9F7982FB8
:105660009170988382FB222720F9298381FB2227CE
:1056700020F92B8383FB882780F98C83911117C035
:1056800081E090E00E94C7338A8382E090E00E942C
:10569000C7338B8784E090E00E94C7338C8783E018
:1056A00090E00E94C7338D87DF91CF9108951A82D1
:1056B000ECCFCF93DF93EC01688189818111646025
:1056C0008B818111626080E090E00E94CF336A811B
:1056D000603108F06FE081E090E00E94CF336B858D
:1056E00082E090E00E94CF336C8584E090E00E94DD
:1056F000CF336D8583E090E0DF91CF910C94CF3371
:1057000068E080E090E00E94CF3361E081E090E0CB
:105710000E94CF3362E082E090E00E94CF3360E0ED
:1057200083E090E00E94CF3362E084E090E00C944C
:10573000CF33CF92DF92EF92FF921F93CF93DF93FD
:10574000EC01C60FD71FCE010E94C733C82ED12C43
:10575000E12CF12CFC2CEE24DD24CC24CE0101968E
:105760000E94C733E82ACE0102960E94C733182F41
:10577000CE0103960E94C733A7019601282BDA01B8
:10578000C901BC01CD01712BDF91CF911F91FF9019
:10579000EF90DF90CF9008957F928F929F92AF927B
:1057A000BF92CF92DF92EF92FF920F931F93CF930E
:1057B000DF938B018F3008F07CC0C82FD0E0229699
:1057C000CC0FDD1FC295D295D07FDC27C07FDC27B0
:1057D000CE0102967C2EBD2E4E012FEF821A920A28
:1057E0006E0143E0C40ED11C7E0154E0E50EF11CB5
:1057F00021E1F80111922A95E9F70E94C733A82EFA
:10580000872D9B2D0E94C733B82EC4010E94C73339
:105810002B2D30E0322F2227A901482BCA01F80195
:1058200091838083A0FE09C021E022838038910506
:1058300008F054C0F80191838083C6010E94C733E9
:10584000853608F084E6F8018383C7010E94C733D8
:10585000811101C081E0F801848365E070E0CE0130
:105860000E94992BF801658776878787908B69E07E
:1058700070E0CE010E94992BF801658376838783BF
:1058800090876DE070E0CE010E94992BF80161874E
:10589000728783879487DF91CF911F910F91FF903B
:1058A000EF90DF90CF90BF90AF909F908F907F90C0
:1058B000089524E2E22E22E0F22E33E2C32E32E0FB
:1058C000D32E41E2842E42E0942E50E2752E62E007
:1058D000B62E82E292E0C0E2D2E08ACF8FE790E07B
:1058E000A9CF2F923F924F925F926F927F928F92A9
:1058F0009F92AF92BF92CF92DF92EF92FF920F935F
:105900001F93CF93DF93CDB7DEB765970FB6F894AB
:10591000DEBF0FBECDBF7D8B6C8B8F3008F038C1E2
:1059200090E00296880F991F82959295907F982714
:10593000807F98275C012FEFA21AB20A6C0132E037
:10594000C30ED11C7C01E3E0EE0EF11C2C01F4E04F
:105950004F0E511C9C012B5F3F4F3B832A83FC0160
:105960003696FD83EC832E5F3F4F3F832E83329626
:10597000F987E8872E5F3F4F3B872A873296FD875E
:10598000EC872E5F3F4F3F872E873296F98BE88B4F
:105990002E5F3F4F3B8B2A8B1C013EE0230E311CB8
:1059A0008C01015F1F4F3C01E0E16E0E711CEC8920
:1059B000FD892281211132C1EC89FD89808091808D
:1059C000F0E18F16F7E29F0608F031C11982EC89E9
:1059D000FD8945855685678570897F71458756871E
:1059E0006787708B45815681678170857F7145839C
:1059F00056836783708741855285638574857F717F
:105A00004187528763877487692D0E94CF33682D41
:105A1000C5010E94CF336981C6010E94CF33EC8952
:105A2000FD896381653608F064E6C7010E94CF33C3
:105A3000EC89FD896481611101C061E0C2010E94AD
:105A4000CF33EC89FD8985859685A785B0896B2F35
:105A50007727882799278A819B810E94CF33EC89F9
:105A6000FD8985859685A785B089BD0188279927F9
:105A70008C819D810E94CF33EC89FD898585968537
:105A8000A785B089692F7A2F8B2F99278E819F81C7
:105A90000E94CF33EC89FD896585888599850E94B0
:105AA000CF33EC89FD8985819681A781B0856B2FE5
:105AB0007727882799278A859B850E94CF33EC8991
:105AC000FD8985819681A781B085BD0188279927A9
:105AD0008C859D850E94CF33EC89FD8985819681D7
