:100000000C947C030C949B030C949B030C949B0317
:100010000C949B030C949B030C949B030C949B03E8
:100020000C949B030C949B030C949B030C949B03D8
:100030000C949B030C94052B0C949B030C949B0336
:100040000C949B030C949B030C949B030C949B03B8
:100050000C949B030C949B030C949B030C949B03A8
:100060000C949D030C949B030C949B030C949B0396
:100070000C949B030C949B030C949B030C949B0388
:100080000C9429040C949B030C949B0389067C0616
:10009000700662064E0601063B062A061806230C69
:1000A0009F0CD1156509650965096509650965092B
:1000B00065096B1513146509650965096509650905
:1000C00065096509650965096509650965096509C0
:1000D00065096509650965096509650965096509B0
:1000E00065096509650965096509650965096509A0
:1000F0006509650965096509650965096509650990
:10010000650965096509650965096509650965097F
:10011000650965096509650965096509650965096F
:10012000650965096509650965096509650965095F
:10013000650965096509650965096509650965094F
:10014000650965096509650965096509650965093F
:10015000650965096509650965096509650965092F
:10016000650965096509EE0B050C831765096509C5
:100170005718CA17041565096509B3147D126A1268
:10018000831623126B16E4157F1467146509D711C3
:100190002C11141165096509EF102E151C15650940
:1001A0006509B90BD00B6018650965095D1708135F
:1001B000F61265096509840B9B0BC20D650965097B
:1001C000BA0DC90EB10E65096509750E100EE80D60
:1001D000200B370BB51365096509650965096509C4
:1001E000650965096509650965096509650965099F
:1001F000650965096509650965096509650965098F
:10020000650965096509650965096509650965097E
:10021000650965096509650965096509650965096E
:10022000650965096509650965096509650965095E
:10023000650965096509650965096509650965094E
:10024000650965096509650965096509650965093E
:10025000650965096509650965096509650965092E
:10026000650965096509650965096509650965091E
:10027000650965097D135E134513F2136509DC13E7
:10028000FC13E111650965095F142C14E812650976
:100290006509D8127F0F6C0FCB1A721A5A1A301ACE
:1002A000741953190F1A9E19F718D318B4188A180D
:1002B000321BBE1DB31DA81D9D1D921D871D7C1DDB
:1002C000711D661D5B1DC91D7423B922A522A522BF
:1002D000A52278127812952295229522781278120A
:1002E0008122812278128122A924A924A924A2246E
:1002F000881F881FA924A9249B24881F881FA9243C
:100300009424881F8624D62AC62AA82AC62A8F2A79
:10031000C62A762AC62A522AC62AE72AC62A50524E
:1003200045535320414E59204B455900556E61624B
:100330006C6520746F2064726177004F48204E4FC7
:100340002120204552524F522100000000424143DB
:100350004B005265626F6F7400646F6E65004545B7
:1003600050524F4D2E2E2E20005245534554544985
:100370004E472E2E2E0000594553210000434E4378
:100380004C002020202045564552595448494E479C
:100390003F202020202000202020205245414C4C8E
:1003A00059204552415345202020200059455321D2
:1003B000000000434E434C0074696D657320746FF8
:1003C00020636F6E6669726D005072657373205999
:1003D0004553206E206D6F726500434C454152209D
:1003E000414C4C2053455454494E47533F00005311
:1003F00050442B00005350442D00463C3E520042D6
:1004000041434B0052756E2053706565643A004D50
:10041000616E75616C2041646A7573746D656E748C
:10042000005B205D204E6F005B205D2059657300EE
:1004300059455300204E4F20005341564500434E2E
:10044000434C0053746F702052656C6561726E731B
:10045000204469723A005B205D20506175736564C9
:10046000005B205D2052756E6E696E670052554EBE
:100470000050415553005341564500434E434C00F4
:100480005374617274204C6F636F6D6F746976651D
:100490003A005B205D2044432054726B204F7574FA
:1004A000707574005B205D204443432054726B20C0
:1004B0004F757470757400444343002044430053E7
:1004C00041564500434E434C005B205D2044697318
:1004D00061626C65005B205D20456E61626C650049
:1004E000454E424C004453424C0053415645004354
:1004F0004E434C0000205550200000444F574E0002
:10050000534C4354004241434B00202B2B200020EE
:100510003E3E20005341564500434E434C00536538
:10052000636F6E64733A20004D6964706F696E7416
:100530002044656C617900202B2B2000203E3E205A
:10054000005341564500434E434C005365636F6E64
:1005500064733A2000456E64706F696E7420446560
:100560006C617900202B2B2000202D2D2000534181
:10057000564500434E434C005365636F6E64733AB7
:1005800020004261636B6C696768742054696D6513
:100590006F757400202B2B2000203E3E200053411D
:1005A000564500434E434C00202B2B2000203E3E5E
:1005B00020004E45585400434E434C00202B2B2026
:1005C00000203E3E20004E45585400534156450001
:1005D000434E434C00202B2B2000203E3E20005356
:1005E00041564500434E434C00002055502000002A
:1005F000444F574E00534C4354004241434B00007C
:10060000205550200000444F574E00534C43540097
:100610004241434B0000205550200000444F574EAC
:1006200000534C435400434E434C004C4F41440054
:10063000004D414E4C0053544F500052554E210036
:10064000434F4E46002853544F5029002A2A204633
:1006500041554C54202A2A00524D503A00535044E0
:100660003A002A44432A004144523A002020777736
:10067000772E69617363616C65642E636F6D2020F2
:1006800000496F7761205363616C656420456E6734
:100690002032303230002053687574746C6520430A
:1006A0006F6E74726F6C6C657220002020202020A9
:1006B000202020202020202020202020202020005A
:1006C0001F1F1F0000001F1F1F1F1F1F1F1F1E1C9B
:1006D00000000000001F1F1F1F1F1F1F1F1F0F07ED
:1006E0001C1E1F1F1F1F1F1F1F1F1F0000000000B9
:1006F000070F1F1F1F1F1F1F11241FBECFEFD0E4A6
:10070000DEBFCDBF14E0A0E0B1E0E0E0FBE600E03A
:100710000BBF02C007900D92AA3FB107D9F725E0A1
:10072000AAEFB4E001C01D92AF35B207E1F70E9415
:10073000E3060C947E350C9400001F920F920FB6C6
:100740000F9211240BB60F922F933F934F935F9309
:100750006F937F938F939F93AF93BF93EF93FF9389
:10076000209178003091790080910C0591E0980FEC
:1007700090930C05E82FF0E0EE0FFF1FEE0FFF1F28
:10078000E450FB4F4081518162817381420F531FBE
:10079000611D711D4083518362837383943049F1DD
:1007A0008B5F982F977080917C00807F892B80933E
:1007B0007C008091FB0487FD25C08091110584FD9C
:1007C00005C080917A00806480937A00FF91EF9158
:1007D000BF91AF919F918F917F916F915F914F9159
:1007E0003F912F910F900BBE0F900FBE0F901F9057
:1007F00018958091FB048F5F8093FB0410920C0589
:1008000094E0D1CFACEFB4E080E090E04D915D9109
:100810006D917C91139727E076956795579547954D
:100820002A95D1F7FC01EE0FFF1FEF5DFA4F5183C0
:1008300040831D921D921D921D9201968430910558
:1008400029F71092FB0480911105806180931105B6
:10085000B4CF1F920F920FB60F9211248F939F93D4
:100860008091FA048F5F8093FA0480FF05C0909115
:1008700011059160909311058A30C8F01092FA0426
:10088000809114059091150501969093150580931C
:10089000140580911205909113050196909313050C
:1008A00080931205809111058660809311059F91B8
:1008B0008F910F900FBE0F901F90189587B1837C7A
:1008C00087B988B18C6388B98AB18F738AB98BB1C3
:1008D000806C8BB987B18F7387B988B1806C88B908
:1008E00052985A9A089529B186B1807C90E0880F79
:1008F000991F880F991F207C822B26B12C7330E022
:1009000035952795359527954A9907C040E050E0E1
:10091000822B932B842B952B089540E250E0822B61
:10092000932B842B952B089514BEA8959EE088E107
:100930000FB6F894A895809360000FBE9093600066
:1009400010921105A895E6E3F5E086E0DF011D921F
:100950008A95E9F716820E945E04249A2C9A8CE00C
:100960000E948C270E94422760E080E00E941A27A4
:10097000109295001092940082E597E09093990070
:1009800080939800109290008BE0809391001092D9
:100990009200C19AE1E7F0E080818260808310924A
:1009A000150510921405109213051092120584E497
:1009B00080937C00EAE7F0E087E1808310927B007F
:1009C00080EF80937E008081886D80837894089585
:1009D0000F931F93CF93DF93CDB7DEB768970FB612
:1009E000F894DEBF0FBECDBF0E94042860E080E017
:1009F0000E941A2760E080E00E941A278E010F5F94
:100A00001F4F88E1F80111928A95E9F71F9281E062
:100A10008F931F928F9383E091E09F938F931F9307
:100A20000F930E947F32C8010E946A2761E080E034
:100A30000E941A2786E996E00E947A2762E080E009
:100A40000E941A2781E896E00E947A2763E080E0FE
:100A50000E941A278CE696E00E947A270FB6F89437
:100A6000DEBF0FBECDBF8EE1A8953FE799EAE3E078
:100A700031509040E040E1F700C000008150A1F704
:100A80000E94422768960FB6F894DEBF0FBECDBF16
:100A9000DF91CF911F910F910895CF92DF92EF9246
:100AA000FF920F931F93CF93DF9300D000D0CDB769
:100AB000DEB76B837C830B811C81025E1F4F29EFA5
:100AC000240F29834B504A83982F9470D92ECC241D
:100AD000C394E82FEC70EE2E8870F82EEB81FC8129
:100AE00080819181009739F024812B30A9F12C303D
:100AF00039F12A30A9F08B819C8105969C838B83E8
:100B00008017910759F70F900F900F900F90DF917A
:100B1000CF911F910F91FF90EF90DF90CF900895AC
:100B2000F981F230F8F0FA81F23028F7EB81FC819C
:100B30002381222301F3138260E00E948728DBCF08
:100B4000F981F23080F7EE2071F3EB81FC81C382F2
:100B500061E00E948728CFCFF981F23020F7DD20B5
:100B600011F3F3CFFF20F9F2F0CF9F92AF92BF9233
:100B7000CF92DF92EF92FF920F931F93CF93DF9369
:100B800000D01F92CDB7DEB7D82E6A837B83EA8070
:100B9000FB802EE1E20EF11CBB24BA94B40E807CE3
:100BA000A82E99249394455049839D2D9074C92E65
:100BB000AA81BB818D919C911197009711F1149698
:100BC000EC910E2F10E0F8013197E930F105C8F4EF
:100BD000EA5BFF4F0C940B32CC2039F0AA81BB8129
:100BE00013969C9261E00E948728AA2021F1AA8195
:100BF000BB8113969C92139761E08D919C910E940A
:100C000087288A819B8105969B838A83E816F9064B
:100C100079F60F900F900F90DF91CF911F910F9168
:100C2000FF90EF90DF90CF90BF90AF909F9008958E
:100C3000F981F230D0F2B1E0BB1518F3EA81FB8103
:100C400083818823F1F2138260E0808191810E9488
:100C50008728D7CFF981F23008F4BECFA1E0AB15D9
:100C600080F2EA81FB812381222359F2138260E022
:100C70000E948728E3CFF981F23008F457C0B1E031
:100C8000BB1508F4BECFEA81FB812381222309F43E
:100C9000B8CF138260E00E948728B3CFAA2009F45E
:100CA000B0CFEA81FB816381692563830E94872835
:100CB0008A819B8105969B838A83E816F90609F051
:100CC00077CFA7CFCC2009F49CCFAA81BB81139604
:100CD0006C911397692513966C930E94872891CF86
:100CE000D7FCDFCF8A819B8105969B838A83E81698
:100CF000F90609F05DCF8DCFD7FC22C0CC2009F4D6
:100D000080CFAA81BB8113969C9261E00E948728C4
:100D100078CFD7FC0EC0CC2009F473CFAA81BB8159
:100D200013961C9260E00E9487286BCFD7FEA7CF56
:100D3000E8CFEA81FB81938261E00E94872861CF3E
:100D4000EA81FB81138260E00E9487285ACFAF922C
:100D5000BF92CF92DF92EF92FF920F931F93CF93A8
:100D60005C016B017A01890163E080E00E941A272F
:100D7000C4E180E20E944827C150D9F763E080E0D7
:100D80000E941A27C5010E947A2763E085E00E942D
:100D90001A27C6010E947A2763E08AE00E941A2778
:100DA000C7010E947A2763E08FE00E941A27C801DA
:100DB000CF911F910F91FF90EF90DF90CF90BF9058
:100DC000AF900C947A27CF93DF93CDB7DEB7CC5A90
:100DD000D1090FB6F894DEBF0FBECDBF83E0CD576B
:100DE000DF4F8883C358D040CC57DF4F8883C45827
:100DF000D040CB57DF4F8883C558D040CA57DF4F0C
:100E00008883C658D0409E01285C3F4FC757DF4FAC
:100E100039832883C958D04089E1D901E82F1D9230
:100E2000EA95E9F729513109C957DF4F39832883FA
:100E3000C758D040D9011D928A95E9F70E949404C1
:100E4000CE018A599F4F0E94E32B81E0AC968FAF71
:100E5000AC97BE01685C7F4FA9968FADA9970E94A1
:100E60008C2CFE0131967F0110E0B701812F0E948A
:100E700042301F5FF5E0EF0EF11C1630B1F7A79678
:100E80008FADA79781110C9475260E9438298E0189
:100E90000F5F1F4FD8018D919C911197009731F0F2
:100EA00014962C91149721110C94B6230B5F1F4FAD
:100EB000C957DF4F28813981C758D04020173107E3
:100EC00049F70E94E804A895AA968FADAA97AC9618
:100ED0008FAFAC978BAD34E6839FC0011124E096B1
:100EE0009FAF8EAFE097E4968FADE4976AE0869F60
:100EF000A0011124CC56DF4F59834883C459D040F8
:100F000080E090E0DC01AA24AA94BA2CC157DF4FFC
:100F100019821882CF58D040CF56DF4F19821882DD
:100F2000C159D040CD56DF4F1882C359D040C85563
:100F3000DF4F1882C85AD040C955DF4F1882C75AB0
:100F4000D040CA55DF4F1882C65AD040CB55DF4F2C
:100F50001882C55AD040212C312CC12CC357DF4FE9
:100F60001882CD58D040C256DF4F1882CE59D0409B
:100F7000C755DF4F1882C95AD040412CC156DF4FA8
:100F800019821882CF59D040CF55DF4F198218826D
:100F9000C15AD040C856DF4F19821882C859D04074
:100FA000CA56DF4F19821882C659D040CD55DF4F3F
:100FB00019821882C35AD040C257DF4F1882CE58C8
:100FC000D040C656DF4F1882CA59D040C556DF4FB1
:100FD0001882CB59D040C456DF4F1882CC59D0402C
:100FE000C356DF4F1882CD59D040C455DF4F188209
:100FF000CC5AD040D12CFE01EF5AFF4FC557DF4FDE
:10100000F983E883CB58D04088248394912C5D2CBD
:101010000196A11DB11D80930D0590930E05A0931F
:101020000F05B0931005A8958091110580FD2AC287
:10103000C357DF4F3881CD58D040832F90E08D309B
:10104000910510F40C948518C357DF4F1882CD58C2
:10105000D0408091110582FF7CC0809111058B7F6B
:10106000809311052114310411F00C946D1AE4964B
:101070008FADE497CD56DF4F7881C359D040882398
:1010800011F40C94A91B71110AC0CC56DF4F888152
:101090009981C459D040892B11F00C949A26249A36
:1010A0002C98AC963FADAC97332311F40C94641B91
:1010B000AE961FAE1EAEAE9740E020E0E0E0F0E05E
:1010C000A7968FADA79781110C94A31BC357DF4F31
:1010D0008881CD58D0408550863010F40C945C1B2C
:1010E000C357DF4F8881CD58D0408150823010F4F3
:1010F0000C945C1B31110C945C1BE0968EAD9FAD83
:10110000E097E817F90711F40C943C232996ECAC0E
:10111000FDAC0EAD1FAD299761968CAD9DADAEAD0A
:10112000BFAD6197E82AF92A0A2B1B2BF7FF02C0F3
:101130000C94F61B21968CAD9DADAEADBFAD219745
:10114000E82AF92A0A2B1B2B6AAD88AD99AD0E94BB
:1011500099290E94FB298091110581FF48C2809145
:10116000110584FF44C28091250590912605EBE08E
:10117000E89FA001E99F500D11249A01A3E4B8E073
:101180000E941432481B590B56954795840F951FA2
:10119000AC01529542954F7045275F704527CD555C
:1011A000DF4F59834883C35AD040809121059091E5
:1011B0002205E89FA001E99F500D11249A010E9489
:1011C0001432481B590B56954795840F951FBC0147
:1011D000729562956F7067277F706727CA56DF4FD9
:1011E00079836883C659D040809123059091240566
:1011F000E89FA001E99F500D11249A010E9414322A
:10120000481B590B56954795840F951FDC01B295E5
:10121000A295AF70AB27BF70AB27C856DF4FB9831D
:10122000A883C859D040809127059091280544E6AD
:10123000489F9001499F300D112436952795A1E8CC
:10124000BBE40E9414320024880F991F001C880FF1
:10125000991F001C892F902DCF55DF4F99838883CC
:10126000C15AD040A7968FADA797882311F40C944C
:10127000CB1BCA56DF4FE881F981C659D040C15611
:10128000DF4FF983E883CF59D040C856DF4F28811C
:101290003981C859D040E217F30730F4C156DF4F07
:1012A00039832883CF59D040809111058D7E80935A
:1012B000110580917A00806480937A0021E08C2D62
:1012C00090E08D3F910508F499C160E080E00E94B4
:1012D0001A278BE393E00E947A2761E083E00E9463
:1012E0001A278CE293E00E947A271F92CF9289E519
:1012F00093E09F938F931F9285E18F93C457DF4FA5
:10130000B881CC58D040BF93C557DF4FE881CB5848
:10131000D040EF930E94423262E083E00E941A279D
:10132000CE018F5A9F4F0E946A2763E083E00E949C
:101330001A278EE193E00E947A27852D8F700FB6D1
:10134000F894DEBF0FBECDBF11F00C948B21512C51
:1013500080911205909113050A9708F0ACC1809115
:101360000D0590910E05A0910F05B091100550CE7E
:1013700053FE02C00C94232452FC02C00C94562449
:10138000C455DF4FF881CC5AD0408F2F90E0FC013C
:10139000EE0FFF1F8E0F9F1FFC01E959FB4F82814B
:1013A000882311F40C94FE25A7968FADA797811181
:1013B00002C00E94EF29C256DF4F8881CE59D0402B
:1013C0008F5FA9968FAFA997CE018A599F4F0E9430
:1013D000192CBE01685C7F4FA9968FADA9970E941A
:1013E0008C2CAA968FADAA97882311F40C942026F2
:1013F00081E0AC968FAFAC97809112059091130568
:101400000A9710F40C9464268091120590911305AC
:101410000A97909313058093120570910D05C65697
:10142000DF4F7883CA59D04080910E05C556DF4FF3
:101430008883CB59D04090910F05C456DF4F9883D5
:10144000CC59D040A0911005C356DF4FA883CD5989
:10145000D04021E030E040E050E020930D05309393
:101460000E0540930F0550931005A8958091110526
:10147000C357DF4F1882CD58D040C12C80FD02C029
:101480000C94CA1A809111058E7F809311050E94D9
:1014900073048A259B25C157DF4F48815981CF5856
:1014A000D040CF56DF4F28813981C159D0404227E3
:1014B0005327C157DF4F28813981CF58D04020951D
:1014C0003095BC0164237523CF56DF4F7983688341
:1014D000C159D040DC01A223B323C157DF4FB983E8
:1014E000A883CF58D0409B012A2B3B2B20953095C9
:1014F00082239323A826B92695012095309582232F
:101500009323B82FBF705B2EFE01ED57FF4F80E095
:1015100090E055E049E1252D30E0082E02C03595D8
:1015200027950A94E2F720FF70C040839401082EAB
:1015300002C0220F331F0A94E2F72A213B21232BFA
:1015400009F061C028E1208301963196843091052D
:1015500011F7552041F1CC56DF4F88819981C4594C
:10156000D040892B11F00C94EB1BE4968FADE497DF
:10157000882311F40C94EB1BA52DA07F5A2E249ADE
:101580002C9AE4968FADE4972AE0829FF001112413
:10159000CC56DF4FF983E883C459D040CD56DF4F96
:1015A0001882C359D040C257DF4F8881CE58D040EF
:1015B000A5FC02C00C94C81B8F7DA6FC02C00C9435
:1015C000C51B8F77A7FC02C00C94C21B8F7BB0FC9D
:1015D00002C00C94BF1B877FB1FC02C00C94B71BE8
:1015E0008B7FC257DF4F8883CE58D04021CD20E07B
:1015F0008C2D90E08D3F910508F067CEFC01E15BFA
:10160000FF4F0C940B3240839FCF9401082E02C0F1
:10161000220F331F0A94E2F72A213B21232B99F74B
:10162000208121110C94AE269C012C5F3F4FB40108
:1016300002C0660F771F2A95E2F7562A508384CF9F
:101640000E944227AB964FACAB9760E080E00E94CF
:101650001A2783E494E00E947A272EE334E049E3DA
:1016600054E064E374E080E394E00E94A70661E044
:1016700080E00E941A2788E294E00E947A2762E0C4
:1016800080E00E941A2781E294E00E947A27442099
:1016900011F40C94161D61E081E00E941A278AE281
:1016A0000E9448271BE9C12E8091120590911305D5
:1016B0000A9708F454CE80911205909113050A9769
:1016C000909313058093120530910D05C656DF4F98
:1016D0003883CA59D04040910E05C556DF4F488324
:1016E000CB59D04050910F05C456DF4F5883CC5989
:1016F000D04060911005C356DF4F6883CD59D0406C
:1017000080E090E0DC0184CC0E944227A8964FAC98
:10171000A89760E080E00E941A278EED92E00E9478
:101720006A272FEE34E04AEE54E065EE74E080EE76
:1017300094E00E94A70661E080E00E941A2785EDF0
:1017400094E00E947A2762E080E00E941A2789ECE8
:1017500094E00E947A27442011F40C94101D61E05B
:1017600081E00E941A278AE20E9448274EE8C42E90
:10177000EFCD0E944227AA964FACAA9760E080E086
:101780000E941A2780E894E00E947A272BE734E031
:1017900046E754E061E774E08DE694E00E94A70616
:1017A00061E080E00E941A2781E694E00E947A2797
:1017B00062E080E00E941A2786E594E00E947A2782
:1017C000442011F40C94191D62E081E00E941A2754
:1017D0008AE20E94482784E8C82EBACD0E94422798
:1017E000A7964FACA79760E080E00E941A278DEE85
:1017F00092E00E946A2724EC34E04FEB54E06BEB5C
:1018000074E087EB94E00E94A70661E080E00E940C
:101810001A2784EA94E00E947A2762E080E00E941E
:101820001A2782E994E00E947A27442011F40C944C
:10183000131D62E081E00E941A278AE20E94482775
:1018400026E6C22E85CD0E94422760E080E00E94FD
:101850001A2787E696E00E947A27A7968FADA7976A
:1018600081110C945E218AAD882311F40C943421EB
:1018700088AD99AD99279F938F9380ED91E09F93C9
:101880008F931F9285E18F93C457DF4F7881CC5897
:10189000D0407F93C557DF4F8881CB58D0408F937E
:1018A0000E9442320FB6F894DEBF0FBECDBFCE010C
:1018B0008F5A9F4F0E946A2761E080E00E941A279A
:1018C0008DE596E00E947A2762E080E00E941A2768
:1018D00088E596E00E947A279CAD8DEC989F812D3B
:1018E00011248695869586953AE0839F9019112458
:1018F0001F929F931F928F938BED91E09F938F93F5
:101900001F9285E18F93C457DF4F4881CC58D04058
:101910004F93C557DF4F5881CB58D0405F930E94FB
:101920004232CE018F5A9F4F0E946A2762E08AE0BE
:101930000E941A270FB6F894DEBF0FBECDBF60E03D
:1019400089E00E941A27C257DF4F7881CE58D040D5
:1019500075FD02C00C94D41D8CE496E00E947A2799
:1019600061E084E00E941A27AE962EAD3FADAE979F
:10197000C90137FF02C00C94ED2064E670E00E94BC
:10198000D53137FF02C00C94E11E86E47F936F933C
:101990001F928F938CEF91E09F938F931F9285E11D
:1019A0008F93C457DF4F5881CC58D0405F93C557B1
:1019B000DF4F6881CB58D0406F930E944232CE01F6
:1019C0008F5A9F4F0E946A2761E089E00E941A2780
:1019D0000FB6F894DEBF0FBECDBFAC968FADAC97FF
:1019E00081110C94D01EE0962EAD3FADE097C90159
:1019F00037FF02C00C94582164E670E00E94D53194
:101A000037FF02C00C94312186E47F936F931F92BD
:101A10008F9383E092E09F938F931F9285E18F9342
:101A2000C457DF4F9881CC58D0409F93C557DF4FA4
:101A3000A881CB58D040AF930E944232CE018F5A3A
:101A40009F4F0E946A270FB6F894DEBF0FBECDBF2E
:101A500061E080E10E941A27C357DF4FF881CD581B
:101A6000D0408F2F90E0FC013197EC30F10510F45D
:101A70000C94561D85E0E5E6F3E0DE01AC58BF4F5F
:101A800001900D928A95E1F7CE018C589F4F0E94EC
:101A90006A2762E08AE00E941A278CE40E944827A5
:101AA000C257DF4F2881CE58D04027FF02C00C9488
:101AB000DE1E8DE20E944827CB55DF4F3881C55A84
:101AC000D040303811F40C949821CA55DF4F58811A
:101AD000C65AD040503811F40C947B208FE30E94FA
:101AE00048278FE20E94482782E50E944827C25774
:101AF000DF4F6881CE58D04066FD02C00C94411E75
:101B00008AE20E944827CB55DF4F7881C55AD040E2
:101B1000703411F40C94AD21CA55DF4F8881C65A38
:101B2000D040803411F40C9480208FE30E94482729
:101B3000A8968FADA89781110C94AE1EAC968FAD70
:101B4000AC97882311F40C94521D4BE356E0A796F2
:101B50008FADA797882311F40C944E1D80E396E077
:101B600020E436E061E376E00E94A70662E0C62E3C
:101B7000512CEECBA2E9CA2EC256DF4F1882CE59A5
:101B8000D040E6CB50FE02C00C941D1F51FE02C097
:101B90000C940023852D8C7011F40C941C2452FE9F
:101BA00011C081E0411001C080E0A8969FADA897C8
:101BB000981741F0A8968FAFA897CE018A599F4FEA
:101BC0000E94192C0E9442273AE0C32E512CC0CB10
:101BD000852D817111F40C94F01F99E0491611F4D0
:101BE0000C94C423941510F40C9456238CEF840D9C
:101BF000843010F00C94E02327E0241940E050E0FA
:101C00006CEF77E0EB968EAD9FADEB970E94C13005
:101C1000EB969FAF8EAFEB97E7E9CE2E512C98CB8A
:101C200061E080E00E941A27EE968FADEE970E9449
:101C3000D52BEC962FADEC97222311F40C94241F96
:101C400029E831E09F938F933F932F93EB968FADCD
:101C5000EB978F93EA968FADEA978F931F92C256B8
:101C6000DF4F3881CE59D0403F9381E592E09F937A
:101C70008F931F9285E18F93C457DF4F4881CC58D3
:101C8000D0404F93C557DF4F5881CB58D0405F931A
:101C90000E944232CE018F5A9F4F0E946A2762E013
:101CA00080E00E941A278BEA96E00E947A2762E081
:101CB000842D0E941A270FB6F894DEBF0FBECDBF49
:101CC00079E0471611F40C940623741510F40C9463
:101CD00026218CEF840D843010F00C94E1228EE5E7
:101CE0000E944827B8E9CB2E33CB0E944227C25628
:101CF000DF4FE881CE59D0408E2F90E0FC01EE0FEF
:101D0000FF1FEE0FFF1FE80FF91F21E030E02C0F3F
:101D10003D1FE20FF31F85E0DE01A758BF4F019082
:101D20000D928A95E1F784E1EDE3F2E0DE01AF5A2E
:101D3000BF4F01900D928A95E1F7CE018F5A9F4FC8
:101D40000E946A2724EE35E04FED55E06AED75E01C
:101D500085ED95E00E94A70607E9C02E84E0482E95
:101D6000F7CA852D817111F40C945C20C256DF4FA7
:101D7000A881CE59D040AA2311F40C94C221A150BD
:101D8000C256DF4FA883CE59D04022E9C22E512C33
:101D9000DFCA0E944227C256DF4FB881CE59D040D9
:101DA000B53010F00C94311F60EF75E0B1110C9458
:101DB000331F89EE95E02AEF35E045EF55E00E94AC
:101DC000A7068BEAC256DF4FE881CE59D040E89F84
:101DD000D12C11248D2D8695D82EDD0CD80EC12C3A
:101DE000F5E0FD1508F470C0C256DF4F2881CE59CA
:101DF000D0406C2D80E0D21611F40C94B1260E94D4
:101E00001A2780E20E944827ED2CF12C8701000F51
:101E1000111F000F111FF801EE0DFF1D41E050E0F2
:101E20004C0F5D1FE40FF51F8381882311F40C9480
:101E3000AA1E73E5672EF801EE0DFF1D61E070E04C
:101E40006C0F7D1FE60FF71F8281882311F40C941D
:101E5000A61E53E5752E0E0D1F1D81E090E08C0F20
:101E60009D1F080F191FD80114968C910E94D52B25
:101E70001F926F921F927F929F938F93F80181819F
:101E80008F9380818F93FF92EF9225E232E03F9310
:101E90002F931F9255E15F93C457DF4F6881CC5851
:101EA000D0406F93C557DF4F7881CB58D0407F9398
:101EB0000E944232CE018F5A9F4F0E946A270FB66E
:101EC000F894DEBF0FBECDBFC394D39493E0C91284
:101ED00087CF33E9C32E3CCA53FE02C00C94912134
:101EE0008091140590911505242D30E028173907AD
:101EF00011F40C9441234BEFC42E512C29CA80912C
:101F0000140590911505482EA7968FADA7978111BE
:101F10000C94371F0EEB11E0C257DF4F4881CE58AB
:101F2000D04045FF02C006EC11E060E080E00E9476
:101F30001A27C356DF4F5881CD59D0405F93C456FE
:101F4000DF4F6881CC59D0406F93C556DF4F788101
:101F5000CB59D0407F93C656DF4F8881CA59D040B5
:101F60008F931F930F93CD55DF4F28813981C35A2B
:101F7000D040ADECBCEC0E941432969587959695B6
:101F8000879596958795AC01440F551F9C01220FAC
:101F9000331F220F331F220F331F240F351FCD5540
:101FA000DF4FA881B981C35AD040A21BB30B9D015A
:101FB0003F93AF939F938F9384E093E09F938F938E
:101FC0001F9215E11F93C457DF4FB881CC58D04002
:101FD000BF93C557DF4FE881CB58D040EF930E94A5
:101FE0004232CE018F5A9F4F0E946A2761E080E003
:101FF0000E941A27CF55DF4F28813981C15AD0401E
:102000003695279536952795ABE7B4E10E941432B3
:102010009695879544E6489F9001499F300D11247D
:10202000CF55DF4F48815981C15AD040421B530BD5
:102030009A013F934F939F938F93C856DF4F288108
:102040003981C859D040ADECBCEC0E941432969551
:1020500087959695879596958795AC01440F551F62
:102060009C01220F331F220F331F220F331F240F17
:10207000351FC856DF4F68817981C859D040621B2F
:10208000730B9B013F936F939F938F93CA56DF4FC0
:1020900028813981C659D0400E941432969587957F
:1020A0009695879596958795AC01440F551F9C0191
:1020B000220F331F220F331F220F331F240F351F10
:1020C000CA56DF4FA881B981C659D040A21BB30BB5
:1020D0009D013F93AF939F938F938DE193E09F93E7
:1020E0008F931F921F93C457DF4FB881CC58D040B5
:1020F000BF93C557DF4FE881CB58D040EF930E9484
:1021000042320FB6F894DEBF0FBECDBFCE018F5A5C
:102110009F4F0E946A2762E080E00E941A27C25700
:10212000DF4F3881CE58D04032FD02C00C94081FDA
:102130002AEC31E0C257DF4F4881CE58D04043FDF2
:1021400002C00C94041F8DEC91E0C257DF4F588100
:10215000CE58D04056FD02C00C94F71E52E5C2572F
:10216000DF4F6881CE58D04067FF02C00C94011F3A
:102170004DE23F932F939F938F931F925F931F92F4
:102180004F931F9281E08F931F928F931F928AEA41
:102190008F938FED8F938CE38F9381E493E09F93E4
:1021A0008F931F9285E18F93C457DF4F7881CC586E
:1021B000D0407F93C557DF4F8881CB58D0408F9355
:1021C0000E944232CE018F5A9F4F0E946A270FB65B
:1021D000F894DEBF0FBECDBF1CEFC12EB9C80E9460
:1021E000422785E595E00E947A2761E081E00E9420
:1021F0001A278BE495E00E947A27E296AFADE2972A
:10220000C755DF4FA883C95AD04026E435E041E4E2
:1022100055E06CE375E087E395E00E94A706EEE7E2
:10222000CE2EFAE04F2E94C8852D817111F40C94B6
:10223000641FC256DF4FB881CE59D040BB2311F482
:102240000C94DC22B150C256DF4FB883CE59D04037
:1022500049E7C42E512C7CC80E944227C256DF4F4A
:102260005881CE59D0405E3010F00C943B1F6CE189
:1022700076E051110C943D1F85E196E026E236E0B0
:1022800041E256E00E94A7068BEAC256DF4F688102
:10229000CE59D040689FE12C1124E6948E2D880FF2
:1022A000E80EDD24D394DE0C00E010E0F12C862F44
:1022B00090E0C655DF4F99838883CA5AD0403701D2
:1022C000AFEF6A1A7A0AC02EC8018E0D9F1D8E309C
:1022D000910508F061C0C655DF4FE881F981CA5AFF
:1022E000D040E817F90711F40C943323BE01615E66
:1022F0007F4F8D2D0E948C2C6C2D81E00E941A271F
:102300009301200F311FA9968FADA99790E08217F6
:10231000930711F40C94F320F0E29BA14DEC949FF1
:10232000812D11248695869586955AE0859F901972
:102330001124EAA16F8D78A149A1442311F40C94D2
:10234000701E49E151E01F929F931F928F931F923D
:10235000EF937F936F931F92FF933F932F935F931E
:102360004F931F9265E16F93C457DF4F7881CC582C
:10237000D0407F93C557DF4F8881CB58D0408F9393
:102380000E944232CE018F5A9F4F0E946A270FB699
:10239000F894DEBF0FBECDBF0F5F1F4FD394033045
:1023A000110509F090CF5AE7C52E0C94A809A796FD
:1023B0008FADA797882311F40C94281FC12C0C947F
:1023C000A8099BADE0962EAD3FADE09737FF02C068
:1023D0000C94B22186E41F929F931F928F938BEFF0
:1023E00092E09F938F931F9285E18F93C457DF4FA5
:1023F000F881CC58D040FF93C557DF4F2881CB5888
:10240000D0402F930E94423261E08CE00E941A2754
:10241000CE018F5A9F4F0E946A270FB6F894DEBFF5
:102420000FBECDBF852D817111F40C94E11F8BADD2
:10243000843610F00C9427238F5F8BAFE1EFCE2E04
:10244000512C0C94A80962E080E00E941A278BEAC4
:1024500096E00E947A27BE0162587F4F7B0100E020
:1024600010E095E1C92ED02ED7018D917D010F5F2F
:102470001F4F8D3110F40C941C1C45E150E062EBB1
:1024800072E0CE018F5A9F4F0E94333272E0D7160E
:1024900011F40C943B1C7D1510F00C94561C93E029
:1024A000D91611F40C94591EA4E0DA120C94441EAF
:1024B00061E081E10E941A27CE018F5A9F4F0E944E
:1024C0006A2724E0421611F40C94B82693E7C92E2B
:1024D0000C94A809852D817111F40C947C1F842D16
:1024E00090E0FC013497EF30F10510F40C947D225C
:1024F0005FE6C52E512C0C94A80961E084E00E948F
:102500001A27C256DF4FA881CE59D0409BA18DEC2F
:10251000989F812D1124869586958695AA2311F47E
:102520000C9464213AE0839F901911246AA14F8D85
:1025300058A129A1222311F40C94542121E931E05E
:102540001F929F931F928F931F926F935F934F934E
:102550003F932F931F9285E18F93C457DF4F48819C
:10256000CC58D0404F93C557DF4F5881CB58D040FF
:102570005F930E9442320FB6F894DEBF0FBECDBF0C
:10258000CE018F5A9F4F0E946A2762E080E00E942E
:102590001A278BEA96E00E947A2762E0842D0E9437
:1025A0001A278EE50E944827F0E7CF2E0C94A80941
:1025B0000E9442272DE433E04CE453E06BE473E0E7
:1025C0008AE493E00E94A706ABEFCA2E0C94A809F8
:1025D00050FC02C00C947320442011F40C94FB2294
:1025E0004A9416EFC12E512C0C94A809852D8171A7
:1025F00011F40C94A61F86EF840D833010F40C9414
:102600007F2368E8C62E7AE0472E512C0C94A80947
:1026100062E080E00E941A278BEA96E00E947A2707
:1026200061E08AE00E941A271F92C755DF4F688138
:10263000C95AD0406F9388ED92E09F938F931F9279
:1026400085E18F93C457DF4F7881CC58D0407F937A
:10265000C557DF4F8881CB58D0408F930E944232BC
:10266000CE018F5A9F4F0E946A2762E0842D0E94FC
:102670001A278EE50E9448270FB6F894DEBF0FBEDA
:10268000CDBF89E8C82E0C94A809852D817111F45D
:102690000C94B51FC755DF4F5881C95AD0405A3FD7
:1026A00010F00C947822565FC755DF4F5883C95AF3
:1026B000D0400CEEC02E512C0C94A80961E08AE0A9
:1026C0000E941A27C755DF4FE881C95AD040E1114F
:1026D0000C94411F85E0E3EDF2E0DE01AF5ABF4FFD
:1026E00001900D928A95E1F7CE018F5A9F4F0E947B
:1026F0006A278DEEC82E0C94A8090E94422782E812
:1027000095E00E947A2761E081E00E941A2788E71D
:1027100095E00E947A2762E08AE00E941A278AE602
:1027200092E00E946A27E4968FADE4979DEC899F22
:10273000812D1124869586958695880F982F990F5F
:10274000990F890FC755DF4F8883C95AD04023E7B7
:1027500035E04EE655E069E675E084E695E00E94D6
:10276000A7069CEEC92E0C94A80950FE02C00C943A
:10277000EA1E51FE02C00C94BC21852D8C7011F410
:102780000C94192452FE11C081E0411001C080E078
:10279000AA969FADAA97981741F0AB968FAFAB97CB
:1027A000CE018A599F4F0E94192C0E944227BAE0FD
:1027B000CB2E512C0C94A8090E94422760E080E0A7
:1027C0000E941A278FE094E00E947A2761E081E05E
:1027D0000E941A2784E094E00E947A27A1EFCA2E73
:1027E0000C94A80991E0CD56DF4F9883C359D0408F
:1027F000C12C512C0C94A8098BAD882311F40C9496
:10280000111F65EF73E0843610F40C94131F8EEEE5
:1028100093E02FEF33E04AEF53E00E94A706F2EF78
:10282000CF2E0C94A809852D817111F40C948F1F63
:10283000C455DF4FE881CC5AD040EE2311F40C94FC
:10284000D722E150C455DF4FE883CC5AD0407AE01C
:10285000C72E512C0C94A80960E080E00E941A2732
:102860008AED93E00E947A2761E0442011F40C94F1
:10287000252081E00E941A2789EC93E00E947A27A4
:1028800062E081E00E941A2788EB93E00E947A2799
:1028900061E08BE00E941A2780E3840D0E944827A4
:1028A00023EB33E042EB53E061EB73E08CEA93E01F
:1028B0000E94A70687EFC82E512C0C94A8090E94ED
:1028C000422796EFC92E25E0422E0C94A809852DAB
:1028D000817111F40C944320EEE7F0E0EC0FFD1F42
:1028E000E40DF11D808190E001966EE170E00E94A0
:1028F000D531808355E7C52E512C0C94A80962E090
:1029000080E00E941A278BEA96E00E947A278E01C7
:1029100002581F4FF12C75E1E72ED8018D918D01E2
:102920008D3110F40C94311D45E150E062EB72E002
:10293000CE018F5A9F4F0E94333271E061E0F7124F
:102940000C941C1D89E00E941A27CE018F5A9F4FBC
:102950000E946A2781E0481611F40C94D62686E777
:10296000C82E0C94A8090E944227BE01615E7F4FC9
:10297000C256DF4F8881CE59D0400E948C2C1F92C6
:10298000C256DF4F5881CE59D0405F938FE692E018
:102990009F938F931F9285E18F93C457DF4F688178
:1029A000CC58D0406F93C557DF4F7881CB58D0407B
:1029B0007F930E944232CE018F5A9F4F0E946A2716
:1029C0000FB6F894DEBF0FBECDBFC256DF4F988161
:1029D000CE59D04091110C94182062E08AE00E94F8
:1029E0001A278EE50E9448272AE0422E4BEC55E03C
:1029F00020ED35E061EC75E08CEB95E00E94A706D8
:102A0000AFE6CA2E0C94A80950FC02C00C94CC1F4F
:102A1000C256DF4F7881CE59D040772311F40C9401
:102A200073227150C256DF4F7883CE59D0401AE6D8
:102A3000C12E512C0C94A809852D817111F40C9490
:102A4000092086EF840D833010F40C949D23AEE7AB
:102A5000CA2EBAE04B2E512C0C94A80962E080E0FB
:102A60000E941A278BEA96E00E947A2761E08AE0AA
:102A70000E941A271F92C755DF4FB881C95AD0400C
:102A8000BF9388ED92E09F938F931F9285E18F9380
:102A9000C457DF4FE881CC58D040EF93C557DF4F84
:102AA000F881CB58D040FF930E944232CE018F5A1A
:102AB0009F4F0E946A2762E0842D0E941A278EE5AC
:102AC0000E9448270FB6F894DEBF0FBECDBF7FE748
:102AD000C72E0C94A8090E944227C455DF4FF881E5
:102AE000CC5AD040FB3010F00C94E41E6BEF74E035
:102AF000F1110C94E61E84EF94E025E035E040E00F
:102B000055E00E94A7068BEAC455DF4F2881CC5AB6
:102B1000D040289F812D11248695682E660C860D45
:102B2000682E712C7301EE0CFF1CC701860D971DDA
:102B3000AC0149595B4F7A0100E010E0C22ED12C64
:102B4000C655DF4FB982A882CA5AD040B42C452C52
:102B5000502EC301800F911F8C30910570F48C159D
:102B60009D0511F40C944D23652D82E00E941A27D7
:102B7000D7018D919C910E946A270F5F1F4FB3E090
:102B8000EB0EF11C0330110519F7542C4B2CC655D4
:102B9000DF4FA880B980CA5AD040EBE0CE2E0C940B
:102BA000A809222311F0CC24C39450FC02C00C9439
:102BB000741EA7968FADA79781110C94741EF8E729
:102BC000CF2E512C0C94A8090E9442271F92C25666
:102BD000DF4F4881CE59D0404F938CEB92E09F93CA
:102BE0008F931F9285E18F93C457DF4F5881CC5844
:102BF000D0405F93C557DF4F6881CB58D0406F936B
:102C00000E944232CE018F5A9F4F0E946A2723EAC8
:102C100035E04EE955E069E975E084E995E00E9408
:102C2000A7068DE1EF968FAFEF97C158DF4F8883EE
:102C3000CF57D040C058DF4F8883C058D040CF57BF
:102C4000DF4F8883C158D040CE57DF4F8883C258AA
:102C5000D0400CA51DA52EA53FA50FB6F894DEBF4C
:102C60000FBECDBF80E090E004C001968D3191058C
:102C700079F0B901A801082E04C07695679557959B
:102C800047950A94D2F740FFF0CFEF968FAFEF97BA
:102C900008A919A92AA93BA980E090E006C00196DD
:102CA0008D31910511F40C94BA20B901A801082EB8
:102CB00004C076956795579547950A94D2F740FFDB
:102CC000EECFC158DF4F8883CF57D040F5E7CF2EE6
:102CD000412C0C94A809852D817111F40C9450207D
:102CE000EEE7F0E0EC0FFD1FE40DF11D808190E0B8
:102CF00001966EE170E00E94D531808302E7C02E1C
:102D0000512C0C94A8090E9442271F92C256DF4FF3
:102D1000B881CE59D040BF938BE992E09F938F93B7
:102D20001F9285E18F93C457DF4FE881CC58D04084
:102D3000EF93C557DF4FF881CB58D040FF930E94E7
:102D40004232CE018F5A9F4F0E946A2727EB35E00F
:102D500042EB55E06DEA75E088EA95E00E94A7062F
:102D60008DE1EF968FAFEF97C158DF4F8883CF5734
:102D7000D040C058DF4F8883C058D040CF57DF4F76
:102D80008883C158D040CE57DF4F8883C258D04087
:102D90000CA91DA92EA93FA90FB6F894DEBF0FBE3E
:102DA000CDBF80E090E004C001968D31910579F0AF
:102DB000B901A801082E04C07695679557954795E7
:102DC0000A94D2F740FFF0CFEF968FAFEF97CCA0E9
:102DD000DDA0EEA0FFA080E090E004C001968D3160
:102DE000910559F1282FB701A601082E04C0769548
:102DF0006795579547950A94D2F740FFEFCFC15892
:102E0000DF4F8883CF57D04081E0820F8D3121F48E
:102E100014C08F5F8D3189F0B701A601082E04C060
:102E200076956795579547950A94D2F740FFF1CF6D
:102E3000C058DF4F8883C058D040C8A4D9A4EAA4A2
:102E4000FBA480E090E006C001968D31910511F45D
:102E50000C948A20282FB701A601082E04C076956D
:102E60006795579547950A94D2F740FFEDCFCF5716
:102E7000DF4F8883C158D04081E0820F8D3139F413
:102E80000C94A9268F5F8D3111F40C948520B70125
:102E9000A601082E04C076956795579547950A9424
:102EA000D2F740FFEFCFCE57DF4F8883C258D040D4
:102EB00032E7C32E412C0C94A8090E94422788E2D5
:102EC00095E00E947A2761E081E00E941A278EE156
:102ED00095E00E947A27E3965FADE397C755DF4FF1
:102EE0005883C95AD04029E135E044E155E06FE00C
:102EF00075E08AE095E00E94A70698E8C92E2AE0CE
:102F0000422E0C94A80950FC6CC751FE02C00C94D0
:102F1000DE21852D8C7011F40C94112452FE33C0E7
:102F200081E0411001C080E0A7969FADA797981758
:102F300051F1A7968FAFA79741100C9416260E94C7
:102F400038298E010F5F1F4FD8018D919C911197E9
:102F5000009749F014962C911497222321F0129691
:102F60006C910E9487280B5F1F4FC957DF4FE88184
:102F7000F981C758D040E017F10731F7CE018A59DF
:102F80009F4F0E94192C0E9442279AE0C92E512C73
:102F90000C94A8090E944227C256DF4F3881CE59AF
:102FA000D0403E3008F038C766E076E0311136C7D1
:102FB0008FEF95E020E136E04BE056E00E94A70657
:102FC0008BEAC256DF4F4881CE59D040489F812DB1
:102FD00011248695C82ECC0C8C0DC82ED12C712CAA
:102FE000042F10E085E1682E9CE0E92E92E0F92E96
:102FF0005FE0C516D1040CF04FC0C016D10611F425
:103000000C944423BE01615E7F4F8C2D0E948C2C5A
:10301000672D82E00E941A279BA1C114D10411F4EC
:103020000C948F20BDEC9B9F812D11248695869555
:103030008695EAE08E9F901911246AA14F8D58A1C0
:1030400029A1222309F4B7C622E531E01F929F93FC
:103050001F928F931F926F935F934F93DF92CF9244
:103060003F932F931F926F92C457DF4FF881CC5834
:10307000D040FF93C557DF4F2881CB58D0402F93C6
:103080000E9442320FB6F894DEBF0FBECDBFCE0114
:103090008F5A9F4F0E946A2773945FEFC51AD50A13
:1030A00063E07612A5CF0BE6C02E0C94A8091AE6B1
:1030B000C12EC256DF4F1882CE59D0400C94A809B9
:1030C00050FCB5C651FE02C00C94C721852D8C70F2
:1030D00011F40C940E2452FE11C081E0411001C085
:1030E00080E0AA969FADAA97981741F0AA968FAF55
:1030F000AA97CE018A599F4F0E94192C0E944227FD
:103100000AE0C02E512C0C94A809FC01E45BFE4F90
:103110000C940B322BAD5CE95203C0011124E096F4
:103120009FAF8EAFE097C257DF4F8881CE58D04017
:10313000C855DF4F6881C85AD040862311F00C94DF
:1031400029084BE0BE016F5F7F4FC257DF4F888178
:10315000CE58D0400E944D0573E0C357DF4F7883AF
:10316000CD58D0400C942908E0961FAE1EAEE097D3
:103170002114310409F0A6C18BADF4E68F9FC00184
:103180001124E0969FAF8EAFE0972CE0C357DF4F3E
:103190002883CD58D0408091110582FD1FC0212C7D
:1031A000312C0C94A908E0961FAE1EAEE0972114B6
:1031B000310409F087C12BAD3CE93203C001112471
:1031C000E0969FAF8EAFE0974BE0C357DF4F488349
:1031D000CD58D0408091110582FFE1CF809111053B
:1031E0008B7F80931105212C312C0C943708E096AD
:1031F0001FAE1EAEE097AE968EAD9FADAE97892BFB
:1032000011F00C942908E3962FACE397BAE02B9EBB
:1032100010011124EAE0C357DF4FE883CD58D040B6
:103220000C94290880911205909113050A979093A8
:1032300013058093120550910D05C656DF4F588334
:10324000CA59D04060910E05C556DF4F6883CB59EF
:10325000D04070910F05C456DF4F7883CC59D040D1
:1032600080911005C356DF4F8883CD59D04021E0AF
:1032700030E040E050E020930D0530930E05409380
:103280000F0550931005A8958091110535E0C3579F
:10329000DF4F3883CD58D04031EFC32E80FF02C0BE
:1032A0000C94420A512CE0961FAE1EAEE09775E0DA
:1032B000C357DF4F7883CD58D040AE968EAD9FADCB
:1032C000AE97892B11F00C942908E2962FACE29767
:1032D0008AE0289E1001112492E0C357DF4F9883A3
:1032E000CD58D0400C942908C257DF4F8881CE5862
:1032F000D040CB55DF4F9881C55AD040892309F083
:10330000EFC2A8968FADA897882369F0C257DF4F08
:103310008881CE58D040C955DF4FB881C75AD040B8
:103320008B2309F02CC78BADF4E68F9FC0011124CD
:10333000E0969FAF8EAFE0970C942908E0961FAE01
:103340001EAEE097AE968EAD9FADAE97892B11F075
:103350000C942908E3962FACE397AAE02A9E10016B
:103360001124B9E0C357DF4FB883CD58D0400C9437
:10337000290852FC02C00C94EF23E0968EAD9FAD5D
:10338000E0971816190614F00C9481258091120507
:10339000909113050A9710F40C945C248091120507
:1033A000909113050A9790931305809312056091ED
:1033B0000D05C656DF4F6883CA59D04070910E057F
:1033C000C556DF4F7883CB59D04080910F05C45646
:1033D000DF4F8883CC59D04090911005C356DF4F02
:1033E0009883CD59D04021E030E040E050E0209378
:1033F0000D0530930E0540930F0550931005A895C9
:103400008091110536E0C357DF4F3883CD58D04047
:1034100051EFC52E80FF02C00C94420A512CE09659
:103420001FAE1EAEE09786E0C357DF4F8883CD58AE
:10343000D040AE968EAD9FADAE97892B11F00C9417
:103440002908E2962FACE2979AE0299E10011124F8
:10345000A1E0C357DF4FA883CD58D0400C94290872
:10346000C257DF4F8881CE58D040CA55DF4F2881E0
:10347000C65AD040822309F04AC2A8968FADA897B9
:10348000882369F0C257DF4F8881CE58D040C85595
:10349000DF4F4881C85AD040842309F087C62BAD3E
:1034A0006CE96203C0011124E0969FAF8EAFE097F4
:1034B0000C942908E0961FAE1EAEE097211431044B
:1034C00009F43CC28091110582FD02C00C94A90848
:1034D000809111058B7F8093110561E0261A3108D8
:1034E0000C943708E0961FAE1EAEE097211431040D
:1034F00049F741E0BE016F5F7F4FC257DF4F8881C0
:10350000CE58D0400E94B50563E0C357DF4F6883B3
:10351000CD58D04040CE80911205909113050A9766
:103520009093130580931205B0910D05C656DF4F99
:10353000B883CA59D040E0910E05C556DF4FE883E5
:10354000CB59D040F0910F05C456DF4FF883CC59CA
:10355000D04020911005C356DF4F2883CD59D0406D
:1035600041E050E060E070E040930D0550930E059F
:1035700060930F0570931005A89580911105C357AE
:10358000DF4F1882CD58D040CC24C39480FF02C0B6
:103590000C94420A512CE0968EAD9FADE09797FDBA
:1035A00035C28BAD44E6849FC0011124E0969FAFE5
:1035B0008EAFE097AE968EAD9FADAE9718161906FA
:1035C0000CF0CEC1C257DF4F6881CE58D04067FDA6
:1035D0000DC6C357DF4F1882CD58D040CB55DF4FB3
:1035E0001882C55AD040CA55DF4F1882C65AD040FB
:1035F000C955DF4F1882C75AD040C855DF4F1882CF
:10360000C85AD040C257DF4FE881CE58D040E6FDBF
:1036100002C00C94290846E0BE016F5F7F4F8E2FD9
:103620000E94B505F6E0C357DF4FF883CD58D04070
:1036300020E4CB55DF4F2883C55AD04030E8CA5527
:10364000DF4F3883C65AD04048E0C955DF4F488322
:10365000C75AD04054E0C855DF4F5883C85AD040AD
:103660000C9429088BAD34E6839FC0011124E096A9
:103670009FAF8EAFE097C257DF4F8881CE58D040C2
:10368000C955DF4F4881C75AD040842311F00C94AC
:1036900029084CE0BE016F5F7F4FC257DF4F888122
:1036A000CE58D0400E944D0554E0C357DF4F588399
:1036B000CD58D0400C9429082D96ECACFDAC0EAD45
:1036C0001FAD2D970C948C08E096EEADFFADE09702
:1036D000AE960EAD1FADAE97E017F10709F18BADB9
:1036E000853008F49DC024E6829FC00111246CAD92
:1036F00070E00E94D531A8014E1B5F0B57FDD2C070
:10370000CB014617570708F4CA010E171F070CF024
:1037100075C0F801E80FF91FAE96FFAFEEAFAE9798
:103720002F2F221F2227221FCF01F7FD80C064E622
:1037300070E00E94D531462FA7968FADA7978823BA
:1037400011F40C946608622F842F0E9453280C9465
:10375000A908711136C08EEF90E0CC56DF4F9983E7
:103760008883C459D040249A2C9A0C9451088460C0
:10377000C257DF4F8883CE58D0400C941808886019
:103780000C94EC0A80640C94E70A80680C94E20ABA
:1037900080620C94DD0ACA56DF4F48815981C659B0
:1037A000D040C856DF4F68817981C859D040460F54
:1037B000571FC156DF4F59834883CF59D0400C94CF
:1037C0005409AFEFB0E0CC56DF4FB983A883C4599A
:1037D000D0400C944F08CD56DF4F9881C359D0404C
:1037E000992311F40C94C10A0C94BC0A25968CAD53
:1037F0009DADAEADBFAD25970C94A008E017F107C5
:1038000094F0212F221F2227221FC80117FDCEC2AC
:1038100064E670E00E94D531462FF8010C946008F0
:1038200084EF91E064CFF801E81BF90B75CF88278E
:1038300099278E1B9F0B7BCF1F928F93E6EBF2E0B5
:10384000FF93EF931F92CF92C457DF4F3881CC582C
:10385000D0403F93C557DF4F4881CB58D0404F935E
:103860000E9442320FB6F894DEBF0FBECDBF72E0A9
:10387000D7120C944B1261E089E00E941A27CE0106
:103880008F5A9F4F0E946A27E2E04E120C94331227
:1038900062E08AE00E941A278CE692E00E946A2782
:1038A0000C9433125195419551092ACF81E0D812D9
:1038B000EBC161E085E00E941A27CE018F5A9F4F2D
:1038C0000E946A27B1E04B120C94331262E086E04A
:1038D0000E941A278CE692E00E946A270C94331209
:1038E000E0961FAE1EAEE09746E0BE016F5F7F4FD1
:1038F000C257DF4F8881CE58D0400E94B505A6E060
:10390000C357DF4FA883CD58D0400C942908E096C8
:103910001FAE1EAEE09745E0BE016F5F7F4FC257FE
:10392000DF4F8881CE58D0400E94B50535E0C3579F
:10393000DF4F3883CD58D0400C94290842E0BE01B7
:103940006F5F7F4FC257DF4F8881CE58D0400E94B3
:10395000B50574E0C357DF4F7883CD58D0401BCCFA
:10396000C357DF4F1882CD58D040CB55DF4F188258
:10397000C55AD040CA55DF4F1882C65AD040C955E3
:10398000DF4F1882C75AD040C855DF4F1882C85A37
:10399000D040892B11F40C942908C257DF4F68815D
:1039A000CE58D04067FF02C00C94B125C257DF4FFC
:1039B000E881CE58D040E6FD02C00C94290845E0CD
:1039C000BE016F5F7F4F8E2F0E94B505F5E0C35794
:1039D000DF4FF883CD58D04020E8CB55DF4F288308
:1039E000C55AD04030E4CA55DF4F3883C65AD0405C
:1039F00044E0C955DF4F4883C75AD04058E0C85506
:103A0000DF4F5883C85AD0400C9429082BAD5CE98D
:103A10005203C0011124E0969FAF8EAFE097CACD4C
:103A200062E00C94B00B61E00C941A0C62E00C9410
:103A30004C0B61E00C94E50B85E00E941A27CE0147
:103A40008F5A9F4F0E946A27442011F40C94C2267B
:103A5000F39492E0F9120C948D1466E7C62E0C9440
:103A6000A8091F928F93E6EBF2E0FF93EF931F926A
:103A7000EF92C457DF4F3881CC58D0403F93C557A1
:103A8000DF4F4881CB58D0404F930E9442320FB64F
:103A9000F894DEBF0FBECDBF0C949D148BE296E070
:103AA0000C94B00D46E356E00C94A70DE75AFE4F78
:103AB00085E00C940B32EAE6F3E0DE01AC58BF4F30
:103AC00001900D928A95E1F70C94440DEFE6F3E036
:103AD000DE01AC58BF4F01900D928A95E1F70C942E
:103AE000440DE4E7F3E0DE01AC58BF4F01900D92C6
:103AF0008A95E1F70C94440DE9E7F3E0DE01AC5858
:103B0000BF4F01900D928A95E1F70C94440DEEE7BA
:103B1000F3E0DE01AC58BF4F01900D928A95E1F7BA
:103B20000C94440DE3E8F3E0DE01AC58BF4F019084
:103B30000D928A95E1F70C94440DE8E8F3E0DE017C
:103B4000AC58BF4F01900D928A95E1F70C94440D4B
:103B5000EDE8F3E0DE01AC58BF4F01900D928A957D
:103B6000E1F70C94440DE2E9F3E0DE01AC58BF4FFD
:103B700001900D928A95E1F70C94440DE7E9F3E08A
:103B8000DE01AC58BF4F01900D928A95E1F70C947D
:103B9000440DECE9F3E0DE01AC58BF4F01900D920B
:103BA0008A95E1F70C94440DCF55DF4F2881398178
:103BB000C15AD0403695279536952795ABE7B4E1A5
:103BC0000E9414329695879544E6489F9001499F3C
:103BD000300D1124CF55DF4FA881B981C15AD04093
:103BE000A21BB30B9D013F93AF939F938F93C1563D
:103BF000DF4F28813981CF59D040ADECBCEC0E9419
:103C00001432969587959695879596958795AC01EC
:103C1000440F551F9C01220F331F220F331F220F09
:103C2000331F240F351FC156DF4FE881F981CF596B
:103C3000D040E21BF30B9F013F93EF939F938F9331
:103C400086EE91E09F938F931F9285E18F93C457E7
:103C5000DF4FF881CC58D040FF93C557DF4F288104
:103C6000CB58D0402F930E944232CE018F5A9F4FA3
:103C70000E946A270FB6F894DEBF0FBECDBF0C942A
:103C8000B00C8DE20C94810D61E081E00E941A2756
:103C9000CE018F5A9F4F0E946A27442011F40C9442
:103CA000CC26053011F00C94331283E7C82E0C9407
:103CB000A80961E08DE00E941A27CE018F5A9F4F1C
:103CC0000E946A27F3E04F120C94331262E08EE0F8
:103CD0000E941A278CE692E00E946A270C94331205
:103CE00046E351E00C94A31151FCABC252FEF2C466
:103CF000AC969FADAC9781E08927AC968FAFAC971F
:103D0000882309F4BAC5AE961FAE1EAEAE97AB9629
:103D10008FADAB97882309F4EBC580911205909184
:103D200013050A9708F0F7CB80910D0590910E05C9
:103D3000A0910F05B0911005CC24C394C357DF4F59
:103D40001882CD58D040512C0C94080843E4742EAE
:103D50000C942B0F63E4662E0C941B0F8FE20E94D1
:103D6000482789E40E944827C257DF4F8881CE58F0
:103D7000D0408C708C3009F491C5C257DF4F9881C8
:103D8000CE58D04092FDD4C4C257DF4FA881CE5840
:103D9000D040A3FFA4C48CE40E9448270C949E0D3D
:103DA00085E496E00E947A270C94280D88279927AD
:103DB000801B910B2DCD2EE631E048C98AE20C9490
:103DC0005A0D82E50C94C60C6AEF74E085EF94E01E
:103DD0000C947D15FAE9CF2E44244394512C0C9475
:103DE000A80905E6C02E412C512C0C94A8095DE2CF
:103DF000C257DF4F6881CE58D04067FD02C00C9497
:103E0000B8104CE40C94B91083EB92E00C94A5101C
:103E100023EB32E00C949A1065E076E080E096E0C7
:103E2000C9C864EF73E08FEE93E00C940914B3E813
:103E3000CB2E412C512C0C94A8099DE8C92E44246A
:103E40004394512C0C94A8092DE831E00C94220ED7
:103E500069E7C62EC256DF4F1882CE59D0400C9467
:103E6000A8096FEE75E08AEE95E00C94DB0E02EC8B
:103E700011E00C948C0F6BE176E086E196E00C94F7
:103E80003E111F92C755DF4FF881C95AD040FF93AA
:103E900088ED92E09F938F931F9285E18F93C45793
:103EA000DF4F2881CC58D0402F93C557DF4F388142
:103EB000CB58D0403F930E9442320FB6F894DEBFF9
:103EC0000FBECDBF0C947413852D827211F40C9427
:103ED000B809C256DF4FE881CE59D040EE3008F025
:103EE00098C4EF5FC256DF4FE883CE59D04039E720
:103EF000C32E512C0C94A809852D827209F46CC331
:103F0000842D90E0FC013497EF30F10508F497C45C
:103F1000EFE6CE2EF4E04F2E512C0C94A809852DFF
:103F2000827209F452C2C455DF4FF881CC5AD04096
:103F3000FB3008F062C4FF5FC455DF4FF883CC5AF2
:103F4000D0406AE0C62E512C0C94A809852D8272AF
:103F500009F43BC386EF840D823008F053C44394C8
:103F600018E8C12E512C0C94A809852D827209F4F1
:103F700015C2C755DF4F6881C95AD040662309F47E
:103F800024C46A50C755DF4F6883C95AD0401CEE1D
:103F9000C12E512C0C94A80951FE40C3C256DF4FCC
:103FA0008881CE59D0408E3008F0FBC38F5FC25657
:103FB000DF4F8883CE59D040BAE6CB2E512C0C94DB
:103FC000A809852D827209F4D4C98BAD882309F420
:103FD0000BC481508BAF71EFC72E512C0C94A809E4
:103FE000852D827209F473C2B7E04B1609F4EBC554
:103FF000B41508F04AC4F9E04F1609F4DDC52EE007
:1040000042127DC497E9C92E24E0422E512C0C9413
:10401000A809852D827209F4A8C186EF840D82302B
:1040200008F01AC443945EE7C52E512C0C94A809DD
:1040300062E084E00E941A278EE50E94482734E05F
:10404000432E46EC55E00C94F81480E00E941A27A9
:1040500087E993E00E947A2762E080E00E941A27B5
:1040600082E893E00E947A272DE733E04CE753E0A3
:1040700067E773E086E793E00E94A70607EFC02E8C
:10408000512C0C94A80951FEE7C24394A1E045E7E6
:10409000C42EA41508F0B1C4412C512C0C94A809CD
:1040A00051FEACC1439435E012E7C12E341508F43B
:1040B000A0C3512C0C94A809852D827209F475C1F6
:1040C000C256DF4FB881CE59D040B53008F082C318
:1040D000BF5FC256DF4FB883CE59D04092E9C92E98
:1040E000512C0C94A80951FEF9C1442009F401C6D1
:1040F000512C0C94A80982E50E9448270C94710D5C
:1041000082E50E9448270C94980D22E7C22E412C8C
:104110000C94A80942E7C42E412C0C94A8096DEC1C
:10412000969F812D11248695869586957AE0879FA6
:10413000901911241F929F931F928F938AA11F920F
:104140008F93FF92EF921F926F92C457DF4F888137
:10415000CC58D0408F93C557DF4F9881CB58D04073
:104160009F930E9442320FB6F894DEBF0FBECDBFC0
:104170000C944718E5E7CE2E412C0C94A809E09644
:104180001FAE1EAEE09748E0BE016F5F7F4FC25783
:10419000DF4F8881CE58D0400E944D05E8E0C357DC
:1041A000DF4FE883CD58D0400C942908E0961FAE2D
:1041B0001EAEE09747E0BE016F5F7F4FC257DF4FF3
:1041C0008881CE58D0400E944D0557E0C357DF4F3D
:1041D0005883CD58D0400C94290888279927821BF2
:1041E000930B0C94BD0CFAE20C948D1146E0BE01C9
:1041F0006F5F7F4FC257DF4F8881CE58D0400E94FB
:10420000B50576E0C357DF4F7883CD58D04080E8BE
:10421000CB55DF4F8883C55AD04090E4CA55DF4F55
:104220009883C65AD040A4E0C955DF4FA883C75A27
:10423000D040B8E0C855DF4FB883C85AD0400C947E
:104240002908E0EFCE2E512C0C94A8098EE04812DC
:10425000B8C189E692E00E946A27F8E9CF2E0C9453
:10426000A80982E50C94050D89AD8F9388AD8F93D5
:1042700086ED91E09F938F931F9285E18F93C457B2
:10428000DF4FB881CC58D040BF93C557DF4FE8818E
:10429000CB58D040EF930E9442320FB6F894DEBF65
:1042A0000FBECDBF0C94570C28EA31E00C94A0123D
:1042B00088279927821B930B0C94FC0C82E696E0CE
:1042C0000E947A270C945C0CBAE08B9F9019112401
:1042D0001F929F931F928F938AA11F928F9385E8BD
:1042E00092E09F938F931F9285E18F93C457DF4F86
:1042F000E881CC58D040EF93C557DF4FF881CB58B9
:10430000D040FF930E9442320FB6F894DEBF0FBE3A
:10431000CDBF0C94C0120E944227C12C512C0C948A
:10432000A8090E944227BAE0CB2E512C0C94A80970
:1043300086E40E9448278FE20E94482782E50E9477
:104340004827C257DF4F4881CE58D04046FF17C29A
:104350008AE20E9448270C948C0D86E40E9448272C
:104360000C94980D82E50C94EB1152FC6AC353FC3B
:10437000F1C3512C0C94A809EAE9CE2E412C512C02
:104380000C94A80902E9C02E512C0C94A809A3E8AA
:10439000CA2E44244394512C0C94A80952FC30C3D7
:1043A00053FCD1C3512C0C94A80953FC04C252FEF7
:1043B00080C2A6E9CA2E512C0C94A80915E6C12E7C
:1043C00044244394512C0C94A80953FCD7C252FEA8
:1043D00059C2C455DF4F2881CC5AD040822F90E07B
:1043E000FC01EE0FFF1F8E0F9F1FFC01E959FB4FD1
:1043F000128111111FC4512C0C94A80952FE27C21E
:1044000081E090E0A0E0B0E0EF960FACEF9704C041
:10441000880F991FAA1FBB1F0A94D2F78CAB9DABC4
:10442000AEABBFAB41E050E060E070E0C158DF4FA1
:104430000880CF57D04004C0440F551F661F771F18
:104440000A94D2F781E090E0A0E0B0E0C058DF4FDE
:104450000880C058D04004C0880F991FAA1FBB1FF6
:104460000A94D2F7842B952BA62BB72B8CA39DA354
:10447000AEA3BFA341E050E060E070E0CF57DF4F54
:104480000880C158D04004C0440F551F661F771FD5
:104490000A94D2F781E090E0A0E0B0E0CE57DF4F81
:1044A0000880C258D04004C0880F991FAA1FBB1FA4
:1044B0000A94D2F7842B952BA62BB72B88A799A704
:1044C000AAA7BBA7B4E7CB2E512C0C94A80952FC89
:1044D00062C253FC31C3512C0C94A80953FC54C242
:1044E000512C0C94A8093AE6C32E512C0C94A8091F
:1044F0000CEEC02E512C0C94A809EB59FE4F0C94D5
:104500000B3282E1481609F4F8C121E124198BA18C
:1045100041E050E06FEF70E090E00E94C1308BA36B
:104520003FE6C32E512C0C94A8092CE024198AA133
:1045300041E050E064E670E090E00E94C1308AA360
:104540004FE6C42E512C0C94A80927E0241989A108
:104550008111C5C16FE077E240E050E08F8D98A1F6
:104560000E94C13098A38F8F5FE6C52E512C0C940A
:10457000A80989A18111B6C1EF8DF8A1CF01885298
:104580009342883E934008F0EAC1CF0168EE73E0A1
:104590000E94C1318038910508F0E1C121E029A3D2
:1045A00098A38F8F7FE6C72E512C0C94A8093AE070
:1045B000C32E512C0C94A80959E7C52E512C0C94EC
:1045C000A809F8E9CF2E0C94A80952FC04C253FCA8
:1045D00091C2512C0C94A80952FE26C1C256DF4F3D
:1045E000A881CE59D040AA2309F40BC391E7C92E64
:1045F000512C0C94A80956EFC52E512C0C94A809E7
:104600008DE8C82E412C512C0C94A8098BE692E021
:104610000E946A27A8E9CA2E0C94A80953FCC6C0B8
:1046200052FE41C1C455DF4FA881CC5AD0408A2FD9
:1046300090E0FC01EE0FFF1F8E0F9F1FFC01E95958
:10464000FB4F82818111E8C2512C0C94A80971EFB3
:10465000C72E512C0C94A80952FC05C253FC43C22E
:10466000512C0C94A809602F80E00E941A278EE339
:104670000E9448270C947611E12CF12C87010C94B0
:104680008C08512C0C94A809672D80E00E941A27F1
:104690008EE30E9448270C940218602F80E00E944D
:1046A0001A278EE30E9448270C94B415AEE04A12F4
:1046B00087C0EE968FADEE9790E001966DE070E0CA
:1046C0000E94D531EE968FAFEE9767E9C62E512C3A
:1046D0000C94A80953FCC7C0512C0C94A8098DE276
:1046E0000E9448270C949E0DE1EAF3E0DE01AC58ED
:1046F000BF4F01900D928A95E1F70C94440D2CE088
:10470000241940E050E06FEF70E0C755DF4FB881EB
:10471000C95AD0408B2F90E00E94C130C755DF4F5F
:104720008883C95AD04008E8C02E512C0C94A8099F
:1047300082E50E9448270C949E0D2CE0241940E04D
:1047400050E06FEF70E0C755DF4F3881C95AD04055
:10475000832F90E00E94C130C755DF4F8883C95A2C
:10476000D0406EE7C62E512C0C94A80912966C917D
:104770000E948728F801828183830C9456078DE27A
:104780000E9448270C948C0DEC969FADEC9781E02D
:104790008927EC968FAFEC9777E9C72E512C0C94B4
:1047A000A8092AE6C22E512C0C94A8099AE0C92E19
:1047B000512C0C94A809BAE0CB2E512C0C94A809CA
:1047C000E7E9CE2E512C0C94A8091CEEC12E512CD9
:1047D0000C94A80912E9C12E512C0C94A80953FC81
:1047E00007C2512C0C94A80961EFC62E512C0C94D1
:1047F000A809412C512C0C94A8092AE0C22E512C56
:104800000C94A80948E8C42E5AE0452E512C0C946B
:10481000A80949E7C42E512C0C94A809512C0C94DA
:10482000A809512C0C94A80953FCDBC1512C0C9401
:10483000A809512C0C94A809512C0C94A809EC58E7
:10484000FE4F0C940B32C12C512C0C94A80953FC34
:10485000C1C1512C0C94A809EEE7CE2EFAE04F2EE0
:10486000512C0C94A8097AE0C72EC455DF4F18824A
:10487000CC5AD040512C0C94A809CC24C394512C70
:104880000C94A809512C0C94A809E4E04E16B8F138
:10489000439437E9C32E512C0C94A80981E40E945B
:1048A00048270C949E0D512C0C94A809512C0C9463
:1048B000A809512C0C94A80980910D0590910E0522
:1048C000A0910F05B091100561EFC62E56E0C357B9
:1048D000DF4F5883CD58D040512C0C9408086FE717
:1048E00070E03ACE19A2EFE6CE2E512C0C94A80916
:1048F000CC24C394512C0C94A80920E008CE07E9DD
:10490000C02E84E0482E512C0C94A809C256DF4FCB
:104910009881CE59D040BFE6CB2E911182C1AAE03A
:104920004A2E512C0C94A8091FE6C12E02E1402EFC
:10493000512C0C94A8093FE6C32E4FE0442E512C75
:104940000C94A8099FE6C92E2AE0422E512C0C9403
:10495000A80943948FE6C82E512C0C94A80923E093
:1049600040E050E06FE077E2CF010E94C13098A3B1
:104970008F8F6FE6C62E512C0C94A8090E944227F7
:10498000C12C512C0C94A8090E944227BAE0CB2ECE
:10499000512C0C94A809BE0167587F4FC256DF4FB7
:1049A0008881CE59D0400E94FF2F61E070E06C0FEB
:1049B0007D1FC256DF4F4881CE59D04035E0439F1E
:1049C000600D711D1124842F0E94423012E9C12E06
:1049D000512C0C94A809C755DF4FE881C95AD04023
:1049E000E396EFAFE397CE018A599F4F0E94192CAF
:1049F000BAE0CB2E512C0C94A809512C0C94A80988
:104A0000C755DF4F7881C95AD040E4967FAFE4970D
:104A1000AAE07A9FC0011124CC56DF4F9983888386
:104A2000C459D040CE018A599F4F0E94192CCD56AF
:104A3000DF4F1882C359D040BAE0CB2E512C0C94D2
:104A4000A809C755DF4F4881C95AD040E2964FAFF9
:104A5000E297CE018A599F4F0E94192C4AE0C42E3A
:104A6000512C0C94A80981E090E0A0E0B0E0EF9612
:104A70000FACEF9704C0880F991FAA1FBB1F0A94A1
:104A8000D2F78CA79DA7AEA7BFA781E090E0A0E0DA
:104A9000B0E0C158DF4F0880CF57D04004C0880F26
:104AA000991FAA1FBB1F0A94D2F788AB99ABAAAB78
:104AB000BBABBE01615E7F4FC256DF4F8881CE59CE
:104AC000D0400E94452DA9968FADA997C256DF4FC1
:104AD000B881CE59D0408B1709F4EBC089E6C82EB7
:104AE000512C0C94A8090E9442272AE0C22E512C76
:104AF0000C94A8090E944227AAE0CA2E512C0C94BB
:104B0000A80980911205909113050A9710F00C9452
:104B1000121980910D0590910E05A0910F05B0918D
:104B2000100541EFC42E45E0C357DF4F4883CD58F1
:104B3000D040512C0C9408080E944227B2E9CB2E99
:104B4000512C0C94A8090E944227AAE0CA2E512C8D
:104B50000C94A8090E9442273AE0C32E512C0C94D1
:104B6000A80945E0BE016F5F7F4FC257DF4F8881C4
:104B7000CE58D0400E94B50575E0C357DF4F78830B
:104B8000CD58D04080E4CB55DF4F8883C55AD04004
:104B900090E8CA55DF4F9883C65AD040A8E0C9555F
:104BA000DF4FA883C75AD040B4E0C855DF4FB88361
:104BB000C85AD0400C94290867E9C62E7EE0472EDB
:104BC000512C0C94A80947E9C42E59E0452E512CCC
:104BD0000C94A8090E944227AAE0CA2E512C0C94DA
:104BE000A8090E9442276AE0C62E512C0C94A809FD
:104BF0000E944227C12C512C0C94A809512C0C94D2
:104C0000A809BE01615E7F4F80E00E94452D79E6D4
:104C1000C72E512C0C94A8098EE6C82E512C0C944A
:104C2000A80924E0422E512C0C94A8090E942D289A
:104C30000C94BE170E944227C12E512C0C94A80937
:104C400080911205909113050A97F0F18091120559
:104C5000909113050A979093130580931205209164
:104C60000D05C656DF4F2883CA59D04030910E0536
:104C7000C556DF4F3883CB59D04040910F05C456FD
:104C8000DF4F4883CC59D04050911005C356DF4FB9
:104C90005883CD59D04061E070E080E090E06093AF
:104CA0000D0570930E0580930F05909310050C94DD
:104CB000350ABE01685C7F4F8B2F0E948C2C39E631
:104CC000C32E512C0C94A80980910D0590910E05CE
:104CD000A0910F05B0911005C12CC357DF4F18826A
:104CE000CD58D040512C0C9408080E942D280C94CB
:104CF00061070E94422760E080E00E941A2789E64F
:104D000093E00E947A2761E080E00E941A278EE5F6
:104D100093E00E947A270E94BA3089E593E00E94CE
:104D20007A2762E080E00E941A2782E593E00E94E1
:104D30007A27FFCFCC56DF4FE881F981C459D040A4
:104D40003197CC56DF4FF983E883C459D0400C9497
:104D5000B31B52E7C52E412C0C94A80921500C948A
:104D6000A30A0E941A278EE30E9448270C94040F7E
:104D700062E082E10E941A278CE692E00E946A2794
:104D80000C94661262E086E00E941A278CE692E09C
:104D90000E946A270C94281D62E082E00E941A2774
:104DA0008CE692E00E946A270C94511E62E08AE031
:104DB0000E941A278CE692E00E946A270C94AF1496
:104DC000611118C01298119894B19F6094B995B16F
:104DD000907F282F22952F70292B25B9109A00C07B
:104DE00010988F70892B85B9109A00C010989F6019
:104DF00095B90895129AE7CF1298119A84B1807FDD
:104E000084B9109A00C093B1109800C0109A00C0E5
:104E100023B12F70892F8295807F1098822B08955F
:104E20000E94FC2687FDFCCF86E090E00197F1F719
:104E30000C94FC26CF93C82F662361F06130D1F02B
:104E4000623081F00E94102760E084ED8C0FCF91DA
:104E50000C94E0260E94102760E080E88C0FCF9130
:104E60000C94E0260E94102760E084E98C0FCF911B
:104E70000C94E0260E94102760E080EC8C0FCF910C
:104E80000C94E0260E94102760E081E00C94E0265C
:104E9000CF93C82F0E941027CA3029F061E08C2FD1
:104EA000CF910C94E026843148F090EC980F943127
:104EB00078F084518C3250F0C0E801C0C0EC0E9400
:104EC000102760E08C2FCF910C94E026C4EDF7CF33
:104ED000C4E9F5CFCF93DF93EC012196FC018081EB
:104EE000882329F00E94482789918111FBCFDF9107
:104EF000CF910895CF93DF93EC012196FC0184912B
:104F0000882339F00E944827FE018491219681115F
:104F1000F9CFDF91CF910895CF93C82F84B18F60DF
:104F200084B90A9A099A089A80E89BEB0197F1F7ED
:104F3000299A289A109A00C0109880E89AE301975D
:104F4000F1F7109A00C0109880EC90E0FC013197C6
:104F5000F1F7109A00C01098FC013197F1F72898EA
:104F6000109A00C010980197F1F70E94102760E096
:104F700088E20E94E0260E94102760E088E00E94FC
:104F8000E0260E94102760E081E00E94E0260E9457
:104F9000102760E086E00E94E0260E94102760E073
:104FA0008C2FCF910C94E026FF920F931F93CF93F9
:104FB000DF93F62ED72F880F880F880FC0E4C80F15
:104FC0000E94102760E08C2F0E94E0260F2D1D2FDD
:104FD00088E0F82EFC0E0E94102760E08C2F0E94C3
:104FE000E026F801D4910E94102761E08D2F0E94E5
:104FF000E026CF5F0F5F1F4FCF11EDCFDF91CF9135
:105000001F910F91FF90089560EF76E080E00E947D
:10501000D42768EE76E081E00E94D42760EE76E047
:1050200082E00E94D42768ED76E083E00E94D427D6
:1050300060ED76E084E00E94D42768EC76E085E0BD
:105040000E94D42760EC76E086E00E94D4270E947C
:10505000102760E080E80C94E0268BB180638BB968
:105060008AB180638AB9EFE6F0E080818D7F80832A
:1050700087E592E0909387008093860090938B0061
:1050800080938A009093890080938800E1E8F0E0A3
:105090001082109285001092840082EA8093800032
:1050A00089E1808308951F93CF93DF93162F8F3765
:1050B00008F08EE7C7E5D2E0282F30E0A7E5B2E0A0
:1050C0000E9414322EE730E040E050E00E94E931C7
:1050D00011110EC0D0938900C0938800C21BD30B5E
:1050E000D0938B00C0938A00DF91CF911F910895D8
:1050F000CE01821B930B9093890080938800D093FC
:105100008B00C0938A00DF91CF911F910895209169
:105110002F05211132C02091300530913105E091E9
:105120002D05F0E0EE0FFF1FE20FF31F8083977055
:105130008181887F982B918380912D05E82FF0E065
:10514000EE0FFF1FE20FF31F918160FB93F9906355
:1051500091838F5F80932D0590913205891718F008
:1051600010922D0580E090912E05981711F081E0A6
:10517000089581E080932F05089580E008950F93AE
:105180001F93CF93DF93EC018B0150E060E070E060
:10519000C8010E942C328A81882309F45BC08D816A
:1051A000882309F452C0E981F0E0EE0FFF1F8B81E4
:1051B0009C81E80FF91F20818181382F3770C90148
:1051C00003969695879596958795382F3F73306807
:1051D000F801308396958795969587952D5F220FD8
:1051E0002670F0E78F2780778868822BF80181830B
:1051F000E981F0E0EE0FFF1F2B813C81E20FF31FEE
:10520000918193FF0BC08160F8018183E981F0E017
:10521000EE0FFF1F8B819C81E80FF91F9181892F71
:1052200082958F708D5F8370282F2295207F9F7CC1
:10523000922B9183811116C089818F5F89839D8113
:10524000891708F019821A8282E0DF91CF911F91AD
:105250000F91089588819981891B6D810E94B531D4
:10526000892F9ECF82E0DF91CF911F910F910895FA
:1052700084E680933D0510923E052FEF3FEF30937B
:105280003405209333058BB180638BB98AB1806379
:105290008AB987EB92E090938B0080938A00909379
:1052A00089008093880030938700209386001092B5
:1052B0008100109285001092840080E58093800028
:1052C00088E08093810099B189B19295917021E035
:1052D000922785FB882780F9981771F030E821E044
:1052E0003093820089B199B182958170822795FBB4
:1052F000992790F98913F4CF80916F008260809391
:105300006F0089E080938100EFE3F5E0F0933105D1
:10531000E093300580E18093320510922E051092C3
:105320002D0510922F0580E2DF011D928A95E9F785
:105330000895EF92FF920F931F93FC01942F4F3724
:1053400020F19EE79F5F222329F180E0982B909324
:105350003E05309729F1662359F1E038F10598F5BB
:10536000F0933405E093330581E080933505E092B6
:105370002905F0922A0500932B0510932C0580E057
:105380001F910F91FF90EF9008954111DBCF90E0B6
:105390002111DBCF80E8982B90933E053097D9F60A
:1053A00081E0809335051092340510923305DFCFEC
:1053B000E03187E2F80750F4F0933405E0933305C9
:1053C00010923505D4CFEFE7F0E0CACFEFE0F7E277
:1053D000F0933405E093330510923505C8CF84E689
:1053E00080933D0510923E058FEF9FEF909334051B
:1053F000809333050895CF92DF92EF92FF928091D0
:105400003C05811124C090913D05911125C020914A
:10541000330530913405203187E2380788F58091D3
:105420003505811128C0832F806C80933605209329
:10543000370522E0E091200581E08E0F8093200562
:105440004E2F50E04C30510540F110922005FF9056
:10545000EF90DF90CF900895915090933D0510927A
:1054600036051092370582E080933C05FF90EF905F
:10547000DF90CF9008952F772093360521E0DACF83
:105480008FEF809336051092370582E080933C05BC
:10549000FF90EF90DF90CF900895FA01ED57FE4F07
:1054A0000C940B32E22FF0E0EA5CFA4F8EED808331
:1054B00082E0820FE1E0E20FF0E040912905509197
:1054C0002A0560912B0570912C052DE07695679546
:1054D000579547952A95D1F7EA5CFA4F4083809318
:1054E0003C05FF90EF90DF90CF90089581E0820F10
:1054F000E22FF0E04091290550912A0560912B059B
:1055000070912C0539E076956795579547953A95B2
:10551000D1F74F70406AEA5CFA4F4083E0CF81E0F8
:10552000820FE22FF0E04091290550912A05609109
:105530002B0570912C05A5E07695679557954795B5
:10554000AA95D1F74F70406BEA5CFA4F4083C7CF02
:10555000C0902905D0902A05E0902B05F0902C05ED
:10556000B701A6014E71552766277727769567956F
:1055700057954795C0FC90E181E0820FE22FF0E063
:105580004068942BEA5CFA4F9083A9CF46E066E32B
:1055900075E08DE295E00E94BF288111A0CF8FEFCA
:1055A000809336051092370582E099CFE22FF0E024
:1055B000EA5CFA4F8FE3808382E0820FE1E0E20F42
:1055C000F0E090913E05EA5CFA4F908388CFE22F9D
:1055D000F0E0EA5CFA4F8FED808382E0820FE1E039
:1055E000E20FF0E04091290550912A0560912B05CA
:1055F00070912C0594E176956795579547959A9506
:10560000D1F7EA5CFA4F40836ACF1F920F920FB630
:105610000F9211240BB60F922F933F934F935F93EA
:105620006F937F938F939F93AF93BF93EF93FF936A
:1056300080911F058F5F80931F0580FD36C080918C
:105640000201811145C08FEA94E090938B00809312
:105650008A00909389008093880080911E05813094
:1056600009F47FC008F440C08230A9F520911605E6
:1056700030910001E22FF0E0E95EFA4F808190E086
:10568000032E02C0959587950A94E2F78170809366
:10569000020131116FC02F5F2093160580911D0507
:1056A0002817F8F481E080931E05FF91EF91BF91D8
:1056B000AF919F918F917F916F915F914F913F91AA
:1056C0002F910F900BBE0F900FBE0F901F9018954B
:1056D00087EB92E0BACF81E08093020180E1809372
:1056E000010110921E05E1CF81E0809302018091BB
:1056F00001018150809301018111D7CF80913C0538
:105700008823E1F180913C05853008F04AC0809102
:105710003C05482F50E080931D0566E375E087E166
:1057200095E00E94233210923C0540911D05A42F64
:10573000B0E080911705A95EBA4F8C93423068F0B3
:10574000E8E1F5E02EEF240F30E0275E3A4F91912B
:1057500089278C93E217F307D1F74F5F40931D051C
:1057600017C01092020187E08093000182E08093CD
:105770001E059BCF31503093000197CF8FEF809360
:105780001705109218058093190583E080931D0575
:105790001092160580E18093010181E080931E053F
:1057A00084CF45E050E085E0B6CF8D3048F4E82F57
:1057B000F0E0EE0FFF1FE152FB4F808191810895D1
:1057C0008BE894E00895CF93DF93EC0180E090E0C4
:1057D0000E9468359EE0FE0111929A95E9F7982F94
:1057E0009170988382FB222720F9298381FB22274D
:1057F00020F92B8383FB882780F98C83911117C0B4
:1058000081E090E00E9468358A8382E090E00E9407
:1058100068358B8784E090E00E9468358C8783E050
:1058200090E00E9468358D87DF91CF9108951A82AC
:10583000ECCFCF93DF93EC016881898181116460A3
:105840008B818111626080E090E00E9470356A81F6
:10585000603108F06FE081E090E00E9470356B8568
:1058600082E090E00E9470356C8584E090E00E94B8
:1058700070356D8583E090E0DF91CF910C947035A9
:1058800068E080E090E00E94703561E081E090E0A7
:105890000E94703562E082E090E00E94703560E026
:1058A00083E090E00E94703562E084E090E00C9428
:1058B0007035CF92DF92EF92FF921F93CF93DF93D9
:1058C000EC01C60FD71FCE010E946835C82ED12C1F
:1058D000E12CF12CFC2CEE24DD24CC24CE0101960D
:1058E0000E946835E82ACE0102960E946835182F7A
:1058F000CE0103960E946835A7019601282BDA0194
:10590000C901BC01CD01712BDF91CF911F91FF9097
:10591000EF90DF90CF9008957F928F929F92AF92F9
:10592000BF92CF92DF92EF92FF920F931F93CF938C
:10593000DF938B018F3008F090C0C82FD0E0229603
:10594000CC0FDD1FC295D295D07FDC27C07FDC272E
:10595000CE0102967C2EBD2E4E012FEF821A920AA6
:105960006E0143E0C40ED11C7E0154E0E50EF11C33
:1059700029E1F80111922A95E9F70E946835A82ECD
:10598000872D9B2D0E946835B82EC4010E94683572
:105990002B2D30E0322F2227A901482BCA01F80114
:1059A00091838083A0FE09C021E022838038910585
:1059B00008F068C0F80191838083C6010E946835B1
:1059C000853608F084E6F8018383C7010E946835B4
:1059D000811101C081E0F801848365E070E0CE01AF
:1059E0000E94592CF801658B768B878B908F69E02C
:1059F00070E0CE010E94592CF8016583768387837D
:105A000090876DE070E0CE010E94592CF80161870B
:105A100072878387948761E170E0CE010E94592CE0
:105A2000F801658776878787908B65E170E0CE0106
:105A30000E94592CF801618B728B838B948BDF91C0
:105A4000CF911F910F91FF90EF90DF90CF90BF907B
:105A5000AF909F908F907F90089524E2E22E22E0F5
:105A6000F22E33E2C32E32E0D32E41E2842E42E006
:105A7000942E50E2752E62E0B62E82E292E0C0E2F1
:105A8000D2E076CF8FE790E095CF2F923F924F9262
:105A90005F926F927F928F929F92AF92BF92CF92BE
:105AA000DF92EF92FF920F931F93CF93DF93CDB7C7
:105AB000DEB7A5970FB6F894DEBF0FBECDBF7DA3AE
:105AC0006CA38F3008F0B3C190E00296880F991F45
:105AD00082959295907F9827807F98275C012FEF81
